{
	"contracts/UserManagement.sol": {
		"UserManagement": {
			"abi": [
				{
					"inputs": [],
					"stateMutability": "nonpayable",
					"type": "constructor"
				},
				{
					"anonymous": false,
					"inputs": [
						{
							"indexed": true,
							"internalType": "address",
							"name": "userAddress",
							"type": "address"
						},
						{
							"indexed": false,
							"internalType": "string",
							"name": "name",
							"type": "string"
						},
						{
							"indexed": false,
							"internalType": "string",
							"name": "role",
							"type": "string"
						}
					],
					"name": "UserRegistered",
					"type": "event"
				},
				{
					"anonymous": false,
					"inputs": [
						{
							"indexed": true,
							"internalType": "address",
							"name": "userAddress",
							"type": "address"
						},
						{
							"indexed": false,
							"internalType": "string",
							"name": "name",
							"type": "string"
						},
						{
							"indexed": false,
							"internalType": "string",
							"name": "role",
							"type": "string"
						}
					],
					"name": "UserUpdated",
					"type": "event"
				},
				{
					"inputs": [
						{
							"internalType": "address",
							"name": "_userAddress",
							"type": "address"
						}
					],
					"name": "getUser",
					"outputs": [
						{
							"internalType": "string",
							"name": "name",
							"type": "string"
						},
						{
							"internalType": "string",
							"name": "role",
							"type": "string"
						},
						{
							"internalType": "bool",
							"name": "isRegistered",
							"type": "bool"
						},
						{
							"internalType": "string",
							"name": "additionalInfo",
							"type": "string"
						}
					],
					"stateMutability": "view",
					"type": "function"
				},
				{
					"inputs": [
						{
							"internalType": "address",
							"name": "_userAddress",
							"type": "address"
						}
					],
					"name": "getUserRole",
					"outputs": [
						{
							"internalType": "string",
							"name": "",
							"type": "string"
						}
					],
					"stateMutability": "view",
					"type": "function"
				},
				{
					"inputs": [
						{
							"internalType": "address",
							"name": "_userAddress",
							"type": "address"
						}
					],
					"name": "isUserRegistered",
					"outputs": [
						{
							"internalType": "bool",
							"name": "",
							"type": "bool"
						}
					],
					"stateMutability": "view",
					"type": "function"
				},
				{
					"inputs": [],
					"name": "owner",
					"outputs": [
						{
							"internalType": "address",
							"name": "",
							"type": "address"
						}
					],
					"stateMutability": "view",
					"type": "function"
				},
				{
					"inputs": [
						{
							"internalType": "string",
							"name": "_name",
							"type": "string"
						},
						{
							"internalType": "string",
							"name": "_role",
							"type": "string"
						},
						{
							"internalType": "string",
							"name": "_additionalInfo",
							"type": "string"
						}
					],
					"name": "registerUser",
					"outputs": [],
					"stateMutability": "nonpayable",
					"type": "function"
				},
				{
					"inputs": [
						{
							"internalType": "string",
							"name": "_name",
							"type": "string"
						},
						{
							"internalType": "string",
							"name": "_additionalInfo",
							"type": "string"
						}
					],
					"name": "updateUserInfo",
					"outputs": [],
					"stateMutability": "nonpayable",
					"type": "function"
				},
				{
					"inputs": [
						{
							"internalType": "address",
							"name": "",
							"type": "address"
						}
					],
					"name": "users",
					"outputs": [
						{
							"internalType": "string",
							"name": "name",
							"type": "string"
						},
						{
							"internalType": "string",
							"name": "role",
							"type": "string"
						},
						{
							"internalType": "bool",
							"name": "isRegistered",
							"type": "bool"
						},
						{
							"internalType": "string",
							"name": "additionalInfo",
							"type": "string"
						}
					],
					"stateMutability": "view",
					"type": "function"
				}
			],
			"devdoc": {
				"kind": "dev",
				"methods": {
					"getUser(address)": {
						"params": {
							"_userAddress": "The address of the user to retrieve"
						},
						"returns": {
							"additionalInfo": "Additional information about the user",
							"isRegistered": "Whether the user is registered",
							"name": "The name of the user",
							"role": "The role of the user"
						}
					},
					"getUserRole(address)": {
						"params": {
							"_userAddress": "The address of the user"
						},
						"returns": {
							"_0": "The role of the user"
						}
					},
					"isUserRegistered(address)": {
						"params": {
							"_userAddress": "The address of the user to check"
						},
						"returns": {
							"_0": "Whether the user is registered"
						}
					},
					"registerUser(string,string,string)": {
						"params": {
							"_additionalInfo": "Any additional information about the user",
							"_name": "The name of the user",
							"_role": "The role of the user (\"farmer\", \"consumer\", or \"transporter\")"
						}
					},
					"updateUserInfo(string,string)": {
						"params": {
							"_additionalInfo": "The new additional information about the user",
							"_name": "The new name of the user"
						}
					}
				},
				"title": "User Management Contract for Teranga Shen",
				"version": 1
			},
			"evm": {
				"assembly": "    /* \"contracts/UserManagement.sol\":171:3541  contract UserManagement {... */\n  mstore(0x40, 0x80)\n    /* \"contracts/UserManagement.sol\":598:647  constructor() {... */\n  callvalue\n  dup1\n  iszero\n  tag_1\n  jumpi\n  0x00\n  dup1\n  revert\ntag_1:\n  pop\n    /* \"contracts/UserManagement.sol\":630:640  msg.sender */\n  caller\n    /* \"contracts/UserManagement.sol\":622:627  owner */\n  0x01\n  0x00\n    /* \"contracts/UserManagement.sol\":622:640  owner = msg.sender */\n  0x0100\n  exp\n  dup2\n  sload\n  dup2\n  0xffffffffffffffffffffffffffffffffffffffff\n  mul\n  not\n  and\n  swap1\n  dup4\n  0xffffffffffffffffffffffffffffffffffffffff\n  and\n  mul\n  or\n  swap1\n  sstore\n  pop\n    /* \"contracts/UserManagement.sol\":171:3541  contract UserManagement {... */\n  dataSize(sub_0)\n  dup1\n  dataOffset(sub_0)\n  0x00\n  codecopy\n  0x00\n  return\nstop\n\nsub_0: assembly {\n        /* \"contracts/UserManagement.sol\":171:3541  contract UserManagement {... */\n      mstore(0x40, 0x80)\n      callvalue\n      dup1\n      iszero\n      tag_1\n      jumpi\n      0x00\n      dup1\n      revert\n    tag_1:\n      pop\n      jumpi(tag_2, lt(calldatasize, 0x04))\n      shr(0xe0, calldataload(0x00))\n      dup1\n      0x6f77926b\n      gt\n      tag_10\n      jumpi\n      dup1\n      0x6f77926b\n      eq\n      tag_6\n      jumpi\n      dup1\n      0x8da5cb5b\n      eq\n      tag_7\n      jumpi\n      dup1\n      0xa87430ba\n      eq\n      tag_8\n      jumpi\n      dup1\n      0xd637dcfa\n      eq\n      tag_9\n      jumpi\n      jump(tag_2)\n    tag_10:\n      dup1\n      0x163f7522\n      eq\n      tag_3\n      jumpi\n      dup1\n      0x27820851\n      eq\n      tag_4\n      jumpi\n      dup1\n      0x4b3fcab5\n      eq\n      tag_5\n      jumpi\n    tag_2:\n      0x00\n      dup1\n      revert\n        /* \"contracts/UserManagement.sol\":3070:3201  function isUserRegistered(address _userAddress) public view returns (bool) {... */\n    tag_3:\n      tag_11\n      0x04\n      dup1\n      calldatasize\n      sub\n      dup2\n      add\n      swap1\n      tag_12\n      swap2\n      swap1\n      tag_13\n      jump\t// in\n    tag_12:\n      tag_14\n      jump\t// in\n    tag_11:\n      mload(0x40)\n      tag_15\n      swap2\n      swap1\n      tag_16\n      jump\t// in\n    tag_15:\n      mload(0x40)\n      dup1\n      swap2\n      sub\n      swap1\n      return\n        /* \"contracts/UserManagement.sol\":3335:3539  function getUserRole(address _userAddress) public view returns (string memory) {... */\n    tag_4:\n      tag_17\n      0x04\n      dup1\n      calldatasize\n      sub\n      dup2\n      add\n      swap1\n      tag_18\n      swap2\n      swap1\n      tag_13\n      jump\t// in\n    tag_18:\n      tag_19\n      jump\t// in\n    tag_17:\n      mload(0x40)\n      tag_20\n      swap2\n      swap1\n      tag_21\n      jump\t// in\n    tag_20:\n      mload(0x40)\n      dup1\n      swap2\n      sub\n      swap1\n      return\n        /* \"contracts/UserManagement.sol\":1933:2269  function updateUserInfo(string memory _name, string memory _additionalInfo) public {... */\n    tag_5:\n      tag_22\n      0x04\n      dup1\n      calldatasize\n      sub\n      dup2\n      add\n      swap1\n      tag_23\n      swap2\n      swap1\n      tag_24\n      jump\t// in\n    tag_23:\n      tag_25\n      jump\t// in\n    tag_22:\n      stop\n        /* \"contracts/UserManagement.sol\":2589:2910  function getUser(address _userAddress) public view returns (... */\n    tag_6:\n      tag_26\n      0x04\n      dup1\n      calldatasize\n      sub\n      dup2\n      add\n      swap1\n      tag_27\n      swap2\n      swap1\n      tag_13\n      jump\t// in\n    tag_27:\n      tag_28\n      jump\t// in\n    tag_26:\n      mload(0x40)\n      tag_29\n      swap5\n      swap4\n      swap3\n      swap2\n      swap1\n      tag_30\n      jump\t// in\n    tag_29:\n      mload(0x40)\n      dup1\n      swap2\n      sub\n      swap1\n      return\n        /* \"contracts/UserManagement.sol\":411:431  address public owner */\n    tag_7:\n      tag_31\n      tag_32\n      jump\t// in\n    tag_31:\n      mload(0x40)\n      tag_33\n      swap2\n      swap1\n      tag_34\n      jump\t// in\n    tag_33:\n      mload(0x40)\n      dup1\n      swap2\n      sub\n      swap1\n      return\n        /* \"contracts/UserManagement.sol\":368:405  mapping(address => User) public users */\n    tag_8:\n      tag_35\n      0x04\n      dup1\n      calldatasize\n      sub\n      dup2\n      add\n      swap1\n      tag_36\n      swap2\n      swap1\n      tag_13\n      jump\t// in\n    tag_36:\n      tag_37\n      jump\t// in\n    tag_35:\n      mload(0x40)\n      tag_38\n      swap5\n      swap4\n      swap3\n      swap2\n      swap1\n      tag_30\n      jump\t// in\n    tag_38:\n      mload(0x40)\n      dup1\n      swap2\n      sub\n      swap1\n      return\n        /* \"contracts/UserManagement.sol\":1012:1764  function registerUser(string memory _name, string memory _role, string memory _additionalInfo) public {... */\n    tag_9:\n      tag_39\n      0x04\n      dup1\n      calldatasize\n      sub\n      dup2\n      add\n      swap1\n      tag_40\n      swap2\n      swap1\n      tag_41\n      jump\t// in\n    tag_40:\n      tag_42\n      jump\t// in\n    tag_39:\n      stop\n        /* \"contracts/UserManagement.sol\":3070:3201  function isUserRegistered(address _userAddress) public view returns (bool) {... */\n    tag_14:\n        /* \"contracts/UserManagement.sol\":3139:3143  bool */\n      0x00\n        /* \"contracts/UserManagement.sol\":3162:3167  users */\n      dup1\n        /* \"contracts/UserManagement.sol\":3162:3181  users[_userAddress] */\n      0x00\n        /* \"contracts/UserManagement.sol\":3168:3180  _userAddress */\n      dup4\n        /* \"contracts/UserManagement.sol\":3162:3181  users[_userAddress] */\n      0xffffffffffffffffffffffffffffffffffffffff\n      and\n      0xffffffffffffffffffffffffffffffffffffffff\n      and\n      dup2\n      mstore\n      0x20\n      add\n      swap1\n      dup2\n      mstore\n      0x20\n      add\n      0x00\n      keccak256\n        /* \"contracts/UserManagement.sol\":3162:3194  users[_userAddress].isRegistered */\n      0x02\n      add\n      0x00\n      swap1\n      sload\n      swap1\n      0x0100\n      exp\n      swap1\n      div\n      0xff\n      and\n        /* \"contracts/UserManagement.sol\":3155:3194  return users[_userAddress].isRegistered */\n      swap1\n      pop\n        /* \"contracts/UserManagement.sol\":3070:3201  function isUserRegistered(address _userAddress) public view returns (bool) {... */\n      swap2\n      swap1\n      pop\n      jump\t// out\n        /* \"contracts/UserManagement.sol\":3335:3539  function getUserRole(address _userAddress) public view returns (string memory) {... */\n    tag_19:\n        /* \"contracts/UserManagement.sol\":3399:3412  string memory */\n      0x60\n        /* \"contracts/UserManagement.sol\":3432:3437  users */\n      0x00\n        /* \"contracts/UserManagement.sol\":3432:3451  users[_userAddress] */\n      dup1\n        /* \"contracts/UserManagement.sol\":3438:3450  _userAddress */\n      dup4\n        /* \"contracts/UserManagement.sol\":3432:3451  users[_userAddress] */\n      0xffffffffffffffffffffffffffffffffffffffff\n      and\n      0xffffffffffffffffffffffffffffffffffffffff\n      and\n      dup2\n      mstore\n      0x20\n      add\n      swap1\n      dup2\n      mstore\n      0x20\n      add\n      0x00\n      keccak256\n        /* \"contracts/UserManagement.sol\":3432:3464  users[_userAddress].isRegistered */\n      0x02\n      add\n      0x00\n      swap1\n      sload\n      swap1\n      0x0100\n      exp\n      swap1\n      div\n      0xff\n      and\n        /* \"contracts/UserManagement.sol\":3424:3491  require(users[_userAddress].isRegistered, \"User is not registered\") */\n      tag_45\n      jumpi\n      mload(0x40)\n      0x08c379a000000000000000000000000000000000000000000000000000000000\n      dup2\n      mstore\n      0x04\n      add\n      tag_46\n      swap1\n      tag_47\n      jump\t// in\n    tag_46:\n      mload(0x40)\n      dup1\n      swap2\n      sub\n      swap1\n      revert\n    tag_45:\n        /* \"contracts/UserManagement.sol\":3508:3513  users */\n      0x00\n        /* \"contracts/UserManagement.sol\":3508:3527  users[_userAddress] */\n      dup1\n        /* \"contracts/UserManagement.sol\":3514:3526  _userAddress */\n      dup4\n        /* \"contracts/UserManagement.sol\":3508:3527  users[_userAddress] */\n      0xffffffffffffffffffffffffffffffffffffffff\n      and\n      0xffffffffffffffffffffffffffffffffffffffff\n      and\n      dup2\n      mstore\n      0x20\n      add\n      swap1\n      dup2\n      mstore\n      0x20\n      add\n      0x00\n      keccak256\n        /* \"contracts/UserManagement.sol\":3508:3532  users[_userAddress].role */\n      0x01\n      add\n        /* \"contracts/UserManagement.sol\":3501:3532  return users[_userAddress].role */\n      dup1\n      sload\n      tag_48\n      swap1\n      tag_49\n      jump\t// in\n    tag_48:\n      dup1\n      0x1f\n      add\n      0x20\n      dup1\n      swap2\n      div\n      mul\n      0x20\n      add\n      mload(0x40)\n      swap1\n      dup2\n      add\n      0x40\n      mstore\n      dup1\n      swap3\n      swap2\n      swap1\n      dup2\n      dup2\n      mstore\n      0x20\n      add\n      dup3\n      dup1\n      sload\n      tag_50\n      swap1\n      tag_49\n      jump\t// in\n    tag_50:\n      dup1\n      iszero\n      tag_51\n      jumpi\n      dup1\n      0x1f\n      lt\n      tag_52\n      jumpi\n      0x0100\n      dup1\n      dup4\n      sload\n      div\n      mul\n      dup4\n      mstore\n      swap2\n      0x20\n      add\n      swap2\n      jump(tag_51)\n    tag_52:\n      dup3\n      add\n      swap2\n      swap1\n      0x00\n      mstore\n      keccak256(0x00, 0x20)\n      swap1\n    tag_53:\n      dup2\n      sload\n      dup2\n      mstore\n      swap1\n      0x01\n      add\n      swap1\n      0x20\n      add\n      dup1\n      dup4\n      gt\n      tag_53\n      jumpi\n      dup3\n      swap1\n      sub\n      0x1f\n      and\n      dup3\n      add\n      swap2\n    tag_51:\n      pop\n      pop\n      pop\n      pop\n      pop\n      swap1\n      pop\n        /* \"contracts/UserManagement.sol\":3335:3539  function getUserRole(address _userAddress) public view returns (string memory) {... */\n      swap2\n      swap1\n      pop\n      jump\t// out\n        /* \"contracts/UserManagement.sol\":1933:2269  function updateUserInfo(string memory _name, string memory _additionalInfo) public {... */\n    tag_25:\n        /* \"contracts/UserManagement.sol\":2034:2039  users */\n      0x00\n        /* \"contracts/UserManagement.sol\":2034:2051  users[msg.sender] */\n      dup1\n        /* \"contracts/UserManagement.sol\":2040:2050  msg.sender */\n      caller\n        /* \"contracts/UserManagement.sol\":2034:2051  users[msg.sender] */\n      0xffffffffffffffffffffffffffffffffffffffff\n      and\n      0xffffffffffffffffffffffffffffffffffffffff\n      and\n      dup2\n      mstore\n      0x20\n      add\n      swap1\n      dup2\n      mstore\n      0x20\n      add\n      0x00\n      keccak256\n        /* \"contracts/UserManagement.sol\":2034:2064  users[msg.sender].isRegistered */\n      0x02\n      add\n      0x00\n      swap1\n      sload\n      swap1\n      0x0100\n      exp\n      swap1\n      div\n      0xff\n      and\n        /* \"contracts/UserManagement.sol\":2026:2091  require(users[msg.sender].isRegistered, \"User is not registered\") */\n      tag_55\n      jumpi\n      mload(0x40)\n      0x08c379a000000000000000000000000000000000000000000000000000000000\n      dup2\n      mstore\n      0x04\n      add\n      tag_56\n      swap1\n      tag_47\n      jump\t// in\n    tag_56:\n      mload(0x40)\n      dup1\n      swap2\n      sub\n      swap1\n      revert\n    tag_55:\n        /* \"contracts/UserManagement.sol\":2127:2132  _name */\n      dup2\n        /* \"contracts/UserManagement.sol\":2102:2107  users */\n      0x00\n        /* \"contracts/UserManagement.sol\":2102:2119  users[msg.sender] */\n      dup1\n        /* \"contracts/UserManagement.sol\":2108:2118  msg.sender */\n      caller\n        /* \"contracts/UserManagement.sol\":2102:2119  users[msg.sender] */\n      0xffffffffffffffffffffffffffffffffffffffff\n      and\n      0xffffffffffffffffffffffffffffffffffffffff\n      and\n      dup2\n      mstore\n      0x20\n      add\n      swap1\n      dup2\n      mstore\n      0x20\n      add\n      0x00\n      keccak256\n        /* \"contracts/UserManagement.sol\":2102:2124  users[msg.sender].name */\n      0x00\n      add\n        /* \"contracts/UserManagement.sol\":2102:2132  users[msg.sender].name = _name */\n      swap1\n      dup2\n      tag_57\n      swap2\n      swap1\n      tag_58\n      jump\t// in\n    tag_57:\n      pop\n        /* \"contracts/UserManagement.sol\":2177:2192  _additionalInfo */\n      dup1\n        /* \"contracts/UserManagement.sol\":2142:2147  users */\n      0x00\n        /* \"contracts/UserManagement.sol\":2142:2159  users[msg.sender] */\n      dup1\n        /* \"contracts/UserManagement.sol\":2148:2158  msg.sender */\n      caller\n        /* \"contracts/UserManagement.sol\":2142:2159  users[msg.sender] */\n      0xffffffffffffffffffffffffffffffffffffffff\n      and\n      0xffffffffffffffffffffffffffffffffffffffff\n      and\n      dup2\n      mstore\n      0x20\n      add\n      swap1\n      dup2\n      mstore\n      0x20\n      add\n      0x00\n      keccak256\n        /* \"contracts/UserManagement.sol\":2142:2174  users[msg.sender].additionalInfo */\n      0x03\n      add\n        /* \"contracts/UserManagement.sol\":2142:2192  users[msg.sender].additionalInfo = _additionalInfo */\n      swap1\n      dup2\n      tag_59\n      swap2\n      swap1\n      tag_58\n      jump\t// in\n    tag_59:\n      pop\n        /* \"contracts/UserManagement.sol\":2220:2230  msg.sender */\n      caller\n        /* \"contracts/UserManagement.sol\":2208:2262  UserUpdated(msg.sender, _name, users[msg.sender].role) */\n      0xffffffffffffffffffffffffffffffffffffffff\n      and\n      0xe5d18d6612696bff7df1db8015eac613241613297fa2ba2783993e4fd0e76f3d\n        /* \"contracts/UserManagement.sol\":2232:2237  _name */\n      dup4\n        /* \"contracts/UserManagement.sol\":2239:2244  users */\n      0x00\n        /* \"contracts/UserManagement.sol\":2239:2256  users[msg.sender] */\n      dup1\n        /* \"contracts/UserManagement.sol\":2245:2255  msg.sender */\n      caller\n        /* \"contracts/UserManagement.sol\":2239:2256  users[msg.sender] */\n      0xffffffffffffffffffffffffffffffffffffffff\n      and\n      0xffffffffffffffffffffffffffffffffffffffff\n      and\n      dup2\n      mstore\n      0x20\n      add\n      swap1\n      dup2\n      mstore\n      0x20\n      add\n      0x00\n      keccak256\n        /* \"contracts/UserManagement.sol\":2239:2261  users[msg.sender].role */\n      0x01\n      add\n        /* \"contracts/UserManagement.sol\":2208:2262  UserUpdated(msg.sender, _name, users[msg.sender].role) */\n      mload(0x40)\n      tag_60\n      swap3\n      swap2\n      swap1\n      tag_61\n      jump\t// in\n    tag_60:\n      mload(0x40)\n      dup1\n      swap2\n      sub\n      swap1\n      log2\n        /* \"contracts/UserManagement.sol\":1933:2269  function updateUserInfo(string memory _name, string memory _additionalInfo) public {... */\n      pop\n      pop\n      jump\t// out\n        /* \"contracts/UserManagement.sol\":2589:2910  function getUser(address _userAddress) public view returns (... */\n    tag_28:\n        /* \"contracts/UserManagement.sol\":2658:2676  string memory name */\n      0x60\n        /* \"contracts/UserManagement.sol\":2686:2704  string memory role */\n      dup1\n        /* \"contracts/UserManagement.sol\":2714:2731  bool isRegistered */\n      0x00\n        /* \"contracts/UserManagement.sol\":2741:2769  string memory additionalInfo */\n      0x60\n        /* \"contracts/UserManagement.sol\":2786:2802  User memory user */\n      0x00\n        /* \"contracts/UserManagement.sol\":2805:2810  users */\n      dup1\n        /* \"contracts/UserManagement.sol\":2805:2824  users[_userAddress] */\n      0x00\n        /* \"contracts/UserManagement.sol\":2811:2823  _userAddress */\n      dup8\n        /* \"contracts/UserManagement.sol\":2805:2824  users[_userAddress] */\n      0xffffffffffffffffffffffffffffffffffffffff\n      and\n      0xffffffffffffffffffffffffffffffffffffffff\n      and\n      dup2\n      mstore\n      0x20\n      add\n      swap1\n      dup2\n      mstore\n      0x20\n      add\n      0x00\n      keccak256\n        /* \"contracts/UserManagement.sol\":2786:2824  User memory user = users[_userAddress] */\n      mload(0x40)\n      dup1\n      0x80\n      add\n      0x40\n      mstore\n      swap1\n      dup2\n      0x00\n      dup3\n      add\n      dup1\n      sload\n      tag_63\n      swap1\n      tag_49\n      jump\t// in\n    tag_63:\n      dup1\n      0x1f\n      add\n      0x20\n      dup1\n      swap2\n      div\n      mul\n      0x20\n      add\n      mload(0x40)\n      swap1\n      dup2\n      add\n      0x40\n      mstore\n      dup1\n      swap3\n      swap2\n      swap1\n      dup2\n      dup2\n      mstore\n      0x20\n      add\n      dup3\n      dup1\n      sload\n      tag_64\n      swap1\n      tag_49\n      jump\t// in\n    tag_64:\n      dup1\n      iszero\n      tag_65\n      jumpi\n      dup1\n      0x1f\n      lt\n      tag_66\n      jumpi\n      0x0100\n      dup1\n      dup4\n      sload\n      div\n      mul\n      dup4\n      mstore\n      swap2\n      0x20\n      add\n      swap2\n      jump(tag_65)\n    tag_66:\n      dup3\n      add\n      swap2\n      swap1\n      0x00\n      mstore\n      keccak256(0x00, 0x20)\n      swap1\n    tag_67:\n      dup2\n      sload\n      dup2\n      mstore\n      swap1\n      0x01\n      add\n      swap1\n      0x20\n      add\n      dup1\n      dup4\n      gt\n      tag_67\n      jumpi\n      dup3\n      swap1\n      sub\n      0x1f\n      and\n      dup3\n      add\n      swap2\n    tag_65:\n      pop\n      pop\n      pop\n      pop\n      pop\n      dup2\n      mstore\n      0x20\n      add\n      0x01\n      dup3\n      add\n      dup1\n      sload\n      tag_68\n      swap1\n      tag_49\n      jump\t// in\n    tag_68:\n      dup1\n      0x1f\n      add\n      0x20\n      dup1\n      swap2\n      div\n      mul\n      0x20\n      add\n      mload(0x40)\n      swap1\n      dup2\n      add\n      0x40\n      mstore\n      dup1\n      swap3\n      swap2\n      swap1\n      dup2\n      dup2\n      mstore\n      0x20\n      add\n      dup3\n      dup1\n      sload\n      tag_69\n      swap1\n      tag_49\n      jump\t// in\n    tag_69:\n      dup1\n      iszero\n      tag_70\n      jumpi\n      dup1\n      0x1f\n      lt\n      tag_71\n      jumpi\n      0x0100\n      dup1\n      dup4\n      sload\n      div\n      mul\n      dup4\n      mstore\n      swap2\n      0x20\n      add\n      swap2\n      jump(tag_70)\n    tag_71:\n      dup3\n      add\n      swap2\n      swap1\n      0x00\n      mstore\n      keccak256(0x00, 0x20)\n      swap1\n    tag_72:\n      dup2\n      sload\n      dup2\n      mstore\n      swap1\n      0x01\n      add\n      swap1\n      0x20\n      add\n      dup1\n      dup4\n      gt\n      tag_72\n      jumpi\n      dup3\n      swap1\n      sub\n      0x1f\n      and\n      dup3\n      add\n      swap2\n    tag_70:\n      pop\n      pop\n      pop\n      pop\n      pop\n      dup2\n      mstore\n      0x20\n      add\n      0x02\n      dup3\n      add\n      0x00\n      swap1\n      sload\n      swap1\n      0x0100\n      exp\n      swap1\n      div\n      0xff\n      and\n      iszero\n      iszero\n      iszero\n      iszero\n      dup2\n      mstore\n      0x20\n      add\n      0x03\n      dup3\n      add\n      dup1\n      sload\n      tag_73\n      swap1\n      tag_49\n      jump\t// in\n    tag_73:\n      dup1\n      0x1f\n      add\n      0x20\n      dup1\n      swap2\n      div\n      mul\n      0x20\n      add\n      mload(0x40)\n      swap1\n      dup2\n      add\n      0x40\n      mstore\n      dup1\n      swap3\n      swap2\n      swap1\n      dup2\n      dup2\n      mstore\n      0x20\n      add\n      dup3\n      dup1\n      sload\n      tag_74\n      swap1\n      tag_49\n      jump\t// in\n    tag_74:\n      dup1\n      iszero\n      tag_75\n      jumpi\n      dup1\n      0x1f\n      lt\n      tag_76\n      jumpi\n      0x0100\n      dup1\n      dup4\n      sload\n      div\n      mul\n      dup4\n      mstore\n      swap2\n      0x20\n      add\n      swap2\n      jump(tag_75)\n    tag_76:\n      dup3\n      add\n      swap2\n      swap1\n      0x00\n      mstore\n      keccak256(0x00, 0x20)\n      swap1\n    tag_77:\n      dup2\n      sload\n      dup2\n      mstore\n      swap1\n      0x01\n      add\n      swap1\n      0x20\n      add\n      dup1\n      dup4\n      gt\n      tag_77\n      jumpi\n      dup3\n      swap1\n      sub\n      0x1f\n      and\n      dup3\n      add\n      swap2\n    tag_75:\n      pop\n      pop\n      pop\n      pop\n      pop\n      dup2\n      mstore\n      pop\n      pop\n      swap1\n      pop\n        /* \"contracts/UserManagement.sol\":2842:2846  user */\n      dup1\n        /* \"contracts/UserManagement.sol\":2842:2851  user.name */\n      0x00\n      add\n      mload\n        /* \"contracts/UserManagement.sol\":2853:2857  user */\n      dup2\n        /* \"contracts/UserManagement.sol\":2853:2862  user.role */\n      0x20\n      add\n      mload\n        /* \"contracts/UserManagement.sol\":2864:2868  user */\n      dup3\n        /* \"contracts/UserManagement.sol\":2864:2881  user.isRegistered */\n      0x40\n      add\n      mload\n        /* \"contracts/UserManagement.sol\":2883:2887  user */\n      dup4\n        /* \"contracts/UserManagement.sol\":2883:2902  user.additionalInfo */\n      0x60\n      add\n      mload\n        /* \"contracts/UserManagement.sol\":2834:2903  return (user.name, user.role, user.isRegistered, user.additionalInfo) */\n      swap5\n      pop\n      swap5\n      pop\n      swap5\n      pop\n      swap5\n      pop\n      pop\n        /* \"contracts/UserManagement.sol\":2589:2910  function getUser(address _userAddress) public view returns (... */\n      swap2\n      swap4\n      pop\n      swap2\n      swap4\n      jump\t// out\n        /* \"contracts/UserManagement.sol\":411:431  address public owner */\n    tag_32:\n      0x01\n      0x00\n      swap1\n      sload\n      swap1\n      0x0100\n      exp\n      swap1\n      div\n      0xffffffffffffffffffffffffffffffffffffffff\n      and\n      dup2\n      jump\t// out\n        /* \"contracts/UserManagement.sol\":368:405  mapping(address => User) public users */\n    tag_37:\n      mstore(0x20, 0x00)\n      dup1\n      0x00\n      mstore\n      keccak256(0x00, 0x40)\n      0x00\n      swap2\n      pop\n      swap1\n      pop\n      dup1\n      0x00\n      add\n      dup1\n      sload\n      tag_78\n      swap1\n      tag_49\n      jump\t// in\n    tag_78:\n      dup1\n      0x1f\n      add\n      0x20\n      dup1\n      swap2\n      div\n      mul\n      0x20\n      add\n      mload(0x40)\n      swap1\n      dup2\n      add\n      0x40\n      mstore\n      dup1\n      swap3\n      swap2\n      swap1\n      dup2\n      dup2\n      mstore\n      0x20\n      add\n      dup3\n      dup1\n      sload\n      tag_79\n      swap1\n      tag_49\n      jump\t// in\n    tag_79:\n      dup1\n      iszero\n      tag_80\n      jumpi\n      dup1\n      0x1f\n      lt\n      tag_81\n      jumpi\n      0x0100\n      dup1\n      dup4\n      sload\n      div\n      mul\n      dup4\n      mstore\n      swap2\n      0x20\n      add\n      swap2\n      jump(tag_80)\n    tag_81:\n      dup3\n      add\n      swap2\n      swap1\n      0x00\n      mstore\n      keccak256(0x00, 0x20)\n      swap1\n    tag_82:\n      dup2\n      sload\n      dup2\n      mstore\n      swap1\n      0x01\n      add\n      swap1\n      0x20\n      add\n      dup1\n      dup4\n      gt\n      tag_82\n      jumpi\n      dup3\n      swap1\n      sub\n      0x1f\n      and\n      dup3\n      add\n      swap2\n    tag_80:\n      pop\n      pop\n      pop\n      pop\n      pop\n      swap1\n      dup1\n      0x01\n      add\n      dup1\n      sload\n      tag_83\n      swap1\n      tag_49\n      jump\t// in\n    tag_83:\n      dup1\n      0x1f\n      add\n      0x20\n      dup1\n      swap2\n      div\n      mul\n      0x20\n      add\n      mload(0x40)\n      swap1\n      dup2\n      add\n      0x40\n      mstore\n      dup1\n      swap3\n      swap2\n      swap1\n      dup2\n      dup2\n      mstore\n      0x20\n      add\n      dup3\n      dup1\n      sload\n      tag_84\n      swap1\n      tag_49\n      jump\t// in\n    tag_84:\n      dup1\n      iszero\n      tag_85\n      jumpi\n      dup1\n      0x1f\n      lt\n      tag_86\n      jumpi\n      0x0100\n      dup1\n      dup4\n      sload\n      div\n      mul\n      dup4\n      mstore\n      swap2\n      0x20\n      add\n      swap2\n      jump(tag_85)\n    tag_86:\n      dup3\n      add\n      swap2\n      swap1\n      0x00\n      mstore\n      keccak256(0x00, 0x20)\n      swap1\n    tag_87:\n      dup2\n      sload\n      dup2\n      mstore\n      swap1\n      0x01\n      add\n      swap1\n      0x20\n      add\n      dup1\n      dup4\n      gt\n      tag_87\n      jumpi\n      dup3\n      swap1\n      sub\n      0x1f\n      and\n      dup3\n      add\n      swap2\n    tag_85:\n      pop\n      pop\n      pop\n      pop\n      pop\n      swap1\n      dup1\n      0x02\n      add\n      0x00\n      swap1\n      sload\n      swap1\n      0x0100\n      exp\n      swap1\n      div\n      0xff\n      and\n      swap1\n      dup1\n      0x03\n      add\n      dup1\n      sload\n      tag_88\n      swap1\n      tag_49\n      jump\t// in\n    tag_88:\n      dup1\n      0x1f\n      add\n      0x20\n      dup1\n      swap2\n      div\n      mul\n      0x20\n      add\n      mload(0x40)\n      swap1\n      dup2\n      add\n      0x40\n      mstore\n      dup1\n      swap3\n      swap2\n      swap1\n      dup2\n      dup2\n      mstore\n      0x20\n      add\n      dup3\n      dup1\n      sload\n      tag_89\n      swap1\n      tag_49\n      jump\t// in\n    tag_89:\n      dup1\n      iszero\n      tag_90\n      jumpi\n      dup1\n      0x1f\n      lt\n      tag_91\n      jumpi\n      0x0100\n      dup1\n      dup4\n      sload\n      div\n      mul\n      dup4\n      mstore\n      swap2\n      0x20\n      add\n      swap2\n      jump(tag_90)\n    tag_91:\n      dup3\n      add\n      swap2\n      swap1\n      0x00\n      mstore\n      keccak256(0x00, 0x20)\n      swap1\n    tag_92:\n      dup2\n      sload\n      dup2\n      mstore\n      swap1\n      0x01\n      add\n      swap1\n      0x20\n      add\n      dup1\n      dup4\n      gt\n      tag_92\n      jumpi\n      dup3\n      swap1\n      sub\n      0x1f\n      and\n      dup3\n      add\n      swap2\n    tag_90:\n      pop\n      pop\n      pop\n      pop\n      pop\n      swap1\n      pop\n      dup5\n      jump\t// out\n        /* \"contracts/UserManagement.sol\":1012:1764  function registerUser(string memory _name, string memory _role, string memory _additionalInfo) public {... */\n    tag_42:\n        /* \"contracts/UserManagement.sol\":1133:1138  users */\n      0x00\n        /* \"contracts/UserManagement.sol\":1133:1150  users[msg.sender] */\n      dup1\n        /* \"contracts/UserManagement.sol\":1139:1149  msg.sender */\n      caller\n        /* \"contracts/UserManagement.sol\":1133:1150  users[msg.sender] */\n      0xffffffffffffffffffffffffffffffffffffffff\n      and\n      0xffffffffffffffffffffffffffffffffffffffff\n      and\n      dup2\n      mstore\n      0x20\n      add\n      swap1\n      dup2\n      mstore\n      0x20\n      add\n      0x00\n      keccak256\n        /* \"contracts/UserManagement.sol\":1133:1163  users[msg.sender].isRegistered */\n      0x02\n      add\n      0x00\n      swap1\n      sload\n      swap1\n      0x0100\n      exp\n      swap1\n      div\n      0xff\n      and\n        /* \"contracts/UserManagement.sol\":1132:1163  !users[msg.sender].isRegistered */\n      iszero\n        /* \"contracts/UserManagement.sol\":1124:1194  require(!users[msg.sender].isRegistered, \"User is already registered\") */\n      tag_94\n      jumpi\n      mload(0x40)\n      0x08c379a000000000000000000000000000000000000000000000000000000000\n      dup2\n      mstore\n      0x04\n      add\n      tag_95\n      swap1\n      tag_96\n      jump\t// in\n    tag_95:\n      mload(0x40)\n      dup1\n      swap2\n      sub\n      swap1\n      revert\n    tag_94:\n        /* \"contracts/UserManagement.sol\":1273:1299  abi.encodePacked(\"farmer\") */\n      add(0x20, mload(0x40))\n      tag_97\n      swap1\n      tag_98\n      jump\t// in\n    tag_97:\n      mload(0x40)\n      0x20\n      dup2\n      dup4\n      sub\n      sub\n      dup2\n      mstore\n      swap1\n      0x40\n      mstore\n        /* \"contracts/UserManagement.sol\":1263:1300  keccak256(abi.encodePacked(\"farmer\")) */\n      dup1\n      mload\n      swap1\n      0x20\n      add\n      keccak256\n        /* \"contracts/UserManagement.sol\":1252:1257  _role */\n      dup3\n        /* \"contracts/UserManagement.sol\":1235:1258  abi.encodePacked(_role) */\n      add(0x20, mload(0x40))\n      tag_99\n      swap2\n      swap1\n      tag_100\n      jump\t// in\n    tag_99:\n      mload(0x40)\n      0x20\n      dup2\n      dup4\n      sub\n      sub\n      dup2\n      mstore\n      swap1\n      0x40\n      mstore\n        /* \"contracts/UserManagement.sol\":1225:1259  keccak256(abi.encodePacked(_role)) */\n      dup1\n      mload\n      swap1\n      0x20\n      add\n      keccak256\n        /* \"contracts/UserManagement.sol\":1225:1300  keccak256(abi.encodePacked(_role)) == keccak256(abi.encodePacked(\"farmer\")) */\n      eq\n        /* \"contracts/UserManagement.sol\":1225:1393  keccak256(abi.encodePacked(_role)) == keccak256(abi.encodePacked(\"farmer\")) ||... */\n      dup1\n      tag_101\n      jumpi\n      pop\n        /* \"contracts/UserManagement.sol\":1364:1392  abi.encodePacked(\"consumer\") */\n      add(0x20, mload(0x40))\n      tag_102\n      swap1\n      tag_103\n      jump\t// in\n    tag_102:\n      mload(0x40)\n      0x20\n      dup2\n      dup4\n      sub\n      sub\n      dup2\n      mstore\n      swap1\n      0x40\n      mstore\n        /* \"contracts/UserManagement.sol\":1354:1393  keccak256(abi.encodePacked(\"consumer\")) */\n      dup1\n      mload\n      swap1\n      0x20\n      add\n      keccak256\n        /* \"contracts/UserManagement.sol\":1343:1348  _role */\n      dup3\n        /* \"contracts/UserManagement.sol\":1326:1349  abi.encodePacked(_role) */\n      add(0x20, mload(0x40))\n      tag_104\n      swap2\n      swap1\n      tag_100\n      jump\t// in\n    tag_104:\n      mload(0x40)\n      0x20\n      dup2\n      dup4\n      sub\n      sub\n      dup2\n      mstore\n      swap1\n      0x40\n      mstore\n        /* \"contracts/UserManagement.sol\":1316:1350  keccak256(abi.encodePacked(_role)) */\n      dup1\n      mload\n      swap1\n      0x20\n      add\n      keccak256\n        /* \"contracts/UserManagement.sol\":1316:1393  keccak256(abi.encodePacked(_role)) == keccak256(abi.encodePacked(\"consumer\")) */\n      eq\n        /* \"contracts/UserManagement.sol\":1225:1393  keccak256(abi.encodePacked(_role)) == keccak256(abi.encodePacked(\"farmer\")) ||... */\n    tag_101:\n        /* \"contracts/UserManagement.sol\":1225:1489  keccak256(abi.encodePacked(_role)) == keccak256(abi.encodePacked(\"farmer\")) ||... */\n      dup1\n      tag_105\n      jumpi\n      pop\n        /* \"contracts/UserManagement.sol\":1457:1488  abi.encodePacked(\"transporter\") */\n      add(0x20, mload(0x40))\n      tag_106\n      swap1\n      tag_107\n      jump\t// in\n    tag_106:\n      mload(0x40)\n      0x20\n      dup2\n      dup4\n      sub\n      sub\n      dup2\n      mstore\n      swap1\n      0x40\n      mstore\n        /* \"contracts/UserManagement.sol\":1447:1489  keccak256(abi.encodePacked(\"transporter\")) */\n      dup1\n      mload\n      swap1\n      0x20\n      add\n      keccak256\n        /* \"contracts/UserManagement.sol\":1436:1441  _role */\n      dup3\n        /* \"contracts/UserManagement.sol\":1419:1442  abi.encodePacked(_role) */\n      add(0x20, mload(0x40))\n      tag_108\n      swap2\n      swap1\n      tag_100\n      jump\t// in\n    tag_108:\n      mload(0x40)\n      0x20\n      dup2\n      dup4\n      sub\n      sub\n      dup2\n      mstore\n      swap1\n      0x40\n      mstore\n        /* \"contracts/UserManagement.sol\":1409:1443  keccak256(abi.encodePacked(_role)) */\n      dup1\n      mload\n      swap1\n      0x20\n      add\n      keccak256\n        /* \"contracts/UserManagement.sol\":1409:1489  keccak256(abi.encodePacked(_role)) == keccak256(abi.encodePacked(\"transporter\")) */\n      eq\n        /* \"contracts/UserManagement.sol\":1225:1489  keccak256(abi.encodePacked(_role)) == keccak256(abi.encodePacked(\"farmer\")) ||... */\n    tag_105:\n        /* \"contracts/UserManagement.sol\":1204:1527  require(... */\n      tag_109\n      jumpi\n      mload(0x40)\n      0x08c379a000000000000000000000000000000000000000000000000000000000\n      dup2\n      mstore\n      0x04\n      add\n      tag_110\n      swap1\n      tag_111\n      jump\t// in\n    tag_110:\n      mload(0x40)\n      dup1\n      swap2\n      sub\n      swap1\n      revert\n    tag_109:\n        /* \"contracts/UserManagement.sol\":1558:1701  User({... */\n      mload(0x40)\n      dup1\n      0x80\n      add\n      0x40\n      mstore\n      dup1\n        /* \"contracts/UserManagement.sol\":1583:1588  _name */\n      dup5\n        /* \"contracts/UserManagement.sol\":1558:1701  User({... */\n      dup2\n      mstore\n      0x20\n      add\n        /* \"contracts/UserManagement.sol\":1608:1613  _role */\n      dup4\n        /* \"contracts/UserManagement.sol\":1558:1701  User({... */\n      dup2\n      mstore\n      0x20\n      add\n        /* \"contracts/UserManagement.sol\":1641:1645  true */\n      0x01\n        /* \"contracts/UserManagement.sol\":1558:1701  User({... */\n      iszero\n      iszero\n      dup2\n      mstore\n      0x20\n      add\n        /* \"contracts/UserManagement.sol\":1675:1690  _additionalInfo */\n      dup3\n        /* \"contracts/UserManagement.sol\":1558:1701  User({... */\n      dup2\n      mstore\n      pop\n        /* \"contracts/UserManagement.sol\":1538:1543  users */\n      0x00\n        /* \"contracts/UserManagement.sol\":1538:1555  users[msg.sender] */\n      dup1\n        /* \"contracts/UserManagement.sol\":1544:1554  msg.sender */\n      caller\n        /* \"contracts/UserManagement.sol\":1538:1555  users[msg.sender] */\n      0xffffffffffffffffffffffffffffffffffffffff\n      and\n      0xffffffffffffffffffffffffffffffffffffffff\n      and\n      dup2\n      mstore\n      0x20\n      add\n      swap1\n      dup2\n      mstore\n      0x20\n      add\n      0x00\n      keccak256\n        /* \"contracts/UserManagement.sol\":1538:1701  users[msg.sender] = User({... */\n      0x00\n      dup3\n      add\n      mload\n      dup2\n      0x00\n      add\n      swap1\n      dup2\n      tag_112\n      swap2\n      swap1\n      tag_58\n      jump\t// in\n    tag_112:\n      pop\n      0x20\n      dup3\n      add\n      mload\n      dup2\n      0x01\n      add\n      swap1\n      dup2\n      tag_113\n      swap2\n      swap1\n      tag_58\n      jump\t// in\n    tag_113:\n      pop\n      0x40\n      dup3\n      add\n      mload\n      dup2\n      0x02\n      add\n      exp(0x0100, 0x00)\n      dup2\n      sload\n      dup2\n      0xff\n      mul\n      not\n      and\n      swap1\n      dup4\n      iszero\n      iszero\n      mul\n      or\n      swap1\n      sstore\n      pop\n      0x60\n      dup3\n      add\n      mload\n      dup2\n      0x03\n      add\n      swap1\n      dup2\n      tag_114\n      swap2\n      swap1\n      tag_58\n      jump\t// in\n    tag_114:\n      pop\n      swap1\n      pop\n      pop\n        /* \"contracts/UserManagement.sol\":1732:1742  msg.sender */\n      caller\n        /* \"contracts/UserManagement.sol\":1717:1757  UserRegistered(msg.sender, _name, _role) */\n      0xffffffffffffffffffffffffffffffffffffffff\n      and\n      0x92822564bab8864c3a47b34e8d23fbce5c46234eb5da261f94087b995ac0f33b\n        /* \"contracts/UserManagement.sol\":1744:1749  _name */\n      dup5\n        /* \"contracts/UserManagement.sol\":1751:1756  _role */\n      dup5\n        /* \"contracts/UserManagement.sol\":1717:1757  UserRegistered(msg.sender, _name, _role) */\n      mload(0x40)\n      tag_115\n      swap3\n      swap2\n      swap1\n      tag_116\n      jump\t// in\n    tag_115:\n      mload(0x40)\n      dup1\n      swap2\n      sub\n      swap1\n      log2\n        /* \"contracts/UserManagement.sol\":1012:1764  function registerUser(string memory _name, string memory _role, string memory _additionalInfo) public {... */\n      pop\n      pop\n      pop\n      jump\t// out\n        /* \"#utility.yul\":7:82   */\n    tag_117:\n        /* \"#utility.yul\":40:46   */\n      0x00\n        /* \"#utility.yul\":73:75   */\n      0x40\n        /* \"#utility.yul\":67:76   */\n      mload\n        /* \"#utility.yul\":57:76   */\n      swap1\n      pop\n        /* \"#utility.yul\":7:82   */\n      swap1\n      jump\t// out\n        /* \"#utility.yul\":88:205   */\n    tag_118:\n        /* \"#utility.yul\":197:198   */\n      0x00\n        /* \"#utility.yul\":194:195   */\n      dup1\n        /* \"#utility.yul\":187:199   */\n      revert\n        /* \"#utility.yul\":211:328   */\n    tag_119:\n        /* \"#utility.yul\":320:321   */\n      0x00\n        /* \"#utility.yul\":317:318   */\n      dup1\n        /* \"#utility.yul\":310:322   */\n      revert\n        /* \"#utility.yul\":334:460   */\n    tag_120:\n        /* \"#utility.yul\":371:378   */\n      0x00\n        /* \"#utility.yul\":411:453   */\n      0xffffffffffffffffffffffffffffffffffffffff\n        /* \"#utility.yul\":404:409   */\n      dup3\n        /* \"#utility.yul\":400:454   */\n      and\n        /* \"#utility.yul\":389:454   */\n      swap1\n      pop\n        /* \"#utility.yul\":334:460   */\n      swap2\n      swap1\n      pop\n      jump\t// out\n        /* \"#utility.yul\":466:562   */\n    tag_121:\n        /* \"#utility.yul\":503:510   */\n      0x00\n        /* \"#utility.yul\":532:556   */\n      tag_179\n        /* \"#utility.yul\":550:555   */\n      dup3\n        /* \"#utility.yul\":532:556   */\n      tag_120\n      jump\t// in\n    tag_179:\n        /* \"#utility.yul\":521:556   */\n      swap1\n      pop\n        /* \"#utility.yul\":466:562   */\n      swap2\n      swap1\n      pop\n      jump\t// out\n        /* \"#utility.yul\":568:690   */\n    tag_122:\n        /* \"#utility.yul\":641:665   */\n      tag_181\n        /* \"#utility.yul\":659:664   */\n      dup2\n        /* \"#utility.yul\":641:665   */\n      tag_121\n      jump\t// in\n    tag_181:\n        /* \"#utility.yul\":634:639   */\n      dup2\n        /* \"#utility.yul\":631:666   */\n      eq\n        /* \"#utility.yul\":621:684   */\n      tag_182\n      jumpi\n        /* \"#utility.yul\":680:681   */\n      0x00\n        /* \"#utility.yul\":677:678   */\n      dup1\n        /* \"#utility.yul\":670:682   */\n      revert\n        /* \"#utility.yul\":621:684   */\n    tag_182:\n        /* \"#utility.yul\":568:690   */\n      pop\n      jump\t// out\n        /* \"#utility.yul\":696:835   */\n    tag_123:\n        /* \"#utility.yul\":742:747   */\n      0x00\n        /* \"#utility.yul\":780:786   */\n      dup2\n        /* \"#utility.yul\":767:787   */\n      calldataload\n        /* \"#utility.yul\":758:787   */\n      swap1\n      pop\n        /* \"#utility.yul\":796:829   */\n      tag_184\n        /* \"#utility.yul\":823:828   */\n      dup2\n        /* \"#utility.yul\":796:829   */\n      tag_122\n      jump\t// in\n    tag_184:\n        /* \"#utility.yul\":696:835   */\n      swap3\n      swap2\n      pop\n      pop\n      jump\t// out\n        /* \"#utility.yul\":841:1170   */\n    tag_13:\n        /* \"#utility.yul\":900:906   */\n      0x00\n        /* \"#utility.yul\":949:951   */\n      0x20\n        /* \"#utility.yul\":937:946   */\n      dup3\n        /* \"#utility.yul\":928:935   */\n      dup5\n        /* \"#utility.yul\":924:947   */\n      sub\n        /* \"#utility.yul\":920:952   */\n      slt\n        /* \"#utility.yul\":917:1036   */\n      iszero\n      tag_186\n      jumpi\n        /* \"#utility.yul\":955:1034   */\n      tag_187\n      tag_118\n      jump\t// in\n    tag_187:\n        /* \"#utility.yul\":917:1036   */\n    tag_186:\n        /* \"#utility.yul\":1075:1076   */\n      0x00\n        /* \"#utility.yul\":1100:1153   */\n      tag_188\n        /* \"#utility.yul\":1145:1152   */\n      dup5\n        /* \"#utility.yul\":1136:1142   */\n      dup3\n        /* \"#utility.yul\":1125:1134   */\n      dup6\n        /* \"#utility.yul\":1121:1143   */\n      add\n        /* \"#utility.yul\":1100:1153   */\n      tag_123\n      jump\t// in\n    tag_188:\n        /* \"#utility.yul\":1090:1153   */\n      swap2\n      pop\n        /* \"#utility.yul\":1046:1163   */\n      pop\n        /* \"#utility.yul\":841:1170   */\n      swap3\n      swap2\n      pop\n      pop\n      jump\t// out\n        /* \"#utility.yul\":1176:1266   */\n    tag_124:\n        /* \"#utility.yul\":1210:1217   */\n      0x00\n        /* \"#utility.yul\":1253:1258   */\n      dup2\n        /* \"#utility.yul\":1246:1259   */\n      iszero\n        /* \"#utility.yul\":1239:1260   */\n      iszero\n        /* \"#utility.yul\":1228:1260   */\n      swap1\n      pop\n        /* \"#utility.yul\":1176:1266   */\n      swap2\n      swap1\n      pop\n      jump\t// out\n        /* \"#utility.yul\":1272:1381   */\n    tag_125:\n        /* \"#utility.yul\":1353:1374   */\n      tag_191\n        /* \"#utility.yul\":1368:1373   */\n      dup2\n        /* \"#utility.yul\":1353:1374   */\n      tag_124\n      jump\t// in\n    tag_191:\n        /* \"#utility.yul\":1348:1351   */\n      dup3\n        /* \"#utility.yul\":1341:1375   */\n      mstore\n        /* \"#utility.yul\":1272:1381   */\n      pop\n      pop\n      jump\t// out\n        /* \"#utility.yul\":1387:1597   */\n    tag_16:\n        /* \"#utility.yul\":1474:1478   */\n      0x00\n        /* \"#utility.yul\":1512:1514   */\n      0x20\n        /* \"#utility.yul\":1501:1510   */\n      dup3\n        /* \"#utility.yul\":1497:1515   */\n      add\n        /* \"#utility.yul\":1489:1515   */\n      swap1\n      pop\n        /* \"#utility.yul\":1525:1590   */\n      tag_193\n        /* \"#utility.yul\":1587:1588   */\n      0x00\n        /* \"#utility.yul\":1576:1585   */\n      dup4\n        /* \"#utility.yul\":1572:1589   */\n      add\n        /* \"#utility.yul\":1563:1569   */\n      dup5\n        /* \"#utility.yul\":1525:1590   */\n      tag_125\n      jump\t// in\n    tag_193:\n        /* \"#utility.yul\":1387:1597   */\n      swap3\n      swap2\n      pop\n      pop\n      jump\t// out\n        /* \"#utility.yul\":1603:1702   */\n    tag_126:\n        /* \"#utility.yul\":1655:1661   */\n      0x00\n        /* \"#utility.yul\":1689:1694   */\n      dup2\n        /* \"#utility.yul\":1683:1695   */\n      mload\n        /* \"#utility.yul\":1673:1695   */\n      swap1\n      pop\n        /* \"#utility.yul\":1603:1702   */\n      swap2\n      swap1\n      pop\n      jump\t// out\n        /* \"#utility.yul\":1708:1877   */\n    tag_127:\n        /* \"#utility.yul\":1792:1803   */\n      0x00\n        /* \"#utility.yul\":1826:1832   */\n      dup3\n        /* \"#utility.yul\":1821:1824   */\n      dup3\n        /* \"#utility.yul\":1814:1833   */\n      mstore\n        /* \"#utility.yul\":1866:1870   */\n      0x20\n        /* \"#utility.yul\":1861:1864   */\n      dup3\n        /* \"#utility.yul\":1857:1871   */\n      add\n        /* \"#utility.yul\":1842:1871   */\n      swap1\n      pop\n        /* \"#utility.yul\":1708:1877   */\n      swap3\n      swap2\n      pop\n      pop\n      jump\t// out\n        /* \"#utility.yul\":1883:2022   */\n    tag_128:\n        /* \"#utility.yul\":1972:1978   */\n      dup3\n        /* \"#utility.yul\":1967:1970   */\n      dup2\n        /* \"#utility.yul\":1962:1965   */\n      dup4\n        /* \"#utility.yul\":1956:1979   */\n      mcopy\n        /* \"#utility.yul\":2013:2014   */\n      0x00\n        /* \"#utility.yul\":2004:2010   */\n      dup4\n        /* \"#utility.yul\":1999:2002   */\n      dup4\n        /* \"#utility.yul\":1995:2011   */\n      add\n        /* \"#utility.yul\":1988:2015   */\n      mstore\n        /* \"#utility.yul\":1883:2022   */\n      pop\n      pop\n      pop\n      jump\t// out\n        /* \"#utility.yul\":2028:2130   */\n    tag_129:\n        /* \"#utility.yul\":2069:2075   */\n      0x00\n        /* \"#utility.yul\":2120:2122   */\n      0x1f\n        /* \"#utility.yul\":2116:2123   */\n      not\n        /* \"#utility.yul\":2111:2113   */\n      0x1f\n        /* \"#utility.yul\":2104:2109   */\n      dup4\n        /* \"#utility.yul\":2100:2114   */\n      add\n        /* \"#utility.yul\":2096:2124   */\n      and\n        /* \"#utility.yul\":2086:2124   */\n      swap1\n      pop\n        /* \"#utility.yul\":2028:2130   */\n      swap2\n      swap1\n      pop\n      jump\t// out\n        /* \"#utility.yul\":2136:2513   */\n    tag_130:\n        /* \"#utility.yul\":2224:2227   */\n      0x00\n        /* \"#utility.yul\":2252:2291   */\n      tag_199\n        /* \"#utility.yul\":2285:2290   */\n      dup3\n        /* \"#utility.yul\":2252:2291   */\n      tag_126\n      jump\t// in\n    tag_199:\n        /* \"#utility.yul\":2307:2378   */\n      tag_200\n        /* \"#utility.yul\":2371:2377   */\n      dup2\n        /* \"#utility.yul\":2366:2369   */\n      dup6\n        /* \"#utility.yul\":2307:2378   */\n      tag_127\n      jump\t// in\n    tag_200:\n        /* \"#utility.yul\":2300:2378   */\n      swap4\n      pop\n        /* \"#utility.yul\":2387:2452   */\n      tag_201\n        /* \"#utility.yul\":2445:2451   */\n      dup2\n        /* \"#utility.yul\":2440:2443   */\n      dup6\n        /* \"#utility.yul\":2433:2437   */\n      0x20\n        /* \"#utility.yul\":2426:2431   */\n      dup7\n        /* \"#utility.yul\":2422:2438   */\n      add\n        /* \"#utility.yul\":2387:2452   */\n      tag_128\n      jump\t// in\n    tag_201:\n        /* \"#utility.yul\":2477:2506   */\n      tag_202\n        /* \"#utility.yul\":2499:2505   */\n      dup2\n        /* \"#utility.yul\":2477:2506   */\n      tag_129\n      jump\t// in\n    tag_202:\n        /* \"#utility.yul\":2472:2475   */\n      dup5\n        /* \"#utility.yul\":2468:2507   */\n      add\n        /* \"#utility.yul\":2461:2507   */\n      swap2\n      pop\n        /* \"#utility.yul\":2228:2513   */\n      pop\n        /* \"#utility.yul\":2136:2513   */\n      swap3\n      swap2\n      pop\n      pop\n      jump\t// out\n        /* \"#utility.yul\":2519:2832   */\n    tag_21:\n        /* \"#utility.yul\":2632:2636   */\n      0x00\n        /* \"#utility.yul\":2670:2672   */\n      0x20\n        /* \"#utility.yul\":2659:2668   */\n      dup3\n        /* \"#utility.yul\":2655:2673   */\n      add\n        /* \"#utility.yul\":2647:2673   */\n      swap1\n      pop\n        /* \"#utility.yul\":2719:2728   */\n      dup2\n        /* \"#utility.yul\":2713:2717   */\n      dup2\n        /* \"#utility.yul\":2709:2729   */\n      sub\n        /* \"#utility.yul\":2705:2706   */\n      0x00\n        /* \"#utility.yul\":2694:2703   */\n      dup4\n        /* \"#utility.yul\":2690:2707   */\n      add\n        /* \"#utility.yul\":2683:2730   */\n      mstore\n        /* \"#utility.yul\":2747:2825   */\n      tag_204\n        /* \"#utility.yul\":2820:2824   */\n      dup2\n        /* \"#utility.yul\":2811:2817   */\n      dup5\n        /* \"#utility.yul\":2747:2825   */\n      tag_130\n      jump\t// in\n    tag_204:\n        /* \"#utility.yul\":2739:2825   */\n      swap1\n      pop\n        /* \"#utility.yul\":2519:2832   */\n      swap3\n      swap2\n      pop\n      pop\n      jump\t// out\n        /* \"#utility.yul\":2838:2955   */\n    tag_131:\n        /* \"#utility.yul\":2947:2948   */\n      0x00\n        /* \"#utility.yul\":2944:2945   */\n      dup1\n        /* \"#utility.yul\":2937:2949   */\n      revert\n        /* \"#utility.yul\":2961:3078   */\n    tag_132:\n        /* \"#utility.yul\":3070:3071   */\n      0x00\n        /* \"#utility.yul\":3067:3068   */\n      dup1\n        /* \"#utility.yul\":3060:3072   */\n      revert\n        /* \"#utility.yul\":3084:3264   */\n    tag_133:\n        /* \"#utility.yul\":3132:3209   */\n      0x4e487b7100000000000000000000000000000000000000000000000000000000\n        /* \"#utility.yul\":3129:3130   */\n      0x00\n        /* \"#utility.yul\":3122:3210   */\n      mstore\n        /* \"#utility.yul\":3229:3233   */\n      0x41\n        /* \"#utility.yul\":3226:3227   */\n      0x04\n        /* \"#utility.yul\":3219:3234   */\n      mstore\n        /* \"#utility.yul\":3253:3257   */\n      0x24\n        /* \"#utility.yul\":3250:3251   */\n      0x00\n        /* \"#utility.yul\":3243:3258   */\n      revert\n        /* \"#utility.yul\":3270:3551   */\n    tag_134:\n        /* \"#utility.yul\":3353:3380   */\n      tag_209\n        /* \"#utility.yul\":3375:3379   */\n      dup3\n        /* \"#utility.yul\":3353:3380   */\n      tag_129\n      jump\t// in\n    tag_209:\n        /* \"#utility.yul\":3345:3351   */\n      dup2\n        /* \"#utility.yul\":3341:3381   */\n      add\n        /* \"#utility.yul\":3483:3489   */\n      dup2\n        /* \"#utility.yul\":3471:3481   */\n      dup2\n        /* \"#utility.yul\":3468:3490   */\n      lt\n        /* \"#utility.yul\":3447:3465   */\n      0xffffffffffffffff\n        /* \"#utility.yul\":3435:3445   */\n      dup3\n        /* \"#utility.yul\":3432:3466   */\n      gt\n        /* \"#utility.yul\":3429:3491   */\n      or\n        /* \"#utility.yul\":3426:3514   */\n      iszero\n      tag_210\n      jumpi\n        /* \"#utility.yul\":3494:3512   */\n      tag_211\n      tag_133\n      jump\t// in\n    tag_211:\n        /* \"#utility.yul\":3426:3514   */\n    tag_210:\n        /* \"#utility.yul\":3534:3544   */\n      dup1\n        /* \"#utility.yul\":3530:3532   */\n      0x40\n        /* \"#utility.yul\":3523:3545   */\n      mstore\n        /* \"#utility.yul\":3313:3551   */\n      pop\n        /* \"#utility.yul\":3270:3551   */\n      pop\n      pop\n      jump\t// out\n        /* \"#utility.yul\":3557:3686   */\n    tag_135:\n        /* \"#utility.yul\":3591:3597   */\n      0x00\n        /* \"#utility.yul\":3618:3638   */\n      tag_213\n      tag_117\n      jump\t// in\n    tag_213:\n        /* \"#utility.yul\":3608:3638   */\n      swap1\n      pop\n        /* \"#utility.yul\":3647:3680   */\n      tag_214\n        /* \"#utility.yul\":3675:3679   */\n      dup3\n        /* \"#utility.yul\":3667:3673   */\n      dup3\n        /* \"#utility.yul\":3647:3680   */\n      tag_134\n      jump\t// in\n    tag_214:\n        /* \"#utility.yul\":3557:3686   */\n      swap2\n      swap1\n      pop\n      jump\t// out\n        /* \"#utility.yul\":3692:4000   */\n    tag_136:\n        /* \"#utility.yul\":3754:3758   */\n      0x00\n        /* \"#utility.yul\":3844:3862   */\n      0xffffffffffffffff\n        /* \"#utility.yul\":3836:3842   */\n      dup3\n        /* \"#utility.yul\":3833:3863   */\n      gt\n        /* \"#utility.yul\":3830:3886   */\n      iszero\n      tag_216\n      jumpi\n        /* \"#utility.yul\":3866:3884   */\n      tag_217\n      tag_133\n      jump\t// in\n    tag_217:\n        /* \"#utility.yul\":3830:3886   */\n    tag_216:\n        /* \"#utility.yul\":3904:3933   */\n      tag_218\n        /* \"#utility.yul\":3926:3932   */\n      dup3\n        /* \"#utility.yul\":3904:3933   */\n      tag_129\n      jump\t// in\n    tag_218:\n        /* \"#utility.yul\":3896:3933   */\n      swap1\n      pop\n        /* \"#utility.yul\":3988:3992   */\n      0x20\n        /* \"#utility.yul\":3982:3986   */\n      dup2\n        /* \"#utility.yul\":3978:3993   */\n      add\n        /* \"#utility.yul\":3970:3993   */\n      swap1\n      pop\n        /* \"#utility.yul\":3692:4000   */\n      swap2\n      swap1\n      pop\n      jump\t// out\n        /* \"#utility.yul\":4006:4154   */\n    tag_137:\n        /* \"#utility.yul\":4104:4110   */\n      dup3\n        /* \"#utility.yul\":4099:4102   */\n      dup2\n        /* \"#utility.yul\":4094:4097   */\n      dup4\n        /* \"#utility.yul\":4081:4111   */\n      calldatacopy\n        /* \"#utility.yul\":4145:4146   */\n      0x00\n        /* \"#utility.yul\":4136:4142   */\n      dup4\n        /* \"#utility.yul\":4131:4134   */\n      dup4\n        /* \"#utility.yul\":4127:4143   */\n      add\n        /* \"#utility.yul\":4120:4147   */\n      mstore\n        /* \"#utility.yul\":4006:4154   */\n      pop\n      pop\n      pop\n      jump\t// out\n        /* \"#utility.yul\":4160:4585   */\n    tag_138:\n        /* \"#utility.yul\":4238:4243   */\n      0x00\n        /* \"#utility.yul\":4263:4329   */\n      tag_221\n        /* \"#utility.yul\":4279:4328   */\n      tag_222\n        /* \"#utility.yul\":4321:4327   */\n      dup5\n        /* \"#utility.yul\":4279:4328   */\n      tag_136\n      jump\t// in\n    tag_222:\n        /* \"#utility.yul\":4263:4329   */\n      tag_135\n      jump\t// in\n    tag_221:\n        /* \"#utility.yul\":4254:4329   */\n      swap1\n      pop\n        /* \"#utility.yul\":4352:4358   */\n      dup3\n        /* \"#utility.yul\":4345:4350   */\n      dup2\n        /* \"#utility.yul\":4338:4359   */\n      mstore\n        /* \"#utility.yul\":4390:4394   */\n      0x20\n        /* \"#utility.yul\":4383:4388   */\n      dup2\n        /* \"#utility.yul\":4379:4395   */\n      add\n        /* \"#utility.yul\":4428:4431   */\n      dup5\n        /* \"#utility.yul\":4419:4425   */\n      dup5\n        /* \"#utility.yul\":4414:4417   */\n      dup5\n        /* \"#utility.yul\":4410:4426   */\n      add\n        /* \"#utility.yul\":4407:4432   */\n      gt\n        /* \"#utility.yul\":4404:4516   */\n      iszero\n      tag_223\n      jumpi\n        /* \"#utility.yul\":4435:4514   */\n      tag_224\n      tag_132\n      jump\t// in\n    tag_224:\n        /* \"#utility.yul\":4404:4516   */\n    tag_223:\n        /* \"#utility.yul\":4525:4579   */\n      tag_225\n        /* \"#utility.yul\":4572:4578   */\n      dup5\n        /* \"#utility.yul\":4567:4570   */\n      dup3\n        /* \"#utility.yul\":4562:4565   */\n      dup6\n        /* \"#utility.yul\":4525:4579   */\n      tag_137\n      jump\t// in\n    tag_225:\n        /* \"#utility.yul\":4244:4585   */\n      pop\n        /* \"#utility.yul\":4160:4585   */\n      swap4\n      swap3\n      pop\n      pop\n      pop\n      jump\t// out\n        /* \"#utility.yul\":4605:4945   */\n    tag_139:\n        /* \"#utility.yul\":4661:4666   */\n      0x00\n        /* \"#utility.yul\":4710:4713   */\n      dup3\n        /* \"#utility.yul\":4703:4707   */\n      0x1f\n        /* \"#utility.yul\":4695:4701   */\n      dup4\n        /* \"#utility.yul\":4691:4708   */\n      add\n        /* \"#utility.yul\":4687:4714   */\n      slt\n        /* \"#utility.yul\":4677:4799   */\n      tag_227\n      jumpi\n        /* \"#utility.yul\":4718:4797   */\n      tag_228\n      tag_131\n      jump\t// in\n    tag_228:\n        /* \"#utility.yul\":4677:4799   */\n    tag_227:\n        /* \"#utility.yul\":4835:4841   */\n      dup2\n        /* \"#utility.yul\":4822:4842   */\n      calldataload\n        /* \"#utility.yul\":4860:4939   */\n      tag_229\n        /* \"#utility.yul\":4935:4938   */\n      dup5\n        /* \"#utility.yul\":4927:4933   */\n      dup3\n        /* \"#utility.yul\":4920:4924   */\n      0x20\n        /* \"#utility.yul\":4912:4918   */\n      dup7\n        /* \"#utility.yul\":4908:4925   */\n      add\n        /* \"#utility.yul\":4860:4939   */\n      tag_138\n      jump\t// in\n    tag_229:\n        /* \"#utility.yul\":4851:4939   */\n      swap2\n      pop\n        /* \"#utility.yul\":4667:4945   */\n      pop\n        /* \"#utility.yul\":4605:4945   */\n      swap3\n      swap2\n      pop\n      pop\n      jump\t// out\n        /* \"#utility.yul\":4951:5785   */\n    tag_24:\n        /* \"#utility.yul\":5039:5045   */\n      0x00\n        /* \"#utility.yul\":5047:5053   */\n      dup1\n        /* \"#utility.yul\":5096:5098   */\n      0x40\n        /* \"#utility.yul\":5084:5093   */\n      dup4\n        /* \"#utility.yul\":5075:5082   */\n      dup6\n        /* \"#utility.yul\":5071:5094   */\n      sub\n        /* \"#utility.yul\":5067:5099   */\n      slt\n        /* \"#utility.yul\":5064:5183   */\n      iszero\n      tag_231\n      jumpi\n        /* \"#utility.yul\":5102:5181   */\n      tag_232\n      tag_118\n      jump\t// in\n    tag_232:\n        /* \"#utility.yul\":5064:5183   */\n    tag_231:\n        /* \"#utility.yul\":5250:5251   */\n      0x00\n        /* \"#utility.yul\":5239:5248   */\n      dup4\n        /* \"#utility.yul\":5235:5252   */\n      add\n        /* \"#utility.yul\":5222:5253   */\n      calldataload\n        /* \"#utility.yul\":5280:5298   */\n      0xffffffffffffffff\n        /* \"#utility.yul\":5272:5278   */\n      dup2\n        /* \"#utility.yul\":5269:5299   */\n      gt\n        /* \"#utility.yul\":5266:5383   */\n      iszero\n      tag_233\n      jumpi\n        /* \"#utility.yul\":5302:5381   */\n      tag_234\n      tag_119\n      jump\t// in\n    tag_234:\n        /* \"#utility.yul\":5266:5383   */\n    tag_233:\n        /* \"#utility.yul\":5407:5470   */\n      tag_235\n        /* \"#utility.yul\":5462:5469   */\n      dup6\n        /* \"#utility.yul\":5453:5459   */\n      dup3\n        /* \"#utility.yul\":5442:5451   */\n      dup7\n        /* \"#utility.yul\":5438:5460   */\n      add\n        /* \"#utility.yul\":5407:5470   */\n      tag_139\n      jump\t// in\n    tag_235:\n        /* \"#utility.yul\":5397:5470   */\n      swap3\n      pop\n        /* \"#utility.yul\":5193:5480   */\n      pop\n        /* \"#utility.yul\":5547:5549   */\n      0x20\n        /* \"#utility.yul\":5536:5545   */\n      dup4\n        /* \"#utility.yul\":5532:5550   */\n      add\n        /* \"#utility.yul\":5519:5551   */\n      calldataload\n        /* \"#utility.yul\":5578:5596   */\n      0xffffffffffffffff\n        /* \"#utility.yul\":5570:5576   */\n      dup2\n        /* \"#utility.yul\":5567:5597   */\n      gt\n        /* \"#utility.yul\":5564:5681   */\n      iszero\n      tag_236\n      jumpi\n        /* \"#utility.yul\":5600:5679   */\n      tag_237\n      tag_119\n      jump\t// in\n    tag_237:\n        /* \"#utility.yul\":5564:5681   */\n    tag_236:\n        /* \"#utility.yul\":5705:5768   */\n      tag_238\n        /* \"#utility.yul\":5760:5767   */\n      dup6\n        /* \"#utility.yul\":5751:5757   */\n      dup3\n        /* \"#utility.yul\":5740:5749   */\n      dup7\n        /* \"#utility.yul\":5736:5758   */\n      add\n        /* \"#utility.yul\":5705:5768   */\n      tag_139\n      jump\t// in\n    tag_238:\n        /* \"#utility.yul\":5695:5768   */\n      swap2\n      pop\n        /* \"#utility.yul\":5490:5778   */\n      pop\n        /* \"#utility.yul\":4951:5785   */\n      swap3\n      pop\n      swap3\n      swap1\n      pop\n      jump\t// out\n        /* \"#utility.yul\":5791:6605   */\n    tag_30:\n        /* \"#utility.yul\":6022:6026   */\n      0x00\n        /* \"#utility.yul\":6060:6063   */\n      0x80\n        /* \"#utility.yul\":6049:6058   */\n      dup3\n        /* \"#utility.yul\":6045:6064   */\n      add\n        /* \"#utility.yul\":6037:6064   */\n      swap1\n      pop\n        /* \"#utility.yul\":6110:6119   */\n      dup2\n        /* \"#utility.yul\":6104:6108   */\n      dup2\n        /* \"#utility.yul\":6100:6120   */\n      sub\n        /* \"#utility.yul\":6096:6097   */\n      0x00\n        /* \"#utility.yul\":6085:6094   */\n      dup4\n        /* \"#utility.yul\":6081:6098   */\n      add\n        /* \"#utility.yul\":6074:6121   */\n      mstore\n        /* \"#utility.yul\":6138:6216   */\n      tag_240\n        /* \"#utility.yul\":6211:6215   */\n      dup2\n        /* \"#utility.yul\":6202:6208   */\n      dup8\n        /* \"#utility.yul\":6138:6216   */\n      tag_130\n      jump\t// in\n    tag_240:\n        /* \"#utility.yul\":6130:6216   */\n      swap1\n      pop\n        /* \"#utility.yul\":6263:6272   */\n      dup2\n        /* \"#utility.yul\":6257:6261   */\n      dup2\n        /* \"#utility.yul\":6253:6273   */\n      sub\n        /* \"#utility.yul\":6248:6250   */\n      0x20\n        /* \"#utility.yul\":6237:6246   */\n      dup4\n        /* \"#utility.yul\":6233:6251   */\n      add\n        /* \"#utility.yul\":6226:6274   */\n      mstore\n        /* \"#utility.yul\":6291:6369   */\n      tag_241\n        /* \"#utility.yul\":6364:6368   */\n      dup2\n        /* \"#utility.yul\":6355:6361   */\n      dup7\n        /* \"#utility.yul\":6291:6369   */\n      tag_130\n      jump\t// in\n    tag_241:\n        /* \"#utility.yul\":6283:6369   */\n      swap1\n      pop\n        /* \"#utility.yul\":6379:6445   */\n      tag_242\n        /* \"#utility.yul\":6441:6443   */\n      0x40\n        /* \"#utility.yul\":6430:6439   */\n      dup4\n        /* \"#utility.yul\":6426:6444   */\n      add\n        /* \"#utility.yul\":6417:6423   */\n      dup6\n        /* \"#utility.yul\":6379:6445   */\n      tag_125\n      jump\t// in\n    tag_242:\n        /* \"#utility.yul\":6492:6501   */\n      dup2\n        /* \"#utility.yul\":6486:6490   */\n      dup2\n        /* \"#utility.yul\":6482:6502   */\n      sub\n        /* \"#utility.yul\":6477:6479   */\n      0x60\n        /* \"#utility.yul\":6466:6475   */\n      dup4\n        /* \"#utility.yul\":6462:6480   */\n      add\n        /* \"#utility.yul\":6455:6503   */\n      mstore\n        /* \"#utility.yul\":6520:6598   */\n      tag_243\n        /* \"#utility.yul\":6593:6597   */\n      dup2\n        /* \"#utility.yul\":6584:6590   */\n      dup5\n        /* \"#utility.yul\":6520:6598   */\n      tag_130\n      jump\t// in\n    tag_243:\n        /* \"#utility.yul\":6512:6598   */\n      swap1\n      pop\n        /* \"#utility.yul\":5791:6605   */\n      swap6\n      swap5\n      pop\n      pop\n      pop\n      pop\n      pop\n      jump\t// out\n        /* \"#utility.yul\":6611:6729   */\n    tag_140:\n        /* \"#utility.yul\":6698:6722   */\n      tag_245\n        /* \"#utility.yul\":6716:6721   */\n      dup2\n        /* \"#utility.yul\":6698:6722   */\n      tag_121\n      jump\t// in\n    tag_245:\n        /* \"#utility.yul\":6693:6696   */\n      dup3\n        /* \"#utility.yul\":6686:6723   */\n      mstore\n        /* \"#utility.yul\":6611:6729   */\n      pop\n      pop\n      jump\t// out\n        /* \"#utility.yul\":6735:6957   */\n    tag_34:\n        /* \"#utility.yul\":6828:6832   */\n      0x00\n        /* \"#utility.yul\":6866:6868   */\n      0x20\n        /* \"#utility.yul\":6855:6864   */\n      dup3\n        /* \"#utility.yul\":6851:6869   */\n      add\n        /* \"#utility.yul\":6843:6869   */\n      swap1\n      pop\n        /* \"#utility.yul\":6879:6950   */\n      tag_247\n        /* \"#utility.yul\":6947:6948   */\n      0x00\n        /* \"#utility.yul\":6936:6945   */\n      dup4\n        /* \"#utility.yul\":6932:6949   */\n      add\n        /* \"#utility.yul\":6923:6929   */\n      dup5\n        /* \"#utility.yul\":6879:6950   */\n      tag_140\n      jump\t// in\n    tag_247:\n        /* \"#utility.yul\":6735:6957   */\n      swap3\n      swap2\n      pop\n      pop\n      jump\t// out\n        /* \"#utility.yul\":6963:8122   */\n    tag_41:\n        /* \"#utility.yul\":7070:7076   */\n      0x00\n        /* \"#utility.yul\":7078:7084   */\n      dup1\n        /* \"#utility.yul\":7086:7092   */\n      0x00\n        /* \"#utility.yul\":7135:7137   */\n      0x60\n        /* \"#utility.yul\":7123:7132   */\n      dup5\n        /* \"#utility.yul\":7114:7121   */\n      dup7\n        /* \"#utility.yul\":7110:7133   */\n      sub\n        /* \"#utility.yul\":7106:7138   */\n      slt\n        /* \"#utility.yul\":7103:7222   */\n      iszero\n      tag_249\n      jumpi\n        /* \"#utility.yul\":7141:7220   */\n      tag_250\n      tag_118\n      jump\t// in\n    tag_250:\n        /* \"#utility.yul\":7103:7222   */\n    tag_249:\n        /* \"#utility.yul\":7289:7290   */\n      0x00\n        /* \"#utility.yul\":7278:7287   */\n      dup5\n        /* \"#utility.yul\":7274:7291   */\n      add\n        /* \"#utility.yul\":7261:7292   */\n      calldataload\n        /* \"#utility.yul\":7319:7337   */\n      0xffffffffffffffff\n        /* \"#utility.yul\":7311:7317   */\n      dup2\n        /* \"#utility.yul\":7308:7338   */\n      gt\n        /* \"#utility.yul\":7305:7422   */\n      iszero\n      tag_251\n      jumpi\n        /* \"#utility.yul\":7341:7420   */\n      tag_252\n      tag_119\n      jump\t// in\n    tag_252:\n        /* \"#utility.yul\":7305:7422   */\n    tag_251:\n        /* \"#utility.yul\":7446:7509   */\n      tag_253\n        /* \"#utility.yul\":7501:7508   */\n      dup7\n        /* \"#utility.yul\":7492:7498   */\n      dup3\n        /* \"#utility.yul\":7481:7490   */\n      dup8\n        /* \"#utility.yul\":7477:7499   */\n      add\n        /* \"#utility.yul\":7446:7509   */\n      tag_139\n      jump\t// in\n    tag_253:\n        /* \"#utility.yul\":7436:7509   */\n      swap4\n      pop\n        /* \"#utility.yul\":7232:7519   */\n      pop\n        /* \"#utility.yul\":7586:7588   */\n      0x20\n        /* \"#utility.yul\":7575:7584   */\n      dup5\n        /* \"#utility.yul\":7571:7589   */\n      add\n        /* \"#utility.yul\":7558:7590   */\n      calldataload\n        /* \"#utility.yul\":7617:7635   */\n      0xffffffffffffffff\n        /* \"#utility.yul\":7609:7615   */\n      dup2\n        /* \"#utility.yul\":7606:7636   */\n      gt\n        /* \"#utility.yul\":7603:7720   */\n      iszero\n      tag_254\n      jumpi\n        /* \"#utility.yul\":7639:7718   */\n      tag_255\n      tag_119\n      jump\t// in\n    tag_255:\n        /* \"#utility.yul\":7603:7720   */\n    tag_254:\n        /* \"#utility.yul\":7744:7807   */\n      tag_256\n        /* \"#utility.yul\":7799:7806   */\n      dup7\n        /* \"#utility.yul\":7790:7796   */\n      dup3\n        /* \"#utility.yul\":7779:7788   */\n      dup8\n        /* \"#utility.yul\":7775:7797   */\n      add\n        /* \"#utility.yul\":7744:7807   */\n      tag_139\n      jump\t// in\n    tag_256:\n        /* \"#utility.yul\":7734:7807   */\n      swap3\n      pop\n        /* \"#utility.yul\":7529:7817   */\n      pop\n        /* \"#utility.yul\":7884:7886   */\n      0x40\n        /* \"#utility.yul\":7873:7882   */\n      dup5\n        /* \"#utility.yul\":7869:7887   */\n      add\n        /* \"#utility.yul\":7856:7888   */\n      calldataload\n        /* \"#utility.yul\":7915:7933   */\n      0xffffffffffffffff\n        /* \"#utility.yul\":7907:7913   */\n      dup2\n        /* \"#utility.yul\":7904:7934   */\n      gt\n        /* \"#utility.yul\":7901:8018   */\n      iszero\n      tag_257\n      jumpi\n        /* \"#utility.yul\":7937:8016   */\n      tag_258\n      tag_119\n      jump\t// in\n    tag_258:\n        /* \"#utility.yul\":7901:8018   */\n    tag_257:\n        /* \"#utility.yul\":8042:8105   */\n      tag_259\n        /* \"#utility.yul\":8097:8104   */\n      dup7\n        /* \"#utility.yul\":8088:8094   */\n      dup3\n        /* \"#utility.yul\":8077:8086   */\n      dup8\n        /* \"#utility.yul\":8073:8095   */\n      add\n        /* \"#utility.yul\":8042:8105   */\n      tag_139\n      jump\t// in\n    tag_259:\n        /* \"#utility.yul\":8032:8105   */\n      swap2\n      pop\n        /* \"#utility.yul\":7827:8115   */\n      pop\n        /* \"#utility.yul\":6963:8122   */\n      swap3\n      pop\n      swap3\n      pop\n      swap3\n      jump\t// out\n        /* \"#utility.yul\":8128:8300   */\n    tag_141:\n        /* \"#utility.yul\":8268:8292   */\n      0x55736572206973206e6f74207265676973746572656400000000000000000000\n        /* \"#utility.yul\":8264:8265   */\n      0x00\n        /* \"#utility.yul\":8256:8262   */\n      dup3\n        /* \"#utility.yul\":8252:8266   */\n      add\n        /* \"#utility.yul\":8245:8293   */\n      mstore\n        /* \"#utility.yul\":8128:8300   */\n      pop\n      jump\t// out\n        /* \"#utility.yul\":8306:8672   */\n    tag_142:\n        /* \"#utility.yul\":8448:8451   */\n      0x00\n        /* \"#utility.yul\":8469:8536   */\n      tag_262\n        /* \"#utility.yul\":8533:8535   */\n      0x16\n        /* \"#utility.yul\":8528:8531   */\n      dup4\n        /* \"#utility.yul\":8469:8536   */\n      tag_127\n      jump\t// in\n    tag_262:\n        /* \"#utility.yul\":8462:8536   */\n      swap2\n      pop\n        /* \"#utility.yul\":8545:8638   */\n      tag_263\n        /* \"#utility.yul\":8634:8637   */\n      dup3\n        /* \"#utility.yul\":8545:8638   */\n      tag_141\n      jump\t// in\n    tag_263:\n        /* \"#utility.yul\":8663:8665   */\n      0x20\n        /* \"#utility.yul\":8658:8661   */\n      dup3\n        /* \"#utility.yul\":8654:8666   */\n      add\n        /* \"#utility.yul\":8647:8666   */\n      swap1\n      pop\n        /* \"#utility.yul\":8306:8672   */\n      swap2\n      swap1\n      pop\n      jump\t// out\n        /* \"#utility.yul\":8678:9097   */\n    tag_47:\n        /* \"#utility.yul\":8844:8848   */\n      0x00\n        /* \"#utility.yul\":8882:8884   */\n      0x20\n        /* \"#utility.yul\":8871:8880   */\n      dup3\n        /* \"#utility.yul\":8867:8885   */\n      add\n        /* \"#utility.yul\":8859:8885   */\n      swap1\n      pop\n        /* \"#utility.yul\":8931:8940   */\n      dup2\n        /* \"#utility.yul\":8925:8929   */\n      dup2\n        /* \"#utility.yul\":8921:8941   */\n      sub\n        /* \"#utility.yul\":8917:8918   */\n      0x00\n        /* \"#utility.yul\":8906:8915   */\n      dup4\n        /* \"#utility.yul\":8902:8919   */\n      add\n        /* \"#utility.yul\":8895:8942   */\n      mstore\n        /* \"#utility.yul\":8959:9090   */\n      tag_265\n        /* \"#utility.yul\":9085:9089   */\n      dup2\n        /* \"#utility.yul\":8959:9090   */\n      tag_142\n      jump\t// in\n    tag_265:\n        /* \"#utility.yul\":8951:9090   */\n      swap1\n      pop\n        /* \"#utility.yul\":8678:9097   */\n      swap2\n      swap1\n      pop\n      jump\t// out\n        /* \"#utility.yul\":9103:9283   */\n    tag_143:\n        /* \"#utility.yul\":9151:9228   */\n      0x4e487b7100000000000000000000000000000000000000000000000000000000\n        /* \"#utility.yul\":9148:9149   */\n      0x00\n        /* \"#utility.yul\":9141:9229   */\n      mstore\n        /* \"#utility.yul\":9248:9252   */\n      0x22\n        /* \"#utility.yul\":9245:9246   */\n      0x04\n        /* \"#utility.yul\":9238:9253   */\n      mstore\n        /* \"#utility.yul\":9272:9276   */\n      0x24\n        /* \"#utility.yul\":9269:9270   */\n      0x00\n        /* \"#utility.yul\":9262:9277   */\n      revert\n        /* \"#utility.yul\":9289:9609   */\n    tag_49:\n        /* \"#utility.yul\":9333:9339   */\n      0x00\n        /* \"#utility.yul\":9370:9371   */\n      0x02\n        /* \"#utility.yul\":9364:9368   */\n      dup3\n        /* \"#utility.yul\":9360:9372   */\n      div\n        /* \"#utility.yul\":9350:9372   */\n      swap1\n      pop\n        /* \"#utility.yul\":9417:9418   */\n      0x01\n        /* \"#utility.yul\":9411:9415   */\n      dup3\n        /* \"#utility.yul\":9407:9419   */\n      and\n        /* \"#utility.yul\":9438:9456   */\n      dup1\n        /* \"#utility.yul\":9428:9509   */\n      tag_268\n      jumpi\n        /* \"#utility.yul\":9494:9498   */\n      0x7f\n        /* \"#utility.yul\":9486:9492   */\n      dup3\n        /* \"#utility.yul\":9482:9499   */\n      and\n        /* \"#utility.yul\":9472:9499   */\n      swap2\n      pop\n        /* \"#utility.yul\":9428:9509   */\n    tag_268:\n        /* \"#utility.yul\":9556:9558   */\n      0x20\n        /* \"#utility.yul\":9548:9554   */\n      dup3\n        /* \"#utility.yul\":9545:9559   */\n      lt\n        /* \"#utility.yul\":9525:9543   */\n      dup2\n        /* \"#utility.yul\":9522:9560   */\n      sub\n        /* \"#utility.yul\":9519:9603   */\n      tag_269\n      jumpi\n        /* \"#utility.yul\":9575:9593   */\n      tag_270\n      tag_143\n      jump\t// in\n    tag_270:\n        /* \"#utility.yul\":9519:9603   */\n    tag_269:\n        /* \"#utility.yul\":9340:9609   */\n      pop\n        /* \"#utility.yul\":9289:9609   */\n      swap2\n      swap1\n      pop\n      jump\t// out\n        /* \"#utility.yul\":9615:9756   */\n    tag_144:\n        /* \"#utility.yul\":9664:9668   */\n      0x00\n        /* \"#utility.yul\":9687:9690   */\n      dup2\n        /* \"#utility.yul\":9679:9690   */\n      swap1\n      pop\n        /* \"#utility.yul\":9710:9713   */\n      dup2\n        /* \"#utility.yul\":9707:9708   */\n      0x00\n        /* \"#utility.yul\":9700:9714   */\n      mstore\n        /* \"#utility.yul\":9744:9748   */\n      0x20\n        /* \"#utility.yul\":9741:9742   */\n      0x00\n        /* \"#utility.yul\":9731:9749   */\n      keccak256\n        /* \"#utility.yul\":9723:9749   */\n      swap1\n      pop\n        /* \"#utility.yul\":9615:9756   */\n      swap2\n      swap1\n      pop\n      jump\t// out\n        /* \"#utility.yul\":9762:9855   */\n    tag_145:\n        /* \"#utility.yul\":9799:9805   */\n      0x00\n        /* \"#utility.yul\":9846:9848   */\n      0x20\n        /* \"#utility.yul\":9841:9843   */\n      0x1f\n        /* \"#utility.yul\":9834:9839   */\n      dup4\n        /* \"#utility.yul\":9830:9844   */\n      add\n        /* \"#utility.yul\":9826:9849   */\n      div\n        /* \"#utility.yul\":9816:9849   */\n      swap1\n      pop\n        /* \"#utility.yul\":9762:9855   */\n      swap2\n      swap1\n      pop\n      jump\t// out\n        /* \"#utility.yul\":9861:9968   */\n    tag_146:\n        /* \"#utility.yul\":9905:9913   */\n      0x00\n        /* \"#utility.yul\":9955:9960   */\n      dup3\n        /* \"#utility.yul\":9949:9953   */\n      dup3\n        /* \"#utility.yul\":9945:9961   */\n      shl\n        /* \"#utility.yul\":9924:9961   */\n      swap1\n      pop\n        /* \"#utility.yul\":9861:9968   */\n      swap3\n      swap2\n      pop\n      pop\n      jump\t// out\n        /* \"#utility.yul\":9974:10367   */\n    tag_147:\n        /* \"#utility.yul\":10043:10049   */\n      0x00\n        /* \"#utility.yul\":10093:10094   */\n      0x08\n        /* \"#utility.yul\":10081:10091   */\n      dup4\n        /* \"#utility.yul\":10077:10095   */\n      mul\n        /* \"#utility.yul\":10116:10213   */\n      tag_275\n        /* \"#utility.yul\":10146:10212   */\n      0xffffffffffffffffffffffffffffffffffffffffffffffffffffffffffffffff\n        /* \"#utility.yul\":10135:10144   */\n      dup3\n        /* \"#utility.yul\":10116:10213   */\n      tag_146\n      jump\t// in\n    tag_275:\n        /* \"#utility.yul\":10234:10273   */\n      tag_276\n        /* \"#utility.yul\":10264:10272   */\n      dup7\n        /* \"#utility.yul\":10253:10262   */\n      dup4\n        /* \"#utility.yul\":10234:10273   */\n      tag_146\n      jump\t// in\n    tag_276:\n        /* \"#utility.yul\":10222:10273   */\n      swap6\n      pop\n        /* \"#utility.yul\":10306:10310   */\n      dup1\n        /* \"#utility.yul\":10302:10311   */\n      not\n        /* \"#utility.yul\":10295:10300   */\n      dup5\n        /* \"#utility.yul\":10291:10312   */\n      and\n        /* \"#utility.yul\":10282:10312   */\n      swap4\n      pop\n        /* \"#utility.yul\":10355:10359   */\n      dup1\n        /* \"#utility.yul\":10345:10353   */\n      dup7\n        /* \"#utility.yul\":10341:10360   */\n      and\n        /* \"#utility.yul\":10334:10339   */\n      dup5\n        /* \"#utility.yul\":10331:10361   */\n      or\n        /* \"#utility.yul\":10321:10361   */\n      swap3\n      pop\n        /* \"#utility.yul\":10050:10367   */\n      pop\n      pop\n        /* \"#utility.yul\":9974:10367   */\n      swap4\n      swap3\n      pop\n      pop\n      pop\n      jump\t// out\n        /* \"#utility.yul\":10373:10450   */\n    tag_148:\n        /* \"#utility.yul\":10410:10417   */\n      0x00\n        /* \"#utility.yul\":10439:10444   */\n      dup2\n        /* \"#utility.yul\":10428:10444   */\n      swap1\n      pop\n        /* \"#utility.yul\":10373:10450   */\n      swap2\n      swap1\n      pop\n      jump\t// out\n        /* \"#utility.yul\":10456:10516   */\n    tag_149:\n        /* \"#utility.yul\":10484:10487   */\n      0x00\n        /* \"#utility.yul\":10505:10510   */\n      dup2\n        /* \"#utility.yul\":10498:10510   */\n      swap1\n      pop\n        /* \"#utility.yul\":10456:10516   */\n      swap2\n      swap1\n      pop\n      jump\t// out\n        /* \"#utility.yul\":10522:10664   */\n    tag_150:\n        /* \"#utility.yul\":10572:10581   */\n      0x00\n        /* \"#utility.yul\":10605:10658   */\n      tag_280\n        /* \"#utility.yul\":10623:10657   */\n      tag_281\n        /* \"#utility.yul\":10632:10656   */\n      tag_282\n        /* \"#utility.yul\":10650:10655   */\n      dup5\n        /* \"#utility.yul\":10632:10656   */\n      tag_148\n      jump\t// in\n    tag_282:\n        /* \"#utility.yul\":10623:10657   */\n      tag_149\n      jump\t// in\n    tag_281:\n        /* \"#utility.yul\":10605:10658   */\n      tag_148\n      jump\t// in\n    tag_280:\n        /* \"#utility.yul\":10592:10658   */\n      swap1\n      pop\n        /* \"#utility.yul\":10522:10664   */\n      swap2\n      swap1\n      pop\n      jump\t// out\n        /* \"#utility.yul\":10670:10745   */\n    tag_151:\n        /* \"#utility.yul\":10713:10716   */\n      0x00\n        /* \"#utility.yul\":10734:10739   */\n      dup2\n        /* \"#utility.yul\":10727:10739   */\n      swap1\n      pop\n        /* \"#utility.yul\":10670:10745   */\n      swap2\n      swap1\n      pop\n      jump\t// out\n        /* \"#utility.yul\":10751:11020   */\n    tag_152:\n        /* \"#utility.yul\":10861:10900   */\n      tag_285\n        /* \"#utility.yul\":10892:10899   */\n      dup4\n        /* \"#utility.yul\":10861:10900   */\n      tag_150\n      jump\t// in\n    tag_285:\n        /* \"#utility.yul\":10922:11013   */\n      tag_286\n        /* \"#utility.yul\":10971:11012   */\n      tag_287\n        /* \"#utility.yul\":10995:11011   */\n      dup3\n        /* \"#utility.yul\":10971:11012   */\n      tag_151\n      jump\t// in\n    tag_287:\n        /* \"#utility.yul\":10963:10969   */\n      dup5\n        /* \"#utility.yul\":10956:10960   */\n      dup5\n        /* \"#utility.yul\":10950:10961   */\n      sload\n        /* \"#utility.yul\":10922:11013   */\n      tag_147\n      jump\t// in\n    tag_286:\n        /* \"#utility.yul\":10916:10920   */\n      dup3\n        /* \"#utility.yul\":10909:11014   */\n      sstore\n        /* \"#utility.yul\":10827:11020   */\n      pop\n        /* \"#utility.yul\":10751:11020   */\n      pop\n      pop\n      pop\n      jump\t// out\n        /* \"#utility.yul\":11026:11099   */\n    tag_153:\n        /* \"#utility.yul\":11071:11074   */\n      0x00\n        /* \"#utility.yul\":11026:11099   */\n      swap1\n      jump\t// out\n        /* \"#utility.yul\":11105:11294   */\n    tag_154:\n        /* \"#utility.yul\":11182:11214   */\n      tag_290\n      tag_153\n      jump\t// in\n    tag_290:\n        /* \"#utility.yul\":11223:11288   */\n      tag_291\n        /* \"#utility.yul\":11281:11287   */\n      dup2\n        /* \"#utility.yul\":11273:11279   */\n      dup5\n        /* \"#utility.yul\":11267:11271   */\n      dup5\n        /* \"#utility.yul\":11223:11288   */\n      tag_152\n      jump\t// in\n    tag_291:\n        /* \"#utility.yul\":11158:11294   */\n      pop\n        /* \"#utility.yul\":11105:11294   */\n      pop\n      pop\n      jump\t// out\n        /* \"#utility.yul\":11300:11486   */\n    tag_155:\n        /* \"#utility.yul\":11360:11480   */\n    tag_293:\n        /* \"#utility.yul\":11377:11380   */\n      dup2\n        /* \"#utility.yul\":11370:11375   */\n      dup2\n        /* \"#utility.yul\":11367:11381   */\n      lt\n        /* \"#utility.yul\":11360:11480   */\n      iszero\n      tag_295\n      jumpi\n        /* \"#utility.yul\":11431:11470   */\n      tag_296\n        /* \"#utility.yul\":11468:11469   */\n      0x00\n        /* \"#utility.yul\":11461:11466   */\n      dup3\n        /* \"#utility.yul\":11431:11470   */\n      tag_154\n      jump\t// in\n    tag_296:\n        /* \"#utility.yul\":11404:11405   */\n      0x01\n        /* \"#utility.yul\":11397:11402   */\n      dup2\n        /* \"#utility.yul\":11393:11406   */\n      add\n        /* \"#utility.yul\":11384:11406   */\n      swap1\n      pop\n        /* \"#utility.yul\":11360:11480   */\n      jump(tag_293)\n    tag_295:\n        /* \"#utility.yul\":11300:11486   */\n      pop\n      pop\n      jump\t// out\n        /* \"#utility.yul\":11492:12035   */\n    tag_156:\n        /* \"#utility.yul\":11593:11595   */\n      0x1f\n        /* \"#utility.yul\":11588:11591   */\n      dup3\n        /* \"#utility.yul\":11585:11596   */\n      gt\n        /* \"#utility.yul\":11582:12028   */\n      iszero\n      tag_298\n      jumpi\n        /* \"#utility.yul\":11627:11665   */\n      tag_299\n        /* \"#utility.yul\":11659:11664   */\n      dup2\n        /* \"#utility.yul\":11627:11665   */\n      tag_144\n      jump\t// in\n    tag_299:\n        /* \"#utility.yul\":11711:11740   */\n      tag_300\n        /* \"#utility.yul\":11729:11739   */\n      dup5\n        /* \"#utility.yul\":11711:11740   */\n      tag_145\n      jump\t// in\n    tag_300:\n        /* \"#utility.yul\":11701:11709   */\n      dup2\n        /* \"#utility.yul\":11697:11741   */\n      add\n        /* \"#utility.yul\":11894:11896   */\n      0x20\n        /* \"#utility.yul\":11882:11892   */\n      dup6\n        /* \"#utility.yul\":11879:11897   */\n      lt\n        /* \"#utility.yul\":11876:11925   */\n      iszero\n      tag_301\n      jumpi\n        /* \"#utility.yul\":11915:11923   */\n      dup2\n        /* \"#utility.yul\":11900:11923   */\n      swap1\n      pop\n        /* \"#utility.yul\":11876:11925   */\n    tag_301:\n        /* \"#utility.yul\":11938:12018   */\n      tag_302\n        /* \"#utility.yul\":11994:12016   */\n      tag_303\n        /* \"#utility.yul\":12012:12015   */\n      dup6\n        /* \"#utility.yul\":11994:12016   */\n      tag_145\n      jump\t// in\n    tag_303:\n        /* \"#utility.yul\":11984:11992   */\n      dup4\n        /* \"#utility.yul\":11980:12017   */\n      add\n        /* \"#utility.yul\":11967:11978   */\n      dup3\n        /* \"#utility.yul\":11938:12018   */\n      tag_155\n      jump\t// in\n    tag_302:\n        /* \"#utility.yul\":11597:12028   */\n      pop\n      pop\n        /* \"#utility.yul\":11582:12028   */\n    tag_298:\n        /* \"#utility.yul\":11492:12035   */\n      pop\n      pop\n      pop\n      jump\t// out\n        /* \"#utility.yul\":12041:12158   */\n    tag_157:\n        /* \"#utility.yul\":12095:12103   */\n      0x00\n        /* \"#utility.yul\":12145:12150   */\n      dup3\n        /* \"#utility.yul\":12139:12143   */\n      dup3\n        /* \"#utility.yul\":12135:12151   */\n      shr\n        /* \"#utility.yul\":12114:12151   */\n      swap1\n      pop\n        /* \"#utility.yul\":12041:12158   */\n      swap3\n      swap2\n      pop\n      pop\n      jump\t// out\n        /* \"#utility.yul\":12164:12333   */\n    tag_158:\n        /* \"#utility.yul\":12208:12214   */\n      0x00\n        /* \"#utility.yul\":12241:12292   */\n      tag_306\n        /* \"#utility.yul\":12289:12290   */\n      0x00\n        /* \"#utility.yul\":12285:12291   */\n      not\n        /* \"#utility.yul\":12277:12282   */\n      dup5\n        /* \"#utility.yul\":12274:12275   */\n      0x08\n        /* \"#utility.yul\":12270:12283   */\n      mul\n        /* \"#utility.yul\":12241:12292   */\n      tag_157\n      jump\t// in\n    tag_306:\n        /* \"#utility.yul\":12237:12293   */\n      not\n        /* \"#utility.yul\":12322:12326   */\n      dup1\n        /* \"#utility.yul\":12316:12320   */\n      dup4\n        /* \"#utility.yul\":12312:12327   */\n      and\n        /* \"#utility.yul\":12302:12327   */\n      swap2\n      pop\n        /* \"#utility.yul\":12215:12333   */\n      pop\n        /* \"#utility.yul\":12164:12333   */\n      swap3\n      swap2\n      pop\n      pop\n      jump\t// out\n        /* \"#utility.yul\":12338:12633   */\n    tag_159:\n        /* \"#utility.yul\":12414:12418   */\n      0x00\n        /* \"#utility.yul\":12560:12589   */\n      tag_308\n        /* \"#utility.yul\":12585:12588   */\n      dup4\n        /* \"#utility.yul\":12579:12583   */\n      dup4\n        /* \"#utility.yul\":12560:12589   */\n      tag_158\n      jump\t// in\n    tag_308:\n        /* \"#utility.yul\":12552:12589   */\n      swap2\n      pop\n        /* \"#utility.yul\":12622:12625   */\n      dup3\n        /* \"#utility.yul\":12619:12620   */\n      0x02\n        /* \"#utility.yul\":12615:12626   */\n      mul\n        /* \"#utility.yul\":12609:12613   */\n      dup3\n        /* \"#utility.yul\":12606:12627   */\n      or\n        /* \"#utility.yul\":12598:12627   */\n      swap1\n      pop\n        /* \"#utility.yul\":12338:12633   */\n      swap3\n      swap2\n      pop\n      pop\n      jump\t// out\n        /* \"#utility.yul\":12638:14033   */\n    tag_58:\n        /* \"#utility.yul\":12755:12792   */\n      tag_310\n        /* \"#utility.yul\":12788:12791   */\n      dup3\n        /* \"#utility.yul\":12755:12792   */\n      tag_126\n      jump\t// in\n    tag_310:\n        /* \"#utility.yul\":12857:12875   */\n      0xffffffffffffffff\n        /* \"#utility.yul\":12849:12855   */\n      dup2\n        /* \"#utility.yul\":12846:12876   */\n      gt\n        /* \"#utility.yul\":12843:12899   */\n      iszero\n      tag_311\n      jumpi\n        /* \"#utility.yul\":12879:12897   */\n      tag_312\n      tag_133\n      jump\t// in\n    tag_312:\n        /* \"#utility.yul\":12843:12899   */\n    tag_311:\n        /* \"#utility.yul\":12923:12961   */\n      tag_313\n        /* \"#utility.yul\":12955:12959   */\n      dup3\n        /* \"#utility.yul\":12949:12960   */\n      sload\n        /* \"#utility.yul\":12923:12961   */\n      tag_49\n      jump\t// in\n    tag_313:\n        /* \"#utility.yul\":13008:13075   */\n      tag_314\n        /* \"#utility.yul\":13068:13074   */\n      dup3\n        /* \"#utility.yul\":13060:13066   */\n      dup3\n        /* \"#utility.yul\":13054:13058   */\n      dup6\n        /* \"#utility.yul\":13008:13075   */\n      tag_156\n      jump\t// in\n    tag_314:\n        /* \"#utility.yul\":13102:13103   */\n      0x00\n        /* \"#utility.yul\":13126:13130   */\n      0x20\n        /* \"#utility.yul\":13113:13130   */\n      swap1\n      pop\n        /* \"#utility.yul\":13158:13160   */\n      0x1f\n        /* \"#utility.yul\":13150:13156   */\n      dup4\n        /* \"#utility.yul\":13147:13161   */\n      gt\n        /* \"#utility.yul\":13175:13176   */\n      0x01\n        /* \"#utility.yul\":13170:13788   */\n      dup2\n      eq\n      tag_316\n      jumpi\n        /* \"#utility.yul\":13832:13833   */\n      0x00\n        /* \"#utility.yul\":13849:13855   */\n      dup5\n        /* \"#utility.yul\":13846:13923   */\n      iszero\n      tag_317\n      jumpi\n        /* \"#utility.yul\":13898:13907   */\n      dup3\n        /* \"#utility.yul\":13893:13896   */\n      dup8\n        /* \"#utility.yul\":13889:13908   */\n      add\n        /* \"#utility.yul\":13883:13909   */\n      mload\n        /* \"#utility.yul\":13874:13909   */\n      swap1\n      pop\n        /* \"#utility.yul\":13846:13923   */\n    tag_317:\n        /* \"#utility.yul\":13949:14016   */\n      tag_318\n        /* \"#utility.yul\":14009:14015   */\n      dup6\n        /* \"#utility.yul\":14002:14007   */\n      dup3\n        /* \"#utility.yul\":13949:14016   */\n      tag_159\n      jump\t// in\n    tag_318:\n        /* \"#utility.yul\":13943:13947   */\n      dup7\n        /* \"#utility.yul\":13936:14017   */\n      sstore\n        /* \"#utility.yul\":13805:14027   */\n      pop\n        /* \"#utility.yul\":13140:14027   */\n      jump(tag_315)\n        /* \"#utility.yul\":13170:13788   */\n    tag_316:\n        /* \"#utility.yul\":13222:13226   */\n      0x1f\n        /* \"#utility.yul\":13218:13227   */\n      not\n        /* \"#utility.yul\":13210:13216   */\n      dup5\n        /* \"#utility.yul\":13206:13228   */\n      and\n        /* \"#utility.yul\":13256:13293   */\n      tag_319\n        /* \"#utility.yul\":13288:13292   */\n      dup7\n        /* \"#utility.yul\":13256:13293   */\n      tag_144\n      jump\t// in\n    tag_319:\n        /* \"#utility.yul\":13315:13316   */\n      0x00\n        /* \"#utility.yul\":13329:13537   */\n    tag_320:\n        /* \"#utility.yul\":13343:13350   */\n      dup3\n        /* \"#utility.yul\":13340:13341   */\n      dup2\n        /* \"#utility.yul\":13337:13351   */\n      lt\n        /* \"#utility.yul\":13329:13537   */\n      iszero\n      tag_322\n      jumpi\n        /* \"#utility.yul\":13422:13431   */\n      dup5\n        /* \"#utility.yul\":13417:13420   */\n      dup10\n        /* \"#utility.yul\":13413:13432   */\n      add\n        /* \"#utility.yul\":13407:13433   */\n      mload\n        /* \"#utility.yul\":13399:13405   */\n      dup3\n        /* \"#utility.yul\":13392:13434   */\n      sstore\n        /* \"#utility.yul\":13473:13474   */\n      0x01\n        /* \"#utility.yul\":13465:13471   */\n      dup3\n        /* \"#utility.yul\":13461:13475   */\n      add\n        /* \"#utility.yul\":13451:13475   */\n      swap2\n      pop\n        /* \"#utility.yul\":13520:13522   */\n      0x20\n        /* \"#utility.yul\":13509:13518   */\n      dup6\n        /* \"#utility.yul\":13505:13523   */\n      add\n        /* \"#utility.yul\":13492:13523   */\n      swap5\n      pop\n        /* \"#utility.yul\":13366:13370   */\n      0x20\n        /* \"#utility.yul\":13363:13364   */\n      dup2\n        /* \"#utility.yul\":13359:13371   */\n      add\n        /* \"#utility.yul\":13354:13371   */\n      swap1\n      pop\n        /* \"#utility.yul\":13329:13537   */\n      jump(tag_320)\n    tag_322:\n        /* \"#utility.yul\":13565:13571   */\n      dup7\n        /* \"#utility.yul\":13556:13563   */\n      dup4\n        /* \"#utility.yul\":13553:13572   */\n      lt\n        /* \"#utility.yul\":13550:13729   */\n      iszero\n      tag_323\n      jumpi\n        /* \"#utility.yul\":13623:13632   */\n      dup5\n        /* \"#utility.yul\":13618:13621   */\n      dup10\n        /* \"#utility.yul\":13614:13633   */\n      add\n        /* \"#utility.yul\":13608:13634   */\n      mload\n        /* \"#utility.yul\":13666:13714   */\n      tag_324\n        /* \"#utility.yul\":13708:13712   */\n      0x1f\n        /* \"#utility.yul\":13700:13706   */\n      dup10\n        /* \"#utility.yul\":13696:13713   */\n      and\n        /* \"#utility.yul\":13685:13694   */\n      dup3\n        /* \"#utility.yul\":13666:13714   */\n      tag_158\n      jump\t// in\n    tag_324:\n        /* \"#utility.yul\":13658:13664   */\n      dup4\n        /* \"#utility.yul\":13651:13715   */\n      sstore\n        /* \"#utility.yul\":13573:13729   */\n      pop\n        /* \"#utility.yul\":13550:13729   */\n    tag_323:\n        /* \"#utility.yul\":13775:13776   */\n      0x01\n        /* \"#utility.yul\":13771:13772   */\n      0x02\n        /* \"#utility.yul\":13763:13769   */\n      dup9\n        /* \"#utility.yul\":13759:13773   */\n      mul\n        /* \"#utility.yul\":13755:13777   */\n      add\n        /* \"#utility.yul\":13749:13753   */\n      dup9\n        /* \"#utility.yul\":13742:13778   */\n      sstore\n        /* \"#utility.yul\":13177:13788   */\n      pop\n      pop\n      pop\n        /* \"#utility.yul\":13140:14027   */\n    tag_315:\n      pop\n        /* \"#utility.yul\":12730:14033   */\n      pop\n      pop\n      pop\n        /* \"#utility.yul\":12638:14033   */\n      pop\n      pop\n      jump\t// out\n        /* \"#utility.yul\":14063:14894   */\n    tag_160:\n        /* \"#utility.yul\":14148:14151   */\n      0x00\n        /* \"#utility.yul\":14185:14190   */\n      dup2\n        /* \"#utility.yul\":14179:14191   */\n      sload\n        /* \"#utility.yul\":14214:14250   */\n      tag_326\n        /* \"#utility.yul\":14240:14249   */\n      dup2\n        /* \"#utility.yul\":14214:14250   */\n      tag_49\n      jump\t// in\n    tag_326:\n        /* \"#utility.yul\":14266:14337   */\n      tag_327\n        /* \"#utility.yul\":14330:14336   */\n      dup2\n        /* \"#utility.yul\":14325:14328   */\n      dup7\n        /* \"#utility.yul\":14266:14337   */\n      tag_127\n      jump\t// in\n    tag_327:\n        /* \"#utility.yul\":14259:14337   */\n      swap5\n      pop\n        /* \"#utility.yul\":14368:14369   */\n      0x01\n        /* \"#utility.yul\":14357:14366   */\n      dup3\n        /* \"#utility.yul\":14353:14370   */\n      and\n        /* \"#utility.yul\":14384:14385   */\n      0x00\n        /* \"#utility.yul\":14379:14543   */\n      dup2\n      eq\n      tag_329\n      jumpi\n        /* \"#utility.yul\":14557:14558   */\n      0x01\n        /* \"#utility.yul\":14552:14888   */\n      dup2\n      eq\n      tag_330\n      jumpi\n        /* \"#utility.yul\":14346:14888   */\n      jump(tag_328)\n        /* \"#utility.yul\":14379:14543   */\n    tag_329:\n        /* \"#utility.yul\":14463:14467   */\n      0xff\n        /* \"#utility.yul\":14459:14468   */\n      not\n        /* \"#utility.yul\":14448:14457   */\n      dup4\n        /* \"#utility.yul\":14444:14469   */\n      and\n        /* \"#utility.yul\":14439:14442   */\n      dup7\n        /* \"#utility.yul\":14432:14470   */\n      mstore\n        /* \"#utility.yul\":14523:14529   */\n      dup2\n        /* \"#utility.yul\":14516:14530   */\n      iszero\n        /* \"#utility.yul\":14509:14531   */\n      iszero\n        /* \"#utility.yul\":14503:14507   */\n      0x20\n        /* \"#utility.yul\":14499:14532   */\n      mul\n        /* \"#utility.yul\":14494:14497   */\n      dup7\n        /* \"#utility.yul\":14490:14533   */\n      add\n        /* \"#utility.yul\":14483:14533   */\n      swap4\n      pop\n        /* \"#utility.yul\":14379:14543   */\n      jump(tag_328)\n        /* \"#utility.yul\":14552:14888   */\n    tag_330:\n        /* \"#utility.yul\":14619:14657   */\n      tag_331\n        /* \"#utility.yul\":14651:14656   */\n      dup6\n        /* \"#utility.yul\":14619:14657   */\n      tag_144\n      jump\t// in\n    tag_331:\n        /* \"#utility.yul\":14679:14680   */\n      0x00\n        /* \"#utility.yul\":14693:14847   */\n    tag_332:\n        /* \"#utility.yul\":14707:14713   */\n      dup4\n        /* \"#utility.yul\":14704:14705   */\n      dup2\n        /* \"#utility.yul\":14701:14714   */\n      lt\n        /* \"#utility.yul\":14693:14847   */\n      iszero\n      tag_334\n      jumpi\n        /* \"#utility.yul\":14781:14788   */\n      dup2\n        /* \"#utility.yul\":14775:14789   */\n      sload\n        /* \"#utility.yul\":14771:14772   */\n      dup2\n        /* \"#utility.yul\":14766:14769   */\n      dup10\n        /* \"#utility.yul\":14762:14773   */\n      add\n        /* \"#utility.yul\":14755:14790   */\n      mstore\n        /* \"#utility.yul\":14831:14832   */\n      0x01\n        /* \"#utility.yul\":14822:14829   */\n      dup3\n        /* \"#utility.yul\":14818:14833   */\n      add\n        /* \"#utility.yul\":14807:14833   */\n      swap2\n      pop\n        /* \"#utility.yul\":14729:14733   */\n      0x20\n        /* \"#utility.yul\":14726:14727   */\n      dup2\n        /* \"#utility.yul\":14722:14734   */\n      add\n        /* \"#utility.yul\":14717:14734   */\n      swap1\n      pop\n        /* \"#utility.yul\":14693:14847   */\n      jump(tag_332)\n    tag_334:\n        /* \"#utility.yul\":14876:14877   */\n      dup1\n        /* \"#utility.yul\":14871:14874   */\n      dup9\n        /* \"#utility.yul\":14867:14878   */\n      add\n        /* \"#utility.yul\":14860:14878   */\n      swap6\n      pop\n        /* \"#utility.yul\":14559:14888   */\n      pop\n      pop\n        /* \"#utility.yul\":14346:14888   */\n    tag_328:\n      pop\n        /* \"#utility.yul\":14152:14894   */\n      pop\n      pop\n        /* \"#utility.yul\":14063:14894   */\n      swap3\n      swap2\n      pop\n      pop\n      jump\t// out\n        /* \"#utility.yul\":14900:15408   */\n    tag_61:\n        /* \"#utility.yul\":15058:15062   */\n      0x00\n        /* \"#utility.yul\":15096:15098   */\n      0x40\n        /* \"#utility.yul\":15085:15094   */\n      dup3\n        /* \"#utility.yul\":15081:15099   */\n      add\n        /* \"#utility.yul\":15073:15099   */\n      swap1\n      pop\n        /* \"#utility.yul\":15145:15154   */\n      dup2\n        /* \"#utility.yul\":15139:15143   */\n      dup2\n        /* \"#utility.yul\":15135:15155   */\n      sub\n        /* \"#utility.yul\":15131:15132   */\n      0x00\n        /* \"#utility.yul\":15120:15129   */\n      dup4\n        /* \"#utility.yul\":15116:15133   */\n      add\n        /* \"#utility.yul\":15109:15156   */\n      mstore\n        /* \"#utility.yul\":15173:15251   */\n      tag_336\n        /* \"#utility.yul\":15246:15250   */\n      dup2\n        /* \"#utility.yul\":15237:15243   */\n      dup6\n        /* \"#utility.yul\":15173:15251   */\n      tag_130\n      jump\t// in\n    tag_336:\n        /* \"#utility.yul\":15165:15251   */\n      swap1\n      pop\n        /* \"#utility.yul\":15298:15307   */\n      dup2\n        /* \"#utility.yul\":15292:15296   */\n      dup2\n        /* \"#utility.yul\":15288:15308   */\n      sub\n        /* \"#utility.yul\":15283:15285   */\n      0x20\n        /* \"#utility.yul\":15272:15281   */\n      dup4\n        /* \"#utility.yul\":15268:15286   */\n      add\n        /* \"#utility.yul\":15261:15309   */\n      mstore\n        /* \"#utility.yul\":15326:15401   */\n      tag_337\n        /* \"#utility.yul\":15396:15400   */\n      dup2\n        /* \"#utility.yul\":15387:15393   */\n      dup5\n        /* \"#utility.yul\":15326:15401   */\n      tag_160\n      jump\t// in\n    tag_337:\n        /* \"#utility.yul\":15318:15401   */\n      swap1\n      pop\n        /* \"#utility.yul\":14900:15408   */\n      swap4\n      swap3\n      pop\n      pop\n      pop\n      jump\t// out\n        /* \"#utility.yul\":15414:15590   */\n    tag_161:\n        /* \"#utility.yul\":15554:15582   */\n      0x5573657220697320616c72656164792072656769737465726564000000000000\n        /* \"#utility.yul\":15550:15551   */\n      0x00\n        /* \"#utility.yul\":15542:15548   */\n      dup3\n        /* \"#utility.yul\":15538:15552   */\n      add\n        /* \"#utility.yul\":15531:15583   */\n      mstore\n        /* \"#utility.yul\":15414:15590   */\n      pop\n      jump\t// out\n        /* \"#utility.yul\":15596:15962   */\n    tag_162:\n        /* \"#utility.yul\":15738:15741   */\n      0x00\n        /* \"#utility.yul\":15759:15826   */\n      tag_340\n        /* \"#utility.yul\":15823:15825   */\n      0x1a\n        /* \"#utility.yul\":15818:15821   */\n      dup4\n        /* \"#utility.yul\":15759:15826   */\n      tag_127\n      jump\t// in\n    tag_340:\n        /* \"#utility.yul\":15752:15826   */\n      swap2\n      pop\n        /* \"#utility.yul\":15835:15928   */\n      tag_341\n        /* \"#utility.yul\":15924:15927   */\n      dup3\n        /* \"#utility.yul\":15835:15928   */\n      tag_161\n      jump\t// in\n    tag_341:\n        /* \"#utility.yul\":15953:15955   */\n      0x20\n        /* \"#utility.yul\":15948:15951   */\n      dup3\n        /* \"#utility.yul\":15944:15956   */\n      add\n        /* \"#utility.yul\":15937:15956   */\n      swap1\n      pop\n        /* \"#utility.yul\":15596:15962   */\n      swap2\n      swap1\n      pop\n      jump\t// out\n        /* \"#utility.yul\":15968:16387   */\n    tag_96:\n        /* \"#utility.yul\":16134:16138   */\n      0x00\n        /* \"#utility.yul\":16172:16174   */\n      0x20\n        /* \"#utility.yul\":16161:16170   */\n      dup3\n        /* \"#utility.yul\":16157:16175   */\n      add\n        /* \"#utility.yul\":16149:16175   */\n      swap1\n      pop\n        /* \"#utility.yul\":16221:16230   */\n      dup2\n        /* \"#utility.yul\":16215:16219   */\n      dup2\n        /* \"#utility.yul\":16211:16231   */\n      sub\n        /* \"#utility.yul\":16207:16208   */\n      0x00\n        /* \"#utility.yul\":16196:16205   */\n      dup4\n        /* \"#utility.yul\":16192:16209   */\n      add\n        /* \"#utility.yul\":16185:16232   */\n      mstore\n        /* \"#utility.yul\":16249:16380   */\n      tag_343\n        /* \"#utility.yul\":16375:16379   */\n      dup2\n        /* \"#utility.yul\":16249:16380   */\n      tag_162\n      jump\t// in\n    tag_343:\n        /* \"#utility.yul\":16241:16380   */\n      swap1\n      pop\n        /* \"#utility.yul\":15968:16387   */\n      swap2\n      swap1\n      pop\n      jump\t// out\n        /* \"#utility.yul\":16393:16541   */\n    tag_163:\n        /* \"#utility.yul\":16495:16506   */\n      0x00\n        /* \"#utility.yul\":16532:16535   */\n      dup2\n        /* \"#utility.yul\":16517:16535   */\n      swap1\n      pop\n        /* \"#utility.yul\":16393:16541   */\n      swap3\n      swap2\n      pop\n      pop\n      jump\t// out\n        /* \"#utility.yul\":16547:16703   */\n    tag_164:\n        /* \"#utility.yul\":16687:16695   */\n      0x6661726d65720000000000000000000000000000000000000000000000000000\n        /* \"#utility.yul\":16683:16684   */\n      0x00\n        /* \"#utility.yul\":16675:16681   */\n      dup3\n        /* \"#utility.yul\":16671:16685   */\n      add\n        /* \"#utility.yul\":16664:16696   */\n      mstore\n        /* \"#utility.yul\":16547:16703   */\n      pop\n      jump\t// out\n        /* \"#utility.yul\":16709:17109   */\n    tag_165:\n        /* \"#utility.yul\":16869:16872   */\n      0x00\n        /* \"#utility.yul\":16890:16974   */\n      tag_347\n        /* \"#utility.yul\":16972:16973   */\n      0x06\n        /* \"#utility.yul\":16967:16970   */\n      dup4\n        /* \"#utility.yul\":16890:16974   */\n      tag_163\n      jump\t// in\n    tag_347:\n        /* \"#utility.yul\":16883:16974   */\n      swap2\n      pop\n        /* \"#utility.yul\":16983:17076   */\n      tag_348\n        /* \"#utility.yul\":17072:17075   */\n      dup3\n        /* \"#utility.yul\":16983:17076   */\n      tag_164\n      jump\t// in\n    tag_348:\n        /* \"#utility.yul\":17101:17102   */\n      0x06\n        /* \"#utility.yul\":17096:17099   */\n      dup3\n        /* \"#utility.yul\":17092:17103   */\n      add\n        /* \"#utility.yul\":17085:17103   */\n      swap1\n      pop\n        /* \"#utility.yul\":16709:17109   */\n      swap2\n      swap1\n      pop\n      jump\t// out\n        /* \"#utility.yul\":17115:17496   */\n    tag_98:\n        /* \"#utility.yul\":17300:17303   */\n      0x00\n        /* \"#utility.yul\":17322:17470   */\n      tag_350\n        /* \"#utility.yul\":17466:17469   */\n      dup3\n        /* \"#utility.yul\":17322:17470   */\n      tag_165\n      jump\t// in\n    tag_350:\n        /* \"#utility.yul\":17315:17470   */\n      swap2\n      pop\n        /* \"#utility.yul\":17487:17490   */\n      dup2\n        /* \"#utility.yul\":17480:17490   */\n      swap1\n      pop\n        /* \"#utility.yul\":17115:17496   */\n      swap2\n      swap1\n      pop\n      jump\t// out\n        /* \"#utility.yul\":17502:17892   */\n    tag_166:\n        /* \"#utility.yul\":17608:17611   */\n      0x00\n        /* \"#utility.yul\":17636:17675   */\n      tag_352\n        /* \"#utility.yul\":17669:17674   */\n      dup3\n        /* \"#utility.yul\":17636:17675   */\n      tag_126\n      jump\t// in\n    tag_352:\n        /* \"#utility.yul\":17691:17780   */\n      tag_353\n        /* \"#utility.yul\":17773:17779   */\n      dup2\n        /* \"#utility.yul\":17768:17771   */\n      dup6\n        /* \"#utility.yul\":17691:17780   */\n      tag_163\n      jump\t// in\n    tag_353:\n        /* \"#utility.yul\":17684:17780   */\n      swap4\n      pop\n        /* \"#utility.yul\":17789:17854   */\n      tag_354\n        /* \"#utility.yul\":17847:17853   */\n      dup2\n        /* \"#utility.yul\":17842:17845   */\n      dup6\n        /* \"#utility.yul\":17835:17839   */\n      0x20\n        /* \"#utility.yul\":17828:17833   */\n      dup7\n        /* \"#utility.yul\":17824:17840   */\n      add\n        /* \"#utility.yul\":17789:17854   */\n      tag_128\n      jump\t// in\n    tag_354:\n        /* \"#utility.yul\":17879:17885   */\n      dup1\n        /* \"#utility.yul\":17874:17877   */\n      dup5\n        /* \"#utility.yul\":17870:17886   */\n      add\n        /* \"#utility.yul\":17863:17886   */\n      swap2\n      pop\n        /* \"#utility.yul\":17612:17892   */\n      pop\n        /* \"#utility.yul\":17502:17892   */\n      swap3\n      swap2\n      pop\n      pop\n      jump\t// out\n        /* \"#utility.yul\":17898:18173   */\n    tag_100:\n        /* \"#utility.yul\":18030:18033   */\n      0x00\n        /* \"#utility.yul\":18052:18147   */\n      tag_356\n        /* \"#utility.yul\":18143:18146   */\n      dup3\n        /* \"#utility.yul\":18134:18140   */\n      dup5\n        /* \"#utility.yul\":18052:18147   */\n      tag_166\n      jump\t// in\n    tag_356:\n        /* \"#utility.yul\":18045:18147   */\n      swap2\n      pop\n        /* \"#utility.yul\":18164:18167   */\n      dup2\n        /* \"#utility.yul\":18157:18167   */\n      swap1\n      pop\n        /* \"#utility.yul\":17898:18173   */\n      swap3\n      swap2\n      pop\n      pop\n      jump\t// out\n        /* \"#utility.yul\":18179:18337   */\n    tag_167:\n        /* \"#utility.yul\":18319:18329   */\n      0x636f6e73756d6572000000000000000000000000000000000000000000000000\n        /* \"#utility.yul\":18315:18316   */\n      0x00\n        /* \"#utility.yul\":18307:18313   */\n      dup3\n        /* \"#utility.yul\":18303:18317   */\n      add\n        /* \"#utility.yul\":18296:18330   */\n      mstore\n        /* \"#utility.yul\":18179:18337   */\n      pop\n      jump\t// out\n        /* \"#utility.yul\":18343:18743   */\n    tag_168:\n        /* \"#utility.yul\":18503:18506   */\n      0x00\n        /* \"#utility.yul\":18524:18608   */\n      tag_359\n        /* \"#utility.yul\":18606:18607   */\n      0x08\n        /* \"#utility.yul\":18601:18604   */\n      dup4\n        /* \"#utility.yul\":18524:18608   */\n      tag_163\n      jump\t// in\n    tag_359:\n        /* \"#utility.yul\":18517:18608   */\n      swap2\n      pop\n        /* \"#utility.yul\":18617:18710   */\n      tag_360\n        /* \"#utility.yul\":18706:18709   */\n      dup3\n        /* \"#utility.yul\":18617:18710   */\n      tag_167\n      jump\t// in\n    tag_360:\n        /* \"#utility.yul\":18735:18736   */\n      0x08\n        /* \"#utility.yul\":18730:18733   */\n      dup3\n        /* \"#utility.yul\":18726:18737   */\n      add\n        /* \"#utility.yul\":18719:18737   */\n      swap1\n      pop\n        /* \"#utility.yul\":18343:18743   */\n      swap2\n      swap1\n      pop\n      jump\t// out\n        /* \"#utility.yul\":18749:19130   */\n    tag_103:\n        /* \"#utility.yul\":18934:18937   */\n      0x00\n        /* \"#utility.yul\":18956:19104   */\n      tag_362\n        /* \"#utility.yul\":19100:19103   */\n      dup3\n        /* \"#utility.yul\":18956:19104   */\n      tag_168\n      jump\t// in\n    tag_362:\n        /* \"#utility.yul\":18949:19104   */\n      swap2\n      pop\n        /* \"#utility.yul\":19121:19124   */\n      dup2\n        /* \"#utility.yul\":19114:19124   */\n      swap1\n      pop\n        /* \"#utility.yul\":18749:19130   */\n      swap2\n      swap1\n      pop\n      jump\t// out\n        /* \"#utility.yul\":19136:19297   */\n    tag_169:\n        /* \"#utility.yul\":19276:19289   */\n      0x7472616e73706f72746572000000000000000000000000000000000000000000\n        /* \"#utility.yul\":19272:19273   */\n      0x00\n        /* \"#utility.yul\":19264:19270   */\n      dup3\n        /* \"#utility.yul\":19260:19274   */\n      add\n        /* \"#utility.yul\":19253:19290   */\n      mstore\n        /* \"#utility.yul\":19136:19297   */\n      pop\n      jump\t// out\n        /* \"#utility.yul\":19303:19705   */\n    tag_170:\n        /* \"#utility.yul\":19463:19466   */\n      0x00\n        /* \"#utility.yul\":19484:19569   */\n      tag_365\n        /* \"#utility.yul\":19566:19568   */\n      0x0b\n        /* \"#utility.yul\":19561:19564   */\n      dup4\n        /* \"#utility.yul\":19484:19569   */\n      tag_163\n      jump\t// in\n    tag_365:\n        /* \"#utility.yul\":19477:19569   */\n      swap2\n      pop\n        /* \"#utility.yul\":19578:19671   */\n      tag_366\n        /* \"#utility.yul\":19667:19670   */\n      dup3\n        /* \"#utility.yul\":19578:19671   */\n      tag_169\n      jump\t// in\n    tag_366:\n        /* \"#utility.yul\":19696:19698   */\n      0x0b\n        /* \"#utility.yul\":19691:19694   */\n      dup3\n        /* \"#utility.yul\":19687:19699   */\n      add\n        /* \"#utility.yul\":19680:19699   */\n      swap1\n      pop\n        /* \"#utility.yul\":19303:19705   */\n      swap2\n      swap1\n      pop\n      jump\t// out\n        /* \"#utility.yul\":19711:20092   */\n    tag_107:\n        /* \"#utility.yul\":19896:19899   */\n      0x00\n        /* \"#utility.yul\":19918:20066   */\n      tag_368\n        /* \"#utility.yul\":20062:20065   */\n      dup3\n        /* \"#utility.yul\":19918:20066   */\n      tag_170\n      jump\t// in\n    tag_368:\n        /* \"#utility.yul\":19911:20066   */\n      swap2\n      pop\n        /* \"#utility.yul\":20083:20086   */\n      dup2\n        /* \"#utility.yul\":20076:20086   */\n      swap1\n      pop\n        /* \"#utility.yul\":19711:20092   */\n      swap2\n      swap1\n      pop\n      jump\t// out\n        /* \"#utility.yul\":20098:20260   */\n    tag_171:\n        /* \"#utility.yul\":20238:20252   */\n      0x496e76616c696420726f6c650000000000000000000000000000000000000000\n        /* \"#utility.yul\":20234:20235   */\n      0x00\n        /* \"#utility.yul\":20226:20232   */\n      dup3\n        /* \"#utility.yul\":20222:20236   */\n      add\n        /* \"#utility.yul\":20215:20253   */\n      mstore\n        /* \"#utility.yul\":20098:20260   */\n      pop\n      jump\t// out\n        /* \"#utility.yul\":20266:20632   */\n    tag_172:\n        /* \"#utility.yul\":20408:20411   */\n      0x00\n        /* \"#utility.yul\":20429:20496   */\n      tag_371\n        /* \"#utility.yul\":20493:20495   */\n      0x0c\n        /* \"#utility.yul\":20488:20491   */\n      dup4\n        /* \"#utility.yul\":20429:20496   */\n      tag_127\n      jump\t// in\n    tag_371:\n        /* \"#utility.yul\":20422:20496   */\n      swap2\n      pop\n        /* \"#utility.yul\":20505:20598   */\n      tag_372\n        /* \"#utility.yul\":20594:20597   */\n      dup3\n        /* \"#utility.yul\":20505:20598   */\n      tag_171\n      jump\t// in\n    tag_372:\n        /* \"#utility.yul\":20623:20625   */\n      0x20\n        /* \"#utility.yul\":20618:20621   */\n      dup3\n        /* \"#utility.yul\":20614:20626   */\n      add\n        /* \"#utility.yul\":20607:20626   */\n      swap1\n      pop\n        /* \"#utility.yul\":20266:20632   */\n      swap2\n      swap1\n      pop\n      jump\t// out\n        /* \"#utility.yul\":20638:21057   */\n    tag_111:\n        /* \"#utility.yul\":20804:20808   */\n      0x00\n        /* \"#utility.yul\":20842:20844   */\n      0x20\n        /* \"#utility.yul\":20831:20840   */\n      dup3\n        /* \"#utility.yul\":20827:20845   */\n      add\n        /* \"#utility.yul\":20819:20845   */\n      swap1\n      pop\n        /* \"#utility.yul\":20891:20900   */\n      dup2\n        /* \"#utility.yul\":20885:20889   */\n      dup2\n        /* \"#utility.yul\":20881:20901   */\n      sub\n        /* \"#utility.yul\":20877:20878   */\n      0x00\n        /* \"#utility.yul\":20866:20875   */\n      dup4\n        /* \"#utility.yul\":20862:20879   */\n      add\n        /* \"#utility.yul\":20855:20902   */\n      mstore\n        /* \"#utility.yul\":20919:21050   */\n      tag_374\n        /* \"#utility.yul\":21045:21049   */\n      dup2\n        /* \"#utility.yul\":20919:21050   */\n      tag_172\n      jump\t// in\n    tag_374:\n        /* \"#utility.yul\":20911:21050   */\n      swap1\n      pop\n        /* \"#utility.yul\":20638:21057   */\n      swap2\n      swap1\n      pop\n      jump\t// out\n        /* \"#utility.yul\":21063:21577   */\n    tag_116:\n        /* \"#utility.yul\":21224:21228   */\n      0x00\n        /* \"#utility.yul\":21262:21264   */\n      0x40\n        /* \"#utility.yul\":21251:21260   */\n      dup3\n        /* \"#utility.yul\":21247:21265   */\n      add\n        /* \"#utility.yul\":21239:21265   */\n      swap1\n      pop\n        /* \"#utility.yul\":21311:21320   */\n      dup2\n        /* \"#utility.yul\":21305:21309   */\n      dup2\n        /* \"#utility.yul\":21301:21321   */\n      sub\n        /* \"#utility.yul\":21297:21298   */\n      0x00\n        /* \"#utility.yul\":21286:21295   */\n      dup4\n        /* \"#utility.yul\":21282:21299   */\n      add\n        /* \"#utility.yul\":21275:21322   */\n      mstore\n        /* \"#utility.yul\":21339:21417   */\n      tag_376\n        /* \"#utility.yul\":21412:21416   */\n      dup2\n        /* \"#utility.yul\":21403:21409   */\n      dup6\n        /* \"#utility.yul\":21339:21417   */\n      tag_130\n      jump\t// in\n    tag_376:\n        /* \"#utility.yul\":21331:21417   */\n      swap1\n      pop\n        /* \"#utility.yul\":21464:21473   */\n      dup2\n        /* \"#utility.yul\":21458:21462   */\n      dup2\n        /* \"#utility.yul\":21454:21474   */\n      sub\n        /* \"#utility.yul\":21449:21451   */\n      0x20\n        /* \"#utility.yul\":21438:21447   */\n      dup4\n        /* \"#utility.yul\":21434:21452   */\n      add\n        /* \"#utility.yul\":21427:21475   */\n      mstore\n        /* \"#utility.yul\":21492:21570   */\n      tag_377\n        /* \"#utility.yul\":21565:21569   */\n      dup2\n        /* \"#utility.yul\":21556:21562   */\n      dup5\n        /* \"#utility.yul\":21492:21570   */\n      tag_130\n      jump\t// in\n    tag_377:\n        /* \"#utility.yul\":21484:21570   */\n      swap1\n      pop\n        /* \"#utility.yul\":21063:21577   */\n      swap4\n      swap3\n      pop\n      pop\n      pop\n      jump\t// out\n\n    auxdata: 0xa2646970667358221220e072fabafbba99947758fdd951bdf6f73971725a4a39ef46fa845c9eab39a8a164736f6c634300081a0033\n}\n",
				"bytecode": {
					"linkReferences": {},
					"object": "6080604052348015600e575f80fd5b503360015f6101000a81548173ffffffffffffffffffffffffffffffffffffffff021916908373ffffffffffffffffffffffffffffffffffffffff1602179055506116b48061005c5f395ff3fe608060405234801561000f575f80fd5b506004361061007b575f3560e01c80636f77926b116100595780636f77926b146100fb5780638da5cb5b1461012e578063a87430ba1461014c578063d637dcfa1461017f5761007b565b8063163f75221461007f57806327820851146100af5780634b3fcab5146100df575b5f80fd5b61009960048036038101906100949190610c6b565b61019b565b6040516100a69190610cb0565b60405180910390f35b6100c960048036038101906100c49190610c6b565b6101ef565b6040516100d69190610d39565b60405180910390f35b6100f960048036038101906100f49190610e85565b610349565b005b61011560048036038101906101109190610c6b565b6104ff565b6040516101259493929190610efb565b60405180910390f35b61013661073b565b6040516101439190610f62565b60405180910390f35b61016660048036038101906101619190610c6b565b610760565b6040516101769493929190610efb565b60405180910390f35b61019960048036038101906101949190610f7b565b610929565b005b5f805f8373ffffffffffffffffffffffffffffffffffffffff1673ffffffffffffffffffffffffffffffffffffffff1681526020019081526020015f206002015f9054906101000a900460ff169050919050565b60605f808373ffffffffffffffffffffffffffffffffffffffff1673ffffffffffffffffffffffffffffffffffffffff1681526020019081526020015f206002015f9054906101000a900460ff1661027c576040517f08c379a000000000000000000000000000000000000000000000000000000000815260040161027390611069565b60405180910390fd5b5f808373ffffffffffffffffffffffffffffffffffffffff1673ffffffffffffffffffffffffffffffffffffffff1681526020019081526020015f2060010180546102c6906110b4565b80601f01602080910402602001604051908101604052809291908181526020018280546102f2906110b4565b801561033d5780601f106103145761010080835404028352916020019161033d565b820191905f5260205f20905b81548152906001019060200180831161032057829003601f168201915b50505050509050919050565b5f803373ffffffffffffffffffffffffffffffffffffffff1673ffffffffffffffffffffffffffffffffffffffff1681526020019081526020015f206002015f9054906101000a900460ff166103d4576040517f08c379a00000000000000000000000000000000000000000000000000000000081526004016103cb90611069565b60405180910390fd5b815f803373ffffffffffffffffffffffffffffffffffffffff1673ffffffffffffffffffffffffffffffffffffffff1681526020019081526020015f205f01908161041f919061128a565b50805f803373ffffffffffffffffffffffffffffffffffffffff1673ffffffffffffffffffffffffffffffffffffffff1681526020019081526020015f20600301908161046c919061128a565b503373ffffffffffffffffffffffffffffffffffffffff167fe5d18d6612696bff7df1db8015eac613241613297fa2ba2783993e4fd0e76f3d835f803373ffffffffffffffffffffffffffffffffffffffff1673ffffffffffffffffffffffffffffffffffffffff1681526020019081526020015f206001016040516104f39291906113da565b60405180910390a25050565b6060805f60605f805f8773ffffffffffffffffffffffffffffffffffffffff1673ffffffffffffffffffffffffffffffffffffffff1681526020019081526020015f206040518060800160405290815f8201805461055c906110b4565b80601f0160208091040260200160405190810160405280929190818152602001828054610588906110b4565b80156105d35780601f106105aa576101008083540402835291602001916105d3565b820191905f5260205f20905b8154815290600101906020018083116105b657829003601f168201915b505050505081526020016001820180546105ec906110b4565b80601f0160208091040260200160405190810160405280929190818152602001828054610618906110b4565b80156106635780601f1061063a57610100808354040283529160200191610663565b820191905f5260205f20905b81548152906001019060200180831161064657829003601f168201915b50505050508152602001600282015f9054906101000a900460ff16151515158152602001600382018054610696906110b4565b80601f01602080910402602001604051908101604052809291908181526020018280546106c2906110b4565b801561070d5780601f106106e45761010080835404028352916020019161070d565b820191905f5260205f20905b8154815290600101906020018083116106f057829003601f168201915b5050505050815250509050805f01518160200151826040015183606001519450945094509450509193509193565b60015f9054906101000a900473ffffffffffffffffffffffffffffffffffffffff1681565b5f602052805f5260405f205f91509050805f01805461077e906110b4565b80601f01602080910402602001604051908101604052809291908181526020018280546107aa906110b4565b80156107f55780601f106107cc576101008083540402835291602001916107f5565b820191905f5260205f20905b8154815290600101906020018083116107d857829003601f168201915b50505050509080600101805461080a906110b4565b80601f0160208091040260200160405190810160405280929190818152602001828054610836906110b4565b80156108815780601f1061085857610100808354040283529160200191610881565b820191905f5260205f20905b81548152906001019060200180831161086457829003601f168201915b505050505090806002015f9054906101000a900460ff16908060030180546108a8906110b4565b80601f01602080910402602001604051908101604052809291908181526020018280546108d4906110b4565b801561091f5780601f106108f65761010080835404028352916020019161091f565b820191905f5260205f20905b81548152906001019060200180831161090257829003601f168201915b5050505050905084565b5f803373ffffffffffffffffffffffffffffffffffffffff1673ffffffffffffffffffffffffffffffffffffffff1681526020019081526020015f206002015f9054906101000a900460ff16156109b5576040517f08c379a00000000000000000000000000000000000000000000000000000000081526004016109ac90611459565b60405180910390fd5b6040516020016109c4906114cb565b60405160208183030381529060405280519060200120826040516020016109eb919061150f565b604051602081830303815290604052805190602001201480610a565750604051602001610a179061156f565b6040516020818303038152906040528051906020012082604051602001610a3e919061150f565b60405160208183030381529060405280519060200120145b80610aaa5750604051602001610a6b906115cd565b6040516020818303038152906040528051906020012082604051602001610a92919061150f565b60405160208183030381529060405280519060200120145b610ae9576040517f08c379a0000000000000000000000000000000000000000000000000000000008152600401610ae09061162b565b60405180910390fd5b6040518060800160405280848152602001838152602001600115158152602001828152505f803373ffffffffffffffffffffffffffffffffffffffff1673ffffffffffffffffffffffffffffffffffffffff1681526020019081526020015f205f820151815f019081610b5c919061128a565b506020820151816001019081610b72919061128a565b506040820151816002015f6101000a81548160ff0219169083151502179055506060820151816003019081610ba7919061128a565b509050503373ffffffffffffffffffffffffffffffffffffffff167f92822564bab8864c3a47b34e8d23fbce5c46234eb5da261f94087b995ac0f33b8484604051610bf3929190611649565b60405180910390a2505050565b5f604051905090565b5f80fd5b5f80fd5b5f73ffffffffffffffffffffffffffffffffffffffff82169050919050565b5f610c3a82610c11565b9050919050565b610c4a81610c30565b8114610c54575f80fd5b50565b5f81359050610c6581610c41565b92915050565b5f60208284031215610c8057610c7f610c09565b5b5f610c8d84828501610c57565b91505092915050565b5f8115159050919050565b610caa81610c96565b82525050565b5f602082019050610cc35f830184610ca1565b92915050565b5f81519050919050565b5f82825260208201905092915050565b8281835e5f83830152505050565b5f601f19601f8301169050919050565b5f610d0b82610cc9565b610d158185610cd3565b9350610d25818560208601610ce3565b610d2e81610cf1565b840191505092915050565b5f6020820190508181035f830152610d518184610d01565b905092915050565b5f80fd5b5f80fd5b7f4e487b71000000000000000000000000000000000000000000000000000000005f52604160045260245ffd5b610d9782610cf1565b810181811067ffffffffffffffff82111715610db657610db5610d61565b5b80604052505050565b5f610dc8610c00565b9050610dd48282610d8e565b919050565b5f67ffffffffffffffff821115610df357610df2610d61565b5b610dfc82610cf1565b9050602081019050919050565b828183375f83830152505050565b5f610e29610e2484610dd9565b610dbf565b905082815260208101848484011115610e4557610e44610d5d565b5b610e50848285610e09565b509392505050565b5f82601f830112610e6c57610e6b610d59565b5b8135610e7c848260208601610e17565b91505092915050565b5f8060408385031215610e9b57610e9a610c09565b5b5f83013567ffffffffffffffff811115610eb857610eb7610c0d565b5b610ec485828601610e58565b925050602083013567ffffffffffffffff811115610ee557610ee4610c0d565b5b610ef185828601610e58565b9150509250929050565b5f6080820190508181035f830152610f138187610d01565b90508181036020830152610f278186610d01565b9050610f366040830185610ca1565b8181036060830152610f488184610d01565b905095945050505050565b610f5c81610c30565b82525050565b5f602082019050610f755f830184610f53565b92915050565b5f805f60608486031215610f9257610f91610c09565b5b5f84013567ffffffffffffffff811115610faf57610fae610c0d565b5b610fbb86828701610e58565b935050602084013567ffffffffffffffff811115610fdc57610fdb610c0d565b5b610fe886828701610e58565b925050604084013567ffffffffffffffff81111561100957611008610c0d565b5b61101586828701610e58565b9150509250925092565b7f55736572206973206e6f742072656769737465726564000000000000000000005f82015250565b5f611053601683610cd3565b915061105e8261101f565b602082019050919050565b5f6020820190508181035f83015261108081611047565b9050919050565b7f4e487b71000000000000000000000000000000000000000000000000000000005f52602260045260245ffd5b5f60028204905060018216806110cb57607f821691505b6020821081036110de576110dd611087565b5b50919050565b5f819050815f5260205f209050919050565b5f6020601f8301049050919050565b5f82821b905092915050565b5f600883026111407fffffffffffffffffffffffffffffffffffffffffffffffffffffffffffffffff82611105565b61114a8683611105565b95508019841693508086168417925050509392505050565b5f819050919050565b5f819050919050565b5f61118e61118961118484611162565b61116b565b611162565b9050919050565b5f819050919050565b6111a783611174565b6111bb6111b382611195565b848454611111565b825550505050565b5f90565b6111cf6111c3565b6111da81848461119e565b505050565b5b818110156111fd576111f25f826111c7565b6001810190506111e0565b5050565b601f82111561124257611213816110e4565b61121c846110f6565b8101602085101561122b578190505b61123f611237856110f6565b8301826111df565b50505b505050565b5f82821c905092915050565b5f6112625f1984600802611247565b1980831691505092915050565b5f61127a8383611253565b9150826002028217905092915050565b61129382610cc9565b67ffffffffffffffff8111156112ac576112ab610d61565b5b6112b682546110b4565b6112c1828285611201565b5f60209050601f8311600181146112f2575f84156112e0578287015190505b6112ea858261126f565b865550611351565b601f198416611300866110e4565b5f5b8281101561132757848901518255600182019150602085019450602081019050611302565b868310156113445784890151611340601f891682611253565b8355505b6001600288020188555050505b505050505050565b5f8154611365816110b4565b61136f8186610cd3565b9450600182165f8114611389576001811461139f576113d1565b60ff1983168652811515602002860193506113d1565b6113a8856110e4565b5f5b838110156113c9578154818901526001820191506020810190506113aa565b808801955050505b50505092915050565b5f6040820190508181035f8301526113f28185610d01565b905081810360208301526114068184611359565b90509392505050565b7f5573657220697320616c726561647920726567697374657265640000000000005f82015250565b5f611443601a83610cd3565b915061144e8261140f565b602082019050919050565b5f6020820190508181035f83015261147081611437565b9050919050565b5f81905092915050565b7f6661726d657200000000000000000000000000000000000000000000000000005f82015250565b5f6114b5600683611477565b91506114c082611481565b600682019050919050565b5f6114d5826114a9565b9150819050919050565b5f6114e982610cc9565b6114f38185611477565b9350611503818560208601610ce3565b80840191505092915050565b5f61151a82846114df565b915081905092915050565b7f636f6e73756d65720000000000000000000000000000000000000000000000005f82015250565b5f611559600883611477565b915061156482611525565b600882019050919050565b5f6115798261154d565b9150819050919050565b7f7472616e73706f727465720000000000000000000000000000000000000000005f82015250565b5f6115b7600b83611477565b91506115c282611583565b600b82019050919050565b5f6115d7826115ab565b9150819050919050565b7f496e76616c696420726f6c6500000000000000000000000000000000000000005f82015250565b5f611615600c83610cd3565b9150611620826115e1565b602082019050919050565b5f6020820190508181035f83015261164281611609565b9050919050565b5f6040820190508181035f8301526116618185610d01565b905081810360208301526116758184610d01565b9050939250505056fea2646970667358221220e072fabafbba99947758fdd951bdf6f73971725a4a39ef46fa845c9eab39a8a164736f6c634300081a0033",
					"opcodes": "PUSH1 0x80 PUSH1 0x40 MSTORE CALLVALUE DUP1 ISZERO PUSH1 0xE JUMPI PUSH0 DUP1 REVERT JUMPDEST POP CALLER PUSH1 0x1 PUSH0 PUSH2 0x100 EXP DUP2 SLOAD DUP2 PUSH20 0xFFFFFFFFFFFFFFFFFFFFFFFFFFFFFFFFFFFFFFFF MUL NOT AND SWAP1 DUP4 PUSH20 0xFFFFFFFFFFFFFFFFFFFFFFFFFFFFFFFFFFFFFFFF AND MUL OR SWAP1 SSTORE POP PUSH2 0x16B4 DUP1 PUSH2 0x5C PUSH0 CODECOPY PUSH0 RETURN INVALID PUSH1 0x80 PUSH1 0x40 MSTORE CALLVALUE DUP1 ISZERO PUSH2 0xF JUMPI PUSH0 DUP1 REVERT JUMPDEST POP PUSH1 0x4 CALLDATASIZE LT PUSH2 0x7B JUMPI PUSH0 CALLDATALOAD PUSH1 0xE0 SHR DUP1 PUSH4 0x6F77926B GT PUSH2 0x59 JUMPI DUP1 PUSH4 0x6F77926B EQ PUSH2 0xFB JUMPI DUP1 PUSH4 0x8DA5CB5B EQ PUSH2 0x12E JUMPI DUP1 PUSH4 0xA87430BA EQ PUSH2 0x14C JUMPI DUP1 PUSH4 0xD637DCFA EQ PUSH2 0x17F JUMPI PUSH2 0x7B JUMP JUMPDEST DUP1 PUSH4 0x163F7522 EQ PUSH2 0x7F JUMPI DUP1 PUSH4 0x27820851 EQ PUSH2 0xAF JUMPI DUP1 PUSH4 0x4B3FCAB5 EQ PUSH2 0xDF JUMPI JUMPDEST PUSH0 DUP1 REVERT JUMPDEST PUSH2 0x99 PUSH1 0x4 DUP1 CALLDATASIZE SUB DUP2 ADD SWAP1 PUSH2 0x94 SWAP2 SWAP1 PUSH2 0xC6B JUMP JUMPDEST PUSH2 0x19B JUMP JUMPDEST PUSH1 0x40 MLOAD PUSH2 0xA6 SWAP2 SWAP1 PUSH2 0xCB0 JUMP JUMPDEST PUSH1 0x40 MLOAD DUP1 SWAP2 SUB SWAP1 RETURN JUMPDEST PUSH2 0xC9 PUSH1 0x4 DUP1 CALLDATASIZE SUB DUP2 ADD SWAP1 PUSH2 0xC4 SWAP2 SWAP1 PUSH2 0xC6B JUMP JUMPDEST PUSH2 0x1EF JUMP JUMPDEST PUSH1 0x40 MLOAD PUSH2 0xD6 SWAP2 SWAP1 PUSH2 0xD39 JUMP JUMPDEST PUSH1 0x40 MLOAD DUP1 SWAP2 SUB SWAP1 RETURN JUMPDEST PUSH2 0xF9 PUSH1 0x4 DUP1 CALLDATASIZE SUB DUP2 ADD SWAP1 PUSH2 0xF4 SWAP2 SWAP1 PUSH2 0xE85 JUMP JUMPDEST PUSH2 0x349 JUMP JUMPDEST STOP JUMPDEST PUSH2 0x115 PUSH1 0x4 DUP1 CALLDATASIZE SUB DUP2 ADD SWAP1 PUSH2 0x110 SWAP2 SWAP1 PUSH2 0xC6B JUMP JUMPDEST PUSH2 0x4FF JUMP JUMPDEST PUSH1 0x40 MLOAD PUSH2 0x125 SWAP5 SWAP4 SWAP3 SWAP2 SWAP1 PUSH2 0xEFB JUMP JUMPDEST PUSH1 0x40 MLOAD DUP1 SWAP2 SUB SWAP1 RETURN JUMPDEST PUSH2 0x136 PUSH2 0x73B JUMP JUMPDEST PUSH1 0x40 MLOAD PUSH2 0x143 SWAP2 SWAP1 PUSH2 0xF62 JUMP JUMPDEST PUSH1 0x40 MLOAD DUP1 SWAP2 SUB SWAP1 RETURN JUMPDEST PUSH2 0x166 PUSH1 0x4 DUP1 CALLDATASIZE SUB DUP2 ADD SWAP1 PUSH2 0x161 SWAP2 SWAP1 PUSH2 0xC6B JUMP JUMPDEST PUSH2 0x760 JUMP JUMPDEST PUSH1 0x40 MLOAD PUSH2 0x176 SWAP5 SWAP4 SWAP3 SWAP2 SWAP1 PUSH2 0xEFB JUMP JUMPDEST PUSH1 0x40 MLOAD DUP1 SWAP2 SUB SWAP1 RETURN JUMPDEST PUSH2 0x199 PUSH1 0x4 DUP1 CALLDATASIZE SUB DUP2 ADD SWAP1 PUSH2 0x194 SWAP2 SWAP1 PUSH2 0xF7B JUMP JUMPDEST PUSH2 0x929 JUMP JUMPDEST STOP JUMPDEST PUSH0 DUP1 PUSH0 DUP4 PUSH20 0xFFFFFFFFFFFFFFFFFFFFFFFFFFFFFFFFFFFFFFFF AND PUSH20 0xFFFFFFFFFFFFFFFFFFFFFFFFFFFFFFFFFFFFFFFF AND DUP2 MSTORE PUSH1 0x20 ADD SWAP1 DUP2 MSTORE PUSH1 0x20 ADD PUSH0 KECCAK256 PUSH1 0x2 ADD PUSH0 SWAP1 SLOAD SWAP1 PUSH2 0x100 EXP SWAP1 DIV PUSH1 0xFF AND SWAP1 POP SWAP2 SWAP1 POP JUMP JUMPDEST PUSH1 0x60 PUSH0 DUP1 DUP4 PUSH20 0xFFFFFFFFFFFFFFFFFFFFFFFFFFFFFFFFFFFFFFFF AND PUSH20 0xFFFFFFFFFFFFFFFFFFFFFFFFFFFFFFFFFFFFFFFF AND DUP2 MSTORE PUSH1 0x20 ADD SWAP1 DUP2 MSTORE PUSH1 0x20 ADD PUSH0 KECCAK256 PUSH1 0x2 ADD PUSH0 SWAP1 SLOAD SWAP1 PUSH2 0x100 EXP SWAP1 DIV PUSH1 0xFF AND PUSH2 0x27C JUMPI PUSH1 0x40 MLOAD PUSH32 0x8C379A000000000000000000000000000000000000000000000000000000000 DUP2 MSTORE PUSH1 0x4 ADD PUSH2 0x273 SWAP1 PUSH2 0x1069 JUMP JUMPDEST PUSH1 0x40 MLOAD DUP1 SWAP2 SUB SWAP1 REVERT JUMPDEST PUSH0 DUP1 DUP4 PUSH20 0xFFFFFFFFFFFFFFFFFFFFFFFFFFFFFFFFFFFFFFFF AND PUSH20 0xFFFFFFFFFFFFFFFFFFFFFFFFFFFFFFFFFFFFFFFF AND DUP2 MSTORE PUSH1 0x20 ADD SWAP1 DUP2 MSTORE PUSH1 0x20 ADD PUSH0 KECCAK256 PUSH1 0x1 ADD DUP1 SLOAD PUSH2 0x2C6 SWAP1 PUSH2 0x10B4 JUMP JUMPDEST DUP1 PUSH1 0x1F ADD PUSH1 0x20 DUP1 SWAP2 DIV MUL PUSH1 0x20 ADD PUSH1 0x40 MLOAD SWAP1 DUP2 ADD PUSH1 0x40 MSTORE DUP1 SWAP3 SWAP2 SWAP1 DUP2 DUP2 MSTORE PUSH1 0x20 ADD DUP3 DUP1 SLOAD PUSH2 0x2F2 SWAP1 PUSH2 0x10B4 JUMP JUMPDEST DUP1 ISZERO PUSH2 0x33D JUMPI DUP1 PUSH1 0x1F LT PUSH2 0x314 JUMPI PUSH2 0x100 DUP1 DUP4 SLOAD DIV MUL DUP4 MSTORE SWAP2 PUSH1 0x20 ADD SWAP2 PUSH2 0x33D JUMP JUMPDEST DUP3 ADD SWAP2 SWAP1 PUSH0 MSTORE PUSH1 0x20 PUSH0 KECCAK256 SWAP1 JUMPDEST DUP2 SLOAD DUP2 MSTORE SWAP1 PUSH1 0x1 ADD SWAP1 PUSH1 0x20 ADD DUP1 DUP4 GT PUSH2 0x320 JUMPI DUP3 SWAP1 SUB PUSH1 0x1F AND DUP3 ADD SWAP2 JUMPDEST POP POP POP POP POP SWAP1 POP SWAP2 SWAP1 POP JUMP JUMPDEST PUSH0 DUP1 CALLER PUSH20 0xFFFFFFFFFFFFFFFFFFFFFFFFFFFFFFFFFFFFFFFF AND PUSH20 0xFFFFFFFFFFFFFFFFFFFFFFFFFFFFFFFFFFFFFFFF AND DUP2 MSTORE PUSH1 0x20 ADD SWAP1 DUP2 MSTORE PUSH1 0x20 ADD PUSH0 KECCAK256 PUSH1 0x2 ADD PUSH0 SWAP1 SLOAD SWAP1 PUSH2 0x100 EXP SWAP1 DIV PUSH1 0xFF AND PUSH2 0x3D4 JUMPI PUSH1 0x40 MLOAD PUSH32 0x8C379A000000000000000000000000000000000000000000000000000000000 DUP2 MSTORE PUSH1 0x4 ADD PUSH2 0x3CB SWAP1 PUSH2 0x1069 JUMP JUMPDEST PUSH1 0x40 MLOAD DUP1 SWAP2 SUB SWAP1 REVERT JUMPDEST DUP2 PUSH0 DUP1 CALLER PUSH20 0xFFFFFFFFFFFFFFFFFFFFFFFFFFFFFFFFFFFFFFFF AND PUSH20 0xFFFFFFFFFFFFFFFFFFFFFFFFFFFFFFFFFFFFFFFF AND DUP2 MSTORE PUSH1 0x20 ADD SWAP1 DUP2 MSTORE PUSH1 0x20 ADD PUSH0 KECCAK256 PUSH0 ADD SWAP1 DUP2 PUSH2 0x41F SWAP2 SWAP1 PUSH2 0x128A JUMP JUMPDEST POP DUP1 PUSH0 DUP1 CALLER PUSH20 0xFFFFFFFFFFFFFFFFFFFFFFFFFFFFFFFFFFFFFFFF AND PUSH20 0xFFFFFFFFFFFFFFFFFFFFFFFFFFFFFFFFFFFFFFFF AND DUP2 MSTORE PUSH1 0x20 ADD SWAP1 DUP2 MSTORE PUSH1 0x20 ADD PUSH0 KECCAK256 PUSH1 0x3 ADD SWAP1 DUP2 PUSH2 0x46C SWAP2 SWAP1 PUSH2 0x128A JUMP JUMPDEST POP CALLER PUSH20 0xFFFFFFFFFFFFFFFFFFFFFFFFFFFFFFFFFFFFFFFF AND PUSH32 0xE5D18D6612696BFF7DF1DB8015EAC613241613297FA2BA2783993E4FD0E76F3D DUP4 PUSH0 DUP1 CALLER PUSH20 0xFFFFFFFFFFFFFFFFFFFFFFFFFFFFFFFFFFFFFFFF AND PUSH20 0xFFFFFFFFFFFFFFFFFFFFFFFFFFFFFFFFFFFFFFFF AND DUP2 MSTORE PUSH1 0x20 ADD SWAP1 DUP2 MSTORE PUSH1 0x20 ADD PUSH0 KECCAK256 PUSH1 0x1 ADD PUSH1 0x40 MLOAD PUSH2 0x4F3 SWAP3 SWAP2 SWAP1 PUSH2 0x13DA JUMP JUMPDEST PUSH1 0x40 MLOAD DUP1 SWAP2 SUB SWAP1 LOG2 POP POP JUMP JUMPDEST PUSH1 0x60 DUP1 PUSH0 PUSH1 0x60 PUSH0 DUP1 PUSH0 DUP8 PUSH20 0xFFFFFFFFFFFFFFFFFFFFFFFFFFFFFFFFFFFFFFFF AND PUSH20 0xFFFFFFFFFFFFFFFFFFFFFFFFFFFFFFFFFFFFFFFF AND DUP2 MSTORE PUSH1 0x20 ADD SWAP1 DUP2 MSTORE PUSH1 0x20 ADD PUSH0 KECCAK256 PUSH1 0x40 MLOAD DUP1 PUSH1 0x80 ADD PUSH1 0x40 MSTORE SWAP1 DUP2 PUSH0 DUP3 ADD DUP1 SLOAD PUSH2 0x55C SWAP1 PUSH2 0x10B4 JUMP JUMPDEST DUP1 PUSH1 0x1F ADD PUSH1 0x20 DUP1 SWAP2 DIV MUL PUSH1 0x20 ADD PUSH1 0x40 MLOAD SWAP1 DUP2 ADD PUSH1 0x40 MSTORE DUP1 SWAP3 SWAP2 SWAP1 DUP2 DUP2 MSTORE PUSH1 0x20 ADD DUP3 DUP1 SLOAD PUSH2 0x588 SWAP1 PUSH2 0x10B4 JUMP JUMPDEST DUP1 ISZERO PUSH2 0x5D3 JUMPI DUP1 PUSH1 0x1F LT PUSH2 0x5AA JUMPI PUSH2 0x100 DUP1 DUP4 SLOAD DIV MUL DUP4 MSTORE SWAP2 PUSH1 0x20 ADD SWAP2 PUSH2 0x5D3 JUMP JUMPDEST DUP3 ADD SWAP2 SWAP1 PUSH0 MSTORE PUSH1 0x20 PUSH0 KECCAK256 SWAP1 JUMPDEST DUP2 SLOAD DUP2 MSTORE SWAP1 PUSH1 0x1 ADD SWAP1 PUSH1 0x20 ADD DUP1 DUP4 GT PUSH2 0x5B6 JUMPI DUP3 SWAP1 SUB PUSH1 0x1F AND DUP3 ADD SWAP2 JUMPDEST POP POP POP POP POP DUP2 MSTORE PUSH1 0x20 ADD PUSH1 0x1 DUP3 ADD DUP1 SLOAD PUSH2 0x5EC SWAP1 PUSH2 0x10B4 JUMP JUMPDEST DUP1 PUSH1 0x1F ADD PUSH1 0x20 DUP1 SWAP2 DIV MUL PUSH1 0x20 ADD PUSH1 0x40 MLOAD SWAP1 DUP2 ADD PUSH1 0x40 MSTORE DUP1 SWAP3 SWAP2 SWAP1 DUP2 DUP2 MSTORE PUSH1 0x20 ADD DUP3 DUP1 SLOAD PUSH2 0x618 SWAP1 PUSH2 0x10B4 JUMP JUMPDEST DUP1 ISZERO PUSH2 0x663 JUMPI DUP1 PUSH1 0x1F LT PUSH2 0x63A JUMPI PUSH2 0x100 DUP1 DUP4 SLOAD DIV MUL DUP4 MSTORE SWAP2 PUSH1 0x20 ADD SWAP2 PUSH2 0x663 JUMP JUMPDEST DUP3 ADD SWAP2 SWAP1 PUSH0 MSTORE PUSH1 0x20 PUSH0 KECCAK256 SWAP1 JUMPDEST DUP2 SLOAD DUP2 MSTORE SWAP1 PUSH1 0x1 ADD SWAP1 PUSH1 0x20 ADD DUP1 DUP4 GT PUSH2 0x646 JUMPI DUP3 SWAP1 SUB PUSH1 0x1F AND DUP3 ADD SWAP2 JUMPDEST POP POP POP POP POP DUP2 MSTORE PUSH1 0x20 ADD PUSH1 0x2 DUP3 ADD PUSH0 SWAP1 SLOAD SWAP1 PUSH2 0x100 EXP SWAP1 DIV PUSH1 0xFF AND ISZERO ISZERO ISZERO ISZERO DUP2 MSTORE PUSH1 0x20 ADD PUSH1 0x3 DUP3 ADD DUP1 SLOAD PUSH2 0x696 SWAP1 PUSH2 0x10B4 JUMP JUMPDEST DUP1 PUSH1 0x1F ADD PUSH1 0x20 DUP1 SWAP2 DIV MUL PUSH1 0x20 ADD PUSH1 0x40 MLOAD SWAP1 DUP2 ADD PUSH1 0x40 MSTORE DUP1 SWAP3 SWAP2 SWAP1 DUP2 DUP2 MSTORE PUSH1 0x20 ADD DUP3 DUP1 SLOAD PUSH2 0x6C2 SWAP1 PUSH2 0x10B4 JUMP JUMPDEST DUP1 ISZERO PUSH2 0x70D JUMPI DUP1 PUSH1 0x1F LT PUSH2 0x6E4 JUMPI PUSH2 0x100 DUP1 DUP4 SLOAD DIV MUL DUP4 MSTORE SWAP2 PUSH1 0x20 ADD SWAP2 PUSH2 0x70D JUMP JUMPDEST DUP3 ADD SWAP2 SWAP1 PUSH0 MSTORE PUSH1 0x20 PUSH0 KECCAK256 SWAP1 JUMPDEST DUP2 SLOAD DUP2 MSTORE SWAP1 PUSH1 0x1 ADD SWAP1 PUSH1 0x20 ADD DUP1 DUP4 GT PUSH2 0x6F0 JUMPI DUP3 SWAP1 SUB PUSH1 0x1F AND DUP3 ADD SWAP2 JUMPDEST POP POP POP POP POP DUP2 MSTORE POP POP SWAP1 POP DUP1 PUSH0 ADD MLOAD DUP2 PUSH1 0x20 ADD MLOAD DUP3 PUSH1 0x40 ADD MLOAD DUP4 PUSH1 0x60 ADD MLOAD SWAP5 POP SWAP5 POP SWAP5 POP SWAP5 POP POP SWAP2 SWAP4 POP SWAP2 SWAP4 JUMP JUMPDEST PUSH1 0x1 PUSH0 SWAP1 SLOAD SWAP1 PUSH2 0x100 EXP SWAP1 DIV PUSH20 0xFFFFFFFFFFFFFFFFFFFFFFFFFFFFFFFFFFFFFFFF AND DUP2 JUMP JUMPDEST PUSH0 PUSH1 0x20 MSTORE DUP1 PUSH0 MSTORE PUSH1 0x40 PUSH0 KECCAK256 PUSH0 SWAP2 POP SWAP1 POP DUP1 PUSH0 ADD DUP1 SLOAD PUSH2 0x77E SWAP1 PUSH2 0x10B4 JUMP JUMPDEST DUP1 PUSH1 0x1F ADD PUSH1 0x20 DUP1 SWAP2 DIV MUL PUSH1 0x20 ADD PUSH1 0x40 MLOAD SWAP1 DUP2 ADD PUSH1 0x40 MSTORE DUP1 SWAP3 SWAP2 SWAP1 DUP2 DUP2 MSTORE PUSH1 0x20 ADD DUP3 DUP1 SLOAD PUSH2 0x7AA SWAP1 PUSH2 0x10B4 JUMP JUMPDEST DUP1 ISZERO PUSH2 0x7F5 JUMPI DUP1 PUSH1 0x1F LT PUSH2 0x7CC JUMPI PUSH2 0x100 DUP1 DUP4 SLOAD DIV MUL DUP4 MSTORE SWAP2 PUSH1 0x20 ADD SWAP2 PUSH2 0x7F5 JUMP JUMPDEST DUP3 ADD SWAP2 SWAP1 PUSH0 MSTORE PUSH1 0x20 PUSH0 KECCAK256 SWAP1 JUMPDEST DUP2 SLOAD DUP2 MSTORE SWAP1 PUSH1 0x1 ADD SWAP1 PUSH1 0x20 ADD DUP1 DUP4 GT PUSH2 0x7D8 JUMPI DUP3 SWAP1 SUB PUSH1 0x1F AND DUP3 ADD SWAP2 JUMPDEST POP POP POP POP POP SWAP1 DUP1 PUSH1 0x1 ADD DUP1 SLOAD PUSH2 0x80A SWAP1 PUSH2 0x10B4 JUMP JUMPDEST DUP1 PUSH1 0x1F ADD PUSH1 0x20 DUP1 SWAP2 DIV MUL PUSH1 0x20 ADD PUSH1 0x40 MLOAD SWAP1 DUP2 ADD PUSH1 0x40 MSTORE DUP1 SWAP3 SWAP2 SWAP1 DUP2 DUP2 MSTORE PUSH1 0x20 ADD DUP3 DUP1 SLOAD PUSH2 0x836 SWAP1 PUSH2 0x10B4 JUMP JUMPDEST DUP1 ISZERO PUSH2 0x881 JUMPI DUP1 PUSH1 0x1F LT PUSH2 0x858 JUMPI PUSH2 0x100 DUP1 DUP4 SLOAD DIV MUL DUP4 MSTORE SWAP2 PUSH1 0x20 ADD SWAP2 PUSH2 0x881 JUMP JUMPDEST DUP3 ADD SWAP2 SWAP1 PUSH0 MSTORE PUSH1 0x20 PUSH0 KECCAK256 SWAP1 JUMPDEST DUP2 SLOAD DUP2 MSTORE SWAP1 PUSH1 0x1 ADD SWAP1 PUSH1 0x20 ADD DUP1 DUP4 GT PUSH2 0x864 JUMPI DUP3 SWAP1 SUB PUSH1 0x1F AND DUP3 ADD SWAP2 JUMPDEST POP POP POP POP POP SWAP1 DUP1 PUSH1 0x2 ADD PUSH0 SWAP1 SLOAD SWAP1 PUSH2 0x100 EXP SWAP1 DIV PUSH1 0xFF AND SWAP1 DUP1 PUSH1 0x3 ADD DUP1 SLOAD PUSH2 0x8A8 SWAP1 PUSH2 0x10B4 JUMP JUMPDEST DUP1 PUSH1 0x1F ADD PUSH1 0x20 DUP1 SWAP2 DIV MUL PUSH1 0x20 ADD PUSH1 0x40 MLOAD SWAP1 DUP2 ADD PUSH1 0x40 MSTORE DUP1 SWAP3 SWAP2 SWAP1 DUP2 DUP2 MSTORE PUSH1 0x20 ADD DUP3 DUP1 SLOAD PUSH2 0x8D4 SWAP1 PUSH2 0x10B4 JUMP JUMPDEST DUP1 ISZERO PUSH2 0x91F JUMPI DUP1 PUSH1 0x1F LT PUSH2 0x8F6 JUMPI PUSH2 0x100 DUP1 DUP4 SLOAD DIV MUL DUP4 MSTORE SWAP2 PUSH1 0x20 ADD SWAP2 PUSH2 0x91F JUMP JUMPDEST DUP3 ADD SWAP2 SWAP1 PUSH0 MSTORE PUSH1 0x20 PUSH0 KECCAK256 SWAP1 JUMPDEST DUP2 SLOAD DUP2 MSTORE SWAP1 PUSH1 0x1 ADD SWAP1 PUSH1 0x20 ADD DUP1 DUP4 GT PUSH2 0x902 JUMPI DUP3 SWAP1 SUB PUSH1 0x1F AND DUP3 ADD SWAP2 JUMPDEST POP POP POP POP POP SWAP1 POP DUP5 JUMP JUMPDEST PUSH0 DUP1 CALLER PUSH20 0xFFFFFFFFFFFFFFFFFFFFFFFFFFFFFFFFFFFFFFFF AND PUSH20 0xFFFFFFFFFFFFFFFFFFFFFFFFFFFFFFFFFFFFFFFF AND DUP2 MSTORE PUSH1 0x20 ADD SWAP1 DUP2 MSTORE PUSH1 0x20 ADD PUSH0 KECCAK256 PUSH1 0x2 ADD PUSH0 SWAP1 SLOAD SWAP1 PUSH2 0x100 EXP SWAP1 DIV PUSH1 0xFF AND ISZERO PUSH2 0x9B5 JUMPI PUSH1 0x40 MLOAD PUSH32 0x8C379A000000000000000000000000000000000000000000000000000000000 DUP2 MSTORE PUSH1 0x4 ADD PUSH2 0x9AC SWAP1 PUSH2 0x1459 JUMP JUMPDEST PUSH1 0x40 MLOAD DUP1 SWAP2 SUB SWAP1 REVERT JUMPDEST PUSH1 0x40 MLOAD PUSH1 0x20 ADD PUSH2 0x9C4 SWAP1 PUSH2 0x14CB JUMP JUMPDEST PUSH1 0x40 MLOAD PUSH1 0x20 DUP2 DUP4 SUB SUB DUP2 MSTORE SWAP1 PUSH1 0x40 MSTORE DUP1 MLOAD SWAP1 PUSH1 0x20 ADD KECCAK256 DUP3 PUSH1 0x40 MLOAD PUSH1 0x20 ADD PUSH2 0x9EB SWAP2 SWAP1 PUSH2 0x150F JUMP JUMPDEST PUSH1 0x40 MLOAD PUSH1 0x20 DUP2 DUP4 SUB SUB DUP2 MSTORE SWAP1 PUSH1 0x40 MSTORE DUP1 MLOAD SWAP1 PUSH1 0x20 ADD KECCAK256 EQ DUP1 PUSH2 0xA56 JUMPI POP PUSH1 0x40 MLOAD PUSH1 0x20 ADD PUSH2 0xA17 SWAP1 PUSH2 0x156F JUMP JUMPDEST PUSH1 0x40 MLOAD PUSH1 0x20 DUP2 DUP4 SUB SUB DUP2 MSTORE SWAP1 PUSH1 0x40 MSTORE DUP1 MLOAD SWAP1 PUSH1 0x20 ADD KECCAK256 DUP3 PUSH1 0x40 MLOAD PUSH1 0x20 ADD PUSH2 0xA3E SWAP2 SWAP1 PUSH2 0x150F JUMP JUMPDEST PUSH1 0x40 MLOAD PUSH1 0x20 DUP2 DUP4 SUB SUB DUP2 MSTORE SWAP1 PUSH1 0x40 MSTORE DUP1 MLOAD SWAP1 PUSH1 0x20 ADD KECCAK256 EQ JUMPDEST DUP1 PUSH2 0xAAA JUMPI POP PUSH1 0x40 MLOAD PUSH1 0x20 ADD PUSH2 0xA6B SWAP1 PUSH2 0x15CD JUMP JUMPDEST PUSH1 0x40 MLOAD PUSH1 0x20 DUP2 DUP4 SUB SUB DUP2 MSTORE SWAP1 PUSH1 0x40 MSTORE DUP1 MLOAD SWAP1 PUSH1 0x20 ADD KECCAK256 DUP3 PUSH1 0x40 MLOAD PUSH1 0x20 ADD PUSH2 0xA92 SWAP2 SWAP1 PUSH2 0x150F JUMP JUMPDEST PUSH1 0x40 MLOAD PUSH1 0x20 DUP2 DUP4 SUB SUB DUP2 MSTORE SWAP1 PUSH1 0x40 MSTORE DUP1 MLOAD SWAP1 PUSH1 0x20 ADD KECCAK256 EQ JUMPDEST PUSH2 0xAE9 JUMPI PUSH1 0x40 MLOAD PUSH32 0x8C379A000000000000000000000000000000000000000000000000000000000 DUP2 MSTORE PUSH1 0x4 ADD PUSH2 0xAE0 SWAP1 PUSH2 0x162B JUMP JUMPDEST PUSH1 0x40 MLOAD DUP1 SWAP2 SUB SWAP1 REVERT JUMPDEST PUSH1 0x40 MLOAD DUP1 PUSH1 0x80 ADD PUSH1 0x40 MSTORE DUP1 DUP5 DUP2 MSTORE PUSH1 0x20 ADD DUP4 DUP2 MSTORE PUSH1 0x20 ADD PUSH1 0x1 ISZERO ISZERO DUP2 MSTORE PUSH1 0x20 ADD DUP3 DUP2 MSTORE POP PUSH0 DUP1 CALLER PUSH20 0xFFFFFFFFFFFFFFFFFFFFFFFFFFFFFFFFFFFFFFFF AND PUSH20 0xFFFFFFFFFFFFFFFFFFFFFFFFFFFFFFFFFFFFFFFF AND DUP2 MSTORE PUSH1 0x20 ADD SWAP1 DUP2 MSTORE PUSH1 0x20 ADD PUSH0 KECCAK256 PUSH0 DUP3 ADD MLOAD DUP2 PUSH0 ADD SWAP1 DUP2 PUSH2 0xB5C SWAP2 SWAP1 PUSH2 0x128A JUMP JUMPDEST POP PUSH1 0x20 DUP3 ADD MLOAD DUP2 PUSH1 0x1 ADD SWAP1 DUP2 PUSH2 0xB72 SWAP2 SWAP1 PUSH2 0x128A JUMP JUMPDEST POP PUSH1 0x40 DUP3 ADD MLOAD DUP2 PUSH1 0x2 ADD PUSH0 PUSH2 0x100 EXP DUP2 SLOAD DUP2 PUSH1 0xFF MUL NOT AND SWAP1 DUP4 ISZERO ISZERO MUL OR SWAP1 SSTORE POP PUSH1 0x60 DUP3 ADD MLOAD DUP2 PUSH1 0x3 ADD SWAP1 DUP2 PUSH2 0xBA7 SWAP2 SWAP1 PUSH2 0x128A JUMP JUMPDEST POP SWAP1 POP POP CALLER PUSH20 0xFFFFFFFFFFFFFFFFFFFFFFFFFFFFFFFFFFFFFFFF AND PUSH32 0x92822564BAB8864C3A47B34E8D23FBCE5C46234EB5DA261F94087B995AC0F33B DUP5 DUP5 PUSH1 0x40 MLOAD PUSH2 0xBF3 SWAP3 SWAP2 SWAP1 PUSH2 0x1649 JUMP JUMPDEST PUSH1 0x40 MLOAD DUP1 SWAP2 SUB SWAP1 LOG2 POP POP POP JUMP JUMPDEST PUSH0 PUSH1 0x40 MLOAD SWAP1 POP SWAP1 JUMP JUMPDEST PUSH0 DUP1 REVERT JUMPDEST PUSH0 DUP1 REVERT JUMPDEST PUSH0 PUSH20 0xFFFFFFFFFFFFFFFFFFFFFFFFFFFFFFFFFFFFFFFF DUP3 AND SWAP1 POP SWAP2 SWAP1 POP JUMP JUMPDEST PUSH0 PUSH2 0xC3A DUP3 PUSH2 0xC11 JUMP JUMPDEST SWAP1 POP SWAP2 SWAP1 POP JUMP JUMPDEST PUSH2 0xC4A DUP2 PUSH2 0xC30 JUMP JUMPDEST DUP2 EQ PUSH2 0xC54 JUMPI PUSH0 DUP1 REVERT JUMPDEST POP JUMP JUMPDEST PUSH0 DUP2 CALLDATALOAD SWAP1 POP PUSH2 0xC65 DUP2 PUSH2 0xC41 JUMP JUMPDEST SWAP3 SWAP2 POP POP JUMP JUMPDEST PUSH0 PUSH1 0x20 DUP3 DUP5 SUB SLT ISZERO PUSH2 0xC80 JUMPI PUSH2 0xC7F PUSH2 0xC09 JUMP JUMPDEST JUMPDEST PUSH0 PUSH2 0xC8D DUP5 DUP3 DUP6 ADD PUSH2 0xC57 JUMP JUMPDEST SWAP2 POP POP SWAP3 SWAP2 POP POP JUMP JUMPDEST PUSH0 DUP2 ISZERO ISZERO SWAP1 POP SWAP2 SWAP1 POP JUMP JUMPDEST PUSH2 0xCAA DUP2 PUSH2 0xC96 JUMP JUMPDEST DUP3 MSTORE POP POP JUMP JUMPDEST PUSH0 PUSH1 0x20 DUP3 ADD SWAP1 POP PUSH2 0xCC3 PUSH0 DUP4 ADD DUP5 PUSH2 0xCA1 JUMP JUMPDEST SWAP3 SWAP2 POP POP JUMP JUMPDEST PUSH0 DUP2 MLOAD SWAP1 POP SWAP2 SWAP1 POP JUMP JUMPDEST PUSH0 DUP3 DUP3 MSTORE PUSH1 0x20 DUP3 ADD SWAP1 POP SWAP3 SWAP2 POP POP JUMP JUMPDEST DUP3 DUP2 DUP4 MCOPY PUSH0 DUP4 DUP4 ADD MSTORE POP POP POP JUMP JUMPDEST PUSH0 PUSH1 0x1F NOT PUSH1 0x1F DUP4 ADD AND SWAP1 POP SWAP2 SWAP1 POP JUMP JUMPDEST PUSH0 PUSH2 0xD0B DUP3 PUSH2 0xCC9 JUMP JUMPDEST PUSH2 0xD15 DUP2 DUP6 PUSH2 0xCD3 JUMP JUMPDEST SWAP4 POP PUSH2 0xD25 DUP2 DUP6 PUSH1 0x20 DUP7 ADD PUSH2 0xCE3 JUMP JUMPDEST PUSH2 0xD2E DUP2 PUSH2 0xCF1 JUMP JUMPDEST DUP5 ADD SWAP2 POP POP SWAP3 SWAP2 POP POP JUMP JUMPDEST PUSH0 PUSH1 0x20 DUP3 ADD SWAP1 POP DUP2 DUP2 SUB PUSH0 DUP4 ADD MSTORE PUSH2 0xD51 DUP2 DUP5 PUSH2 0xD01 JUMP JUMPDEST SWAP1 POP SWAP3 SWAP2 POP POP JUMP JUMPDEST PUSH0 DUP1 REVERT JUMPDEST PUSH0 DUP1 REVERT JUMPDEST PUSH32 0x4E487B7100000000000000000000000000000000000000000000000000000000 PUSH0 MSTORE PUSH1 0x41 PUSH1 0x4 MSTORE PUSH1 0x24 PUSH0 REVERT JUMPDEST PUSH2 0xD97 DUP3 PUSH2 0xCF1 JUMP JUMPDEST DUP2 ADD DUP2 DUP2 LT PUSH8 0xFFFFFFFFFFFFFFFF DUP3 GT OR ISZERO PUSH2 0xDB6 JUMPI PUSH2 0xDB5 PUSH2 0xD61 JUMP JUMPDEST JUMPDEST DUP1 PUSH1 0x40 MSTORE POP POP POP JUMP JUMPDEST PUSH0 PUSH2 0xDC8 PUSH2 0xC00 JUMP JUMPDEST SWAP1 POP PUSH2 0xDD4 DUP3 DUP3 PUSH2 0xD8E JUMP JUMPDEST SWAP2 SWAP1 POP JUMP JUMPDEST PUSH0 PUSH8 0xFFFFFFFFFFFFFFFF DUP3 GT ISZERO PUSH2 0xDF3 JUMPI PUSH2 0xDF2 PUSH2 0xD61 JUMP JUMPDEST JUMPDEST PUSH2 0xDFC DUP3 PUSH2 0xCF1 JUMP JUMPDEST SWAP1 POP PUSH1 0x20 DUP2 ADD SWAP1 POP SWAP2 SWAP1 POP JUMP JUMPDEST DUP3 DUP2 DUP4 CALLDATACOPY PUSH0 DUP4 DUP4 ADD MSTORE POP POP POP JUMP JUMPDEST PUSH0 PUSH2 0xE29 PUSH2 0xE24 DUP5 PUSH2 0xDD9 JUMP JUMPDEST PUSH2 0xDBF JUMP JUMPDEST SWAP1 POP DUP3 DUP2 MSTORE PUSH1 0x20 DUP2 ADD DUP5 DUP5 DUP5 ADD GT ISZERO PUSH2 0xE45 JUMPI PUSH2 0xE44 PUSH2 0xD5D JUMP JUMPDEST JUMPDEST PUSH2 0xE50 DUP5 DUP3 DUP6 PUSH2 0xE09 JUMP JUMPDEST POP SWAP4 SWAP3 POP POP POP JUMP JUMPDEST PUSH0 DUP3 PUSH1 0x1F DUP4 ADD SLT PUSH2 0xE6C JUMPI PUSH2 0xE6B PUSH2 0xD59 JUMP JUMPDEST JUMPDEST DUP2 CALLDATALOAD PUSH2 0xE7C DUP5 DUP3 PUSH1 0x20 DUP7 ADD PUSH2 0xE17 JUMP JUMPDEST SWAP2 POP POP SWAP3 SWAP2 POP POP JUMP JUMPDEST PUSH0 DUP1 PUSH1 0x40 DUP4 DUP6 SUB SLT ISZERO PUSH2 0xE9B JUMPI PUSH2 0xE9A PUSH2 0xC09 JUMP JUMPDEST JUMPDEST PUSH0 DUP4 ADD CALLDATALOAD PUSH8 0xFFFFFFFFFFFFFFFF DUP2 GT ISZERO PUSH2 0xEB8 JUMPI PUSH2 0xEB7 PUSH2 0xC0D JUMP JUMPDEST JUMPDEST PUSH2 0xEC4 DUP6 DUP3 DUP7 ADD PUSH2 0xE58 JUMP JUMPDEST SWAP3 POP POP PUSH1 0x20 DUP4 ADD CALLDATALOAD PUSH8 0xFFFFFFFFFFFFFFFF DUP2 GT ISZERO PUSH2 0xEE5 JUMPI PUSH2 0xEE4 PUSH2 0xC0D JUMP JUMPDEST JUMPDEST PUSH2 0xEF1 DUP6 DUP3 DUP7 ADD PUSH2 0xE58 JUMP JUMPDEST SWAP2 POP POP SWAP3 POP SWAP3 SWAP1 POP JUMP JUMPDEST PUSH0 PUSH1 0x80 DUP3 ADD SWAP1 POP DUP2 DUP2 SUB PUSH0 DUP4 ADD MSTORE PUSH2 0xF13 DUP2 DUP8 PUSH2 0xD01 JUMP JUMPDEST SWAP1 POP DUP2 DUP2 SUB PUSH1 0x20 DUP4 ADD MSTORE PUSH2 0xF27 DUP2 DUP7 PUSH2 0xD01 JUMP JUMPDEST SWAP1 POP PUSH2 0xF36 PUSH1 0x40 DUP4 ADD DUP6 PUSH2 0xCA1 JUMP JUMPDEST DUP2 DUP2 SUB PUSH1 0x60 DUP4 ADD MSTORE PUSH2 0xF48 DUP2 DUP5 PUSH2 0xD01 JUMP JUMPDEST SWAP1 POP SWAP6 SWAP5 POP POP POP POP POP JUMP JUMPDEST PUSH2 0xF5C DUP2 PUSH2 0xC30 JUMP JUMPDEST DUP3 MSTORE POP POP JUMP JUMPDEST PUSH0 PUSH1 0x20 DUP3 ADD SWAP1 POP PUSH2 0xF75 PUSH0 DUP4 ADD DUP5 PUSH2 0xF53 JUMP JUMPDEST SWAP3 SWAP2 POP POP JUMP JUMPDEST PUSH0 DUP1 PUSH0 PUSH1 0x60 DUP5 DUP7 SUB SLT ISZERO PUSH2 0xF92 JUMPI PUSH2 0xF91 PUSH2 0xC09 JUMP JUMPDEST JUMPDEST PUSH0 DUP5 ADD CALLDATALOAD PUSH8 0xFFFFFFFFFFFFFFFF DUP2 GT ISZERO PUSH2 0xFAF JUMPI PUSH2 0xFAE PUSH2 0xC0D JUMP JUMPDEST JUMPDEST PUSH2 0xFBB DUP7 DUP3 DUP8 ADD PUSH2 0xE58 JUMP JUMPDEST SWAP4 POP POP PUSH1 0x20 DUP5 ADD CALLDATALOAD PUSH8 0xFFFFFFFFFFFFFFFF DUP2 GT ISZERO PUSH2 0xFDC JUMPI PUSH2 0xFDB PUSH2 0xC0D JUMP JUMPDEST JUMPDEST PUSH2 0xFE8 DUP7 DUP3 DUP8 ADD PUSH2 0xE58 JUMP JUMPDEST SWAP3 POP POP PUSH1 0x40 DUP5 ADD CALLDATALOAD PUSH8 0xFFFFFFFFFFFFFFFF DUP2 GT ISZERO PUSH2 0x1009 JUMPI PUSH2 0x1008 PUSH2 0xC0D JUMP JUMPDEST JUMPDEST PUSH2 0x1015 DUP7 DUP3 DUP8 ADD PUSH2 0xE58 JUMP JUMPDEST SWAP2 POP POP SWAP3 POP SWAP3 POP SWAP3 JUMP JUMPDEST PUSH32 0x55736572206973206E6F74207265676973746572656400000000000000000000 PUSH0 DUP3 ADD MSTORE POP JUMP JUMPDEST PUSH0 PUSH2 0x1053 PUSH1 0x16 DUP4 PUSH2 0xCD3 JUMP JUMPDEST SWAP2 POP PUSH2 0x105E DUP3 PUSH2 0x101F JUMP JUMPDEST PUSH1 0x20 DUP3 ADD SWAP1 POP SWAP2 SWAP1 POP JUMP JUMPDEST PUSH0 PUSH1 0x20 DUP3 ADD SWAP1 POP DUP2 DUP2 SUB PUSH0 DUP4 ADD MSTORE PUSH2 0x1080 DUP2 PUSH2 0x1047 JUMP JUMPDEST SWAP1 POP SWAP2 SWAP1 POP JUMP JUMPDEST PUSH32 0x4E487B7100000000000000000000000000000000000000000000000000000000 PUSH0 MSTORE PUSH1 0x22 PUSH1 0x4 MSTORE PUSH1 0x24 PUSH0 REVERT JUMPDEST PUSH0 PUSH1 0x2 DUP3 DIV SWAP1 POP PUSH1 0x1 DUP3 AND DUP1 PUSH2 0x10CB JUMPI PUSH1 0x7F DUP3 AND SWAP2 POP JUMPDEST PUSH1 0x20 DUP3 LT DUP2 SUB PUSH2 0x10DE JUMPI PUSH2 0x10DD PUSH2 0x1087 JUMP JUMPDEST JUMPDEST POP SWAP2 SWAP1 POP JUMP JUMPDEST PUSH0 DUP2 SWAP1 POP DUP2 PUSH0 MSTORE PUSH1 0x20 PUSH0 KECCAK256 SWAP1 POP SWAP2 SWAP1 POP JUMP JUMPDEST PUSH0 PUSH1 0x20 PUSH1 0x1F DUP4 ADD DIV SWAP1 POP SWAP2 SWAP1 POP JUMP JUMPDEST PUSH0 DUP3 DUP3 SHL SWAP1 POP SWAP3 SWAP2 POP POP JUMP JUMPDEST PUSH0 PUSH1 0x8 DUP4 MUL PUSH2 0x1140 PUSH32 0xFFFFFFFFFFFFFFFFFFFFFFFFFFFFFFFFFFFFFFFFFFFFFFFFFFFFFFFFFFFFFFFF DUP3 PUSH2 0x1105 JUMP JUMPDEST PUSH2 0x114A DUP7 DUP4 PUSH2 0x1105 JUMP JUMPDEST SWAP6 POP DUP1 NOT DUP5 AND SWAP4 POP DUP1 DUP7 AND DUP5 OR SWAP3 POP POP POP SWAP4 SWAP3 POP POP POP JUMP JUMPDEST PUSH0 DUP2 SWAP1 POP SWAP2 SWAP1 POP JUMP JUMPDEST PUSH0 DUP2 SWAP1 POP SWAP2 SWAP1 POP JUMP JUMPDEST PUSH0 PUSH2 0x118E PUSH2 0x1189 PUSH2 0x1184 DUP5 PUSH2 0x1162 JUMP JUMPDEST PUSH2 0x116B JUMP JUMPDEST PUSH2 0x1162 JUMP JUMPDEST SWAP1 POP SWAP2 SWAP1 POP JUMP JUMPDEST PUSH0 DUP2 SWAP1 POP SWAP2 SWAP1 POP JUMP JUMPDEST PUSH2 0x11A7 DUP4 PUSH2 0x1174 JUMP JUMPDEST PUSH2 0x11BB PUSH2 0x11B3 DUP3 PUSH2 0x1195 JUMP JUMPDEST DUP5 DUP5 SLOAD PUSH2 0x1111 JUMP JUMPDEST DUP3 SSTORE POP POP POP POP JUMP JUMPDEST PUSH0 SWAP1 JUMP JUMPDEST PUSH2 0x11CF PUSH2 0x11C3 JUMP JUMPDEST PUSH2 0x11DA DUP2 DUP5 DUP5 PUSH2 0x119E JUMP JUMPDEST POP POP POP JUMP JUMPDEST JUMPDEST DUP2 DUP2 LT ISZERO PUSH2 0x11FD JUMPI PUSH2 0x11F2 PUSH0 DUP3 PUSH2 0x11C7 JUMP JUMPDEST PUSH1 0x1 DUP2 ADD SWAP1 POP PUSH2 0x11E0 JUMP JUMPDEST POP POP JUMP JUMPDEST PUSH1 0x1F DUP3 GT ISZERO PUSH2 0x1242 JUMPI PUSH2 0x1213 DUP2 PUSH2 0x10E4 JUMP JUMPDEST PUSH2 0x121C DUP5 PUSH2 0x10F6 JUMP JUMPDEST DUP2 ADD PUSH1 0x20 DUP6 LT ISZERO PUSH2 0x122B JUMPI DUP2 SWAP1 POP JUMPDEST PUSH2 0x123F PUSH2 0x1237 DUP6 PUSH2 0x10F6 JUMP JUMPDEST DUP4 ADD DUP3 PUSH2 0x11DF JUMP JUMPDEST POP POP JUMPDEST POP POP POP JUMP JUMPDEST PUSH0 DUP3 DUP3 SHR SWAP1 POP SWAP3 SWAP2 POP POP JUMP JUMPDEST PUSH0 PUSH2 0x1262 PUSH0 NOT DUP5 PUSH1 0x8 MUL PUSH2 0x1247 JUMP JUMPDEST NOT DUP1 DUP4 AND SWAP2 POP POP SWAP3 SWAP2 POP POP JUMP JUMPDEST PUSH0 PUSH2 0x127A DUP4 DUP4 PUSH2 0x1253 JUMP JUMPDEST SWAP2 POP DUP3 PUSH1 0x2 MUL DUP3 OR SWAP1 POP SWAP3 SWAP2 POP POP JUMP JUMPDEST PUSH2 0x1293 DUP3 PUSH2 0xCC9 JUMP JUMPDEST PUSH8 0xFFFFFFFFFFFFFFFF DUP2 GT ISZERO PUSH2 0x12AC JUMPI PUSH2 0x12AB PUSH2 0xD61 JUMP JUMPDEST JUMPDEST PUSH2 0x12B6 DUP3 SLOAD PUSH2 0x10B4 JUMP JUMPDEST PUSH2 0x12C1 DUP3 DUP3 DUP6 PUSH2 0x1201 JUMP JUMPDEST PUSH0 PUSH1 0x20 SWAP1 POP PUSH1 0x1F DUP4 GT PUSH1 0x1 DUP2 EQ PUSH2 0x12F2 JUMPI PUSH0 DUP5 ISZERO PUSH2 0x12E0 JUMPI DUP3 DUP8 ADD MLOAD SWAP1 POP JUMPDEST PUSH2 0x12EA DUP6 DUP3 PUSH2 0x126F JUMP JUMPDEST DUP7 SSTORE POP PUSH2 0x1351 JUMP JUMPDEST PUSH1 0x1F NOT DUP5 AND PUSH2 0x1300 DUP7 PUSH2 0x10E4 JUMP JUMPDEST PUSH0 JUMPDEST DUP3 DUP2 LT ISZERO PUSH2 0x1327 JUMPI DUP5 DUP10 ADD MLOAD DUP3 SSTORE PUSH1 0x1 DUP3 ADD SWAP2 POP PUSH1 0x20 DUP6 ADD SWAP5 POP PUSH1 0x20 DUP2 ADD SWAP1 POP PUSH2 0x1302 JUMP JUMPDEST DUP7 DUP4 LT ISZERO PUSH2 0x1344 JUMPI DUP5 DUP10 ADD MLOAD PUSH2 0x1340 PUSH1 0x1F DUP10 AND DUP3 PUSH2 0x1253 JUMP JUMPDEST DUP4 SSTORE POP JUMPDEST PUSH1 0x1 PUSH1 0x2 DUP9 MUL ADD DUP9 SSTORE POP POP POP JUMPDEST POP POP POP POP POP POP JUMP JUMPDEST PUSH0 DUP2 SLOAD PUSH2 0x1365 DUP2 PUSH2 0x10B4 JUMP JUMPDEST PUSH2 0x136F DUP2 DUP7 PUSH2 0xCD3 JUMP JUMPDEST SWAP5 POP PUSH1 0x1 DUP3 AND PUSH0 DUP2 EQ PUSH2 0x1389 JUMPI PUSH1 0x1 DUP2 EQ PUSH2 0x139F JUMPI PUSH2 0x13D1 JUMP JUMPDEST PUSH1 0xFF NOT DUP4 AND DUP7 MSTORE DUP2 ISZERO ISZERO PUSH1 0x20 MUL DUP7 ADD SWAP4 POP PUSH2 0x13D1 JUMP JUMPDEST PUSH2 0x13A8 DUP6 PUSH2 0x10E4 JUMP JUMPDEST PUSH0 JUMPDEST DUP4 DUP2 LT ISZERO PUSH2 0x13C9 JUMPI DUP2 SLOAD DUP2 DUP10 ADD MSTORE PUSH1 0x1 DUP3 ADD SWAP2 POP PUSH1 0x20 DUP2 ADD SWAP1 POP PUSH2 0x13AA JUMP JUMPDEST DUP1 DUP9 ADD SWAP6 POP POP POP JUMPDEST POP POP POP SWAP3 SWAP2 POP POP JUMP JUMPDEST PUSH0 PUSH1 0x40 DUP3 ADD SWAP1 POP DUP2 DUP2 SUB PUSH0 DUP4 ADD MSTORE PUSH2 0x13F2 DUP2 DUP6 PUSH2 0xD01 JUMP JUMPDEST SWAP1 POP DUP2 DUP2 SUB PUSH1 0x20 DUP4 ADD MSTORE PUSH2 0x1406 DUP2 DUP5 PUSH2 0x1359 JUMP JUMPDEST SWAP1 POP SWAP4 SWAP3 POP POP POP JUMP JUMPDEST PUSH32 0x5573657220697320616C72656164792072656769737465726564000000000000 PUSH0 DUP3 ADD MSTORE POP JUMP JUMPDEST PUSH0 PUSH2 0x1443 PUSH1 0x1A DUP4 PUSH2 0xCD3 JUMP JUMPDEST SWAP2 POP PUSH2 0x144E DUP3 PUSH2 0x140F JUMP JUMPDEST PUSH1 0x20 DUP3 ADD SWAP1 POP SWAP2 SWAP1 POP JUMP JUMPDEST PUSH0 PUSH1 0x20 DUP3 ADD SWAP1 POP DUP2 DUP2 SUB PUSH0 DUP4 ADD MSTORE PUSH2 0x1470 DUP2 PUSH2 0x1437 JUMP JUMPDEST SWAP1 POP SWAP2 SWAP1 POP JUMP JUMPDEST PUSH0 DUP2 SWAP1 POP SWAP3 SWAP2 POP POP JUMP JUMPDEST PUSH32 0x6661726D65720000000000000000000000000000000000000000000000000000 PUSH0 DUP3 ADD MSTORE POP JUMP JUMPDEST PUSH0 PUSH2 0x14B5 PUSH1 0x6 DUP4 PUSH2 0x1477 JUMP JUMPDEST SWAP2 POP PUSH2 0x14C0 DUP3 PUSH2 0x1481 JUMP JUMPDEST PUSH1 0x6 DUP3 ADD SWAP1 POP SWAP2 SWAP1 POP JUMP JUMPDEST PUSH0 PUSH2 0x14D5 DUP3 PUSH2 0x14A9 JUMP JUMPDEST SWAP2 POP DUP2 SWAP1 POP SWAP2 SWAP1 POP JUMP JUMPDEST PUSH0 PUSH2 0x14E9 DUP3 PUSH2 0xCC9 JUMP JUMPDEST PUSH2 0x14F3 DUP2 DUP6 PUSH2 0x1477 JUMP JUMPDEST SWAP4 POP PUSH2 0x1503 DUP2 DUP6 PUSH1 0x20 DUP7 ADD PUSH2 0xCE3 JUMP JUMPDEST DUP1 DUP5 ADD SWAP2 POP POP SWAP3 SWAP2 POP POP JUMP JUMPDEST PUSH0 PUSH2 0x151A DUP3 DUP5 PUSH2 0x14DF JUMP JUMPDEST SWAP2 POP DUP2 SWAP1 POP SWAP3 SWAP2 POP POP JUMP JUMPDEST PUSH32 0x636F6E73756D6572000000000000000000000000000000000000000000000000 PUSH0 DUP3 ADD MSTORE POP JUMP JUMPDEST PUSH0 PUSH2 0x1559 PUSH1 0x8 DUP4 PUSH2 0x1477 JUMP JUMPDEST SWAP2 POP PUSH2 0x1564 DUP3 PUSH2 0x1525 JUMP JUMPDEST PUSH1 0x8 DUP3 ADD SWAP1 POP SWAP2 SWAP1 POP JUMP JUMPDEST PUSH0 PUSH2 0x1579 DUP3 PUSH2 0x154D JUMP JUMPDEST SWAP2 POP DUP2 SWAP1 POP SWAP2 SWAP1 POP JUMP JUMPDEST PUSH32 0x7472616E73706F72746572000000000000000000000000000000000000000000 PUSH0 DUP3 ADD MSTORE POP JUMP JUMPDEST PUSH0 PUSH2 0x15B7 PUSH1 0xB DUP4 PUSH2 0x1477 JUMP JUMPDEST SWAP2 POP PUSH2 0x15C2 DUP3 PUSH2 0x1583 JUMP JUMPDEST PUSH1 0xB DUP3 ADD SWAP1 POP SWAP2 SWAP1 POP JUMP JUMPDEST PUSH0 PUSH2 0x15D7 DUP3 PUSH2 0x15AB JUMP JUMPDEST SWAP2 POP DUP2 SWAP1 POP SWAP2 SWAP1 POP JUMP JUMPDEST PUSH32 0x496E76616C696420726F6C650000000000000000000000000000000000000000 PUSH0 DUP3 ADD MSTORE POP JUMP JUMPDEST PUSH0 PUSH2 0x1615 PUSH1 0xC DUP4 PUSH2 0xCD3 JUMP JUMPDEST SWAP2 POP PUSH2 0x1620 DUP3 PUSH2 0x15E1 JUMP JUMPDEST PUSH1 0x20 DUP3 ADD SWAP1 POP SWAP2 SWAP1 POP JUMP JUMPDEST PUSH0 PUSH1 0x20 DUP3 ADD SWAP1 POP DUP2 DUP2 SUB PUSH0 DUP4 ADD MSTORE PUSH2 0x1642 DUP2 PUSH2 0x1609 JUMP JUMPDEST SWAP1 POP SWAP2 SWAP1 POP JUMP JUMPDEST PUSH0 PUSH1 0x40 DUP3 ADD SWAP1 POP DUP2 DUP2 SUB PUSH0 DUP4 ADD MSTORE PUSH2 0x1661 DUP2 DUP6 PUSH2 0xD01 JUMP JUMPDEST SWAP1 POP DUP2 DUP2 SUB PUSH1 0x20 DUP4 ADD MSTORE PUSH2 0x1675 DUP2 DUP5 PUSH2 0xD01 JUMP JUMPDEST SWAP1 POP SWAP4 SWAP3 POP POP POP JUMP INVALID LOG2 PUSH5 0x6970667358 0x22 SLT KECCAK256 0xE0 PUSH19 0xFABAFBBA99947758FDD951BDF6F73971725A4A CODECOPY 0xEF CHAINID STATICCALL DUP5 TLOAD SWAP15 0xAB CODECOPY 0xA8 LOG1 PUSH5 0x736F6C6343 STOP ADDMOD BYTE STOP CALLER "
				},
				"gasEstimates": {
					"creation": {
						"codeDepositCost": "1162400",
						"executionCost": "25470",
						"totalCost": "1187870"
					},
					"external": {
						"getUser(address)": "infinite",
						"getUserRole(address)": "infinite",
						"isUserRegistered(address)": "2877",
						"owner()": "2530",
						"registerUser(string,string,string)": "infinite",
						"updateUserInfo(string,string)": "infinite",
						"users(address)": "infinite"
					}
				},
				"methodIdentifiers": {
					"getUser(address)": "6f77926b",
					"getUserRole(address)": "27820851",
					"isUserRegistered(address)": "163f7522",
					"owner()": "8da5cb5b",
					"registerUser(string,string,string)": "d637dcfa",
					"updateUserInfo(string,string)": "4b3fcab5",
					"users(address)": "a87430ba"
				}
			},
			"storageLayout": {
				"storage": [
					{
						"astId": 16,
						"contract": "contracts/UserManagement.sol:UserManagement",
						"label": "users",
						"offset": 0,
						"slot": "0",
						"type": "t_mapping(t_address,t_struct(User)11_storage)"
					},
					{
						"astId": 18,
						"contract": "contracts/UserManagement.sol:UserManagement",
						"label": "owner",
						"offset": 0,
						"slot": "1",
						"type": "t_address"
					}
				],
				"types": {
					"t_address": {
						"encoding": "inplace",
						"label": "address",
						"numberOfBytes": "20"
					},
					"t_bool": {
						"encoding": "inplace",
						"label": "bool",
						"numberOfBytes": "1"
					},
					"t_mapping(t_address,t_struct(User)11_storage)": {
						"encoding": "mapping",
						"key": "t_address",
						"label": "mapping(address => struct UserManagement.User)",
						"numberOfBytes": "32",
						"value": "t_struct(User)11_storage"
					},
					"t_string_storage": {
						"encoding": "bytes",
						"label": "string",
						"numberOfBytes": "32"
					},
					"t_struct(User)11_storage": {
						"encoding": "inplace",
						"label": "struct UserManagement.User",
						"members": [
							{
								"astId": 4,
								"contract": "contracts/UserManagement.sol:UserManagement",
								"label": "name",
								"offset": 0,
								"slot": "0",
								"type": "t_string_storage"
							},
							{
								"astId": 6,
								"contract": "contracts/UserManagement.sol:UserManagement",
								"label": "role",
								"offset": 0,
								"slot": "1",
								"type": "t_string_storage"
							},
							{
								"astId": 8,
								"contract": "contracts/UserManagement.sol:UserManagement",
								"label": "isRegistered",
								"offset": 0,
								"slot": "2",
								"type": "t_bool"
							},
							{
								"astId": 10,
								"contract": "contracts/UserManagement.sol:UserManagement",
								"label": "additionalInfo",
								"offset": 0,
								"slot": "3",
								"type": "t_string_storage"
							}
						],
						"numberOfBytes": "128"
					}
				}
			},
			"userdoc": {
				"kind": "user",
				"methods": {
					"getUser(address)": {
						"notice": "Get user information"
					},
					"getUserRole(address)": {
						"notice": "Get the role of a user"
					},
					"isUserRegistered(address)": {
						"notice": "Check if a user is registered"
					},
					"registerUser(string,string,string)": {
						"notice": "Register a new user"
					},
					"updateUserInfo(string,string)": {
						"notice": "Update user information"
					}
				},
				"notice": "This contract manages user information and roles",
				"version": 1
			}
		}
	}
}