{
	"contracts/TransactionManagement.sol": {
		"TransactionManagement": {
			"abi": [
				{
					"anonymous": false,
					"inputs": [
						{
							"indexed": true,
							"internalType": "uint256",
							"name": "transactionId",
							"type": "uint256"
						},
						{
							"indexed": false,
							"internalType": "address",
							"name": "seller",
							"type": "address"
						},
						{
							"indexed": false,
							"internalType": "uint256",
							"name": "amount",
							"type": "uint256"
						}
					],
					"name": "FundsReleased",
					"type": "event"
				},
				{
					"anonymous": false,
					"inputs": [
						{
							"indexed": true,
							"internalType": "uint256",
							"name": "transactionId",
							"type": "uint256"
						},
						{
							"indexed": false,
							"internalType": "address",
							"name": "buyer",
							"type": "address"
						},
						{
							"indexed": false,
							"internalType": "address",
							"name": "seller",
							"type": "address"
						},
						{
							"indexed": false,
							"internalType": "uint256",
							"name": "amount",
							"type": "uint256"
						}
					],
					"name": "TransactionCreated",
					"type": "event"
				},
				{
					"anonymous": false,
					"inputs": [
						{
							"indexed": true,
							"internalType": "uint256",
							"name": "transactionId",
							"type": "uint256"
						},
						{
							"indexed": false,
							"internalType": "string",
							"name": "newStatus",
							"type": "string"
						}
					],
					"name": "TransactionStatusUpdated",
					"type": "event"
				},
				{
					"inputs": [
						{
							"internalType": "address",
							"name": "_seller",
							"type": "address"
						},
						{
							"internalType": "uint256",
							"name": "_productId",
							"type": "uint256"
						}
					],
					"name": "createTransaction",
					"outputs": [
						{
							"internalType": "uint256",
							"name": "",
							"type": "uint256"
						}
					],
					"stateMutability": "payable",
					"type": "function"
				},
				{
					"inputs": [
						{
							"internalType": "uint256",
							"name": "_transactionId",
							"type": "uint256"
						}
					],
					"name": "getTransaction",
					"outputs": [
						{
							"internalType": "address",
							"name": "buyer",
							"type": "address"
						},
						{
							"internalType": "address",
							"name": "seller",
							"type": "address"
						},
						{
							"internalType": "uint256",
							"name": "amount",
							"type": "uint256"
						},
						{
							"internalType": "string",
							"name": "status",
							"type": "string"
						},
						{
							"internalType": "uint256",
							"name": "productId",
							"type": "uint256"
						}
					],
					"stateMutability": "view",
					"type": "function"
				},
				{
					"inputs": [
						{
							"internalType": "uint256",
							"name": "_transactionId",
							"type": "uint256"
						}
					],
					"name": "releaseFunds",
					"outputs": [],
					"stateMutability": "nonpayable",
					"type": "function"
				},
				{
					"inputs": [],
					"name": "transactionCount",
					"outputs": [
						{
							"internalType": "uint256",
							"name": "",
							"type": "uint256"
						}
					],
					"stateMutability": "view",
					"type": "function"
				},
				{
					"inputs": [
						{
							"internalType": "uint256",
							"name": "",
							"type": "uint256"
						}
					],
					"name": "transactions",
					"outputs": [
						{
							"internalType": "address",
							"name": "buyer",
							"type": "address"
						},
						{
							"internalType": "address",
							"name": "seller",
							"type": "address"
						},
						{
							"internalType": "uint256",
							"name": "amount",
							"type": "uint256"
						},
						{
							"internalType": "string",
							"name": "status",
							"type": "string"
						},
						{
							"internalType": "uint256",
							"name": "productId",
							"type": "uint256"
						}
					],
					"stateMutability": "view",
					"type": "function"
				},
				{
					"inputs": [
						{
							"internalType": "uint256",
							"name": "_transactionId",
							"type": "uint256"
						},
						{
							"internalType": "string",
							"name": "_newStatus",
							"type": "string"
						}
					],
					"name": "updateTransactionStatus",
					"outputs": [],
					"stateMutability": "nonpayable",
					"type": "function"
				}
			],
			"devdoc": {
				"kind": "dev",
				"methods": {
					"createTransaction(address,uint256)": {
						"params": {
							"_productId": "The ID of the product being sold",
							"_seller": "The address of the seller (farmer)"
						},
						"returns": {
							"_0": "The ID of the newly created transaction"
						}
					},
					"getTransaction(uint256)": {
						"params": {
							"_transactionId": "The ID of the transaction to retrieve"
						},
						"returns": {
							"amount": "The transaction amount",
							"buyer": "The address of the buyer",
							"productId": "The ID of the product involved in the transaction",
							"seller": "The address of the seller",
							"status": "The current status of the transaction"
						}
					},
					"releaseFunds(uint256)": {
						"params": {
							"_transactionId": "The ID of the transaction"
						}
					},
					"updateTransactionStatus(uint256,string)": {
						"params": {
							"_newStatus": "The new status of the transaction",
							"_transactionId": "The ID of the transaction to update"
						}
					}
				},
				"title": "Transaction Management Contract for Teranga Shen",
				"version": 1
			},
			"evm": {
				"assembly": "    /* \"contracts/TransactionManagement.sol\":194:3970  contract TransactionManagement {... */\n  mstore(0x40, 0x80)\n  callvalue\n  dup1\n  iszero\n  tag_1\n  jumpi\n  0x00\n  dup1\n  revert\ntag_1:\n  pop\n  dataSize(sub_0)\n  dup1\n  dataOffset(sub_0)\n  0x00\n  codecopy\n  0x00\n  return\nstop\n\nsub_0: assembly {\n        /* \"contracts/TransactionManagement.sol\":194:3970  contract TransactionManagement {... */\n      mstore(0x40, 0x80)\n      jumpi(tag_1, lt(calldatasize, 0x04))\n      shr(0xe0, calldataload(0x00))\n      dup1\n      0x1e7f8f0f\n      eq\n      tag_2\n      jumpi\n      dup1\n      0x33ea3dc8\n      eq\n      tag_3\n      jumpi\n      dup1\n      0x4d68282f\n      eq\n      tag_4\n      jumpi\n      dup1\n      0x9ace38c2\n      eq\n      tag_5\n      jumpi\n      dup1\n      0xb39f3e0b\n      eq\n      tag_6\n      jumpi\n      dup1\n      0xb77bf600\n      eq\n      tag_7\n      jumpi\n    tag_1:\n      0x00\n      dup1\n      revert\n        /* \"contracts/TransactionManagement.sol\":975:1533  function createTransaction(address _seller, uint256 _productId) public payable returns (uint256) {... */\n    tag_2:\n      tag_8\n      0x04\n      dup1\n      calldatasize\n      sub\n      dup2\n      add\n      swap1\n      tag_9\n      swap2\n      swap1\n      tag_10\n      jump\t// in\n    tag_9:\n      tag_11\n      jump\t// in\n    tag_8:\n      mload(0x40)\n      tag_12\n      swap2\n      swap1\n      tag_13\n      jump\t// in\n    tag_12:\n      mload(0x40)\n      dup1\n      swap2\n      sub\n      swap1\n      return\n        /* \"contracts/TransactionManagement.sol\":3397:3968  function getTransaction(uint256 _transactionId) public view returns (... */\n    tag_3:\n      callvalue\n      dup1\n      iszero\n      tag_14\n      jumpi\n      0x00\n      dup1\n      revert\n    tag_14:\n      pop\n      tag_15\n      0x04\n      dup1\n      calldatasize\n      sub\n      dup2\n      add\n      swap1\n      tag_16\n      swap2\n      swap1\n      tag_17\n      jump\t// in\n    tag_16:\n      tag_18\n      jump\t// in\n    tag_15:\n      mload(0x40)\n      tag_19\n      swap6\n      swap5\n      swap4\n      swap3\n      swap2\n      swap1\n      tag_20\n      jump\t// in\n    tag_19:\n      mload(0x40)\n      dup1\n      swap2\n      sub\n      swap1\n      return\n        /* \"contracts/TransactionManagement.sol\":2312:3004  function releaseFunds(uint256 _transactionId) public {... */\n    tag_4:\n      callvalue\n      dup1\n      iszero\n      tag_21\n      jumpi\n      0x00\n      dup1\n      revert\n    tag_21:\n      pop\n      tag_22\n      0x04\n      dup1\n      calldatasize\n      sub\n      dup2\n      add\n      swap1\n      tag_23\n      swap2\n      swap1\n      tag_17\n      jump\t// in\n    tag_23:\n      tag_24\n      jump\t// in\n    tag_22:\n      stop\n        /* \"contracts/TransactionManagement.sol\":384:435  mapping(uint256 => Transaction) public transactions */\n    tag_5:\n      callvalue\n      dup1\n      iszero\n      tag_25\n      jumpi\n      0x00\n      dup1\n      revert\n    tag_25:\n      pop\n      tag_26\n      0x04\n      dup1\n      calldatasize\n      sub\n      dup2\n      add\n      swap1\n      tag_27\n      swap2\n      swap1\n      tag_17\n      jump\t// in\n    tag_27:\n      tag_28\n      jump\t// in\n    tag_26:\n      mload(0x40)\n      tag_29\n      swap6\n      swap5\n      swap4\n      swap3\n      swap2\n      swap1\n      tag_20\n      jump\t// in\n    tag_29:\n      mload(0x40)\n      dup1\n      swap2\n      sub\n      swap1\n      return\n        /* \"contracts/TransactionManagement.sol\":1716:2206  function updateTransactionStatus(uint256 _transactionId, string memory _newStatus) public {... */\n    tag_6:\n      callvalue\n      dup1\n      iszero\n      tag_30\n      jumpi\n      0x00\n      dup1\n      revert\n    tag_30:\n      pop\n      tag_31\n      0x04\n      dup1\n      calldatasize\n      sub\n      dup2\n      add\n      swap1\n      tag_32\n      swap2\n      swap1\n      tag_33\n      jump\t// in\n    tag_32:\n      tag_34\n      jump\t// in\n    tag_31:\n      stop\n        /* \"contracts/TransactionManagement.sol\":441:472  uint256 public transactionCount */\n    tag_7:\n      callvalue\n      dup1\n      iszero\n      tag_35\n      jumpi\n      0x00\n      dup1\n      revert\n    tag_35:\n      pop\n      tag_36\n      tag_37\n      jump\t// in\n    tag_36:\n      mload(0x40)\n      tag_38\n      swap2\n      swap1\n      tag_13\n      jump\t// in\n    tag_38:\n      mload(0x40)\n      dup1\n      swap2\n      sub\n      swap1\n      return\n        /* \"contracts/TransactionManagement.sol\":975:1533  function createTransaction(address _seller, uint256 _productId) public payable returns (uint256) {... */\n    tag_11:\n        /* \"contracts/TransactionManagement.sol\":1063:1070  uint256 */\n      0x00\n        /* \"contracts/TransactionManagement.sol\":1102:1103  0 */\n      dup1\n        /* \"contracts/TransactionManagement.sol\":1090:1099  msg.value */\n      callvalue\n        /* \"contracts/TransactionManagement.sol\":1090:1103  msg.value > 0 */\n      gt\n        /* \"contracts/TransactionManagement.sol\":1082:1149  require(msg.value > 0, \"Transaction amount must be greater than 0\") */\n      tag_40\n      jumpi\n      mload(0x40)\n      0x08c379a000000000000000000000000000000000000000000000000000000000\n      dup2\n      mstore\n      0x04\n      add\n      tag_41\n      swap1\n      tag_42\n      jump\t// in\n    tag_41:\n      mload(0x40)\n      dup1\n      swap2\n      sub\n      swap1\n      revert\n    tag_40:\n        /* \"contracts/TransactionManagement.sol\":1168:1184  transactionCount */\n      0x01\n      0x00\n        /* \"contracts/TransactionManagement.sol\":1168:1186  transactionCount++ */\n      dup2\n      sload\n      dup1\n      swap3\n      swap2\n      swap1\n      tag_43\n      swap1\n      tag_44\n      jump\t// in\n    tag_43:\n      swap2\n      swap1\n      pop\n      sstore\n      pop\n        /* \"contracts/TransactionManagement.sol\":1229:1409  Transaction({... */\n      mload(0x40)\n      dup1\n      0xa0\n      add\n      0x40\n      mstore\n      dup1\n        /* \"contracts/TransactionManagement.sol\":1262:1272  msg.sender */\n      caller\n        /* \"contracts/TransactionManagement.sol\":1229:1409  Transaction({... */\n      0xffffffffffffffffffffffffffffffffffffffff\n      and\n      dup2\n      mstore\n      0x20\n      add\n        /* \"contracts/TransactionManagement.sol\":1294:1301  _seller */\n      dup5\n        /* \"contracts/TransactionManagement.sol\":1229:1409  Transaction({... */\n      0xffffffffffffffffffffffffffffffffffffffff\n      and\n      dup2\n      mstore\n      0x20\n      add\n        /* \"contracts/TransactionManagement.sol\":1323:1332  msg.value */\n      callvalue\n        /* \"contracts/TransactionManagement.sol\":1229:1409  Transaction({... */\n      dup2\n      mstore\n      0x20\n      add\n      mload(0x40)\n      dup1\n      0x40\n      add\n      0x40\n      mstore\n      dup1\n      0x07\n      dup2\n      mstore\n      0x20\n      add\n      0x50656e64696e6700000000000000000000000000000000000000000000000000\n      dup2\n      mstore\n      pop\n      dup2\n      mstore\n      0x20\n      add\n        /* \"contracts/TransactionManagement.sol\":1388:1398  _productId */\n      dup4\n        /* \"contracts/TransactionManagement.sol\":1229:1409  Transaction({... */\n      dup2\n      mstore\n      pop\n        /* \"contracts/TransactionManagement.sol\":1196:1208  transactions */\n      0x00\n        /* \"contracts/TransactionManagement.sol\":1196:1226  transactions[transactionCount] */\n      dup1\n        /* \"contracts/TransactionManagement.sol\":1209:1225  transactionCount */\n      sload(0x01)\n        /* \"contracts/TransactionManagement.sol\":1196:1226  transactions[transactionCount] */\n      dup2\n      mstore\n      0x20\n      add\n      swap1\n      dup2\n      mstore\n      0x20\n      add\n      0x00\n      keccak256\n        /* \"contracts/TransactionManagement.sol\":1196:1409  transactions[transactionCount] = Transaction({... */\n      0x00\n      dup3\n      add\n      mload\n      dup2\n      0x00\n      add\n      exp(0x0100, 0x00)\n      dup2\n      sload\n      dup2\n      0xffffffffffffffffffffffffffffffffffffffff\n      mul\n      not\n      and\n      swap1\n      dup4\n      0xffffffffffffffffffffffffffffffffffffffff\n      and\n      mul\n      or\n      swap1\n      sstore\n      pop\n      0x20\n      dup3\n      add\n      mload\n      dup2\n      0x01\n      add\n      exp(0x0100, 0x00)\n      dup2\n      sload\n      dup2\n      0xffffffffffffffffffffffffffffffffffffffff\n      mul\n      not\n      and\n      swap1\n      dup4\n      0xffffffffffffffffffffffffffffffffffffffff\n      and\n      mul\n      or\n      swap1\n      sstore\n      pop\n      0x40\n      dup3\n      add\n      mload\n      dup2\n      0x02\n      add\n      sstore\n      0x60\n      dup3\n      add\n      mload\n      dup2\n      0x03\n      add\n      swap1\n      dup2\n      tag_45\n      swap2\n      swap1\n      tag_46\n      jump\t// in\n    tag_45:\n      pop\n      0x80\n      dup3\n      add\n      mload\n      dup2\n      0x04\n      add\n      sstore\n      swap1\n      pop\n      pop\n        /* \"contracts/TransactionManagement.sol\":1444:1460  transactionCount */\n      sload(0x01)\n        /* \"contracts/TransactionManagement.sol\":1425:1493  TransactionCreated(transactionCount, msg.sender, _seller, msg.value) */\n      0xe9097a4f4eddc0e5906640fcd9e1193c9db52771536ca4c8b06ab4c40aa045d2\n        /* \"contracts/TransactionManagement.sol\":1462:1472  msg.sender */\n      caller\n        /* \"contracts/TransactionManagement.sol\":1474:1481  _seller */\n      dup6\n        /* \"contracts/TransactionManagement.sol\":1483:1492  msg.value */\n      callvalue\n        /* \"contracts/TransactionManagement.sol\":1425:1493  TransactionCreated(transactionCount, msg.sender, _seller, msg.value) */\n      mload(0x40)\n      tag_47\n      swap4\n      swap3\n      swap2\n      swap1\n      tag_48\n      jump\t// in\n    tag_47:\n      mload(0x40)\n      dup1\n      swap2\n      sub\n      swap1\n      log2\n        /* \"contracts/TransactionManagement.sol\":1510:1526  transactionCount */\n      sload(0x01)\n        /* \"contracts/TransactionManagement.sol\":1503:1526  return transactionCount */\n      swap1\n      pop\n        /* \"contracts/TransactionManagement.sol\":975:1533  function createTransaction(address _seller, uint256 _productId) public payable returns (uint256) {... */\n      swap3\n      swap2\n      pop\n      pop\n      jump\t// out\n        /* \"contracts/TransactionManagement.sol\":3397:3968  function getTransaction(uint256 _transactionId) public view returns (... */\n    tag_18:\n        /* \"contracts/TransactionManagement.sol\":3475:3488  address buyer */\n      0x00\n        /* \"contracts/TransactionManagement.sol\":3498:3512  address seller */\n      dup1\n        /* \"contracts/TransactionManagement.sol\":3522:3536  uint256 amount */\n      0x00\n        /* \"contracts/TransactionManagement.sol\":3546:3566  string memory status */\n      0x60\n        /* \"contracts/TransactionManagement.sol\":3576:3593  uint256 productId */\n      0x00\n        /* \"contracts/TransactionManagement.sol\":3635:3636  0 */\n      dup1\n        /* \"contracts/TransactionManagement.sol\":3618:3632  _transactionId */\n      dup7\n        /* \"contracts/TransactionManagement.sol\":3618:3636  _transactionId > 0 */\n      gt\n        /* \"contracts/TransactionManagement.sol\":3618:3674  _transactionId > 0 && _transactionId <= transactionCount */\n      dup1\n      iszero\n      tag_50\n      jumpi\n      pop\n        /* \"contracts/TransactionManagement.sol\":3658:3674  transactionCount */\n      sload(0x01)\n        /* \"contracts/TransactionManagement.sol\":3640:3654  _transactionId */\n      dup7\n        /* \"contracts/TransactionManagement.sol\":3640:3674  _transactionId <= transactionCount */\n      gt\n      iszero\n        /* \"contracts/TransactionManagement.sol\":3618:3674  _transactionId > 0 && _transactionId <= transactionCount */\n    tag_50:\n        /* \"contracts/TransactionManagement.sol\":3610:3701  require(_transactionId > 0 && _transactionId <= transactionCount, \"Invalid transaction ID\") */\n      tag_51\n      jumpi\n      mload(0x40)\n      0x08c379a000000000000000000000000000000000000000000000000000000000\n      dup2\n      mstore\n      0x04\n      add\n      tag_52\n      swap1\n      tag_53\n      jump\t// in\n    tag_52:\n      mload(0x40)\n      dup1\n      swap2\n      sub\n      swap1\n      revert\n    tag_51:\n        /* \"contracts/TransactionManagement.sol\":3711:3741  Transaction memory transaction */\n      0x00\n        /* \"contracts/TransactionManagement.sol\":3744:3756  transactions */\n      dup1\n        /* \"contracts/TransactionManagement.sol\":3744:3772  transactions[_transactionId] */\n      0x00\n        /* \"contracts/TransactionManagement.sol\":3757:3771  _transactionId */\n      dup9\n        /* \"contracts/TransactionManagement.sol\":3744:3772  transactions[_transactionId] */\n      dup2\n      mstore\n      0x20\n      add\n      swap1\n      dup2\n      mstore\n      0x20\n      add\n      0x00\n      keccak256\n        /* \"contracts/TransactionManagement.sol\":3711:3772  Transaction memory transaction = transactions[_transactionId] */\n      mload(0x40)\n      dup1\n      0xa0\n      add\n      0x40\n      mstore\n      swap1\n      dup2\n      0x00\n      dup3\n      add\n      0x00\n      swap1\n      sload\n      swap1\n      0x0100\n      exp\n      swap1\n      div\n      0xffffffffffffffffffffffffffffffffffffffff\n      and\n      0xffffffffffffffffffffffffffffffffffffffff\n      and\n      0xffffffffffffffffffffffffffffffffffffffff\n      and\n      dup2\n      mstore\n      0x20\n      add\n      0x01\n      dup3\n      add\n      0x00\n      swap1\n      sload\n      swap1\n      0x0100\n      exp\n      swap1\n      div\n      0xffffffffffffffffffffffffffffffffffffffff\n      and\n      0xffffffffffffffffffffffffffffffffffffffff\n      and\n      0xffffffffffffffffffffffffffffffffffffffff\n      and\n      dup2\n      mstore\n      0x20\n      add\n      0x02\n      dup3\n      add\n      sload\n      dup2\n      mstore\n      0x20\n      add\n      0x03\n      dup3\n      add\n      dup1\n      sload\n      tag_54\n      swap1\n      tag_55\n      jump\t// in\n    tag_54:\n      dup1\n      0x1f\n      add\n      0x20\n      dup1\n      swap2\n      div\n      mul\n      0x20\n      add\n      mload(0x40)\n      swap1\n      dup2\n      add\n      0x40\n      mstore\n      dup1\n      swap3\n      swap2\n      swap1\n      dup2\n      dup2\n      mstore\n      0x20\n      add\n      dup3\n      dup1\n      sload\n      tag_56\n      swap1\n      tag_55\n      jump\t// in\n    tag_56:\n      dup1\n      iszero\n      tag_57\n      jumpi\n      dup1\n      0x1f\n      lt\n      tag_58\n      jumpi\n      0x0100\n      dup1\n      dup4\n      sload\n      div\n      mul\n      dup4\n      mstore\n      swap2\n      0x20\n      add\n      swap2\n      jump(tag_57)\n    tag_58:\n      dup3\n      add\n      swap2\n      swap1\n      0x00\n      mstore\n      keccak256(0x00, 0x20)\n      swap1\n    tag_59:\n      dup2\n      sload\n      dup2\n      mstore\n      swap1\n      0x01\n      add\n      swap1\n      0x20\n      add\n      dup1\n      dup4\n      gt\n      tag_59\n      jumpi\n      dup3\n      swap1\n      sub\n      0x1f\n      and\n      dup3\n      add\n      swap2\n    tag_57:\n      pop\n      pop\n      pop\n      pop\n      pop\n      dup2\n      mstore\n      0x20\n      add\n      0x04\n      dup3\n      add\n      sload\n      dup2\n      mstore\n      pop\n      pop\n      swap1\n      pop\n        /* \"contracts/TransactionManagement.sol\":3803:3814  transaction */\n      dup1\n        /* \"contracts/TransactionManagement.sol\":3803:3820  transaction.buyer */\n      0x00\n      add\n      mload\n        /* \"contracts/TransactionManagement.sol\":3834:3845  transaction */\n      dup2\n        /* \"contracts/TransactionManagement.sol\":3834:3852  transaction.seller */\n      0x20\n      add\n      mload\n        /* \"contracts/TransactionManagement.sol\":3866:3877  transaction */\n      dup3\n        /* \"contracts/TransactionManagement.sol\":3866:3884  transaction.amount */\n      0x40\n      add\n      mload\n        /* \"contracts/TransactionManagement.sol\":3898:3909  transaction */\n      dup4\n        /* \"contracts/TransactionManagement.sol\":3898:3916  transaction.status */\n      0x60\n      add\n      mload\n        /* \"contracts/TransactionManagement.sol\":3930:3941  transaction */\n      dup5\n        /* \"contracts/TransactionManagement.sol\":3930:3951  transaction.productId */\n      0x80\n      add\n      mload\n        /* \"contracts/TransactionManagement.sol\":3782:3961  return (... */\n      swap6\n      pop\n      swap6\n      pop\n      swap6\n      pop\n      swap6\n      pop\n      swap6\n      pop\n      pop\n        /* \"contracts/TransactionManagement.sol\":3397:3968  function getTransaction(uint256 _transactionId) public view returns (... */\n      swap2\n      swap4\n      swap6\n      swap1\n      swap3\n      swap5\n      pop\n      jump\t// out\n        /* \"contracts/TransactionManagement.sol\":2312:3004  function releaseFunds(uint256 _transactionId) public {... */\n    tag_24:\n        /* \"contracts/TransactionManagement.sol\":2400:2401  0 */\n      0x00\n        /* \"contracts/TransactionManagement.sol\":2383:2397  _transactionId */\n      dup2\n        /* \"contracts/TransactionManagement.sol\":2383:2401  _transactionId > 0 */\n      gt\n        /* \"contracts/TransactionManagement.sol\":2383:2439  _transactionId > 0 && _transactionId <= transactionCount */\n      dup1\n      iszero\n      tag_61\n      jumpi\n      pop\n        /* \"contracts/TransactionManagement.sol\":2423:2439  transactionCount */\n      sload(0x01)\n        /* \"contracts/TransactionManagement.sol\":2405:2419  _transactionId */\n      dup2\n        /* \"contracts/TransactionManagement.sol\":2405:2439  _transactionId <= transactionCount */\n      gt\n      iszero\n        /* \"contracts/TransactionManagement.sol\":2383:2439  _transactionId > 0 && _transactionId <= transactionCount */\n    tag_61:\n        /* \"contracts/TransactionManagement.sol\":2375:2466  require(_transactionId > 0 && _transactionId <= transactionCount, \"Invalid transaction ID\") */\n      tag_62\n      jumpi\n      mload(0x40)\n      0x08c379a000000000000000000000000000000000000000000000000000000000\n      dup2\n      mstore\n      0x04\n      add\n      tag_63\n      swap1\n      tag_53\n      jump\t// in\n    tag_63:\n      mload(0x40)\n      dup1\n      swap2\n      sub\n      swap1\n      revert\n    tag_62:\n        /* \"contracts/TransactionManagement.sol\":2498:2510  transactions */\n      0x00\n        /* \"contracts/TransactionManagement.sol\":2498:2526  transactions[_transactionId] */\n      dup1\n        /* \"contracts/TransactionManagement.sol\":2511:2525  _transactionId */\n      dup3\n        /* \"contracts/TransactionManagement.sol\":2498:2526  transactions[_transactionId] */\n      dup2\n      mstore\n      0x20\n      add\n      swap1\n      dup2\n      mstore\n      0x20\n      add\n      0x00\n      keccak256\n        /* \"contracts/TransactionManagement.sol\":2498:2532  transactions[_transactionId].buyer */\n      0x00\n      add\n      0x00\n      swap1\n      sload\n      swap1\n      0x0100\n      exp\n      swap1\n      div\n      0xffffffffffffffffffffffffffffffffffffffff\n      and\n        /* \"contracts/TransactionManagement.sol\":2484:2532  msg.sender == transactions[_transactionId].buyer */\n      0xffffffffffffffffffffffffffffffffffffffff\n      and\n        /* \"contracts/TransactionManagement.sol\":2484:2494  msg.sender */\n      caller\n        /* \"contracts/TransactionManagement.sol\":2484:2532  msg.sender == transactions[_transactionId].buyer */\n      0xffffffffffffffffffffffffffffffffffffffff\n      and\n      eq\n        /* \"contracts/TransactionManagement.sol\":2476:2565  require(msg.sender == transactions[_transactionId].buyer, \"Only buyer can release funds\") */\n      tag_64\n      jumpi\n      mload(0x40)\n      0x08c379a000000000000000000000000000000000000000000000000000000000\n      dup2\n      mstore\n      0x04\n      add\n      tag_65\n      swap1\n      tag_66\n      jump\t// in\n    tag_65:\n      mload(0x40)\n      dup1\n      swap2\n      sub\n      swap1\n      revert\n    tag_64:\n        /* \"contracts/TransactionManagement.sol\":2661:2688  abi.encodePacked(\"Pending\") */\n      add(0x20, mload(0x40))\n      tag_67\n      swap1\n      tag_68\n      jump\t// in\n    tag_67:\n      mload(0x40)\n      0x20\n      dup2\n      dup4\n      sub\n      sub\n      dup2\n      mstore\n      swap1\n      0x40\n      mstore\n        /* \"contracts/TransactionManagement.sol\":2651:2689  keccak256(abi.encodePacked(\"Pending\")) */\n      dup1\n      mload\n      swap1\n      0x20\n      add\n      keccak256\n        /* \"contracts/TransactionManagement.sol\":2610:2622  transactions */\n      0x00\n        /* \"contracts/TransactionManagement.sol\":2610:2638  transactions[_transactionId] */\n      dup1\n        /* \"contracts/TransactionManagement.sol\":2623:2637  _transactionId */\n      dup4\n        /* \"contracts/TransactionManagement.sol\":2610:2638  transactions[_transactionId] */\n      dup2\n      mstore\n      0x20\n      add\n      swap1\n      dup2\n      mstore\n      0x20\n      add\n      0x00\n      keccak256\n        /* \"contracts/TransactionManagement.sol\":2610:2645  transactions[_transactionId].status */\n      0x03\n      add\n        /* \"contracts/TransactionManagement.sol\":2593:2646  abi.encodePacked(transactions[_transactionId].status) */\n      add(0x20, mload(0x40))\n      tag_69\n      swap2\n      swap1\n      tag_70\n      jump\t// in\n    tag_69:\n      mload(0x40)\n      0x20\n      dup2\n      dup4\n      sub\n      sub\n      dup2\n      mstore\n      swap1\n      0x40\n      mstore\n        /* \"contracts/TransactionManagement.sol\":2583:2647  keccak256(abi.encodePacked(transactions[_transactionId].status)) */\n      dup1\n      mload\n      swap1\n      0x20\n      add\n      keccak256\n        /* \"contracts/TransactionManagement.sol\":2583:2689  keccak256(abi.encodePacked(transactions[_transactionId].status)) == keccak256(abi.encodePacked(\"Pending\")) */\n      eq\n        /* \"contracts/TransactionManagement.sol\":2575:2731  require(keccak256(abi.encodePacked(transactions[_transactionId].status)) == keccak256(abi.encodePacked(\"Pending\")), \"Transaction must be in Pending status\") */\n      tag_71\n      jumpi\n      mload(0x40)\n      0x08c379a000000000000000000000000000000000000000000000000000000000\n      dup2\n      mstore\n      0x04\n      add\n      tag_72\n      swap1\n      tag_73\n      jump\t// in\n    tag_72:\n      mload(0x40)\n      dup1\n      swap2\n      sub\n      swap1\n      revert\n    tag_71:\n        /* \"contracts/TransactionManagement.sol\":2742:2773  Transaction storage transaction */\n      0x00\n        /* \"contracts/TransactionManagement.sol\":2776:2788  transactions */\n      dup1\n        /* \"contracts/TransactionManagement.sol\":2776:2804  transactions[_transactionId] */\n      0x00\n        /* \"contracts/TransactionManagement.sol\":2789:2803  _transactionId */\n      dup4\n        /* \"contracts/TransactionManagement.sol\":2776:2804  transactions[_transactionId] */\n      dup2\n      mstore\n      0x20\n      add\n      swap1\n      dup2\n      mstore\n      0x20\n      add\n      0x00\n      keccak256\n        /* \"contracts/TransactionManagement.sol\":2742:2804  Transaction storage transaction = transactions[_transactionId] */\n      swap1\n      pop\n        /* \"contracts/TransactionManagement.sol\":2814:2846  transaction.status = \"Completed\" */\n      mload(0x40)\n      dup1\n      0x40\n      add\n      0x40\n      mstore\n      dup1\n      0x09\n      dup2\n      mstore\n      0x20\n      add\n      0x436f6d706c657465640000000000000000000000000000000000000000000000\n      dup2\n      mstore\n      pop\n        /* \"contracts/TransactionManagement.sol\":2814:2825  transaction */\n      dup2\n        /* \"contracts/TransactionManagement.sol\":2814:2832  transaction.status */\n      0x03\n      add\n        /* \"contracts/TransactionManagement.sol\":2814:2846  transaction.status = \"Completed\" */\n      swap1\n      dup2\n      tag_74\n      swap2\n      swap1\n      tag_46\n      jump\t// in\n    tag_74:\n      pop\n        /* \"contracts/TransactionManagement.sol\":2864:2875  transaction */\n      dup1\n        /* \"contracts/TransactionManagement.sol\":2864:2882  transaction.seller */\n      0x01\n      add\n      0x00\n      swap1\n      sload\n      swap1\n      0x0100\n      exp\n      swap1\n      div\n      0xffffffffffffffffffffffffffffffffffffffff\n      and\n        /* \"contracts/TransactionManagement.sol\":2856:2892  payable(transaction.seller).transfer */\n      0xffffffffffffffffffffffffffffffffffffffff\n      and\n        /* \"contracts/TransactionManagement.sol\":2856:2912  payable(transaction.seller).transfer(transaction.amount) */\n      0x08fc\n        /* \"contracts/TransactionManagement.sol\":2893:2904  transaction */\n      dup3\n        /* \"contracts/TransactionManagement.sol\":2893:2911  transaction.amount */\n      0x02\n      add\n      sload\n        /* \"contracts/TransactionManagement.sol\":2856:2912  payable(transaction.seller).transfer(transaction.amount) */\n      swap1\n      dup2\n      iszero\n      mul\n      swap1\n      mload(0x40)\n      0x00\n      mload(0x40)\n      dup1\n      dup4\n      sub\n      dup2\n      dup6\n      dup9\n      dup9\n      call\n      swap4\n      pop\n      pop\n      pop\n      pop\n      iszero\n      dup1\n      iszero\n      tag_76\n      jumpi\n      returndatasize\n      0x00\n      dup1\n      returndatacopy\n      revert(0x00, returndatasize)\n    tag_76:\n      pop\n        /* \"contracts/TransactionManagement.sol\":2942:2956  _transactionId */\n      dup2\n        /* \"contracts/TransactionManagement.sol\":2928:2997  FundsReleased(_transactionId, transaction.seller, transaction.amount) */\n      0x6e3c6096795c8298a218b2cfb8bde42726ff7c9a3d27b4d3ba41ab7f74feb5fb\n        /* \"contracts/TransactionManagement.sol\":2958:2969  transaction */\n      dup3\n        /* \"contracts/TransactionManagement.sol\":2958:2976  transaction.seller */\n      0x01\n      add\n      0x00\n      swap1\n      sload\n      swap1\n      0x0100\n      exp\n      swap1\n      div\n      0xffffffffffffffffffffffffffffffffffffffff\n      and\n        /* \"contracts/TransactionManagement.sol\":2978:2989  transaction */\n      dup4\n        /* \"contracts/TransactionManagement.sol\":2978:2996  transaction.amount */\n      0x02\n      add\n      sload\n        /* \"contracts/TransactionManagement.sol\":2928:2997  FundsReleased(_transactionId, transaction.seller, transaction.amount) */\n      mload(0x40)\n      tag_77\n      swap3\n      swap2\n      swap1\n      tag_78\n      jump\t// in\n    tag_77:\n      mload(0x40)\n      dup1\n      swap2\n      sub\n      swap1\n      log2\n        /* \"contracts/TransactionManagement.sol\":2365:3004  {... */\n      pop\n        /* \"contracts/TransactionManagement.sol\":2312:3004  function releaseFunds(uint256 _transactionId) public {... */\n      pop\n      jump\t// out\n        /* \"contracts/TransactionManagement.sol\":384:435  mapping(uint256 => Transaction) public transactions */\n    tag_28:\n      mstore(0x20, 0x00)\n      dup1\n      0x00\n      mstore\n      keccak256(0x00, 0x40)\n      0x00\n      swap2\n      pop\n      swap1\n      pop\n      dup1\n      0x00\n      add\n      0x00\n      swap1\n      sload\n      swap1\n      0x0100\n      exp\n      swap1\n      div\n      0xffffffffffffffffffffffffffffffffffffffff\n      and\n      swap1\n      dup1\n      0x01\n      add\n      0x00\n      swap1\n      sload\n      swap1\n      0x0100\n      exp\n      swap1\n      div\n      0xffffffffffffffffffffffffffffffffffffffff\n      and\n      swap1\n      dup1\n      0x02\n      add\n      sload\n      swap1\n      dup1\n      0x03\n      add\n      dup1\n      sload\n      tag_79\n      swap1\n      tag_55\n      jump\t// in\n    tag_79:\n      dup1\n      0x1f\n      add\n      0x20\n      dup1\n      swap2\n      div\n      mul\n      0x20\n      add\n      mload(0x40)\n      swap1\n      dup2\n      add\n      0x40\n      mstore\n      dup1\n      swap3\n      swap2\n      swap1\n      dup2\n      dup2\n      mstore\n      0x20\n      add\n      dup3\n      dup1\n      sload\n      tag_80\n      swap1\n      tag_55\n      jump\t// in\n    tag_80:\n      dup1\n      iszero\n      tag_81\n      jumpi\n      dup1\n      0x1f\n      lt\n      tag_82\n      jumpi\n      0x0100\n      dup1\n      dup4\n      sload\n      div\n      mul\n      dup4\n      mstore\n      swap2\n      0x20\n      add\n      swap2\n      jump(tag_81)\n    tag_82:\n      dup3\n      add\n      swap2\n      swap1\n      0x00\n      mstore\n      keccak256(0x00, 0x20)\n      swap1\n    tag_83:\n      dup2\n      sload\n      dup2\n      mstore\n      swap1\n      0x01\n      add\n      swap1\n      0x20\n      add\n      dup1\n      dup4\n      gt\n      tag_83\n      jumpi\n      dup3\n      swap1\n      sub\n      0x1f\n      and\n      dup3\n      add\n      swap2\n    tag_81:\n      pop\n      pop\n      pop\n      pop\n      pop\n      swap1\n      dup1\n      0x04\n      add\n      sload\n      swap1\n      pop\n      dup6\n      jump\t// out\n        /* \"contracts/TransactionManagement.sol\":1716:2206  function updateTransactionStatus(uint256 _transactionId, string memory _newStatus) public {... */\n    tag_34:\n        /* \"contracts/TransactionManagement.sol\":1841:1842  0 */\n      0x00\n        /* \"contracts/TransactionManagement.sol\":1824:1838  _transactionId */\n      dup3\n        /* \"contracts/TransactionManagement.sol\":1824:1842  _transactionId > 0 */\n      gt\n        /* \"contracts/TransactionManagement.sol\":1824:1880  _transactionId > 0 && _transactionId <= transactionCount */\n      dup1\n      iszero\n      tag_85\n      jumpi\n      pop\n        /* \"contracts/TransactionManagement.sol\":1864:1880  transactionCount */\n      sload(0x01)\n        /* \"contracts/TransactionManagement.sol\":1846:1860  _transactionId */\n      dup3\n        /* \"contracts/TransactionManagement.sol\":1846:1880  _transactionId <= transactionCount */\n      gt\n      iszero\n        /* \"contracts/TransactionManagement.sol\":1824:1880  _transactionId > 0 && _transactionId <= transactionCount */\n    tag_85:\n        /* \"contracts/TransactionManagement.sol\":1816:1907  require(_transactionId > 0 && _transactionId <= transactionCount, \"Invalid transaction ID\") */\n      tag_86\n      jumpi\n      mload(0x40)\n      0x08c379a000000000000000000000000000000000000000000000000000000000\n      dup2\n      mstore\n      0x04\n      add\n      tag_87\n      swap1\n      tag_53\n      jump\t// in\n    tag_87:\n      mload(0x40)\n      dup1\n      swap2\n      sub\n      swap1\n      revert\n    tag_86:\n        /* \"contracts/TransactionManagement.sol\":1939:1951  transactions */\n      0x00\n        /* \"contracts/TransactionManagement.sol\":1939:1967  transactions[_transactionId] */\n      dup1\n        /* \"contracts/TransactionManagement.sol\":1952:1966  _transactionId */\n      dup4\n        /* \"contracts/TransactionManagement.sol\":1939:1967  transactions[_transactionId] */\n      dup2\n      mstore\n      0x20\n      add\n      swap1\n      dup2\n      mstore\n      0x20\n      add\n      0x00\n      keccak256\n        /* \"contracts/TransactionManagement.sol\":1939:1973  transactions[_transactionId].buyer */\n      0x00\n      add\n      0x00\n      swap1\n      sload\n      swap1\n      0x0100\n      exp\n      swap1\n      div\n      0xffffffffffffffffffffffffffffffffffffffff\n      and\n        /* \"contracts/TransactionManagement.sol\":1925:1973  msg.sender == transactions[_transactionId].buyer */\n      0xffffffffffffffffffffffffffffffffffffffff\n      and\n        /* \"contracts/TransactionManagement.sol\":1925:1935  msg.sender */\n      caller\n        /* \"contracts/TransactionManagement.sol\":1925:1973  msg.sender == transactions[_transactionId].buyer */\n      0xffffffffffffffffffffffffffffffffffffffff\n      and\n      eq\n        /* \"contracts/TransactionManagement.sol\":1925:2026  msg.sender == transactions[_transactionId].buyer || msg.sender == transactions[_transactionId].seller */\n      dup1\n      tag_88\n      jumpi\n      pop\n        /* \"contracts/TransactionManagement.sol\":1991:2003  transactions */\n      0x00\n        /* \"contracts/TransactionManagement.sol\":1991:2019  transactions[_transactionId] */\n      dup1\n        /* \"contracts/TransactionManagement.sol\":2004:2018  _transactionId */\n      dup4\n        /* \"contracts/TransactionManagement.sol\":1991:2019  transactions[_transactionId] */\n      dup2\n      mstore\n      0x20\n      add\n      swap1\n      dup2\n      mstore\n      0x20\n      add\n      0x00\n      keccak256\n        /* \"contracts/TransactionManagement.sol\":1991:2026  transactions[_transactionId].seller */\n      0x01\n      add\n      0x00\n      swap1\n      sload\n      swap1\n      0x0100\n      exp\n      swap1\n      div\n      0xffffffffffffffffffffffffffffffffffffffff\n      and\n        /* \"contracts/TransactionManagement.sol\":1977:2026  msg.sender == transactions[_transactionId].seller */\n      0xffffffffffffffffffffffffffffffffffffffff\n      and\n        /* \"contracts/TransactionManagement.sol\":1977:1987  msg.sender */\n      caller\n        /* \"contracts/TransactionManagement.sol\":1977:2026  msg.sender == transactions[_transactionId].seller */\n      0xffffffffffffffffffffffffffffffffffffffff\n      and\n      eq\n        /* \"contracts/TransactionManagement.sol\":1925:2026  msg.sender == transactions[_transactionId].buyer || msg.sender == transactions[_transactionId].seller */\n    tag_88:\n        /* \"contracts/TransactionManagement.sol\":1917:2073  require(msg.sender == transactions[_transactionId].buyer || msg.sender == transactions[_transactionId].seller, \"Only buyer or seller can update the status\") */\n      tag_89\n      jumpi\n      mload(0x40)\n      0x08c379a000000000000000000000000000000000000000000000000000000000\n      dup2\n      mstore\n      0x04\n      add\n      tag_90\n      swap1\n      tag_91\n      jump\t// in\n    tag_90:\n      mload(0x40)\n      dup1\n      swap2\n      sub\n      swap1\n      revert\n    tag_89:\n        /* \"contracts/TransactionManagement.sol\":2122:2132  _newStatus */\n      dup1\n        /* \"contracts/TransactionManagement.sol\":2084:2096  transactions */\n      0x00\n        /* \"contracts/TransactionManagement.sol\":2084:2112  transactions[_transactionId] */\n      dup1\n        /* \"contracts/TransactionManagement.sol\":2097:2111  _transactionId */\n      dup5\n        /* \"contracts/TransactionManagement.sol\":2084:2112  transactions[_transactionId] */\n      dup2\n      mstore\n      0x20\n      add\n      swap1\n      dup2\n      mstore\n      0x20\n      add\n      0x00\n      keccak256\n        /* \"contracts/TransactionManagement.sol\":2084:2119  transactions[_transactionId].status */\n      0x03\n      add\n        /* \"contracts/TransactionManagement.sol\":2084:2132  transactions[_transactionId].status = _newStatus */\n      swap1\n      dup2\n      tag_92\n      swap2\n      swap1\n      tag_46\n      jump\t// in\n    tag_92:\n      pop\n        /* \"contracts/TransactionManagement.sol\":2172:2186  _transactionId */\n      dup2\n        /* \"contracts/TransactionManagement.sol\":2147:2199  TransactionStatusUpdated(_transactionId, _newStatus) */\n      0x460337c8a7cecb6488651f314e42c67eddaa1c3e3490675008d675a4ed44aedb\n        /* \"contracts/TransactionManagement.sol\":2188:2198  _newStatus */\n      dup3\n        /* \"contracts/TransactionManagement.sol\":2147:2199  TransactionStatusUpdated(_transactionId, _newStatus) */\n      mload(0x40)\n      tag_93\n      swap2\n      swap1\n      tag_94\n      jump\t// in\n    tag_93:\n      mload(0x40)\n      dup1\n      swap2\n      sub\n      swap1\n      log2\n        /* \"contracts/TransactionManagement.sol\":1716:2206  function updateTransactionStatus(uint256 _transactionId, string memory _newStatus) public {... */\n      pop\n      pop\n      jump\t// out\n        /* \"contracts/TransactionManagement.sol\":441:472  uint256 public transactionCount */\n    tag_37:\n      sload(0x01)\n      dup2\n      jump\t// out\n        /* \"#utility.yul\":7:82   */\n    tag_95:\n        /* \"#utility.yul\":40:46   */\n      0x00\n        /* \"#utility.yul\":73:75   */\n      0x40\n        /* \"#utility.yul\":67:76   */\n      mload\n        /* \"#utility.yul\":57:76   */\n      swap1\n      pop\n        /* \"#utility.yul\":7:82   */\n      swap1\n      jump\t// out\n        /* \"#utility.yul\":88:205   */\n    tag_96:\n        /* \"#utility.yul\":197:198   */\n      0x00\n        /* \"#utility.yul\":194:195   */\n      dup1\n        /* \"#utility.yul\":187:199   */\n      revert\n        /* \"#utility.yul\":211:328   */\n    tag_97:\n        /* \"#utility.yul\":320:321   */\n      0x00\n        /* \"#utility.yul\":317:318   */\n      dup1\n        /* \"#utility.yul\":310:322   */\n      revert\n        /* \"#utility.yul\":334:460   */\n    tag_98:\n        /* \"#utility.yul\":371:378   */\n      0x00\n        /* \"#utility.yul\":411:453   */\n      0xffffffffffffffffffffffffffffffffffffffff\n        /* \"#utility.yul\":404:409   */\n      dup3\n        /* \"#utility.yul\":400:454   */\n      and\n        /* \"#utility.yul\":389:454   */\n      swap1\n      pop\n        /* \"#utility.yul\":334:460   */\n      swap2\n      swap1\n      pop\n      jump\t// out\n        /* \"#utility.yul\":466:562   */\n    tag_99:\n        /* \"#utility.yul\":503:510   */\n      0x00\n        /* \"#utility.yul\":532:556   */\n      tag_158\n        /* \"#utility.yul\":550:555   */\n      dup3\n        /* \"#utility.yul\":532:556   */\n      tag_98\n      jump\t// in\n    tag_158:\n        /* \"#utility.yul\":521:556   */\n      swap1\n      pop\n        /* \"#utility.yul\":466:562   */\n      swap2\n      swap1\n      pop\n      jump\t// out\n        /* \"#utility.yul\":568:690   */\n    tag_100:\n        /* \"#utility.yul\":641:665   */\n      tag_160\n        /* \"#utility.yul\":659:664   */\n      dup2\n        /* \"#utility.yul\":641:665   */\n      tag_99\n      jump\t// in\n    tag_160:\n        /* \"#utility.yul\":634:639   */\n      dup2\n        /* \"#utility.yul\":631:666   */\n      eq\n        /* \"#utility.yul\":621:684   */\n      tag_161\n      jumpi\n        /* \"#utility.yul\":680:681   */\n      0x00\n        /* \"#utility.yul\":677:678   */\n      dup1\n        /* \"#utility.yul\":670:682   */\n      revert\n        /* \"#utility.yul\":621:684   */\n    tag_161:\n        /* \"#utility.yul\":568:690   */\n      pop\n      jump\t// out\n        /* \"#utility.yul\":696:835   */\n    tag_101:\n        /* \"#utility.yul\":742:747   */\n      0x00\n        /* \"#utility.yul\":780:786   */\n      dup2\n        /* \"#utility.yul\":767:787   */\n      calldataload\n        /* \"#utility.yul\":758:787   */\n      swap1\n      pop\n        /* \"#utility.yul\":796:829   */\n      tag_163\n        /* \"#utility.yul\":823:828   */\n      dup2\n        /* \"#utility.yul\":796:829   */\n      tag_100\n      jump\t// in\n    tag_163:\n        /* \"#utility.yul\":696:835   */\n      swap3\n      swap2\n      pop\n      pop\n      jump\t// out\n        /* \"#utility.yul\":841:918   */\n    tag_102:\n        /* \"#utility.yul\":878:885   */\n      0x00\n        /* \"#utility.yul\":907:912   */\n      dup2\n        /* \"#utility.yul\":896:912   */\n      swap1\n      pop\n        /* \"#utility.yul\":841:918   */\n      swap2\n      swap1\n      pop\n      jump\t// out\n        /* \"#utility.yul\":924:1046   */\n    tag_103:\n        /* \"#utility.yul\":997:1021   */\n      tag_166\n        /* \"#utility.yul\":1015:1020   */\n      dup2\n        /* \"#utility.yul\":997:1021   */\n      tag_102\n      jump\t// in\n    tag_166:\n        /* \"#utility.yul\":990:995   */\n      dup2\n        /* \"#utility.yul\":987:1022   */\n      eq\n        /* \"#utility.yul\":977:1040   */\n      tag_167\n      jumpi\n        /* \"#utility.yul\":1036:1037   */\n      0x00\n        /* \"#utility.yul\":1033:1034   */\n      dup1\n        /* \"#utility.yul\":1026:1038   */\n      revert\n        /* \"#utility.yul\":977:1040   */\n    tag_167:\n        /* \"#utility.yul\":924:1046   */\n      pop\n      jump\t// out\n        /* \"#utility.yul\":1052:1191   */\n    tag_104:\n        /* \"#utility.yul\":1098:1103   */\n      0x00\n        /* \"#utility.yul\":1136:1142   */\n      dup2\n        /* \"#utility.yul\":1123:1143   */\n      calldataload\n        /* \"#utility.yul\":1114:1143   */\n      swap1\n      pop\n        /* \"#utility.yul\":1152:1185   */\n      tag_169\n        /* \"#utility.yul\":1179:1184   */\n      dup2\n        /* \"#utility.yul\":1152:1185   */\n      tag_103\n      jump\t// in\n    tag_169:\n        /* \"#utility.yul\":1052:1191   */\n      swap3\n      swap2\n      pop\n      pop\n      jump\t// out\n        /* \"#utility.yul\":1197:1671   */\n    tag_10:\n        /* \"#utility.yul\":1265:1271   */\n      0x00\n        /* \"#utility.yul\":1273:1279   */\n      dup1\n        /* \"#utility.yul\":1322:1324   */\n      0x40\n        /* \"#utility.yul\":1310:1319   */\n      dup4\n        /* \"#utility.yul\":1301:1308   */\n      dup6\n        /* \"#utility.yul\":1297:1320   */\n      sub\n        /* \"#utility.yul\":1293:1325   */\n      slt\n        /* \"#utility.yul\":1290:1409   */\n      iszero\n      tag_171\n      jumpi\n        /* \"#utility.yul\":1328:1407   */\n      tag_172\n      tag_96\n      jump\t// in\n    tag_172:\n        /* \"#utility.yul\":1290:1409   */\n    tag_171:\n        /* \"#utility.yul\":1448:1449   */\n      0x00\n        /* \"#utility.yul\":1473:1526   */\n      tag_173\n        /* \"#utility.yul\":1518:1525   */\n      dup6\n        /* \"#utility.yul\":1509:1515   */\n      dup3\n        /* \"#utility.yul\":1498:1507   */\n      dup7\n        /* \"#utility.yul\":1494:1516   */\n      add\n        /* \"#utility.yul\":1473:1526   */\n      tag_101\n      jump\t// in\n    tag_173:\n        /* \"#utility.yul\":1463:1526   */\n      swap3\n      pop\n        /* \"#utility.yul\":1419:1536   */\n      pop\n        /* \"#utility.yul\":1575:1577   */\n      0x20\n        /* \"#utility.yul\":1601:1654   */\n      tag_174\n        /* \"#utility.yul\":1646:1653   */\n      dup6\n        /* \"#utility.yul\":1637:1643   */\n      dup3\n        /* \"#utility.yul\":1626:1635   */\n      dup7\n        /* \"#utility.yul\":1622:1644   */\n      add\n        /* \"#utility.yul\":1601:1654   */\n      tag_104\n      jump\t// in\n    tag_174:\n        /* \"#utility.yul\":1591:1654   */\n      swap2\n      pop\n        /* \"#utility.yul\":1546:1664   */\n      pop\n        /* \"#utility.yul\":1197:1671   */\n      swap3\n      pop\n      swap3\n      swap1\n      pop\n      jump\t// out\n        /* \"#utility.yul\":1677:1795   */\n    tag_105:\n        /* \"#utility.yul\":1764:1788   */\n      tag_176\n        /* \"#utility.yul\":1782:1787   */\n      dup2\n        /* \"#utility.yul\":1764:1788   */\n      tag_102\n      jump\t// in\n    tag_176:\n        /* \"#utility.yul\":1759:1762   */\n      dup3\n        /* \"#utility.yul\":1752:1789   */\n      mstore\n        /* \"#utility.yul\":1677:1795   */\n      pop\n      pop\n      jump\t// out\n        /* \"#utility.yul\":1801:2023   */\n    tag_13:\n        /* \"#utility.yul\":1894:1898   */\n      0x00\n        /* \"#utility.yul\":1932:1934   */\n      0x20\n        /* \"#utility.yul\":1921:1930   */\n      dup3\n        /* \"#utility.yul\":1917:1935   */\n      add\n        /* \"#utility.yul\":1909:1935   */\n      swap1\n      pop\n        /* \"#utility.yul\":1945:2016   */\n      tag_178\n        /* \"#utility.yul\":2013:2014   */\n      0x00\n        /* \"#utility.yul\":2002:2011   */\n      dup4\n        /* \"#utility.yul\":1998:2015   */\n      add\n        /* \"#utility.yul\":1989:1995   */\n      dup5\n        /* \"#utility.yul\":1945:2016   */\n      tag_105\n      jump\t// in\n    tag_178:\n        /* \"#utility.yul\":1801:2023   */\n      swap3\n      swap2\n      pop\n      pop\n      jump\t// out\n        /* \"#utility.yul\":2029:2358   */\n    tag_17:\n        /* \"#utility.yul\":2088:2094   */\n      0x00\n        /* \"#utility.yul\":2137:2139   */\n      0x20\n        /* \"#utility.yul\":2125:2134   */\n      dup3\n        /* \"#utility.yul\":2116:2123   */\n      dup5\n        /* \"#utility.yul\":2112:2135   */\n      sub\n        /* \"#utility.yul\":2108:2140   */\n      slt\n        /* \"#utility.yul\":2105:2224   */\n      iszero\n      tag_180\n      jumpi\n        /* \"#utility.yul\":2143:2222   */\n      tag_181\n      tag_96\n      jump\t// in\n    tag_181:\n        /* \"#utility.yul\":2105:2224   */\n    tag_180:\n        /* \"#utility.yul\":2263:2264   */\n      0x00\n        /* \"#utility.yul\":2288:2341   */\n      tag_182\n        /* \"#utility.yul\":2333:2340   */\n      dup5\n        /* \"#utility.yul\":2324:2330   */\n      dup3\n        /* \"#utility.yul\":2313:2322   */\n      dup6\n        /* \"#utility.yul\":2309:2331   */\n      add\n        /* \"#utility.yul\":2288:2341   */\n      tag_104\n      jump\t// in\n    tag_182:\n        /* \"#utility.yul\":2278:2341   */\n      swap2\n      pop\n        /* \"#utility.yul\":2234:2351   */\n      pop\n        /* \"#utility.yul\":2029:2358   */\n      swap3\n      swap2\n      pop\n      pop\n      jump\t// out\n        /* \"#utility.yul\":2364:2482   */\n    tag_106:\n        /* \"#utility.yul\":2451:2475   */\n      tag_184\n        /* \"#utility.yul\":2469:2474   */\n      dup2\n        /* \"#utility.yul\":2451:2475   */\n      tag_99\n      jump\t// in\n    tag_184:\n        /* \"#utility.yul\":2446:2449   */\n      dup3\n        /* \"#utility.yul\":2439:2476   */\n      mstore\n        /* \"#utility.yul\":2364:2482   */\n      pop\n      pop\n      jump\t// out\n        /* \"#utility.yul\":2488:2587   */\n    tag_107:\n        /* \"#utility.yul\":2540:2546   */\n      0x00\n        /* \"#utility.yul\":2574:2579   */\n      dup2\n        /* \"#utility.yul\":2568:2580   */\n      mload\n        /* \"#utility.yul\":2558:2580   */\n      swap1\n      pop\n        /* \"#utility.yul\":2488:2587   */\n      swap2\n      swap1\n      pop\n      jump\t// out\n        /* \"#utility.yul\":2593:2762   */\n    tag_108:\n        /* \"#utility.yul\":2677:2688   */\n      0x00\n        /* \"#utility.yul\":2711:2717   */\n      dup3\n        /* \"#utility.yul\":2706:2709   */\n      dup3\n        /* \"#utility.yul\":2699:2718   */\n      mstore\n        /* \"#utility.yul\":2751:2755   */\n      0x20\n        /* \"#utility.yul\":2746:2749   */\n      dup3\n        /* \"#utility.yul\":2742:2756   */\n      add\n        /* \"#utility.yul\":2727:2756   */\n      swap1\n      pop\n        /* \"#utility.yul\":2593:2762   */\n      swap3\n      swap2\n      pop\n      pop\n      jump\t// out\n        /* \"#utility.yul\":2768:2907   */\n    tag_109:\n        /* \"#utility.yul\":2857:2863   */\n      dup3\n        /* \"#utility.yul\":2852:2855   */\n      dup2\n        /* \"#utility.yul\":2847:2850   */\n      dup4\n        /* \"#utility.yul\":2841:2864   */\n      mcopy\n        /* \"#utility.yul\":2898:2899   */\n      0x00\n        /* \"#utility.yul\":2889:2895   */\n      dup4\n        /* \"#utility.yul\":2884:2887   */\n      dup4\n        /* \"#utility.yul\":2880:2896   */\n      add\n        /* \"#utility.yul\":2873:2900   */\n      mstore\n        /* \"#utility.yul\":2768:2907   */\n      pop\n      pop\n      pop\n      jump\t// out\n        /* \"#utility.yul\":2913:3015   */\n    tag_110:\n        /* \"#utility.yul\":2954:2960   */\n      0x00\n        /* \"#utility.yul\":3005:3007   */\n      0x1f\n        /* \"#utility.yul\":3001:3008   */\n      not\n        /* \"#utility.yul\":2996:2998   */\n      0x1f\n        /* \"#utility.yul\":2989:2994   */\n      dup4\n        /* \"#utility.yul\":2985:2999   */\n      add\n        /* \"#utility.yul\":2981:3009   */\n      and\n        /* \"#utility.yul\":2971:3009   */\n      swap1\n      pop\n        /* \"#utility.yul\":2913:3015   */\n      swap2\n      swap1\n      pop\n      jump\t// out\n        /* \"#utility.yul\":3021:3398   */\n    tag_111:\n        /* \"#utility.yul\":3109:3112   */\n      0x00\n        /* \"#utility.yul\":3137:3176   */\n      tag_190\n        /* \"#utility.yul\":3170:3175   */\n      dup3\n        /* \"#utility.yul\":3137:3176   */\n      tag_107\n      jump\t// in\n    tag_190:\n        /* \"#utility.yul\":3192:3263   */\n      tag_191\n        /* \"#utility.yul\":3256:3262   */\n      dup2\n        /* \"#utility.yul\":3251:3254   */\n      dup6\n        /* \"#utility.yul\":3192:3263   */\n      tag_108\n      jump\t// in\n    tag_191:\n        /* \"#utility.yul\":3185:3263   */\n      swap4\n      pop\n        /* \"#utility.yul\":3272:3337   */\n      tag_192\n        /* \"#utility.yul\":3330:3336   */\n      dup2\n        /* \"#utility.yul\":3325:3328   */\n      dup6\n        /* \"#utility.yul\":3318:3322   */\n      0x20\n        /* \"#utility.yul\":3311:3316   */\n      dup7\n        /* \"#utility.yul\":3307:3323   */\n      add\n        /* \"#utility.yul\":3272:3337   */\n      tag_109\n      jump\t// in\n    tag_192:\n        /* \"#utility.yul\":3362:3391   */\n      tag_193\n        /* \"#utility.yul\":3384:3390   */\n      dup2\n        /* \"#utility.yul\":3362:3391   */\n      tag_110\n      jump\t// in\n    tag_193:\n        /* \"#utility.yul\":3357:3360   */\n      dup5\n        /* \"#utility.yul\":3353:3392   */\n      add\n        /* \"#utility.yul\":3346:3392   */\n      swap2\n      pop\n        /* \"#utility.yul\":3113:3398   */\n      pop\n        /* \"#utility.yul\":3021:3398   */\n      swap3\n      swap2\n      pop\n      pop\n      jump\t// out\n        /* \"#utility.yul\":3404:4159   */\n    tag_20:\n        /* \"#utility.yul\":3629:3633   */\n      0x00\n        /* \"#utility.yul\":3667:3670   */\n      0xa0\n        /* \"#utility.yul\":3656:3665   */\n      dup3\n        /* \"#utility.yul\":3652:3671   */\n      add\n        /* \"#utility.yul\":3644:3671   */\n      swap1\n      pop\n        /* \"#utility.yul\":3681:3752   */\n      tag_195\n        /* \"#utility.yul\":3749:3750   */\n      0x00\n        /* \"#utility.yul\":3738:3747   */\n      dup4\n        /* \"#utility.yul\":3734:3751   */\n      add\n        /* \"#utility.yul\":3725:3731   */\n      dup9\n        /* \"#utility.yul\":3681:3752   */\n      tag_106\n      jump\t// in\n    tag_195:\n        /* \"#utility.yul\":3762:3834   */\n      tag_196\n        /* \"#utility.yul\":3830:3832   */\n      0x20\n        /* \"#utility.yul\":3819:3828   */\n      dup4\n        /* \"#utility.yul\":3815:3833   */\n      add\n        /* \"#utility.yul\":3806:3812   */\n      dup8\n        /* \"#utility.yul\":3762:3834   */\n      tag_106\n      jump\t// in\n    tag_196:\n        /* \"#utility.yul\":3844:3916   */\n      tag_197\n        /* \"#utility.yul\":3912:3914   */\n      0x40\n        /* \"#utility.yul\":3901:3910   */\n      dup4\n        /* \"#utility.yul\":3897:3915   */\n      add\n        /* \"#utility.yul\":3888:3894   */\n      dup7\n        /* \"#utility.yul\":3844:3916   */\n      tag_105\n      jump\t// in\n    tag_197:\n        /* \"#utility.yul\":3963:3972   */\n      dup2\n        /* \"#utility.yul\":3957:3961   */\n      dup2\n        /* \"#utility.yul\":3953:3973   */\n      sub\n        /* \"#utility.yul\":3948:3950   */\n      0x60\n        /* \"#utility.yul\":3937:3946   */\n      dup4\n        /* \"#utility.yul\":3933:3951   */\n      add\n        /* \"#utility.yul\":3926:3974   */\n      mstore\n        /* \"#utility.yul\":3991:4069   */\n      tag_198\n        /* \"#utility.yul\":4064:4068   */\n      dup2\n        /* \"#utility.yul\":4055:4061   */\n      dup6\n        /* \"#utility.yul\":3991:4069   */\n      tag_111\n      jump\t// in\n    tag_198:\n        /* \"#utility.yul\":3983:4069   */\n      swap1\n      pop\n        /* \"#utility.yul\":4079:4152   */\n      tag_199\n        /* \"#utility.yul\":4147:4150   */\n      0x80\n        /* \"#utility.yul\":4136:4145   */\n      dup4\n        /* \"#utility.yul\":4132:4151   */\n      add\n        /* \"#utility.yul\":4123:4129   */\n      dup5\n        /* \"#utility.yul\":4079:4152   */\n      tag_105\n      jump\t// in\n    tag_199:\n        /* \"#utility.yul\":3404:4159   */\n      swap7\n      swap6\n      pop\n      pop\n      pop\n      pop\n      pop\n      pop\n      jump\t// out\n        /* \"#utility.yul\":4165:4282   */\n    tag_112:\n        /* \"#utility.yul\":4274:4275   */\n      0x00\n        /* \"#utility.yul\":4271:4272   */\n      dup1\n        /* \"#utility.yul\":4264:4276   */\n      revert\n        /* \"#utility.yul\":4288:4405   */\n    tag_113:\n        /* \"#utility.yul\":4397:4398   */\n      0x00\n        /* \"#utility.yul\":4394:4395   */\n      dup1\n        /* \"#utility.yul\":4387:4399   */\n      revert\n        /* \"#utility.yul\":4411:4591   */\n    tag_114:\n        /* \"#utility.yul\":4459:4536   */\n      0x4e487b7100000000000000000000000000000000000000000000000000000000\n        /* \"#utility.yul\":4456:4457   */\n      0x00\n        /* \"#utility.yul\":4449:4537   */\n      mstore\n        /* \"#utility.yul\":4556:4560   */\n      0x41\n        /* \"#utility.yul\":4553:4554   */\n      0x04\n        /* \"#utility.yul\":4546:4561   */\n      mstore\n        /* \"#utility.yul\":4580:4584   */\n      0x24\n        /* \"#utility.yul\":4577:4578   */\n      0x00\n        /* \"#utility.yul\":4570:4585   */\n      revert\n        /* \"#utility.yul\":4597:4878   */\n    tag_115:\n        /* \"#utility.yul\":4680:4707   */\n      tag_204\n        /* \"#utility.yul\":4702:4706   */\n      dup3\n        /* \"#utility.yul\":4680:4707   */\n      tag_110\n      jump\t// in\n    tag_204:\n        /* \"#utility.yul\":4672:4678   */\n      dup2\n        /* \"#utility.yul\":4668:4708   */\n      add\n        /* \"#utility.yul\":4810:4816   */\n      dup2\n        /* \"#utility.yul\":4798:4808   */\n      dup2\n        /* \"#utility.yul\":4795:4817   */\n      lt\n        /* \"#utility.yul\":4774:4792   */\n      0xffffffffffffffff\n        /* \"#utility.yul\":4762:4772   */\n      dup3\n        /* \"#utility.yul\":4759:4793   */\n      gt\n        /* \"#utility.yul\":4756:4818   */\n      or\n        /* \"#utility.yul\":4753:4841   */\n      iszero\n      tag_205\n      jumpi\n        /* \"#utility.yul\":4821:4839   */\n      tag_206\n      tag_114\n      jump\t// in\n    tag_206:\n        /* \"#utility.yul\":4753:4841   */\n    tag_205:\n        /* \"#utility.yul\":4861:4871   */\n      dup1\n        /* \"#utility.yul\":4857:4859   */\n      0x40\n        /* \"#utility.yul\":4850:4872   */\n      mstore\n        /* \"#utility.yul\":4640:4878   */\n      pop\n        /* \"#utility.yul\":4597:4878   */\n      pop\n      pop\n      jump\t// out\n        /* \"#utility.yul\":4884:5013   */\n    tag_116:\n        /* \"#utility.yul\":4918:4924   */\n      0x00\n        /* \"#utility.yul\":4945:4965   */\n      tag_208\n      tag_95\n      jump\t// in\n    tag_208:\n        /* \"#utility.yul\":4935:4965   */\n      swap1\n      pop\n        /* \"#utility.yul\":4974:5007   */\n      tag_209\n        /* \"#utility.yul\":5002:5006   */\n      dup3\n        /* \"#utility.yul\":4994:5000   */\n      dup3\n        /* \"#utility.yul\":4974:5007   */\n      tag_115\n      jump\t// in\n    tag_209:\n        /* \"#utility.yul\":4884:5013   */\n      swap2\n      swap1\n      pop\n      jump\t// out\n        /* \"#utility.yul\":5019:5327   */\n    tag_117:\n        /* \"#utility.yul\":5081:5085   */\n      0x00\n        /* \"#utility.yul\":5171:5189   */\n      0xffffffffffffffff\n        /* \"#utility.yul\":5163:5169   */\n      dup3\n        /* \"#utility.yul\":5160:5190   */\n      gt\n        /* \"#utility.yul\":5157:5213   */\n      iszero\n      tag_211\n      jumpi\n        /* \"#utility.yul\":5193:5211   */\n      tag_212\n      tag_114\n      jump\t// in\n    tag_212:\n        /* \"#utility.yul\":5157:5213   */\n    tag_211:\n        /* \"#utility.yul\":5231:5260   */\n      tag_213\n        /* \"#utility.yul\":5253:5259   */\n      dup3\n        /* \"#utility.yul\":5231:5260   */\n      tag_110\n      jump\t// in\n    tag_213:\n        /* \"#utility.yul\":5223:5260   */\n      swap1\n      pop\n        /* \"#utility.yul\":5315:5319   */\n      0x20\n        /* \"#utility.yul\":5309:5313   */\n      dup2\n        /* \"#utility.yul\":5305:5320   */\n      add\n        /* \"#utility.yul\":5297:5320   */\n      swap1\n      pop\n        /* \"#utility.yul\":5019:5327   */\n      swap2\n      swap1\n      pop\n      jump\t// out\n        /* \"#utility.yul\":5333:5481   */\n    tag_118:\n        /* \"#utility.yul\":5431:5437   */\n      dup3\n        /* \"#utility.yul\":5426:5429   */\n      dup2\n        /* \"#utility.yul\":5421:5424   */\n      dup4\n        /* \"#utility.yul\":5408:5438   */\n      calldatacopy\n        /* \"#utility.yul\":5472:5473   */\n      0x00\n        /* \"#utility.yul\":5463:5469   */\n      dup4\n        /* \"#utility.yul\":5458:5461   */\n      dup4\n        /* \"#utility.yul\":5454:5470   */\n      add\n        /* \"#utility.yul\":5447:5474   */\n      mstore\n        /* \"#utility.yul\":5333:5481   */\n      pop\n      pop\n      pop\n      jump\t// out\n        /* \"#utility.yul\":5487:5912   */\n    tag_119:\n        /* \"#utility.yul\":5565:5570   */\n      0x00\n        /* \"#utility.yul\":5590:5656   */\n      tag_216\n        /* \"#utility.yul\":5606:5655   */\n      tag_217\n        /* \"#utility.yul\":5648:5654   */\n      dup5\n        /* \"#utility.yul\":5606:5655   */\n      tag_117\n      jump\t// in\n    tag_217:\n        /* \"#utility.yul\":5590:5656   */\n      tag_116\n      jump\t// in\n    tag_216:\n        /* \"#utility.yul\":5581:5656   */\n      swap1\n      pop\n        /* \"#utility.yul\":5679:5685   */\n      dup3\n        /* \"#utility.yul\":5672:5677   */\n      dup2\n        /* \"#utility.yul\":5665:5686   */\n      mstore\n        /* \"#utility.yul\":5717:5721   */\n      0x20\n        /* \"#utility.yul\":5710:5715   */\n      dup2\n        /* \"#utility.yul\":5706:5722   */\n      add\n        /* \"#utility.yul\":5755:5758   */\n      dup5\n        /* \"#utility.yul\":5746:5752   */\n      dup5\n        /* \"#utility.yul\":5741:5744   */\n      dup5\n        /* \"#utility.yul\":5737:5753   */\n      add\n        /* \"#utility.yul\":5734:5759   */\n      gt\n        /* \"#utility.yul\":5731:5843   */\n      iszero\n      tag_218\n      jumpi\n        /* \"#utility.yul\":5762:5841   */\n      tag_219\n      tag_113\n      jump\t// in\n    tag_219:\n        /* \"#utility.yul\":5731:5843   */\n    tag_218:\n        /* \"#utility.yul\":5852:5906   */\n      tag_220\n        /* \"#utility.yul\":5899:5905   */\n      dup5\n        /* \"#utility.yul\":5894:5897   */\n      dup3\n        /* \"#utility.yul\":5889:5892   */\n      dup6\n        /* \"#utility.yul\":5852:5906   */\n      tag_118\n      jump\t// in\n    tag_220:\n        /* \"#utility.yul\":5571:5912   */\n      pop\n        /* \"#utility.yul\":5487:5912   */\n      swap4\n      swap3\n      pop\n      pop\n      pop\n      jump\t// out\n        /* \"#utility.yul\":5932:6272   */\n    tag_120:\n        /* \"#utility.yul\":5988:5993   */\n      0x00\n        /* \"#utility.yul\":6037:6040   */\n      dup3\n        /* \"#utility.yul\":6030:6034   */\n      0x1f\n        /* \"#utility.yul\":6022:6028   */\n      dup4\n        /* \"#utility.yul\":6018:6035   */\n      add\n        /* \"#utility.yul\":6014:6041   */\n      slt\n        /* \"#utility.yul\":6004:6126   */\n      tag_222\n      jumpi\n        /* \"#utility.yul\":6045:6124   */\n      tag_223\n      tag_112\n      jump\t// in\n    tag_223:\n        /* \"#utility.yul\":6004:6126   */\n    tag_222:\n        /* \"#utility.yul\":6162:6168   */\n      dup2\n        /* \"#utility.yul\":6149:6169   */\n      calldataload\n        /* \"#utility.yul\":6187:6266   */\n      tag_224\n        /* \"#utility.yul\":6262:6265   */\n      dup5\n        /* \"#utility.yul\":6254:6260   */\n      dup3\n        /* \"#utility.yul\":6247:6251   */\n      0x20\n        /* \"#utility.yul\":6239:6245   */\n      dup7\n        /* \"#utility.yul\":6235:6252   */\n      add\n        /* \"#utility.yul\":6187:6266   */\n      tag_119\n      jump\t// in\n    tag_224:\n        /* \"#utility.yul\":6178:6266   */\n      swap2\n      pop\n        /* \"#utility.yul\":5994:6272   */\n      pop\n        /* \"#utility.yul\":5932:6272   */\n      swap3\n      swap2\n      pop\n      pop\n      jump\t// out\n        /* \"#utility.yul\":6278:6932   */\n    tag_33:\n        /* \"#utility.yul\":6356:6362   */\n      0x00\n        /* \"#utility.yul\":6364:6370   */\n      dup1\n        /* \"#utility.yul\":6413:6415   */\n      0x40\n        /* \"#utility.yul\":6401:6410   */\n      dup4\n        /* \"#utility.yul\":6392:6399   */\n      dup6\n        /* \"#utility.yul\":6388:6411   */\n      sub\n        /* \"#utility.yul\":6384:6416   */\n      slt\n        /* \"#utility.yul\":6381:6500   */\n      iszero\n      tag_226\n      jumpi\n        /* \"#utility.yul\":6419:6498   */\n      tag_227\n      tag_96\n      jump\t// in\n    tag_227:\n        /* \"#utility.yul\":6381:6500   */\n    tag_226:\n        /* \"#utility.yul\":6539:6540   */\n      0x00\n        /* \"#utility.yul\":6564:6617   */\n      tag_228\n        /* \"#utility.yul\":6609:6616   */\n      dup6\n        /* \"#utility.yul\":6600:6606   */\n      dup3\n        /* \"#utility.yul\":6589:6598   */\n      dup7\n        /* \"#utility.yul\":6585:6607   */\n      add\n        /* \"#utility.yul\":6564:6617   */\n      tag_104\n      jump\t// in\n    tag_228:\n        /* \"#utility.yul\":6554:6617   */\n      swap3\n      pop\n        /* \"#utility.yul\":6510:6627   */\n      pop\n        /* \"#utility.yul\":6694:6696   */\n      0x20\n        /* \"#utility.yul\":6683:6692   */\n      dup4\n        /* \"#utility.yul\":6679:6697   */\n      add\n        /* \"#utility.yul\":6666:6698   */\n      calldataload\n        /* \"#utility.yul\":6725:6743   */\n      0xffffffffffffffff\n        /* \"#utility.yul\":6717:6723   */\n      dup2\n        /* \"#utility.yul\":6714:6744   */\n      gt\n        /* \"#utility.yul\":6711:6828   */\n      iszero\n      tag_229\n      jumpi\n        /* \"#utility.yul\":6747:6826   */\n      tag_230\n      tag_97\n      jump\t// in\n    tag_230:\n        /* \"#utility.yul\":6711:6828   */\n    tag_229:\n        /* \"#utility.yul\":6852:6915   */\n      tag_231\n        /* \"#utility.yul\":6907:6914   */\n      dup6\n        /* \"#utility.yul\":6898:6904   */\n      dup3\n        /* \"#utility.yul\":6887:6896   */\n      dup7\n        /* \"#utility.yul\":6883:6905   */\n      add\n        /* \"#utility.yul\":6852:6915   */\n      tag_120\n      jump\t// in\n    tag_231:\n        /* \"#utility.yul\":6842:6915   */\n      swap2\n      pop\n        /* \"#utility.yul\":6637:6925   */\n      pop\n        /* \"#utility.yul\":6278:6932   */\n      swap3\n      pop\n      swap3\n      swap1\n      pop\n      jump\t// out\n        /* \"#utility.yul\":6938:7166   */\n    tag_121:\n        /* \"#utility.yul\":7078:7112   */\n      0x5472616e73616374696f6e20616d6f756e74206d757374206265206772656174\n        /* \"#utility.yul\":7074:7075   */\n      0x00\n        /* \"#utility.yul\":7066:7072   */\n      dup3\n        /* \"#utility.yul\":7062:7076   */\n      add\n        /* \"#utility.yul\":7055:7113   */\n      mstore\n        /* \"#utility.yul\":7147:7158   */\n      0x6572207468616e20300000000000000000000000000000000000000000000000\n        /* \"#utility.yul\":7142:7144   */\n      0x20\n        /* \"#utility.yul\":7134:7140   */\n      dup3\n        /* \"#utility.yul\":7130:7145   */\n      add\n        /* \"#utility.yul\":7123:7159   */\n      mstore\n        /* \"#utility.yul\":6938:7166   */\n      pop\n      jump\t// out\n        /* \"#utility.yul\":7172:7538   */\n    tag_122:\n        /* \"#utility.yul\":7314:7317   */\n      0x00\n        /* \"#utility.yul\":7335:7402   */\n      tag_234\n        /* \"#utility.yul\":7399:7401   */\n      0x29\n        /* \"#utility.yul\":7394:7397   */\n      dup4\n        /* \"#utility.yul\":7335:7402   */\n      tag_108\n      jump\t// in\n    tag_234:\n        /* \"#utility.yul\":7328:7402   */\n      swap2\n      pop\n        /* \"#utility.yul\":7411:7504   */\n      tag_235\n        /* \"#utility.yul\":7500:7503   */\n      dup3\n        /* \"#utility.yul\":7411:7504   */\n      tag_121\n      jump\t// in\n    tag_235:\n        /* \"#utility.yul\":7529:7531   */\n      0x40\n        /* \"#utility.yul\":7524:7527   */\n      dup3\n        /* \"#utility.yul\":7520:7532   */\n      add\n        /* \"#utility.yul\":7513:7532   */\n      swap1\n      pop\n        /* \"#utility.yul\":7172:7538   */\n      swap2\n      swap1\n      pop\n      jump\t// out\n        /* \"#utility.yul\":7544:7963   */\n    tag_42:\n        /* \"#utility.yul\":7710:7714   */\n      0x00\n        /* \"#utility.yul\":7748:7750   */\n      0x20\n        /* \"#utility.yul\":7737:7746   */\n      dup3\n        /* \"#utility.yul\":7733:7751   */\n      add\n        /* \"#utility.yul\":7725:7751   */\n      swap1\n      pop\n        /* \"#utility.yul\":7797:7806   */\n      dup2\n        /* \"#utility.yul\":7791:7795   */\n      dup2\n        /* \"#utility.yul\":7787:7807   */\n      sub\n        /* \"#utility.yul\":7783:7784   */\n      0x00\n        /* \"#utility.yul\":7772:7781   */\n      dup4\n        /* \"#utility.yul\":7768:7785   */\n      add\n        /* \"#utility.yul\":7761:7808   */\n      mstore\n        /* \"#utility.yul\":7825:7956   */\n      tag_237\n        /* \"#utility.yul\":7951:7955   */\n      dup2\n        /* \"#utility.yul\":7825:7956   */\n      tag_122\n      jump\t// in\n    tag_237:\n        /* \"#utility.yul\":7817:7956   */\n      swap1\n      pop\n        /* \"#utility.yul\":7544:7963   */\n      swap2\n      swap1\n      pop\n      jump\t// out\n        /* \"#utility.yul\":7969:8149   */\n    tag_123:\n        /* \"#utility.yul\":8017:8094   */\n      0x4e487b7100000000000000000000000000000000000000000000000000000000\n        /* \"#utility.yul\":8014:8015   */\n      0x00\n        /* \"#utility.yul\":8007:8095   */\n      mstore\n        /* \"#utility.yul\":8114:8118   */\n      0x11\n        /* \"#utility.yul\":8111:8112   */\n      0x04\n        /* \"#utility.yul\":8104:8119   */\n      mstore\n        /* \"#utility.yul\":8138:8142   */\n      0x24\n        /* \"#utility.yul\":8135:8136   */\n      0x00\n        /* \"#utility.yul\":8128:8143   */\n      revert\n        /* \"#utility.yul\":8155:8388   */\n    tag_44:\n        /* \"#utility.yul\":8194:8197   */\n      0x00\n        /* \"#utility.yul\":8217:8241   */\n      tag_240\n        /* \"#utility.yul\":8235:8240   */\n      dup3\n        /* \"#utility.yul\":8217:8241   */\n      tag_102\n      jump\t// in\n    tag_240:\n        /* \"#utility.yul\":8208:8241   */\n      swap2\n      pop\n        /* \"#utility.yul\":8263:8329   */\n      0xffffffffffffffffffffffffffffffffffffffffffffffffffffffffffffffff\n        /* \"#utility.yul\":8256:8261   */\n      dup3\n        /* \"#utility.yul\":8253:8330   */\n      sub\n        /* \"#utility.yul\":8250:8353   */\n      tag_241\n      jumpi\n        /* \"#utility.yul\":8333:8351   */\n      tag_242\n      tag_123\n      jump\t// in\n    tag_242:\n        /* \"#utility.yul\":8250:8353   */\n    tag_241:\n        /* \"#utility.yul\":8380:8381   */\n      0x01\n        /* \"#utility.yul\":8373:8378   */\n      dup3\n        /* \"#utility.yul\":8369:8382   */\n      add\n        /* \"#utility.yul\":8362:8382   */\n      swap1\n      pop\n        /* \"#utility.yul\":8155:8388   */\n      swap2\n      swap1\n      pop\n      jump\t// out\n        /* \"#utility.yul\":8394:8574   */\n    tag_124:\n        /* \"#utility.yul\":8442:8519   */\n      0x4e487b7100000000000000000000000000000000000000000000000000000000\n        /* \"#utility.yul\":8439:8440   */\n      0x00\n        /* \"#utility.yul\":8432:8520   */\n      mstore\n        /* \"#utility.yul\":8539:8543   */\n      0x22\n        /* \"#utility.yul\":8536:8537   */\n      0x04\n        /* \"#utility.yul\":8529:8544   */\n      mstore\n        /* \"#utility.yul\":8563:8567   */\n      0x24\n        /* \"#utility.yul\":8560:8561   */\n      0x00\n        /* \"#utility.yul\":8553:8568   */\n      revert\n        /* \"#utility.yul\":8580:8900   */\n    tag_55:\n        /* \"#utility.yul\":8624:8630   */\n      0x00\n        /* \"#utility.yul\":8661:8662   */\n      0x02\n        /* \"#utility.yul\":8655:8659   */\n      dup3\n        /* \"#utility.yul\":8651:8663   */\n      div\n        /* \"#utility.yul\":8641:8663   */\n      swap1\n      pop\n        /* \"#utility.yul\":8708:8709   */\n      0x01\n        /* \"#utility.yul\":8702:8706   */\n      dup3\n        /* \"#utility.yul\":8698:8710   */\n      and\n        /* \"#utility.yul\":8729:8747   */\n      dup1\n        /* \"#utility.yul\":8719:8800   */\n      tag_245\n      jumpi\n        /* \"#utility.yul\":8785:8789   */\n      0x7f\n        /* \"#utility.yul\":8777:8783   */\n      dup3\n        /* \"#utility.yul\":8773:8790   */\n      and\n        /* \"#utility.yul\":8763:8790   */\n      swap2\n      pop\n        /* \"#utility.yul\":8719:8800   */\n    tag_245:\n        /* \"#utility.yul\":8847:8849   */\n      0x20\n        /* \"#utility.yul\":8839:8845   */\n      dup3\n        /* \"#utility.yul\":8836:8850   */\n      lt\n        /* \"#utility.yul\":8816:8834   */\n      dup2\n        /* \"#utility.yul\":8813:8851   */\n      sub\n        /* \"#utility.yul\":8810:8894   */\n      tag_246\n      jumpi\n        /* \"#utility.yul\":8866:8884   */\n      tag_247\n      tag_124\n      jump\t// in\n    tag_247:\n        /* \"#utility.yul\":8810:8894   */\n    tag_246:\n        /* \"#utility.yul\":8631:8900   */\n      pop\n        /* \"#utility.yul\":8580:8900   */\n      swap2\n      swap1\n      pop\n      jump\t// out\n        /* \"#utility.yul\":8906:9047   */\n    tag_125:\n        /* \"#utility.yul\":8955:8959   */\n      0x00\n        /* \"#utility.yul\":8978:8981   */\n      dup2\n        /* \"#utility.yul\":8970:8981   */\n      swap1\n      pop\n        /* \"#utility.yul\":9001:9004   */\n      dup2\n        /* \"#utility.yul\":8998:8999   */\n      0x00\n        /* \"#utility.yul\":8991:9005   */\n      mstore\n        /* \"#utility.yul\":9035:9039   */\n      0x20\n        /* \"#utility.yul\":9032:9033   */\n      0x00\n        /* \"#utility.yul\":9022:9040   */\n      keccak256\n        /* \"#utility.yul\":9014:9040   */\n      swap1\n      pop\n        /* \"#utility.yul\":8906:9047   */\n      swap2\n      swap1\n      pop\n      jump\t// out\n        /* \"#utility.yul\":9053:9146   */\n    tag_126:\n        /* \"#utility.yul\":9090:9096   */\n      0x00\n        /* \"#utility.yul\":9137:9139   */\n      0x20\n        /* \"#utility.yul\":9132:9134   */\n      0x1f\n        /* \"#utility.yul\":9125:9130   */\n      dup4\n        /* \"#utility.yul\":9121:9135   */\n      add\n        /* \"#utility.yul\":9117:9140   */\n      div\n        /* \"#utility.yul\":9107:9140   */\n      swap1\n      pop\n        /* \"#utility.yul\":9053:9146   */\n      swap2\n      swap1\n      pop\n      jump\t// out\n        /* \"#utility.yul\":9152:9259   */\n    tag_127:\n        /* \"#utility.yul\":9196:9204   */\n      0x00\n        /* \"#utility.yul\":9246:9251   */\n      dup3\n        /* \"#utility.yul\":9240:9244   */\n      dup3\n        /* \"#utility.yul\":9236:9252   */\n      shl\n        /* \"#utility.yul\":9215:9252   */\n      swap1\n      pop\n        /* \"#utility.yul\":9152:9259   */\n      swap3\n      swap2\n      pop\n      pop\n      jump\t// out\n        /* \"#utility.yul\":9265:9658   */\n    tag_128:\n        /* \"#utility.yul\":9334:9340   */\n      0x00\n        /* \"#utility.yul\":9384:9385   */\n      0x08\n        /* \"#utility.yul\":9372:9382   */\n      dup4\n        /* \"#utility.yul\":9368:9386   */\n      mul\n        /* \"#utility.yul\":9407:9504   */\n      tag_252\n        /* \"#utility.yul\":9437:9503   */\n      0xffffffffffffffffffffffffffffffffffffffffffffffffffffffffffffffff\n        /* \"#utility.yul\":9426:9435   */\n      dup3\n        /* \"#utility.yul\":9407:9504   */\n      tag_127\n      jump\t// in\n    tag_252:\n        /* \"#utility.yul\":9525:9564   */\n      tag_253\n        /* \"#utility.yul\":9555:9563   */\n      dup7\n        /* \"#utility.yul\":9544:9553   */\n      dup4\n        /* \"#utility.yul\":9525:9564   */\n      tag_127\n      jump\t// in\n    tag_253:\n        /* \"#utility.yul\":9513:9564   */\n      swap6\n      pop\n        /* \"#utility.yul\":9597:9601   */\n      dup1\n        /* \"#utility.yul\":9593:9602   */\n      not\n        /* \"#utility.yul\":9586:9591   */\n      dup5\n        /* \"#utility.yul\":9582:9603   */\n      and\n        /* \"#utility.yul\":9573:9603   */\n      swap4\n      pop\n        /* \"#utility.yul\":9646:9650   */\n      dup1\n        /* \"#utility.yul\":9636:9644   */\n      dup7\n        /* \"#utility.yul\":9632:9651   */\n      and\n        /* \"#utility.yul\":9625:9630   */\n      dup5\n        /* \"#utility.yul\":9622:9652   */\n      or\n        /* \"#utility.yul\":9612:9652   */\n      swap3\n      pop\n        /* \"#utility.yul\":9341:9658   */\n      pop\n      pop\n        /* \"#utility.yul\":9265:9658   */\n      swap4\n      swap3\n      pop\n      pop\n      pop\n      jump\t// out\n        /* \"#utility.yul\":9664:9724   */\n    tag_129:\n        /* \"#utility.yul\":9692:9695   */\n      0x00\n        /* \"#utility.yul\":9713:9718   */\n      dup2\n        /* \"#utility.yul\":9706:9718   */\n      swap1\n      pop\n        /* \"#utility.yul\":9664:9724   */\n      swap2\n      swap1\n      pop\n      jump\t// out\n        /* \"#utility.yul\":9730:9872   */\n    tag_130:\n        /* \"#utility.yul\":9780:9789   */\n      0x00\n        /* \"#utility.yul\":9813:9866   */\n      tag_256\n        /* \"#utility.yul\":9831:9865   */\n      tag_257\n        /* \"#utility.yul\":9840:9864   */\n      tag_258\n        /* \"#utility.yul\":9858:9863   */\n      dup5\n        /* \"#utility.yul\":9840:9864   */\n      tag_102\n      jump\t// in\n    tag_258:\n        /* \"#utility.yul\":9831:9865   */\n      tag_129\n      jump\t// in\n    tag_257:\n        /* \"#utility.yul\":9813:9866   */\n      tag_102\n      jump\t// in\n    tag_256:\n        /* \"#utility.yul\":9800:9866   */\n      swap1\n      pop\n        /* \"#utility.yul\":9730:9872   */\n      swap2\n      swap1\n      pop\n      jump\t// out\n        /* \"#utility.yul\":9878:9953   */\n    tag_131:\n        /* \"#utility.yul\":9921:9924   */\n      0x00\n        /* \"#utility.yul\":9942:9947   */\n      dup2\n        /* \"#utility.yul\":9935:9947   */\n      swap1\n      pop\n        /* \"#utility.yul\":9878:9953   */\n      swap2\n      swap1\n      pop\n      jump\t// out\n        /* \"#utility.yul\":9959:10228   */\n    tag_132:\n        /* \"#utility.yul\":10069:10108   */\n      tag_261\n        /* \"#utility.yul\":10100:10107   */\n      dup4\n        /* \"#utility.yul\":10069:10108   */\n      tag_130\n      jump\t// in\n    tag_261:\n        /* \"#utility.yul\":10130:10221   */\n      tag_262\n        /* \"#utility.yul\":10179:10220   */\n      tag_263\n        /* \"#utility.yul\":10203:10219   */\n      dup3\n        /* \"#utility.yul\":10179:10220   */\n      tag_131\n      jump\t// in\n    tag_263:\n        /* \"#utility.yul\":10171:10177   */\n      dup5\n        /* \"#utility.yul\":10164:10168   */\n      dup5\n        /* \"#utility.yul\":10158:10169   */\n      sload\n        /* \"#utility.yul\":10130:10221   */\n      tag_128\n      jump\t// in\n    tag_262:\n        /* \"#utility.yul\":10124:10128   */\n      dup3\n        /* \"#utility.yul\":10117:10222   */\n      sstore\n        /* \"#utility.yul\":10035:10228   */\n      pop\n        /* \"#utility.yul\":9959:10228   */\n      pop\n      pop\n      pop\n      jump\t// out\n        /* \"#utility.yul\":10234:10307   */\n    tag_133:\n        /* \"#utility.yul\":10279:10282   */\n      0x00\n        /* \"#utility.yul\":10234:10307   */\n      swap1\n      jump\t// out\n        /* \"#utility.yul\":10313:10502   */\n    tag_134:\n        /* \"#utility.yul\":10390:10422   */\n      tag_266\n      tag_133\n      jump\t// in\n    tag_266:\n        /* \"#utility.yul\":10431:10496   */\n      tag_267\n        /* \"#utility.yul\":10489:10495   */\n      dup2\n        /* \"#utility.yul\":10481:10487   */\n      dup5\n        /* \"#utility.yul\":10475:10479   */\n      dup5\n        /* \"#utility.yul\":10431:10496   */\n      tag_132\n      jump\t// in\n    tag_267:\n        /* \"#utility.yul\":10366:10502   */\n      pop\n        /* \"#utility.yul\":10313:10502   */\n      pop\n      pop\n      jump\t// out\n        /* \"#utility.yul\":10508:10694   */\n    tag_135:\n        /* \"#utility.yul\":10568:10688   */\n    tag_269:\n        /* \"#utility.yul\":10585:10588   */\n      dup2\n        /* \"#utility.yul\":10578:10583   */\n      dup2\n        /* \"#utility.yul\":10575:10589   */\n      lt\n        /* \"#utility.yul\":10568:10688   */\n      iszero\n      tag_271\n      jumpi\n        /* \"#utility.yul\":10639:10678   */\n      tag_272\n        /* \"#utility.yul\":10676:10677   */\n      0x00\n        /* \"#utility.yul\":10669:10674   */\n      dup3\n        /* \"#utility.yul\":10639:10678   */\n      tag_134\n      jump\t// in\n    tag_272:\n        /* \"#utility.yul\":10612:10613   */\n      0x01\n        /* \"#utility.yul\":10605:10610   */\n      dup2\n        /* \"#utility.yul\":10601:10614   */\n      add\n        /* \"#utility.yul\":10592:10614   */\n      swap1\n      pop\n        /* \"#utility.yul\":10568:10688   */\n      jump(tag_269)\n    tag_271:\n        /* \"#utility.yul\":10508:10694   */\n      pop\n      pop\n      jump\t// out\n        /* \"#utility.yul\":10700:11243   */\n    tag_136:\n        /* \"#utility.yul\":10801:10803   */\n      0x1f\n        /* \"#utility.yul\":10796:10799   */\n      dup3\n        /* \"#utility.yul\":10793:10804   */\n      gt\n        /* \"#utility.yul\":10790:11236   */\n      iszero\n      tag_274\n      jumpi\n        /* \"#utility.yul\":10835:10873   */\n      tag_275\n        /* \"#utility.yul\":10867:10872   */\n      dup2\n        /* \"#utility.yul\":10835:10873   */\n      tag_125\n      jump\t// in\n    tag_275:\n        /* \"#utility.yul\":10919:10948   */\n      tag_276\n        /* \"#utility.yul\":10937:10947   */\n      dup5\n        /* \"#utility.yul\":10919:10948   */\n      tag_126\n      jump\t// in\n    tag_276:\n        /* \"#utility.yul\":10909:10917   */\n      dup2\n        /* \"#utility.yul\":10905:10949   */\n      add\n        /* \"#utility.yul\":11102:11104   */\n      0x20\n        /* \"#utility.yul\":11090:11100   */\n      dup6\n        /* \"#utility.yul\":11087:11105   */\n      lt\n        /* \"#utility.yul\":11084:11133   */\n      iszero\n      tag_277\n      jumpi\n        /* \"#utility.yul\":11123:11131   */\n      dup2\n        /* \"#utility.yul\":11108:11131   */\n      swap1\n      pop\n        /* \"#utility.yul\":11084:11133   */\n    tag_277:\n        /* \"#utility.yul\":11146:11226   */\n      tag_278\n        /* \"#utility.yul\":11202:11224   */\n      tag_279\n        /* \"#utility.yul\":11220:11223   */\n      dup6\n        /* \"#utility.yul\":11202:11224   */\n      tag_126\n      jump\t// in\n    tag_279:\n        /* \"#utility.yul\":11192:11200   */\n      dup4\n        /* \"#utility.yul\":11188:11225   */\n      add\n        /* \"#utility.yul\":11175:11186   */\n      dup3\n        /* \"#utility.yul\":11146:11226   */\n      tag_135\n      jump\t// in\n    tag_278:\n        /* \"#utility.yul\":10805:11236   */\n      pop\n      pop\n        /* \"#utility.yul\":10790:11236   */\n    tag_274:\n        /* \"#utility.yul\":10700:11243   */\n      pop\n      pop\n      pop\n      jump\t// out\n        /* \"#utility.yul\":11249:11366   */\n    tag_137:\n        /* \"#utility.yul\":11303:11311   */\n      0x00\n        /* \"#utility.yul\":11353:11358   */\n      dup3\n        /* \"#utility.yul\":11347:11351   */\n      dup3\n        /* \"#utility.yul\":11343:11359   */\n      shr\n        /* \"#utility.yul\":11322:11359   */\n      swap1\n      pop\n        /* \"#utility.yul\":11249:11366   */\n      swap3\n      swap2\n      pop\n      pop\n      jump\t// out\n        /* \"#utility.yul\":11372:11541   */\n    tag_138:\n        /* \"#utility.yul\":11416:11422   */\n      0x00\n        /* \"#utility.yul\":11449:11500   */\n      tag_282\n        /* \"#utility.yul\":11497:11498   */\n      0x00\n        /* \"#utility.yul\":11493:11499   */\n      not\n        /* \"#utility.yul\":11485:11490   */\n      dup5\n        /* \"#utility.yul\":11482:11483   */\n      0x08\n        /* \"#utility.yul\":11478:11491   */\n      mul\n        /* \"#utility.yul\":11449:11500   */\n      tag_137\n      jump\t// in\n    tag_282:\n        /* \"#utility.yul\":11445:11501   */\n      not\n        /* \"#utility.yul\":11530:11534   */\n      dup1\n        /* \"#utility.yul\":11524:11528   */\n      dup4\n        /* \"#utility.yul\":11520:11535   */\n      and\n        /* \"#utility.yul\":11510:11535   */\n      swap2\n      pop\n        /* \"#utility.yul\":11423:11541   */\n      pop\n        /* \"#utility.yul\":11372:11541   */\n      swap3\n      swap2\n      pop\n      pop\n      jump\t// out\n        /* \"#utility.yul\":11546:11841   */\n    tag_139:\n        /* \"#utility.yul\":11622:11626   */\n      0x00\n        /* \"#utility.yul\":11768:11797   */\n      tag_284\n        /* \"#utility.yul\":11793:11796   */\n      dup4\n        /* \"#utility.yul\":11787:11791   */\n      dup4\n        /* \"#utility.yul\":11768:11797   */\n      tag_138\n      jump\t// in\n    tag_284:\n        /* \"#utility.yul\":11760:11797   */\n      swap2\n      pop\n        /* \"#utility.yul\":11830:11833   */\n      dup3\n        /* \"#utility.yul\":11827:11828   */\n      0x02\n        /* \"#utility.yul\":11823:11834   */\n      mul\n        /* \"#utility.yul\":11817:11821   */\n      dup3\n        /* \"#utility.yul\":11814:11835   */\n      or\n        /* \"#utility.yul\":11806:11835   */\n      swap1\n      pop\n        /* \"#utility.yul\":11546:11841   */\n      swap3\n      swap2\n      pop\n      pop\n      jump\t// out\n        /* \"#utility.yul\":11846:13241   */\n    tag_46:\n        /* \"#utility.yul\":11963:12000   */\n      tag_286\n        /* \"#utility.yul\":11996:11999   */\n      dup3\n        /* \"#utility.yul\":11963:12000   */\n      tag_107\n      jump\t// in\n    tag_286:\n        /* \"#utility.yul\":12065:12083   */\n      0xffffffffffffffff\n        /* \"#utility.yul\":12057:12063   */\n      dup2\n        /* \"#utility.yul\":12054:12084   */\n      gt\n        /* \"#utility.yul\":12051:12107   */\n      iszero\n      tag_287\n      jumpi\n        /* \"#utility.yul\":12087:12105   */\n      tag_288\n      tag_114\n      jump\t// in\n    tag_288:\n        /* \"#utility.yul\":12051:12107   */\n    tag_287:\n        /* \"#utility.yul\":12131:12169   */\n      tag_289\n        /* \"#utility.yul\":12163:12167   */\n      dup3\n        /* \"#utility.yul\":12157:12168   */\n      sload\n        /* \"#utility.yul\":12131:12169   */\n      tag_55\n      jump\t// in\n    tag_289:\n        /* \"#utility.yul\":12216:12283   */\n      tag_290\n        /* \"#utility.yul\":12276:12282   */\n      dup3\n        /* \"#utility.yul\":12268:12274   */\n      dup3\n        /* \"#utility.yul\":12262:12266   */\n      dup6\n        /* \"#utility.yul\":12216:12283   */\n      tag_136\n      jump\t// in\n    tag_290:\n        /* \"#utility.yul\":12310:12311   */\n      0x00\n        /* \"#utility.yul\":12334:12338   */\n      0x20\n        /* \"#utility.yul\":12321:12338   */\n      swap1\n      pop\n        /* \"#utility.yul\":12366:12368   */\n      0x1f\n        /* \"#utility.yul\":12358:12364   */\n      dup4\n        /* \"#utility.yul\":12355:12369   */\n      gt\n        /* \"#utility.yul\":12383:12384   */\n      0x01\n        /* \"#utility.yul\":12378:12996   */\n      dup2\n      eq\n      tag_292\n      jumpi\n        /* \"#utility.yul\":13040:13041   */\n      0x00\n        /* \"#utility.yul\":13057:13063   */\n      dup5\n        /* \"#utility.yul\":13054:13131   */\n      iszero\n      tag_293\n      jumpi\n        /* \"#utility.yul\":13106:13115   */\n      dup3\n        /* \"#utility.yul\":13101:13104   */\n      dup8\n        /* \"#utility.yul\":13097:13116   */\n      add\n        /* \"#utility.yul\":13091:13117   */\n      mload\n        /* \"#utility.yul\":13082:13117   */\n      swap1\n      pop\n        /* \"#utility.yul\":13054:13131   */\n    tag_293:\n        /* \"#utility.yul\":13157:13224   */\n      tag_294\n        /* \"#utility.yul\":13217:13223   */\n      dup6\n        /* \"#utility.yul\":13210:13215   */\n      dup3\n        /* \"#utility.yul\":13157:13224   */\n      tag_139\n      jump\t// in\n    tag_294:\n        /* \"#utility.yul\":13151:13155   */\n      dup7\n        /* \"#utility.yul\":13144:13225   */\n      sstore\n        /* \"#utility.yul\":13013:13235   */\n      pop\n        /* \"#utility.yul\":12348:13235   */\n      jump(tag_291)\n        /* \"#utility.yul\":12378:12996   */\n    tag_292:\n        /* \"#utility.yul\":12430:12434   */\n      0x1f\n        /* \"#utility.yul\":12426:12435   */\n      not\n        /* \"#utility.yul\":12418:12424   */\n      dup5\n        /* \"#utility.yul\":12414:12436   */\n      and\n        /* \"#utility.yul\":12464:12501   */\n      tag_295\n        /* \"#utility.yul\":12496:12500   */\n      dup7\n        /* \"#utility.yul\":12464:12501   */\n      tag_125\n      jump\t// in\n    tag_295:\n        /* \"#utility.yul\":12523:12524   */\n      0x00\n        /* \"#utility.yul\":12537:12745   */\n    tag_296:\n        /* \"#utility.yul\":12551:12558   */\n      dup3\n        /* \"#utility.yul\":12548:12549   */\n      dup2\n        /* \"#utility.yul\":12545:12559   */\n      lt\n        /* \"#utility.yul\":12537:12745   */\n      iszero\n      tag_298\n      jumpi\n        /* \"#utility.yul\":12630:12639   */\n      dup5\n        /* \"#utility.yul\":12625:12628   */\n      dup10\n        /* \"#utility.yul\":12621:12640   */\n      add\n        /* \"#utility.yul\":12615:12641   */\n      mload\n        /* \"#utility.yul\":12607:12613   */\n      dup3\n        /* \"#utility.yul\":12600:12642   */\n      sstore\n        /* \"#utility.yul\":12681:12682   */\n      0x01\n        /* \"#utility.yul\":12673:12679   */\n      dup3\n        /* \"#utility.yul\":12669:12683   */\n      add\n        /* \"#utility.yul\":12659:12683   */\n      swap2\n      pop\n        /* \"#utility.yul\":12728:12730   */\n      0x20\n        /* \"#utility.yul\":12717:12726   */\n      dup6\n        /* \"#utility.yul\":12713:12731   */\n      add\n        /* \"#utility.yul\":12700:12731   */\n      swap5\n      pop\n        /* \"#utility.yul\":12574:12578   */\n      0x20\n        /* \"#utility.yul\":12571:12572   */\n      dup2\n        /* \"#utility.yul\":12567:12579   */\n      add\n        /* \"#utility.yul\":12562:12579   */\n      swap1\n      pop\n        /* \"#utility.yul\":12537:12745   */\n      jump(tag_296)\n    tag_298:\n        /* \"#utility.yul\":12773:12779   */\n      dup7\n        /* \"#utility.yul\":12764:12771   */\n      dup4\n        /* \"#utility.yul\":12761:12780   */\n      lt\n        /* \"#utility.yul\":12758:12937   */\n      iszero\n      tag_299\n      jumpi\n        /* \"#utility.yul\":12831:12840   */\n      dup5\n        /* \"#utility.yul\":12826:12829   */\n      dup10\n        /* \"#utility.yul\":12822:12841   */\n      add\n        /* \"#utility.yul\":12816:12842   */\n      mload\n        /* \"#utility.yul\":12874:12922   */\n      tag_300\n        /* \"#utility.yul\":12916:12920   */\n      0x1f\n        /* \"#utility.yul\":12908:12914   */\n      dup10\n        /* \"#utility.yul\":12904:12921   */\n      and\n        /* \"#utility.yul\":12893:12902   */\n      dup3\n        /* \"#utility.yul\":12874:12922   */\n      tag_138\n      jump\t// in\n    tag_300:\n        /* \"#utility.yul\":12866:12872   */\n      dup4\n        /* \"#utility.yul\":12859:12923   */\n      sstore\n        /* \"#utility.yul\":12781:12937   */\n      pop\n        /* \"#utility.yul\":12758:12937   */\n    tag_299:\n        /* \"#utility.yul\":12983:12984   */\n      0x01\n        /* \"#utility.yul\":12979:12980   */\n      0x02\n        /* \"#utility.yul\":12971:12977   */\n      dup9\n        /* \"#utility.yul\":12967:12981   */\n      mul\n        /* \"#utility.yul\":12963:12985   */\n      add\n        /* \"#utility.yul\":12957:12961   */\n      dup9\n        /* \"#utility.yul\":12950:12986   */\n      sstore\n        /* \"#utility.yul\":12385:12996   */\n      pop\n      pop\n      pop\n        /* \"#utility.yul\":12348:13235   */\n    tag_291:\n      pop\n        /* \"#utility.yul\":11938:13241   */\n      pop\n      pop\n      pop\n        /* \"#utility.yul\":11846:13241   */\n      pop\n      pop\n      jump\t// out\n        /* \"#utility.yul\":13247:13689   */\n    tag_48:\n        /* \"#utility.yul\":13396:13400   */\n      0x00\n        /* \"#utility.yul\":13434:13436   */\n      0x60\n        /* \"#utility.yul\":13423:13432   */\n      dup3\n        /* \"#utility.yul\":13419:13437   */\n      add\n        /* \"#utility.yul\":13411:13437   */\n      swap1\n      pop\n        /* \"#utility.yul\":13447:13518   */\n      tag_302\n        /* \"#utility.yul\":13515:13516   */\n      0x00\n        /* \"#utility.yul\":13504:13513   */\n      dup4\n        /* \"#utility.yul\":13500:13517   */\n      add\n        /* \"#utility.yul\":13491:13497   */\n      dup7\n        /* \"#utility.yul\":13447:13518   */\n      tag_106\n      jump\t// in\n    tag_302:\n        /* \"#utility.yul\":13528:13600   */\n      tag_303\n        /* \"#utility.yul\":13596:13598   */\n      0x20\n        /* \"#utility.yul\":13585:13594   */\n      dup4\n        /* \"#utility.yul\":13581:13599   */\n      add\n        /* \"#utility.yul\":13572:13578   */\n      dup6\n        /* \"#utility.yul\":13528:13600   */\n      tag_106\n      jump\t// in\n    tag_303:\n        /* \"#utility.yul\":13610:13682   */\n      tag_304\n        /* \"#utility.yul\":13678:13680   */\n      0x40\n        /* \"#utility.yul\":13667:13676   */\n      dup4\n        /* \"#utility.yul\":13663:13681   */\n      add\n        /* \"#utility.yul\":13654:13660   */\n      dup5\n        /* \"#utility.yul\":13610:13682   */\n      tag_105\n      jump\t// in\n    tag_304:\n        /* \"#utility.yul\":13247:13689   */\n      swap5\n      swap4\n      pop\n      pop\n      pop\n      pop\n      jump\t// out\n        /* \"#utility.yul\":13695:13867   */\n    tag_140:\n        /* \"#utility.yul\":13835:13859   */\n      0x496e76616c6964207472616e73616374696f6e20494400000000000000000000\n        /* \"#utility.yul\":13831:13832   */\n      0x00\n        /* \"#utility.yul\":13823:13829   */\n      dup3\n        /* \"#utility.yul\":13819:13833   */\n      add\n        /* \"#utility.yul\":13812:13860   */\n      mstore\n        /* \"#utility.yul\":13695:13867   */\n      pop\n      jump\t// out\n        /* \"#utility.yul\":13873:14239   */\n    tag_141:\n        /* \"#utility.yul\":14015:14018   */\n      0x00\n        /* \"#utility.yul\":14036:14103   */\n      tag_307\n        /* \"#utility.yul\":14100:14102   */\n      0x16\n        /* \"#utility.yul\":14095:14098   */\n      dup4\n        /* \"#utility.yul\":14036:14103   */\n      tag_108\n      jump\t// in\n    tag_307:\n        /* \"#utility.yul\":14029:14103   */\n      swap2\n      pop\n        /* \"#utility.yul\":14112:14205   */\n      tag_308\n        /* \"#utility.yul\":14201:14204   */\n      dup3\n        /* \"#utility.yul\":14112:14205   */\n      tag_140\n      jump\t// in\n    tag_308:\n        /* \"#utility.yul\":14230:14232   */\n      0x20\n        /* \"#utility.yul\":14225:14228   */\n      dup3\n        /* \"#utility.yul\":14221:14233   */\n      add\n        /* \"#utility.yul\":14214:14233   */\n      swap1\n      pop\n        /* \"#utility.yul\":13873:14239   */\n      swap2\n      swap1\n      pop\n      jump\t// out\n        /* \"#utility.yul\":14245:14664   */\n    tag_53:\n        /* \"#utility.yul\":14411:14415   */\n      0x00\n        /* \"#utility.yul\":14449:14451   */\n      0x20\n        /* \"#utility.yul\":14438:14447   */\n      dup3\n        /* \"#utility.yul\":14434:14452   */\n      add\n        /* \"#utility.yul\":14426:14452   */\n      swap1\n      pop\n        /* \"#utility.yul\":14498:14507   */\n      dup2\n        /* \"#utility.yul\":14492:14496   */\n      dup2\n        /* \"#utility.yul\":14488:14508   */\n      sub\n        /* \"#utility.yul\":14484:14485   */\n      0x00\n        /* \"#utility.yul\":14473:14482   */\n      dup4\n        /* \"#utility.yul\":14469:14486   */\n      add\n        /* \"#utility.yul\":14462:14509   */\n      mstore\n        /* \"#utility.yul\":14526:14657   */\n      tag_310\n        /* \"#utility.yul\":14652:14656   */\n      dup2\n        /* \"#utility.yul\":14526:14657   */\n      tag_141\n      jump\t// in\n    tag_310:\n        /* \"#utility.yul\":14518:14657   */\n      swap1\n      pop\n        /* \"#utility.yul\":14245:14664   */\n      swap2\n      swap1\n      pop\n      jump\t// out\n        /* \"#utility.yul\":14670:14848   */\n    tag_142:\n        /* \"#utility.yul\":14810:14840   */\n      0x4f6e6c792062757965722063616e2072656c656173652066756e647300000000\n        /* \"#utility.yul\":14806:14807   */\n      0x00\n        /* \"#utility.yul\":14798:14804   */\n      dup3\n        /* \"#utility.yul\":14794:14808   */\n      add\n        /* \"#utility.yul\":14787:14841   */\n      mstore\n        /* \"#utility.yul\":14670:14848   */\n      pop\n      jump\t// out\n        /* \"#utility.yul\":14854:15220   */\n    tag_143:\n        /* \"#utility.yul\":14996:14999   */\n      0x00\n        /* \"#utility.yul\":15017:15084   */\n      tag_313\n        /* \"#utility.yul\":15081:15083   */\n      0x1c\n        /* \"#utility.yul\":15076:15079   */\n      dup4\n        /* \"#utility.yul\":15017:15084   */\n      tag_108\n      jump\t// in\n    tag_313:\n        /* \"#utility.yul\":15010:15084   */\n      swap2\n      pop\n        /* \"#utility.yul\":15093:15186   */\n      tag_314\n        /* \"#utility.yul\":15182:15185   */\n      dup3\n        /* \"#utility.yul\":15093:15186   */\n      tag_142\n      jump\t// in\n    tag_314:\n        /* \"#utility.yul\":15211:15213   */\n      0x20\n        /* \"#utility.yul\":15206:15209   */\n      dup3\n        /* \"#utility.yul\":15202:15214   */\n      add\n        /* \"#utility.yul\":15195:15214   */\n      swap1\n      pop\n        /* \"#utility.yul\":14854:15220   */\n      swap2\n      swap1\n      pop\n      jump\t// out\n        /* \"#utility.yul\":15226:15645   */\n    tag_66:\n        /* \"#utility.yul\":15392:15396   */\n      0x00\n        /* \"#utility.yul\":15430:15432   */\n      0x20\n        /* \"#utility.yul\":15419:15428   */\n      dup3\n        /* \"#utility.yul\":15415:15433   */\n      add\n        /* \"#utility.yul\":15407:15433   */\n      swap1\n      pop\n        /* \"#utility.yul\":15479:15488   */\n      dup2\n        /* \"#utility.yul\":15473:15477   */\n      dup2\n        /* \"#utility.yul\":15469:15489   */\n      sub\n        /* \"#utility.yul\":15465:15466   */\n      0x00\n        /* \"#utility.yul\":15454:15463   */\n      dup4\n        /* \"#utility.yul\":15450:15467   */\n      add\n        /* \"#utility.yul\":15443:15490   */\n      mstore\n        /* \"#utility.yul\":15507:15638   */\n      tag_316\n        /* \"#utility.yul\":15633:15637   */\n      dup2\n        /* \"#utility.yul\":15507:15638   */\n      tag_143\n      jump\t// in\n    tag_316:\n        /* \"#utility.yul\":15499:15638   */\n      swap1\n      pop\n        /* \"#utility.yul\":15226:15645   */\n      swap2\n      swap1\n      pop\n      jump\t// out\n        /* \"#utility.yul\":15651:15799   */\n    tag_144:\n        /* \"#utility.yul\":15753:15764   */\n      0x00\n        /* \"#utility.yul\":15790:15793   */\n      dup2\n        /* \"#utility.yul\":15775:15793   */\n      swap1\n      pop\n        /* \"#utility.yul\":15651:15799   */\n      swap3\n      swap2\n      pop\n      pop\n      jump\t// out\n        /* \"#utility.yul\":15805:15962   */\n    tag_145:\n        /* \"#utility.yul\":15945:15954   */\n      0x50656e64696e6700000000000000000000000000000000000000000000000000\n        /* \"#utility.yul\":15941:15942   */\n      0x00\n        /* \"#utility.yul\":15933:15939   */\n      dup3\n        /* \"#utility.yul\":15929:15943   */\n      add\n        /* \"#utility.yul\":15922:15955   */\n      mstore\n        /* \"#utility.yul\":15805:15962   */\n      pop\n      jump\t// out\n        /* \"#utility.yul\":15968:16368   */\n    tag_146:\n        /* \"#utility.yul\":16128:16131   */\n      0x00\n        /* \"#utility.yul\":16149:16233   */\n      tag_320\n        /* \"#utility.yul\":16231:16232   */\n      0x07\n        /* \"#utility.yul\":16226:16229   */\n      dup4\n        /* \"#utility.yul\":16149:16233   */\n      tag_144\n      jump\t// in\n    tag_320:\n        /* \"#utility.yul\":16142:16233   */\n      swap2\n      pop\n        /* \"#utility.yul\":16242:16335   */\n      tag_321\n        /* \"#utility.yul\":16331:16334   */\n      dup3\n        /* \"#utility.yul\":16242:16335   */\n      tag_145\n      jump\t// in\n    tag_321:\n        /* \"#utility.yul\":16360:16361   */\n      0x07\n        /* \"#utility.yul\":16355:16358   */\n      dup3\n        /* \"#utility.yul\":16351:16362   */\n      add\n        /* \"#utility.yul\":16344:16362   */\n      swap1\n      pop\n        /* \"#utility.yul\":15968:16368   */\n      swap2\n      swap1\n      pop\n      jump\t// out\n        /* \"#utility.yul\":16374:16755   */\n    tag_68:\n        /* \"#utility.yul\":16559:16562   */\n      0x00\n        /* \"#utility.yul\":16581:16729   */\n      tag_323\n        /* \"#utility.yul\":16725:16728   */\n      dup3\n        /* \"#utility.yul\":16581:16729   */\n      tag_146\n      jump\t// in\n    tag_323:\n        /* \"#utility.yul\":16574:16729   */\n      swap2\n      pop\n        /* \"#utility.yul\":16746:16749   */\n      dup2\n        /* \"#utility.yul\":16739:16749   */\n      swap1\n      pop\n        /* \"#utility.yul\":16374:16755   */\n      swap2\n      swap1\n      pop\n      jump\t// out\n        /* \"#utility.yul\":16785:17659   */\n    tag_147:\n        /* \"#utility.yul\":16888:16891   */\n      0x00\n        /* \"#utility.yul\":16925:16930   */\n      dup2\n        /* \"#utility.yul\":16919:16931   */\n      sload\n        /* \"#utility.yul\":16954:16990   */\n      tag_325\n        /* \"#utility.yul\":16980:16989   */\n      dup2\n        /* \"#utility.yul\":16954:16990   */\n      tag_55\n      jump\t// in\n    tag_325:\n        /* \"#utility.yul\":17006:17095   */\n      tag_326\n        /* \"#utility.yul\":17088:17094   */\n      dup2\n        /* \"#utility.yul\":17083:17086   */\n      dup7\n        /* \"#utility.yul\":17006:17095   */\n      tag_144\n      jump\t// in\n    tag_326:\n        /* \"#utility.yul\":16999:17095   */\n      swap5\n      pop\n        /* \"#utility.yul\":17126:17127   */\n      0x01\n        /* \"#utility.yul\":17115:17124   */\n      dup3\n        /* \"#utility.yul\":17111:17128   */\n      and\n        /* \"#utility.yul\":17142:17143   */\n      0x00\n        /* \"#utility.yul\":17137:17303   */\n      dup2\n      eq\n      tag_328\n      jumpi\n        /* \"#utility.yul\":17317:17318   */\n      0x01\n        /* \"#utility.yul\":17312:17653   */\n      dup2\n      eq\n      tag_329\n      jumpi\n        /* \"#utility.yul\":17104:17653   */\n      jump(tag_327)\n        /* \"#utility.yul\":17137:17303   */\n    tag_328:\n        /* \"#utility.yul\":17221:17225   */\n      0xff\n        /* \"#utility.yul\":17217:17226   */\n      not\n        /* \"#utility.yul\":17206:17215   */\n      dup4\n        /* \"#utility.yul\":17202:17227   */\n      and\n        /* \"#utility.yul\":17197:17200   */\n      dup7\n        /* \"#utility.yul\":17190:17228   */\n      mstore\n        /* \"#utility.yul\":17283:17289   */\n      dup2\n        /* \"#utility.yul\":17276:17290   */\n      iszero\n        /* \"#utility.yul\":17269:17291   */\n      iszero\n        /* \"#utility.yul\":17261:17267   */\n      dup3\n        /* \"#utility.yul\":17257:17292   */\n      mul\n        /* \"#utility.yul\":17252:17255   */\n      dup7\n        /* \"#utility.yul\":17248:17293   */\n      add\n        /* \"#utility.yul\":17241:17293   */\n      swap4\n      pop\n        /* \"#utility.yul\":17137:17303   */\n      jump(tag_327)\n        /* \"#utility.yul\":17312:17653   */\n    tag_329:\n        /* \"#utility.yul\":17379:17417   */\n      tag_330\n        /* \"#utility.yul\":17411:17416   */\n      dup6\n        /* \"#utility.yul\":17379:17417   */\n      tag_125\n      jump\t// in\n    tag_330:\n        /* \"#utility.yul\":17439:17440   */\n      0x00\n        /* \"#utility.yul\":17453:17607   */\n    tag_331:\n        /* \"#utility.yul\":17467:17473   */\n      dup4\n        /* \"#utility.yul\":17464:17465   */\n      dup2\n        /* \"#utility.yul\":17461:17474   */\n      lt\n        /* \"#utility.yul\":17453:17607   */\n      iszero\n      tag_333\n      jumpi\n        /* \"#utility.yul\":17541:17548   */\n      dup2\n        /* \"#utility.yul\":17535:17549   */\n      sload\n        /* \"#utility.yul\":17531:17532   */\n      dup2\n        /* \"#utility.yul\":17526:17529   */\n      dup10\n        /* \"#utility.yul\":17522:17533   */\n      add\n        /* \"#utility.yul\":17515:17550   */\n      mstore\n        /* \"#utility.yul\":17591:17592   */\n      0x01\n        /* \"#utility.yul\":17582:17589   */\n      dup3\n        /* \"#utility.yul\":17578:17593   */\n      add\n        /* \"#utility.yul\":17567:17593   */\n      swap2\n      pop\n        /* \"#utility.yul\":17489:17493   */\n      0x20\n        /* \"#utility.yul\":17486:17487   */\n      dup2\n        /* \"#utility.yul\":17482:17494   */\n      add\n        /* \"#utility.yul\":17477:17494   */\n      swap1\n      pop\n        /* \"#utility.yul\":17453:17607   */\n      jump(tag_331)\n    tag_333:\n        /* \"#utility.yul\":17636:17642   */\n      dup4\n        /* \"#utility.yul\":17631:17634   */\n      dup9\n        /* \"#utility.yul\":17627:17643   */\n      add\n        /* \"#utility.yul\":17620:17643   */\n      swap6\n      pop\n        /* \"#utility.yul\":17319:17653   */\n      pop\n      pop\n        /* \"#utility.yul\":17104:17653   */\n    tag_327:\n      pop\n        /* \"#utility.yul\":16892:17659   */\n      pop\n      pop\n        /* \"#utility.yul\":16785:17659   */\n      swap3\n      swap2\n      pop\n      pop\n      jump\t// out\n        /* \"#utility.yul\":17665:17934   */\n    tag_70:\n        /* \"#utility.yul\":17794:17797   */\n      0x00\n        /* \"#utility.yul\":17816:17908   */\n      tag_335\n        /* \"#utility.yul\":17904:17907   */\n      dup3\n        /* \"#utility.yul\":17895:17901   */\n      dup5\n        /* \"#utility.yul\":17816:17908   */\n      tag_147\n      jump\t// in\n    tag_335:\n        /* \"#utility.yul\":17809:17908   */\n      swap2\n      pop\n        /* \"#utility.yul\":17925:17928   */\n      dup2\n        /* \"#utility.yul\":17918:17928   */\n      swap1\n      pop\n        /* \"#utility.yul\":17665:17934   */\n      swap3\n      swap2\n      pop\n      pop\n      jump\t// out\n        /* \"#utility.yul\":17940:18164   */\n    tag_148:\n        /* \"#utility.yul\":18080:18114   */\n      0x5472616e73616374696f6e206d75737420626520696e2050656e64696e672073\n        /* \"#utility.yul\":18076:18077   */\n      0x00\n        /* \"#utility.yul\":18068:18074   */\n      dup3\n        /* \"#utility.yul\":18064:18078   */\n      add\n        /* \"#utility.yul\":18057:18115   */\n      mstore\n        /* \"#utility.yul\":18149:18156   */\n      0x7461747573000000000000000000000000000000000000000000000000000000\n        /* \"#utility.yul\":18144:18146   */\n      0x20\n        /* \"#utility.yul\":18136:18142   */\n      dup3\n        /* \"#utility.yul\":18132:18147   */\n      add\n        /* \"#utility.yul\":18125:18157   */\n      mstore\n        /* \"#utility.yul\":17940:18164   */\n      pop\n      jump\t// out\n        /* \"#utility.yul\":18170:18536   */\n    tag_149:\n        /* \"#utility.yul\":18312:18315   */\n      0x00\n        /* \"#utility.yul\":18333:18400   */\n      tag_338\n        /* \"#utility.yul\":18397:18399   */\n      0x25\n        /* \"#utility.yul\":18392:18395   */\n      dup4\n        /* \"#utility.yul\":18333:18400   */\n      tag_108\n      jump\t// in\n    tag_338:\n        /* \"#utility.yul\":18326:18400   */\n      swap2\n      pop\n        /* \"#utility.yul\":18409:18502   */\n      tag_339\n        /* \"#utility.yul\":18498:18501   */\n      dup3\n        /* \"#utility.yul\":18409:18502   */\n      tag_148\n      jump\t// in\n    tag_339:\n        /* \"#utility.yul\":18527:18529   */\n      0x40\n        /* \"#utility.yul\":18522:18525   */\n      dup3\n        /* \"#utility.yul\":18518:18530   */\n      add\n        /* \"#utility.yul\":18511:18530   */\n      swap1\n      pop\n        /* \"#utility.yul\":18170:18536   */\n      swap2\n      swap1\n      pop\n      jump\t// out\n        /* \"#utility.yul\":18542:18961   */\n    tag_73:\n        /* \"#utility.yul\":18708:18712   */\n      0x00\n        /* \"#utility.yul\":18746:18748   */\n      0x20\n        /* \"#utility.yul\":18735:18744   */\n      dup3\n        /* \"#utility.yul\":18731:18749   */\n      add\n        /* \"#utility.yul\":18723:18749   */\n      swap1\n      pop\n        /* \"#utility.yul\":18795:18804   */\n      dup2\n        /* \"#utility.yul\":18789:18793   */\n      dup2\n        /* \"#utility.yul\":18785:18805   */\n      sub\n        /* \"#utility.yul\":18781:18782   */\n      0x00\n        /* \"#utility.yul\":18770:18779   */\n      dup4\n        /* \"#utility.yul\":18766:18783   */\n      add\n        /* \"#utility.yul\":18759:18806   */\n      mstore\n        /* \"#utility.yul\":18823:18954   */\n      tag_341\n        /* \"#utility.yul\":18949:18953   */\n      dup2\n        /* \"#utility.yul\":18823:18954   */\n      tag_149\n      jump\t// in\n    tag_341:\n        /* \"#utility.yul\":18815:18954   */\n      swap1\n      pop\n        /* \"#utility.yul\":18542:18961   */\n      swap2\n      swap1\n      pop\n      jump\t// out\n        /* \"#utility.yul\":18967:19299   */\n    tag_78:\n        /* \"#utility.yul\":19088:19092   */\n      0x00\n        /* \"#utility.yul\":19126:19128   */\n      0x40\n        /* \"#utility.yul\":19115:19124   */\n      dup3\n        /* \"#utility.yul\":19111:19129   */\n      add\n        /* \"#utility.yul\":19103:19129   */\n      swap1\n      pop\n        /* \"#utility.yul\":19139:19210   */\n      tag_343\n        /* \"#utility.yul\":19207:19208   */\n      0x00\n        /* \"#utility.yul\":19196:19205   */\n      dup4\n        /* \"#utility.yul\":19192:19209   */\n      add\n        /* \"#utility.yul\":19183:19189   */\n      dup6\n        /* \"#utility.yul\":19139:19210   */\n      tag_106\n      jump\t// in\n    tag_343:\n        /* \"#utility.yul\":19220:19292   */\n      tag_344\n        /* \"#utility.yul\":19288:19290   */\n      0x20\n        /* \"#utility.yul\":19277:19286   */\n      dup4\n        /* \"#utility.yul\":19273:19291   */\n      add\n        /* \"#utility.yul\":19264:19270   */\n      dup5\n        /* \"#utility.yul\":19220:19292   */\n      tag_105\n      jump\t// in\n    tag_344:\n        /* \"#utility.yul\":18967:19299   */\n      swap4\n      swap3\n      pop\n      pop\n      pop\n      jump\t// out\n        /* \"#utility.yul\":19305:19534   */\n    tag_150:\n        /* \"#utility.yul\":19445:19479   */\n      0x4f6e6c79206275796572206f722073656c6c65722063616e2075706461746520\n        /* \"#utility.yul\":19441:19442   */\n      0x00\n        /* \"#utility.yul\":19433:19439   */\n      dup3\n        /* \"#utility.yul\":19429:19443   */\n      add\n        /* \"#utility.yul\":19422:19480   */\n      mstore\n        /* \"#utility.yul\":19514:19526   */\n      0x7468652073746174757300000000000000000000000000000000000000000000\n        /* \"#utility.yul\":19509:19511   */\n      0x20\n        /* \"#utility.yul\":19501:19507   */\n      dup3\n        /* \"#utility.yul\":19497:19512   */\n      add\n        /* \"#utility.yul\":19490:19527   */\n      mstore\n        /* \"#utility.yul\":19305:19534   */\n      pop\n      jump\t// out\n        /* \"#utility.yul\":19540:19906   */\n    tag_151:\n        /* \"#utility.yul\":19682:19685   */\n      0x00\n        /* \"#utility.yul\":19703:19770   */\n      tag_347\n        /* \"#utility.yul\":19767:19769   */\n      0x2a\n        /* \"#utility.yul\":19762:19765   */\n      dup4\n        /* \"#utility.yul\":19703:19770   */\n      tag_108\n      jump\t// in\n    tag_347:\n        /* \"#utility.yul\":19696:19770   */\n      swap2\n      pop\n        /* \"#utility.yul\":19779:19872   */\n      tag_348\n        /* \"#utility.yul\":19868:19871   */\n      dup3\n        /* \"#utility.yul\":19779:19872   */\n      tag_150\n      jump\t// in\n    tag_348:\n        /* \"#utility.yul\":19897:19899   */\n      0x40\n        /* \"#utility.yul\":19892:19895   */\n      dup3\n        /* \"#utility.yul\":19888:19900   */\n      add\n        /* \"#utility.yul\":19881:19900   */\n      swap1\n      pop\n        /* \"#utility.yul\":19540:19906   */\n      swap2\n      swap1\n      pop\n      jump\t// out\n        /* \"#utility.yul\":19912:20331   */\n    tag_91:\n        /* \"#utility.yul\":20078:20082   */\n      0x00\n        /* \"#utility.yul\":20116:20118   */\n      0x20\n        /* \"#utility.yul\":20105:20114   */\n      dup3\n        /* \"#utility.yul\":20101:20119   */\n      add\n        /* \"#utility.yul\":20093:20119   */\n      swap1\n      pop\n        /* \"#utility.yul\":20165:20174   */\n      dup2\n        /* \"#utility.yul\":20159:20163   */\n      dup2\n        /* \"#utility.yul\":20155:20175   */\n      sub\n        /* \"#utility.yul\":20151:20152   */\n      0x00\n        /* \"#utility.yul\":20140:20149   */\n      dup4\n        /* \"#utility.yul\":20136:20153   */\n      add\n        /* \"#utility.yul\":20129:20176   */\n      mstore\n        /* \"#utility.yul\":20193:20324   */\n      tag_350\n        /* \"#utility.yul\":20319:20323   */\n      dup2\n        /* \"#utility.yul\":20193:20324   */\n      tag_151\n      jump\t// in\n    tag_350:\n        /* \"#utility.yul\":20185:20324   */\n      swap1\n      pop\n        /* \"#utility.yul\":19912:20331   */\n      swap2\n      swap1\n      pop\n      jump\t// out\n        /* \"#utility.yul\":20337:20650   */\n    tag_94:\n        /* \"#utility.yul\":20450:20454   */\n      0x00\n        /* \"#utility.yul\":20488:20490   */\n      0x20\n        /* \"#utility.yul\":20477:20486   */\n      dup3\n        /* \"#utility.yul\":20473:20491   */\n      add\n        /* \"#utility.yul\":20465:20491   */\n      swap1\n      pop\n        /* \"#utility.yul\":20537:20546   */\n      dup2\n        /* \"#utility.yul\":20531:20535   */\n      dup2\n        /* \"#utility.yul\":20527:20547   */\n      sub\n        /* \"#utility.yul\":20523:20524   */\n      0x00\n        /* \"#utility.yul\":20512:20521   */\n      dup4\n        /* \"#utility.yul\":20508:20525   */\n      add\n        /* \"#utility.yul\":20501:20548   */\n      mstore\n        /* \"#utility.yul\":20565:20643   */\n      tag_352\n        /* \"#utility.yul\":20638:20642   */\n      dup2\n        /* \"#utility.yul\":20629:20635   */\n      dup5\n        /* \"#utility.yul\":20565:20643   */\n      tag_111\n      jump\t// in\n    tag_352:\n        /* \"#utility.yul\":20557:20643   */\n      swap1\n      pop\n        /* \"#utility.yul\":20337:20650   */\n      swap3\n      swap2\n      pop\n      pop\n      jump\t// out\n\n    auxdata: 0xa26469706673582212208291b3bf1a11c5d79cda4b2e924ce8c8429d139b9cfeb49c98d28ed3955687a164736f6c634300081a0033\n}\n",
				"bytecode": {
					"linkReferences": {},
					"object": "6080604052348015600e575f80fd5b506115bc8061001c5f395ff3fe608060405260043610610054575f3560e01c80631e7f8f0f1461005857806333ea3dc8146100885780634d68282f146100c85780639ace38c2146100f0578063b39f3e0b14610130578063b77bf60014610158575b5f80fd5b610072600480360381019061006d9190610b67565b610182565b60405161007f9190610bb4565b60405180910390f35b348015610093575f80fd5b506100ae60048036038101906100a99190610bcd565b610376565b6040516100bf959493929190610c77565b60405180910390f35b3480156100d3575f80fd5b506100ee60048036038101906100e99190610bcd565b610563565b005b3480156100fb575f80fd5b5061011660048036038101906101119190610bcd565b61081a565b604051610127959493929190610c77565b60405180910390f35b34801561013b575f80fd5b5061015660048036038101906101519190610dfb565b61090f565b005b348015610163575f80fd5b5061016c610ac3565b6040516101799190610bb4565b60405180910390f35b5f8034116101c5576040517f08c379a00000000000000000000000000000000000000000000000000000000081526004016101bc90610ec5565b60405180910390fd5b60015f8154809291906101d790610f10565b91905055506040518060a001604052803373ffffffffffffffffffffffffffffffffffffffff1681526020018473ffffffffffffffffffffffffffffffffffffffff1681526020013481526020016040518060400160405280600781526020017f50656e64696e67000000000000000000000000000000000000000000000000008152508152602001838152505f8060015481526020019081526020015f205f820151815f015f6101000a81548173ffffffffffffffffffffffffffffffffffffffff021916908373ffffffffffffffffffffffffffffffffffffffff1602179055506020820151816001015f6101000a81548173ffffffffffffffffffffffffffffffffffffffff021916908373ffffffffffffffffffffffffffffffffffffffff16021790555060408201518160020155606082015181600301908161031f9190611151565b50608082015181600401559050506001547fe9097a4f4eddc0e5906640fcd9e1193c9db52771536ca4c8b06ab4c40aa045d233853460405161036393929190611220565b60405180910390a2600154905092915050565b5f805f60605f808611801561038d57506001548611155b6103cc576040517f08c379a00000000000000000000000000000000000000000000000000000000081526004016103c39061129f565b60405180910390fd5b5f805f8881526020019081526020015f206040518060a00160405290815f82015f9054906101000a900473ffffffffffffffffffffffffffffffffffffffff1673ffffffffffffffffffffffffffffffffffffffff1673ffffffffffffffffffffffffffffffffffffffff168152602001600182015f9054906101000a900473ffffffffffffffffffffffffffffffffffffffff1673ffffffffffffffffffffffffffffffffffffffff1673ffffffffffffffffffffffffffffffffffffffff168152602001600282015481526020016003820180546104ab90610f84565b80601f01602080910402602001604051908101604052809291908181526020018280546104d790610f84565b80156105225780601f106104f957610100808354040283529160200191610522565b820191905f5260205f20905b81548152906001019060200180831161050557829003601f168201915b505050505081526020016004820154815250509050805f01518160200151826040015183606001518460800151955095509550955095505091939590929450565b5f8111801561057457506001548111155b6105b3576040517f08c379a00000000000000000000000000000000000000000000000000000000081526004016105aa9061129f565b60405180910390fd5b5f808281526020019081526020015f205f015f9054906101000a900473ffffffffffffffffffffffffffffffffffffffff1673ffffffffffffffffffffffffffffffffffffffff163373ffffffffffffffffffffffffffffffffffffffff1614610652576040517f08c379a000000000000000000000000000000000000000000000000000000000815260040161064990611307565b60405180910390fd5b60405160200161066190611379565b604051602081830303815290604052805190602001205f808381526020019081526020015f2060030160405160200161069a919061140d565b60405160208183030381529060405280519060200120146106f0576040517f08c379a00000000000000000000000000000000000000000000000000000000081526004016106e790611493565b60405180910390fd5b5f805f8381526020019081526020015f2090506040518060400160405280600981526020017f436f6d706c6574656400000000000000000000000000000000000000000000008152508160030190816107499190611151565b50806001015f9054906101000a900473ffffffffffffffffffffffffffffffffffffffff1673ffffffffffffffffffffffffffffffffffffffff166108fc826002015490811502906040515f60405180830381858888f193505050501580156107b4573d5f803e3d5ffd5b50817f6e3c6096795c8298a218b2cfb8bde42726ff7c9a3d27b4d3ba41ab7f74feb5fb826001015f9054906101000a900473ffffffffffffffffffffffffffffffffffffffff16836002015460405161080e9291906114b1565b60405180910390a25050565b5f602052805f5260405f205f91509050805f015f9054906101000a900473ffffffffffffffffffffffffffffffffffffffff1690806001015f9054906101000a900473ffffffffffffffffffffffffffffffffffffffff169080600201549080600301805461088890610f84565b80601f01602080910402602001604051908101604052809291908181526020018280546108b490610f84565b80156108ff5780601f106108d6576101008083540402835291602001916108ff565b820191905f5260205f20905b8154815290600101906020018083116108e257829003601f168201915b5050505050908060040154905085565b5f8211801561092057506001548211155b61095f576040517f08c379a00000000000000000000000000000000000000000000000000000000081526004016109569061129f565b60405180910390fd5b5f808381526020019081526020015f205f015f9054906101000a900473ffffffffffffffffffffffffffffffffffffffff1673ffffffffffffffffffffffffffffffffffffffff163373ffffffffffffffffffffffffffffffffffffffff161480610a2757505f808381526020019081526020015f206001015f9054906101000a900473ffffffffffffffffffffffffffffffffffffffff1673ffffffffffffffffffffffffffffffffffffffff163373ffffffffffffffffffffffffffffffffffffffff16145b610a66576040517f08c379a0000000000000000000000000000000000000000000000000000000008152600401610a5d90611548565b60405180910390fd5b805f808481526020019081526020015f206003019081610a869190611151565b50817f460337c8a7cecb6488651f314e42c67eddaa1c3e3490675008d675a4ed44aedb82604051610ab79190611566565b60405180910390a25050565b60015481565b5f604051905090565b5f80fd5b5f80fd5b5f73ffffffffffffffffffffffffffffffffffffffff82169050919050565b5f610b0382610ada565b9050919050565b610b1381610af9565b8114610b1d575f80fd5b50565b5f81359050610b2e81610b0a565b92915050565b5f819050919050565b610b4681610b34565b8114610b50575f80fd5b50565b5f81359050610b6181610b3d565b92915050565b5f8060408385031215610b7d57610b7c610ad2565b5b5f610b8a85828601610b20565b9250506020610b9b85828601610b53565b9150509250929050565b610bae81610b34565b82525050565b5f602082019050610bc75f830184610ba5565b92915050565b5f60208284031215610be257610be1610ad2565b5b5f610bef84828501610b53565b91505092915050565b610c0181610af9565b82525050565b5f81519050919050565b5f82825260208201905092915050565b8281835e5f83830152505050565b5f601f19601f8301169050919050565b5f610c4982610c07565b610c538185610c11565b9350610c63818560208601610c21565b610c6c81610c2f565b840191505092915050565b5f60a082019050610c8a5f830188610bf8565b610c976020830187610bf8565b610ca46040830186610ba5565b8181036060830152610cb68185610c3f565b9050610cc56080830184610ba5565b9695505050505050565b5f80fd5b5f80fd5b7f4e487b71000000000000000000000000000000000000000000000000000000005f52604160045260245ffd5b610d0d82610c2f565b810181811067ffffffffffffffff82111715610d2c57610d2b610cd7565b5b80604052505050565b5f610d3e610ac9565b9050610d4a8282610d04565b919050565b5f67ffffffffffffffff821115610d6957610d68610cd7565b5b610d7282610c2f565b9050602081019050919050565b828183375f83830152505050565b5f610d9f610d9a84610d4f565b610d35565b905082815260208101848484011115610dbb57610dba610cd3565b5b610dc6848285610d7f565b509392505050565b5f82601f830112610de257610de1610ccf565b5b8135610df2848260208601610d8d565b91505092915050565b5f8060408385031215610e1157610e10610ad2565b5b5f610e1e85828601610b53565b925050602083013567ffffffffffffffff811115610e3f57610e3e610ad6565b5b610e4b85828601610dce565b9150509250929050565b7f5472616e73616374696f6e20616d6f756e74206d7573742062652067726561745f8201527f6572207468616e20300000000000000000000000000000000000000000000000602082015250565b5f610eaf602983610c11565b9150610eba82610e55565b604082019050919050565b5f6020820190508181035f830152610edc81610ea3565b9050919050565b7f4e487b71000000000000000000000000000000000000000000000000000000005f52601160045260245ffd5b5f610f1a82610b34565b91507fffffffffffffffffffffffffffffffffffffffffffffffffffffffffffffffff8203610f4c57610f4b610ee3565b5b600182019050919050565b7f4e487b71000000000000000000000000000000000000000000000000000000005f52602260045260245ffd5b5f6002820490506001821680610f9b57607f821691505b602082108103610fae57610fad610f57565b5b50919050565b5f819050815f5260205f209050919050565b5f6020601f8301049050919050565b5f82821b905092915050565b5f600883026110107fffffffffffffffffffffffffffffffffffffffffffffffffffffffffffffffff82610fd5565b61101a8683610fd5565b95508019841693508086168417925050509392505050565b5f819050919050565b5f61105561105061104b84610b34565b611032565b610b34565b9050919050565b5f819050919050565b61106e8361103b565b61108261107a8261105c565b848454610fe1565b825550505050565b5f90565b61109661108a565b6110a1818484611065565b505050565b5b818110156110c4576110b95f8261108e565b6001810190506110a7565b5050565b601f821115611109576110da81610fb4565b6110e384610fc6565b810160208510156110f2578190505b6111066110fe85610fc6565b8301826110a6565b50505b505050565b5f82821c905092915050565b5f6111295f198460080261110e565b1980831691505092915050565b5f611141838361111a565b9150826002028217905092915050565b61115a82610c07565b67ffffffffffffffff81111561117357611172610cd7565b5b61117d8254610f84565b6111888282856110c8565b5f60209050601f8311600181146111b9575f84156111a7578287015190505b6111b18582611136565b865550611218565b601f1984166111c786610fb4565b5f5b828110156111ee578489015182556001820191506020850194506020810190506111c9565b8683101561120b5784890151611207601f89168261111a565b8355505b6001600288020188555050505b505050505050565b5f6060820190506112335f830186610bf8565b6112406020830185610bf8565b61124d6040830184610ba5565b949350505050565b7f496e76616c6964207472616e73616374696f6e204944000000000000000000005f82015250565b5f611289601683610c11565b915061129482611255565b602082019050919050565b5f6020820190508181035f8301526112b68161127d565b9050919050565b7f4f6e6c792062757965722063616e2072656c656173652066756e6473000000005f82015250565b5f6112f1601c83610c11565b91506112fc826112bd565b602082019050919050565b5f6020820190508181035f83015261131e816112e5565b9050919050565b5f81905092915050565b7f50656e64696e67000000000000000000000000000000000000000000000000005f82015250565b5f611363600783611325565b915061136e8261132f565b600782019050919050565b5f61138382611357565b9150819050919050565b5f815461139981610f84565b6113a38186611325565b9450600182165f81146113bd57600181146113d257611404565b60ff1983168652811515820286019350611404565b6113db85610fb4565b5f5b838110156113fc578154818901526001820191506020810190506113dd565b838801955050505b50505092915050565b5f611418828461138d565b915081905092915050565b7f5472616e73616374696f6e206d75737420626520696e2050656e64696e6720735f8201527f7461747573000000000000000000000000000000000000000000000000000000602082015250565b5f61147d602583610c11565b915061148882611423565b604082019050919050565b5f6020820190508181035f8301526114aa81611471565b9050919050565b5f6040820190506114c45f830185610bf8565b6114d16020830184610ba5565b9392505050565b7f4f6e6c79206275796572206f722073656c6c65722063616e20757064617465205f8201527f7468652073746174757300000000000000000000000000000000000000000000602082015250565b5f611532602a83610c11565b915061153d826114d8565b604082019050919050565b5f6020820190508181035f83015261155f81611526565b9050919050565b5f6020820190508181035f83015261157e8184610c3f565b90509291505056fea26469706673582212208291b3bf1a11c5d79cda4b2e924ce8c8429d139b9cfeb49c98d28ed3955687a164736f6c634300081a0033",
					"opcodes": "PUSH1 0x80 PUSH1 0x40 MSTORE CALLVALUE DUP1 ISZERO PUSH1 0xE JUMPI PUSH0 DUP1 REVERT JUMPDEST POP PUSH2 0x15BC DUP1 PUSH2 0x1C PUSH0 CODECOPY PUSH0 RETURN INVALID PUSH1 0x80 PUSH1 0x40 MSTORE PUSH1 0x4 CALLDATASIZE LT PUSH2 0x54 JUMPI PUSH0 CALLDATALOAD PUSH1 0xE0 SHR DUP1 PUSH4 0x1E7F8F0F EQ PUSH2 0x58 JUMPI DUP1 PUSH4 0x33EA3DC8 EQ PUSH2 0x88 JUMPI DUP1 PUSH4 0x4D68282F EQ PUSH2 0xC8 JUMPI DUP1 PUSH4 0x9ACE38C2 EQ PUSH2 0xF0 JUMPI DUP1 PUSH4 0xB39F3E0B EQ PUSH2 0x130 JUMPI DUP1 PUSH4 0xB77BF600 EQ PUSH2 0x158 JUMPI JUMPDEST PUSH0 DUP1 REVERT JUMPDEST PUSH2 0x72 PUSH1 0x4 DUP1 CALLDATASIZE SUB DUP2 ADD SWAP1 PUSH2 0x6D SWAP2 SWAP1 PUSH2 0xB67 JUMP JUMPDEST PUSH2 0x182 JUMP JUMPDEST PUSH1 0x40 MLOAD PUSH2 0x7F SWAP2 SWAP1 PUSH2 0xBB4 JUMP JUMPDEST PUSH1 0x40 MLOAD DUP1 SWAP2 SUB SWAP1 RETURN JUMPDEST CALLVALUE DUP1 ISZERO PUSH2 0x93 JUMPI PUSH0 DUP1 REVERT JUMPDEST POP PUSH2 0xAE PUSH1 0x4 DUP1 CALLDATASIZE SUB DUP2 ADD SWAP1 PUSH2 0xA9 SWAP2 SWAP1 PUSH2 0xBCD JUMP JUMPDEST PUSH2 0x376 JUMP JUMPDEST PUSH1 0x40 MLOAD PUSH2 0xBF SWAP6 SWAP5 SWAP4 SWAP3 SWAP2 SWAP1 PUSH2 0xC77 JUMP JUMPDEST PUSH1 0x40 MLOAD DUP1 SWAP2 SUB SWAP1 RETURN JUMPDEST CALLVALUE DUP1 ISZERO PUSH2 0xD3 JUMPI PUSH0 DUP1 REVERT JUMPDEST POP PUSH2 0xEE PUSH1 0x4 DUP1 CALLDATASIZE SUB DUP2 ADD SWAP1 PUSH2 0xE9 SWAP2 SWAP1 PUSH2 0xBCD JUMP JUMPDEST PUSH2 0x563 JUMP JUMPDEST STOP JUMPDEST CALLVALUE DUP1 ISZERO PUSH2 0xFB JUMPI PUSH0 DUP1 REVERT JUMPDEST POP PUSH2 0x116 PUSH1 0x4 DUP1 CALLDATASIZE SUB DUP2 ADD SWAP1 PUSH2 0x111 SWAP2 SWAP1 PUSH2 0xBCD JUMP JUMPDEST PUSH2 0x81A JUMP JUMPDEST PUSH1 0x40 MLOAD PUSH2 0x127 SWAP6 SWAP5 SWAP4 SWAP3 SWAP2 SWAP1 PUSH2 0xC77 JUMP JUMPDEST PUSH1 0x40 MLOAD DUP1 SWAP2 SUB SWAP1 RETURN JUMPDEST CALLVALUE DUP1 ISZERO PUSH2 0x13B JUMPI PUSH0 DUP1 REVERT JUMPDEST POP PUSH2 0x156 PUSH1 0x4 DUP1 CALLDATASIZE SUB DUP2 ADD SWAP1 PUSH2 0x151 SWAP2 SWAP1 PUSH2 0xDFB JUMP JUMPDEST PUSH2 0x90F JUMP JUMPDEST STOP JUMPDEST CALLVALUE DUP1 ISZERO PUSH2 0x163 JUMPI PUSH0 DUP1 REVERT JUMPDEST POP PUSH2 0x16C PUSH2 0xAC3 JUMP JUMPDEST PUSH1 0x40 MLOAD PUSH2 0x179 SWAP2 SWAP1 PUSH2 0xBB4 JUMP JUMPDEST PUSH1 0x40 MLOAD DUP1 SWAP2 SUB SWAP1 RETURN JUMPDEST PUSH0 DUP1 CALLVALUE GT PUSH2 0x1C5 JUMPI PUSH1 0x40 MLOAD PUSH32 0x8C379A000000000000000000000000000000000000000000000000000000000 DUP2 MSTORE PUSH1 0x4 ADD PUSH2 0x1BC SWAP1 PUSH2 0xEC5 JUMP JUMPDEST PUSH1 0x40 MLOAD DUP1 SWAP2 SUB SWAP1 REVERT JUMPDEST PUSH1 0x1 PUSH0 DUP2 SLOAD DUP1 SWAP3 SWAP2 SWAP1 PUSH2 0x1D7 SWAP1 PUSH2 0xF10 JUMP JUMPDEST SWAP2 SWAP1 POP SSTORE POP PUSH1 0x40 MLOAD DUP1 PUSH1 0xA0 ADD PUSH1 0x40 MSTORE DUP1 CALLER PUSH20 0xFFFFFFFFFFFFFFFFFFFFFFFFFFFFFFFFFFFFFFFF AND DUP2 MSTORE PUSH1 0x20 ADD DUP5 PUSH20 0xFFFFFFFFFFFFFFFFFFFFFFFFFFFFFFFFFFFFFFFF AND DUP2 MSTORE PUSH1 0x20 ADD CALLVALUE DUP2 MSTORE PUSH1 0x20 ADD PUSH1 0x40 MLOAD DUP1 PUSH1 0x40 ADD PUSH1 0x40 MSTORE DUP1 PUSH1 0x7 DUP2 MSTORE PUSH1 0x20 ADD PUSH32 0x50656E64696E6700000000000000000000000000000000000000000000000000 DUP2 MSTORE POP DUP2 MSTORE PUSH1 0x20 ADD DUP4 DUP2 MSTORE POP PUSH0 DUP1 PUSH1 0x1 SLOAD DUP2 MSTORE PUSH1 0x20 ADD SWAP1 DUP2 MSTORE PUSH1 0x20 ADD PUSH0 KECCAK256 PUSH0 DUP3 ADD MLOAD DUP2 PUSH0 ADD PUSH0 PUSH2 0x100 EXP DUP2 SLOAD DUP2 PUSH20 0xFFFFFFFFFFFFFFFFFFFFFFFFFFFFFFFFFFFFFFFF MUL NOT AND SWAP1 DUP4 PUSH20 0xFFFFFFFFFFFFFFFFFFFFFFFFFFFFFFFFFFFFFFFF AND MUL OR SWAP1 SSTORE POP PUSH1 0x20 DUP3 ADD MLOAD DUP2 PUSH1 0x1 ADD PUSH0 PUSH2 0x100 EXP DUP2 SLOAD DUP2 PUSH20 0xFFFFFFFFFFFFFFFFFFFFFFFFFFFFFFFFFFFFFFFF MUL NOT AND SWAP1 DUP4 PUSH20 0xFFFFFFFFFFFFFFFFFFFFFFFFFFFFFFFFFFFFFFFF AND MUL OR SWAP1 SSTORE POP PUSH1 0x40 DUP3 ADD MLOAD DUP2 PUSH1 0x2 ADD SSTORE PUSH1 0x60 DUP3 ADD MLOAD DUP2 PUSH1 0x3 ADD SWAP1 DUP2 PUSH2 0x31F SWAP2 SWAP1 PUSH2 0x1151 JUMP JUMPDEST POP PUSH1 0x80 DUP3 ADD MLOAD DUP2 PUSH1 0x4 ADD SSTORE SWAP1 POP POP PUSH1 0x1 SLOAD PUSH32 0xE9097A4F4EDDC0E5906640FCD9E1193C9DB52771536CA4C8B06AB4C40AA045D2 CALLER DUP6 CALLVALUE PUSH1 0x40 MLOAD PUSH2 0x363 SWAP4 SWAP3 SWAP2 SWAP1 PUSH2 0x1220 JUMP JUMPDEST PUSH1 0x40 MLOAD DUP1 SWAP2 SUB SWAP1 LOG2 PUSH1 0x1 SLOAD SWAP1 POP SWAP3 SWAP2 POP POP JUMP JUMPDEST PUSH0 DUP1 PUSH0 PUSH1 0x60 PUSH0 DUP1 DUP7 GT DUP1 ISZERO PUSH2 0x38D JUMPI POP PUSH1 0x1 SLOAD DUP7 GT ISZERO JUMPDEST PUSH2 0x3CC JUMPI PUSH1 0x40 MLOAD PUSH32 0x8C379A000000000000000000000000000000000000000000000000000000000 DUP2 MSTORE PUSH1 0x4 ADD PUSH2 0x3C3 SWAP1 PUSH2 0x129F JUMP JUMPDEST PUSH1 0x40 MLOAD DUP1 SWAP2 SUB SWAP1 REVERT JUMPDEST PUSH0 DUP1 PUSH0 DUP9 DUP2 MSTORE PUSH1 0x20 ADD SWAP1 DUP2 MSTORE PUSH1 0x20 ADD PUSH0 KECCAK256 PUSH1 0x40 MLOAD DUP1 PUSH1 0xA0 ADD PUSH1 0x40 MSTORE SWAP1 DUP2 PUSH0 DUP3 ADD PUSH0 SWAP1 SLOAD SWAP1 PUSH2 0x100 EXP SWAP1 DIV PUSH20 0xFFFFFFFFFFFFFFFFFFFFFFFFFFFFFFFFFFFFFFFF AND PUSH20 0xFFFFFFFFFFFFFFFFFFFFFFFFFFFFFFFFFFFFFFFF AND PUSH20 0xFFFFFFFFFFFFFFFFFFFFFFFFFFFFFFFFFFFFFFFF AND DUP2 MSTORE PUSH1 0x20 ADD PUSH1 0x1 DUP3 ADD PUSH0 SWAP1 SLOAD SWAP1 PUSH2 0x100 EXP SWAP1 DIV PUSH20 0xFFFFFFFFFFFFFFFFFFFFFFFFFFFFFFFFFFFFFFFF AND PUSH20 0xFFFFFFFFFFFFFFFFFFFFFFFFFFFFFFFFFFFFFFFF AND PUSH20 0xFFFFFFFFFFFFFFFFFFFFFFFFFFFFFFFFFFFFFFFF AND DUP2 MSTORE PUSH1 0x20 ADD PUSH1 0x2 DUP3 ADD SLOAD DUP2 MSTORE PUSH1 0x20 ADD PUSH1 0x3 DUP3 ADD DUP1 SLOAD PUSH2 0x4AB SWAP1 PUSH2 0xF84 JUMP JUMPDEST DUP1 PUSH1 0x1F ADD PUSH1 0x20 DUP1 SWAP2 DIV MUL PUSH1 0x20 ADD PUSH1 0x40 MLOAD SWAP1 DUP2 ADD PUSH1 0x40 MSTORE DUP1 SWAP3 SWAP2 SWAP1 DUP2 DUP2 MSTORE PUSH1 0x20 ADD DUP3 DUP1 SLOAD PUSH2 0x4D7 SWAP1 PUSH2 0xF84 JUMP JUMPDEST DUP1 ISZERO PUSH2 0x522 JUMPI DUP1 PUSH1 0x1F LT PUSH2 0x4F9 JUMPI PUSH2 0x100 DUP1 DUP4 SLOAD DIV MUL DUP4 MSTORE SWAP2 PUSH1 0x20 ADD SWAP2 PUSH2 0x522 JUMP JUMPDEST DUP3 ADD SWAP2 SWAP1 PUSH0 MSTORE PUSH1 0x20 PUSH0 KECCAK256 SWAP1 JUMPDEST DUP2 SLOAD DUP2 MSTORE SWAP1 PUSH1 0x1 ADD SWAP1 PUSH1 0x20 ADD DUP1 DUP4 GT PUSH2 0x505 JUMPI DUP3 SWAP1 SUB PUSH1 0x1F AND DUP3 ADD SWAP2 JUMPDEST POP POP POP POP POP DUP2 MSTORE PUSH1 0x20 ADD PUSH1 0x4 DUP3 ADD SLOAD DUP2 MSTORE POP POP SWAP1 POP DUP1 PUSH0 ADD MLOAD DUP2 PUSH1 0x20 ADD MLOAD DUP3 PUSH1 0x40 ADD MLOAD DUP4 PUSH1 0x60 ADD MLOAD DUP5 PUSH1 0x80 ADD MLOAD SWAP6 POP SWAP6 POP SWAP6 POP SWAP6 POP SWAP6 POP POP SWAP2 SWAP4 SWAP6 SWAP1 SWAP3 SWAP5 POP JUMP JUMPDEST PUSH0 DUP2 GT DUP1 ISZERO PUSH2 0x574 JUMPI POP PUSH1 0x1 SLOAD DUP2 GT ISZERO JUMPDEST PUSH2 0x5B3 JUMPI PUSH1 0x40 MLOAD PUSH32 0x8C379A000000000000000000000000000000000000000000000000000000000 DUP2 MSTORE PUSH1 0x4 ADD PUSH2 0x5AA SWAP1 PUSH2 0x129F JUMP JUMPDEST PUSH1 0x40 MLOAD DUP1 SWAP2 SUB SWAP1 REVERT JUMPDEST PUSH0 DUP1 DUP3 DUP2 MSTORE PUSH1 0x20 ADD SWAP1 DUP2 MSTORE PUSH1 0x20 ADD PUSH0 KECCAK256 PUSH0 ADD PUSH0 SWAP1 SLOAD SWAP1 PUSH2 0x100 EXP SWAP1 DIV PUSH20 0xFFFFFFFFFFFFFFFFFFFFFFFFFFFFFFFFFFFFFFFF AND PUSH20 0xFFFFFFFFFFFFFFFFFFFFFFFFFFFFFFFFFFFFFFFF AND CALLER PUSH20 0xFFFFFFFFFFFFFFFFFFFFFFFFFFFFFFFFFFFFFFFF AND EQ PUSH2 0x652 JUMPI PUSH1 0x40 MLOAD PUSH32 0x8C379A000000000000000000000000000000000000000000000000000000000 DUP2 MSTORE PUSH1 0x4 ADD PUSH2 0x649 SWAP1 PUSH2 0x1307 JUMP JUMPDEST PUSH1 0x40 MLOAD DUP1 SWAP2 SUB SWAP1 REVERT JUMPDEST PUSH1 0x40 MLOAD PUSH1 0x20 ADD PUSH2 0x661 SWAP1 PUSH2 0x1379 JUMP JUMPDEST PUSH1 0x40 MLOAD PUSH1 0x20 DUP2 DUP4 SUB SUB DUP2 MSTORE SWAP1 PUSH1 0x40 MSTORE DUP1 MLOAD SWAP1 PUSH1 0x20 ADD KECCAK256 PUSH0 DUP1 DUP4 DUP2 MSTORE PUSH1 0x20 ADD SWAP1 DUP2 MSTORE PUSH1 0x20 ADD PUSH0 KECCAK256 PUSH1 0x3 ADD PUSH1 0x40 MLOAD PUSH1 0x20 ADD PUSH2 0x69A SWAP2 SWAP1 PUSH2 0x140D JUMP JUMPDEST PUSH1 0x40 MLOAD PUSH1 0x20 DUP2 DUP4 SUB SUB DUP2 MSTORE SWAP1 PUSH1 0x40 MSTORE DUP1 MLOAD SWAP1 PUSH1 0x20 ADD KECCAK256 EQ PUSH2 0x6F0 JUMPI PUSH1 0x40 MLOAD PUSH32 0x8C379A000000000000000000000000000000000000000000000000000000000 DUP2 MSTORE PUSH1 0x4 ADD PUSH2 0x6E7 SWAP1 PUSH2 0x1493 JUMP JUMPDEST PUSH1 0x40 MLOAD DUP1 SWAP2 SUB SWAP1 REVERT JUMPDEST PUSH0 DUP1 PUSH0 DUP4 DUP2 MSTORE PUSH1 0x20 ADD SWAP1 DUP2 MSTORE PUSH1 0x20 ADD PUSH0 KECCAK256 SWAP1 POP PUSH1 0x40 MLOAD DUP1 PUSH1 0x40 ADD PUSH1 0x40 MSTORE DUP1 PUSH1 0x9 DUP2 MSTORE PUSH1 0x20 ADD PUSH32 0x436F6D706C657465640000000000000000000000000000000000000000000000 DUP2 MSTORE POP DUP2 PUSH1 0x3 ADD SWAP1 DUP2 PUSH2 0x749 SWAP2 SWAP1 PUSH2 0x1151 JUMP JUMPDEST POP DUP1 PUSH1 0x1 ADD PUSH0 SWAP1 SLOAD SWAP1 PUSH2 0x100 EXP SWAP1 DIV PUSH20 0xFFFFFFFFFFFFFFFFFFFFFFFFFFFFFFFFFFFFFFFF AND PUSH20 0xFFFFFFFFFFFFFFFFFFFFFFFFFFFFFFFFFFFFFFFF AND PUSH2 0x8FC DUP3 PUSH1 0x2 ADD SLOAD SWAP1 DUP2 ISZERO MUL SWAP1 PUSH1 0x40 MLOAD PUSH0 PUSH1 0x40 MLOAD DUP1 DUP4 SUB DUP2 DUP6 DUP9 DUP9 CALL SWAP4 POP POP POP POP ISZERO DUP1 ISZERO PUSH2 0x7B4 JUMPI RETURNDATASIZE PUSH0 DUP1 RETURNDATACOPY RETURNDATASIZE PUSH0 REVERT JUMPDEST POP DUP2 PUSH32 0x6E3C6096795C8298A218B2CFB8BDE42726FF7C9A3D27B4D3BA41AB7F74FEB5FB DUP3 PUSH1 0x1 ADD PUSH0 SWAP1 SLOAD SWAP1 PUSH2 0x100 EXP SWAP1 DIV PUSH20 0xFFFFFFFFFFFFFFFFFFFFFFFFFFFFFFFFFFFFFFFF AND DUP4 PUSH1 0x2 ADD SLOAD PUSH1 0x40 MLOAD PUSH2 0x80E SWAP3 SWAP2 SWAP1 PUSH2 0x14B1 JUMP JUMPDEST PUSH1 0x40 MLOAD DUP1 SWAP2 SUB SWAP1 LOG2 POP POP JUMP JUMPDEST PUSH0 PUSH1 0x20 MSTORE DUP1 PUSH0 MSTORE PUSH1 0x40 PUSH0 KECCAK256 PUSH0 SWAP2 POP SWAP1 POP DUP1 PUSH0 ADD PUSH0 SWAP1 SLOAD SWAP1 PUSH2 0x100 EXP SWAP1 DIV PUSH20 0xFFFFFFFFFFFFFFFFFFFFFFFFFFFFFFFFFFFFFFFF AND SWAP1 DUP1 PUSH1 0x1 ADD PUSH0 SWAP1 SLOAD SWAP1 PUSH2 0x100 EXP SWAP1 DIV PUSH20 0xFFFFFFFFFFFFFFFFFFFFFFFFFFFFFFFFFFFFFFFF AND SWAP1 DUP1 PUSH1 0x2 ADD SLOAD SWAP1 DUP1 PUSH1 0x3 ADD DUP1 SLOAD PUSH2 0x888 SWAP1 PUSH2 0xF84 JUMP JUMPDEST DUP1 PUSH1 0x1F ADD PUSH1 0x20 DUP1 SWAP2 DIV MUL PUSH1 0x20 ADD PUSH1 0x40 MLOAD SWAP1 DUP2 ADD PUSH1 0x40 MSTORE DUP1 SWAP3 SWAP2 SWAP1 DUP2 DUP2 MSTORE PUSH1 0x20 ADD DUP3 DUP1 SLOAD PUSH2 0x8B4 SWAP1 PUSH2 0xF84 JUMP JUMPDEST DUP1 ISZERO PUSH2 0x8FF JUMPI DUP1 PUSH1 0x1F LT PUSH2 0x8D6 JUMPI PUSH2 0x100 DUP1 DUP4 SLOAD DIV MUL DUP4 MSTORE SWAP2 PUSH1 0x20 ADD SWAP2 PUSH2 0x8FF JUMP JUMPDEST DUP3 ADD SWAP2 SWAP1 PUSH0 MSTORE PUSH1 0x20 PUSH0 KECCAK256 SWAP1 JUMPDEST DUP2 SLOAD DUP2 MSTORE SWAP1 PUSH1 0x1 ADD SWAP1 PUSH1 0x20 ADD DUP1 DUP4 GT PUSH2 0x8E2 JUMPI DUP3 SWAP1 SUB PUSH1 0x1F AND DUP3 ADD SWAP2 JUMPDEST POP POP POP POP POP SWAP1 DUP1 PUSH1 0x4 ADD SLOAD SWAP1 POP DUP6 JUMP JUMPDEST PUSH0 DUP3 GT DUP1 ISZERO PUSH2 0x920 JUMPI POP PUSH1 0x1 SLOAD DUP3 GT ISZERO JUMPDEST PUSH2 0x95F JUMPI PUSH1 0x40 MLOAD PUSH32 0x8C379A000000000000000000000000000000000000000000000000000000000 DUP2 MSTORE PUSH1 0x4 ADD PUSH2 0x956 SWAP1 PUSH2 0x129F JUMP JUMPDEST PUSH1 0x40 MLOAD DUP1 SWAP2 SUB SWAP1 REVERT JUMPDEST PUSH0 DUP1 DUP4 DUP2 MSTORE PUSH1 0x20 ADD SWAP1 DUP2 MSTORE PUSH1 0x20 ADD PUSH0 KECCAK256 PUSH0 ADD PUSH0 SWAP1 SLOAD SWAP1 PUSH2 0x100 EXP SWAP1 DIV PUSH20 0xFFFFFFFFFFFFFFFFFFFFFFFFFFFFFFFFFFFFFFFF AND PUSH20 0xFFFFFFFFFFFFFFFFFFFFFFFFFFFFFFFFFFFFFFFF AND CALLER PUSH20 0xFFFFFFFFFFFFFFFFFFFFFFFFFFFFFFFFFFFFFFFF AND EQ DUP1 PUSH2 0xA27 JUMPI POP PUSH0 DUP1 DUP4 DUP2 MSTORE PUSH1 0x20 ADD SWAP1 DUP2 MSTORE PUSH1 0x20 ADD PUSH0 KECCAK256 PUSH1 0x1 ADD PUSH0 SWAP1 SLOAD SWAP1 PUSH2 0x100 EXP SWAP1 DIV PUSH20 0xFFFFFFFFFFFFFFFFFFFFFFFFFFFFFFFFFFFFFFFF AND PUSH20 0xFFFFFFFFFFFFFFFFFFFFFFFFFFFFFFFFFFFFFFFF AND CALLER PUSH20 0xFFFFFFFFFFFFFFFFFFFFFFFFFFFFFFFFFFFFFFFF AND EQ JUMPDEST PUSH2 0xA66 JUMPI PUSH1 0x40 MLOAD PUSH32 0x8C379A000000000000000000000000000000000000000000000000000000000 DUP2 MSTORE PUSH1 0x4 ADD PUSH2 0xA5D SWAP1 PUSH2 0x1548 JUMP JUMPDEST PUSH1 0x40 MLOAD DUP1 SWAP2 SUB SWAP1 REVERT JUMPDEST DUP1 PUSH0 DUP1 DUP5 DUP2 MSTORE PUSH1 0x20 ADD SWAP1 DUP2 MSTORE PUSH1 0x20 ADD PUSH0 KECCAK256 PUSH1 0x3 ADD SWAP1 DUP2 PUSH2 0xA86 SWAP2 SWAP1 PUSH2 0x1151 JUMP JUMPDEST POP DUP2 PUSH32 0x460337C8A7CECB6488651F314E42C67EDDAA1C3E3490675008D675A4ED44AEDB DUP3 PUSH1 0x40 MLOAD PUSH2 0xAB7 SWAP2 SWAP1 PUSH2 0x1566 JUMP JUMPDEST PUSH1 0x40 MLOAD DUP1 SWAP2 SUB SWAP1 LOG2 POP POP JUMP JUMPDEST PUSH1 0x1 SLOAD DUP2 JUMP JUMPDEST PUSH0 PUSH1 0x40 MLOAD SWAP1 POP SWAP1 JUMP JUMPDEST PUSH0 DUP1 REVERT JUMPDEST PUSH0 DUP1 REVERT JUMPDEST PUSH0 PUSH20 0xFFFFFFFFFFFFFFFFFFFFFFFFFFFFFFFFFFFFFFFF DUP3 AND SWAP1 POP SWAP2 SWAP1 POP JUMP JUMPDEST PUSH0 PUSH2 0xB03 DUP3 PUSH2 0xADA JUMP JUMPDEST SWAP1 POP SWAP2 SWAP1 POP JUMP JUMPDEST PUSH2 0xB13 DUP2 PUSH2 0xAF9 JUMP JUMPDEST DUP2 EQ PUSH2 0xB1D JUMPI PUSH0 DUP1 REVERT JUMPDEST POP JUMP JUMPDEST PUSH0 DUP2 CALLDATALOAD SWAP1 POP PUSH2 0xB2E DUP2 PUSH2 0xB0A JUMP JUMPDEST SWAP3 SWAP2 POP POP JUMP JUMPDEST PUSH0 DUP2 SWAP1 POP SWAP2 SWAP1 POP JUMP JUMPDEST PUSH2 0xB46 DUP2 PUSH2 0xB34 JUMP JUMPDEST DUP2 EQ PUSH2 0xB50 JUMPI PUSH0 DUP1 REVERT JUMPDEST POP JUMP JUMPDEST PUSH0 DUP2 CALLDATALOAD SWAP1 POP PUSH2 0xB61 DUP2 PUSH2 0xB3D JUMP JUMPDEST SWAP3 SWAP2 POP POP JUMP JUMPDEST PUSH0 DUP1 PUSH1 0x40 DUP4 DUP6 SUB SLT ISZERO PUSH2 0xB7D JUMPI PUSH2 0xB7C PUSH2 0xAD2 JUMP JUMPDEST JUMPDEST PUSH0 PUSH2 0xB8A DUP6 DUP3 DUP7 ADD PUSH2 0xB20 JUMP JUMPDEST SWAP3 POP POP PUSH1 0x20 PUSH2 0xB9B DUP6 DUP3 DUP7 ADD PUSH2 0xB53 JUMP JUMPDEST SWAP2 POP POP SWAP3 POP SWAP3 SWAP1 POP JUMP JUMPDEST PUSH2 0xBAE DUP2 PUSH2 0xB34 JUMP JUMPDEST DUP3 MSTORE POP POP JUMP JUMPDEST PUSH0 PUSH1 0x20 DUP3 ADD SWAP1 POP PUSH2 0xBC7 PUSH0 DUP4 ADD DUP5 PUSH2 0xBA5 JUMP JUMPDEST SWAP3 SWAP2 POP POP JUMP JUMPDEST PUSH0 PUSH1 0x20 DUP3 DUP5 SUB SLT ISZERO PUSH2 0xBE2 JUMPI PUSH2 0xBE1 PUSH2 0xAD2 JUMP JUMPDEST JUMPDEST PUSH0 PUSH2 0xBEF DUP5 DUP3 DUP6 ADD PUSH2 0xB53 JUMP JUMPDEST SWAP2 POP POP SWAP3 SWAP2 POP POP JUMP JUMPDEST PUSH2 0xC01 DUP2 PUSH2 0xAF9 JUMP JUMPDEST DUP3 MSTORE POP POP JUMP JUMPDEST PUSH0 DUP2 MLOAD SWAP1 POP SWAP2 SWAP1 POP JUMP JUMPDEST PUSH0 DUP3 DUP3 MSTORE PUSH1 0x20 DUP3 ADD SWAP1 POP SWAP3 SWAP2 POP POP JUMP JUMPDEST DUP3 DUP2 DUP4 MCOPY PUSH0 DUP4 DUP4 ADD MSTORE POP POP POP JUMP JUMPDEST PUSH0 PUSH1 0x1F NOT PUSH1 0x1F DUP4 ADD AND SWAP1 POP SWAP2 SWAP1 POP JUMP JUMPDEST PUSH0 PUSH2 0xC49 DUP3 PUSH2 0xC07 JUMP JUMPDEST PUSH2 0xC53 DUP2 DUP6 PUSH2 0xC11 JUMP JUMPDEST SWAP4 POP PUSH2 0xC63 DUP2 DUP6 PUSH1 0x20 DUP7 ADD PUSH2 0xC21 JUMP JUMPDEST PUSH2 0xC6C DUP2 PUSH2 0xC2F JUMP JUMPDEST DUP5 ADD SWAP2 POP POP SWAP3 SWAP2 POP POP JUMP JUMPDEST PUSH0 PUSH1 0xA0 DUP3 ADD SWAP1 POP PUSH2 0xC8A PUSH0 DUP4 ADD DUP9 PUSH2 0xBF8 JUMP JUMPDEST PUSH2 0xC97 PUSH1 0x20 DUP4 ADD DUP8 PUSH2 0xBF8 JUMP JUMPDEST PUSH2 0xCA4 PUSH1 0x40 DUP4 ADD DUP7 PUSH2 0xBA5 JUMP JUMPDEST DUP2 DUP2 SUB PUSH1 0x60 DUP4 ADD MSTORE PUSH2 0xCB6 DUP2 DUP6 PUSH2 0xC3F JUMP JUMPDEST SWAP1 POP PUSH2 0xCC5 PUSH1 0x80 DUP4 ADD DUP5 PUSH2 0xBA5 JUMP JUMPDEST SWAP7 SWAP6 POP POP POP POP POP POP JUMP JUMPDEST PUSH0 DUP1 REVERT JUMPDEST PUSH0 DUP1 REVERT JUMPDEST PUSH32 0x4E487B7100000000000000000000000000000000000000000000000000000000 PUSH0 MSTORE PUSH1 0x41 PUSH1 0x4 MSTORE PUSH1 0x24 PUSH0 REVERT JUMPDEST PUSH2 0xD0D DUP3 PUSH2 0xC2F JUMP JUMPDEST DUP2 ADD DUP2 DUP2 LT PUSH8 0xFFFFFFFFFFFFFFFF DUP3 GT OR ISZERO PUSH2 0xD2C JUMPI PUSH2 0xD2B PUSH2 0xCD7 JUMP JUMPDEST JUMPDEST DUP1 PUSH1 0x40 MSTORE POP POP POP JUMP JUMPDEST PUSH0 PUSH2 0xD3E PUSH2 0xAC9 JUMP JUMPDEST SWAP1 POP PUSH2 0xD4A DUP3 DUP3 PUSH2 0xD04 JUMP JUMPDEST SWAP2 SWAP1 POP JUMP JUMPDEST PUSH0 PUSH8 0xFFFFFFFFFFFFFFFF DUP3 GT ISZERO PUSH2 0xD69 JUMPI PUSH2 0xD68 PUSH2 0xCD7 JUMP JUMPDEST JUMPDEST PUSH2 0xD72 DUP3 PUSH2 0xC2F JUMP JUMPDEST SWAP1 POP PUSH1 0x20 DUP2 ADD SWAP1 POP SWAP2 SWAP1 POP JUMP JUMPDEST DUP3 DUP2 DUP4 CALLDATACOPY PUSH0 DUP4 DUP4 ADD MSTORE POP POP POP JUMP JUMPDEST PUSH0 PUSH2 0xD9F PUSH2 0xD9A DUP5 PUSH2 0xD4F JUMP JUMPDEST PUSH2 0xD35 JUMP JUMPDEST SWAP1 POP DUP3 DUP2 MSTORE PUSH1 0x20 DUP2 ADD DUP5 DUP5 DUP5 ADD GT ISZERO PUSH2 0xDBB JUMPI PUSH2 0xDBA PUSH2 0xCD3 JUMP JUMPDEST JUMPDEST PUSH2 0xDC6 DUP5 DUP3 DUP6 PUSH2 0xD7F JUMP JUMPDEST POP SWAP4 SWAP3 POP POP POP JUMP JUMPDEST PUSH0 DUP3 PUSH1 0x1F DUP4 ADD SLT PUSH2 0xDE2 JUMPI PUSH2 0xDE1 PUSH2 0xCCF JUMP JUMPDEST JUMPDEST DUP2 CALLDATALOAD PUSH2 0xDF2 DUP5 DUP3 PUSH1 0x20 DUP7 ADD PUSH2 0xD8D JUMP JUMPDEST SWAP2 POP POP SWAP3 SWAP2 POP POP JUMP JUMPDEST PUSH0 DUP1 PUSH1 0x40 DUP4 DUP6 SUB SLT ISZERO PUSH2 0xE11 JUMPI PUSH2 0xE10 PUSH2 0xAD2 JUMP JUMPDEST JUMPDEST PUSH0 PUSH2 0xE1E DUP6 DUP3 DUP7 ADD PUSH2 0xB53 JUMP JUMPDEST SWAP3 POP POP PUSH1 0x20 DUP4 ADD CALLDATALOAD PUSH8 0xFFFFFFFFFFFFFFFF DUP2 GT ISZERO PUSH2 0xE3F JUMPI PUSH2 0xE3E PUSH2 0xAD6 JUMP JUMPDEST JUMPDEST PUSH2 0xE4B DUP6 DUP3 DUP7 ADD PUSH2 0xDCE JUMP JUMPDEST SWAP2 POP POP SWAP3 POP SWAP3 SWAP1 POP JUMP JUMPDEST PUSH32 0x5472616E73616374696F6E20616D6F756E74206D757374206265206772656174 PUSH0 DUP3 ADD MSTORE PUSH32 0x6572207468616E20300000000000000000000000000000000000000000000000 PUSH1 0x20 DUP3 ADD MSTORE POP JUMP JUMPDEST PUSH0 PUSH2 0xEAF PUSH1 0x29 DUP4 PUSH2 0xC11 JUMP JUMPDEST SWAP2 POP PUSH2 0xEBA DUP3 PUSH2 0xE55 JUMP JUMPDEST PUSH1 0x40 DUP3 ADD SWAP1 POP SWAP2 SWAP1 POP JUMP JUMPDEST PUSH0 PUSH1 0x20 DUP3 ADD SWAP1 POP DUP2 DUP2 SUB PUSH0 DUP4 ADD MSTORE PUSH2 0xEDC DUP2 PUSH2 0xEA3 JUMP JUMPDEST SWAP1 POP SWAP2 SWAP1 POP JUMP JUMPDEST PUSH32 0x4E487B7100000000000000000000000000000000000000000000000000000000 PUSH0 MSTORE PUSH1 0x11 PUSH1 0x4 MSTORE PUSH1 0x24 PUSH0 REVERT JUMPDEST PUSH0 PUSH2 0xF1A DUP3 PUSH2 0xB34 JUMP JUMPDEST SWAP2 POP PUSH32 0xFFFFFFFFFFFFFFFFFFFFFFFFFFFFFFFFFFFFFFFFFFFFFFFFFFFFFFFFFFFFFFFF DUP3 SUB PUSH2 0xF4C JUMPI PUSH2 0xF4B PUSH2 0xEE3 JUMP JUMPDEST JUMPDEST PUSH1 0x1 DUP3 ADD SWAP1 POP SWAP2 SWAP1 POP JUMP JUMPDEST PUSH32 0x4E487B7100000000000000000000000000000000000000000000000000000000 PUSH0 MSTORE PUSH1 0x22 PUSH1 0x4 MSTORE PUSH1 0x24 PUSH0 REVERT JUMPDEST PUSH0 PUSH1 0x2 DUP3 DIV SWAP1 POP PUSH1 0x1 DUP3 AND DUP1 PUSH2 0xF9B JUMPI PUSH1 0x7F DUP3 AND SWAP2 POP JUMPDEST PUSH1 0x20 DUP3 LT DUP2 SUB PUSH2 0xFAE JUMPI PUSH2 0xFAD PUSH2 0xF57 JUMP JUMPDEST JUMPDEST POP SWAP2 SWAP1 POP JUMP JUMPDEST PUSH0 DUP2 SWAP1 POP DUP2 PUSH0 MSTORE PUSH1 0x20 PUSH0 KECCAK256 SWAP1 POP SWAP2 SWAP1 POP JUMP JUMPDEST PUSH0 PUSH1 0x20 PUSH1 0x1F DUP4 ADD DIV SWAP1 POP SWAP2 SWAP1 POP JUMP JUMPDEST PUSH0 DUP3 DUP3 SHL SWAP1 POP SWAP3 SWAP2 POP POP JUMP JUMPDEST PUSH0 PUSH1 0x8 DUP4 MUL PUSH2 0x1010 PUSH32 0xFFFFFFFFFFFFFFFFFFFFFFFFFFFFFFFFFFFFFFFFFFFFFFFFFFFFFFFFFFFFFFFF DUP3 PUSH2 0xFD5 JUMP JUMPDEST PUSH2 0x101A DUP7 DUP4 PUSH2 0xFD5 JUMP JUMPDEST SWAP6 POP DUP1 NOT DUP5 AND SWAP4 POP DUP1 DUP7 AND DUP5 OR SWAP3 POP POP POP SWAP4 SWAP3 POP POP POP JUMP JUMPDEST PUSH0 DUP2 SWAP1 POP SWAP2 SWAP1 POP JUMP JUMPDEST PUSH0 PUSH2 0x1055 PUSH2 0x1050 PUSH2 0x104B DUP5 PUSH2 0xB34 JUMP JUMPDEST PUSH2 0x1032 JUMP JUMPDEST PUSH2 0xB34 JUMP JUMPDEST SWAP1 POP SWAP2 SWAP1 POP JUMP JUMPDEST PUSH0 DUP2 SWAP1 POP SWAP2 SWAP1 POP JUMP JUMPDEST PUSH2 0x106E DUP4 PUSH2 0x103B JUMP JUMPDEST PUSH2 0x1082 PUSH2 0x107A DUP3 PUSH2 0x105C JUMP JUMPDEST DUP5 DUP5 SLOAD PUSH2 0xFE1 JUMP JUMPDEST DUP3 SSTORE POP POP POP POP JUMP JUMPDEST PUSH0 SWAP1 JUMP JUMPDEST PUSH2 0x1096 PUSH2 0x108A JUMP JUMPDEST PUSH2 0x10A1 DUP2 DUP5 DUP5 PUSH2 0x1065 JUMP JUMPDEST POP POP POP JUMP JUMPDEST JUMPDEST DUP2 DUP2 LT ISZERO PUSH2 0x10C4 JUMPI PUSH2 0x10B9 PUSH0 DUP3 PUSH2 0x108E JUMP JUMPDEST PUSH1 0x1 DUP2 ADD SWAP1 POP PUSH2 0x10A7 JUMP JUMPDEST POP POP JUMP JUMPDEST PUSH1 0x1F DUP3 GT ISZERO PUSH2 0x1109 JUMPI PUSH2 0x10DA DUP2 PUSH2 0xFB4 JUMP JUMPDEST PUSH2 0x10E3 DUP5 PUSH2 0xFC6 JUMP JUMPDEST DUP2 ADD PUSH1 0x20 DUP6 LT ISZERO PUSH2 0x10F2 JUMPI DUP2 SWAP1 POP JUMPDEST PUSH2 0x1106 PUSH2 0x10FE DUP6 PUSH2 0xFC6 JUMP JUMPDEST DUP4 ADD DUP3 PUSH2 0x10A6 JUMP JUMPDEST POP POP JUMPDEST POP POP POP JUMP JUMPDEST PUSH0 DUP3 DUP3 SHR SWAP1 POP SWAP3 SWAP2 POP POP JUMP JUMPDEST PUSH0 PUSH2 0x1129 PUSH0 NOT DUP5 PUSH1 0x8 MUL PUSH2 0x110E JUMP JUMPDEST NOT DUP1 DUP4 AND SWAP2 POP POP SWAP3 SWAP2 POP POP JUMP JUMPDEST PUSH0 PUSH2 0x1141 DUP4 DUP4 PUSH2 0x111A JUMP JUMPDEST SWAP2 POP DUP3 PUSH1 0x2 MUL DUP3 OR SWAP1 POP SWAP3 SWAP2 POP POP JUMP JUMPDEST PUSH2 0x115A DUP3 PUSH2 0xC07 JUMP JUMPDEST PUSH8 0xFFFFFFFFFFFFFFFF DUP2 GT ISZERO PUSH2 0x1173 JUMPI PUSH2 0x1172 PUSH2 0xCD7 JUMP JUMPDEST JUMPDEST PUSH2 0x117D DUP3 SLOAD PUSH2 0xF84 JUMP JUMPDEST PUSH2 0x1188 DUP3 DUP3 DUP6 PUSH2 0x10C8 JUMP JUMPDEST PUSH0 PUSH1 0x20 SWAP1 POP PUSH1 0x1F DUP4 GT PUSH1 0x1 DUP2 EQ PUSH2 0x11B9 JUMPI PUSH0 DUP5 ISZERO PUSH2 0x11A7 JUMPI DUP3 DUP8 ADD MLOAD SWAP1 POP JUMPDEST PUSH2 0x11B1 DUP6 DUP3 PUSH2 0x1136 JUMP JUMPDEST DUP7 SSTORE POP PUSH2 0x1218 JUMP JUMPDEST PUSH1 0x1F NOT DUP5 AND PUSH2 0x11C7 DUP7 PUSH2 0xFB4 JUMP JUMPDEST PUSH0 JUMPDEST DUP3 DUP2 LT ISZERO PUSH2 0x11EE JUMPI DUP5 DUP10 ADD MLOAD DUP3 SSTORE PUSH1 0x1 DUP3 ADD SWAP2 POP PUSH1 0x20 DUP6 ADD SWAP5 POP PUSH1 0x20 DUP2 ADD SWAP1 POP PUSH2 0x11C9 JUMP JUMPDEST DUP7 DUP4 LT ISZERO PUSH2 0x120B JUMPI DUP5 DUP10 ADD MLOAD PUSH2 0x1207 PUSH1 0x1F DUP10 AND DUP3 PUSH2 0x111A JUMP JUMPDEST DUP4 SSTORE POP JUMPDEST PUSH1 0x1 PUSH1 0x2 DUP9 MUL ADD DUP9 SSTORE POP POP POP JUMPDEST POP POP POP POP POP POP JUMP JUMPDEST PUSH0 PUSH1 0x60 DUP3 ADD SWAP1 POP PUSH2 0x1233 PUSH0 DUP4 ADD DUP7 PUSH2 0xBF8 JUMP JUMPDEST PUSH2 0x1240 PUSH1 0x20 DUP4 ADD DUP6 PUSH2 0xBF8 JUMP JUMPDEST PUSH2 0x124D PUSH1 0x40 DUP4 ADD DUP5 PUSH2 0xBA5 JUMP JUMPDEST SWAP5 SWAP4 POP POP POP POP JUMP JUMPDEST PUSH32 0x496E76616C6964207472616E73616374696F6E20494400000000000000000000 PUSH0 DUP3 ADD MSTORE POP JUMP JUMPDEST PUSH0 PUSH2 0x1289 PUSH1 0x16 DUP4 PUSH2 0xC11 JUMP JUMPDEST SWAP2 POP PUSH2 0x1294 DUP3 PUSH2 0x1255 JUMP JUMPDEST PUSH1 0x20 DUP3 ADD SWAP1 POP SWAP2 SWAP1 POP JUMP JUMPDEST PUSH0 PUSH1 0x20 DUP3 ADD SWAP1 POP DUP2 DUP2 SUB PUSH0 DUP4 ADD MSTORE PUSH2 0x12B6 DUP2 PUSH2 0x127D JUMP JUMPDEST SWAP1 POP SWAP2 SWAP1 POP JUMP JUMPDEST PUSH32 0x4F6E6C792062757965722063616E2072656C656173652066756E647300000000 PUSH0 DUP3 ADD MSTORE POP JUMP JUMPDEST PUSH0 PUSH2 0x12F1 PUSH1 0x1C DUP4 PUSH2 0xC11 JUMP JUMPDEST SWAP2 POP PUSH2 0x12FC DUP3 PUSH2 0x12BD JUMP JUMPDEST PUSH1 0x20 DUP3 ADD SWAP1 POP SWAP2 SWAP1 POP JUMP JUMPDEST PUSH0 PUSH1 0x20 DUP3 ADD SWAP1 POP DUP2 DUP2 SUB PUSH0 DUP4 ADD MSTORE PUSH2 0x131E DUP2 PUSH2 0x12E5 JUMP JUMPDEST SWAP1 POP SWAP2 SWAP1 POP JUMP JUMPDEST PUSH0 DUP2 SWAP1 POP SWAP3 SWAP2 POP POP JUMP JUMPDEST PUSH32 0x50656E64696E6700000000000000000000000000000000000000000000000000 PUSH0 DUP3 ADD MSTORE POP JUMP JUMPDEST PUSH0 PUSH2 0x1363 PUSH1 0x7 DUP4 PUSH2 0x1325 JUMP JUMPDEST SWAP2 POP PUSH2 0x136E DUP3 PUSH2 0x132F JUMP JUMPDEST PUSH1 0x7 DUP3 ADD SWAP1 POP SWAP2 SWAP1 POP JUMP JUMPDEST PUSH0 PUSH2 0x1383 DUP3 PUSH2 0x1357 JUMP JUMPDEST SWAP2 POP DUP2 SWAP1 POP SWAP2 SWAP1 POP JUMP JUMPDEST PUSH0 DUP2 SLOAD PUSH2 0x1399 DUP2 PUSH2 0xF84 JUMP JUMPDEST PUSH2 0x13A3 DUP2 DUP7 PUSH2 0x1325 JUMP JUMPDEST SWAP5 POP PUSH1 0x1 DUP3 AND PUSH0 DUP2 EQ PUSH2 0x13BD JUMPI PUSH1 0x1 DUP2 EQ PUSH2 0x13D2 JUMPI PUSH2 0x1404 JUMP JUMPDEST PUSH1 0xFF NOT DUP4 AND DUP7 MSTORE DUP2 ISZERO ISZERO DUP3 MUL DUP7 ADD SWAP4 POP PUSH2 0x1404 JUMP JUMPDEST PUSH2 0x13DB DUP6 PUSH2 0xFB4 JUMP JUMPDEST PUSH0 JUMPDEST DUP4 DUP2 LT ISZERO PUSH2 0x13FC JUMPI DUP2 SLOAD DUP2 DUP10 ADD MSTORE PUSH1 0x1 DUP3 ADD SWAP2 POP PUSH1 0x20 DUP2 ADD SWAP1 POP PUSH2 0x13DD JUMP JUMPDEST DUP4 DUP9 ADD SWAP6 POP POP POP JUMPDEST POP POP POP SWAP3 SWAP2 POP POP JUMP JUMPDEST PUSH0 PUSH2 0x1418 DUP3 DUP5 PUSH2 0x138D JUMP JUMPDEST SWAP2 POP DUP2 SWAP1 POP SWAP3 SWAP2 POP POP JUMP JUMPDEST PUSH32 0x5472616E73616374696F6E206D75737420626520696E2050656E64696E672073 PUSH0 DUP3 ADD MSTORE PUSH32 0x7461747573000000000000000000000000000000000000000000000000000000 PUSH1 0x20 DUP3 ADD MSTORE POP JUMP JUMPDEST PUSH0 PUSH2 0x147D PUSH1 0x25 DUP4 PUSH2 0xC11 JUMP JUMPDEST SWAP2 POP PUSH2 0x1488 DUP3 PUSH2 0x1423 JUMP JUMPDEST PUSH1 0x40 DUP3 ADD SWAP1 POP SWAP2 SWAP1 POP JUMP JUMPDEST PUSH0 PUSH1 0x20 DUP3 ADD SWAP1 POP DUP2 DUP2 SUB PUSH0 DUP4 ADD MSTORE PUSH2 0x14AA DUP2 PUSH2 0x1471 JUMP JUMPDEST SWAP1 POP SWAP2 SWAP1 POP JUMP JUMPDEST PUSH0 PUSH1 0x40 DUP3 ADD SWAP1 POP PUSH2 0x14C4 PUSH0 DUP4 ADD DUP6 PUSH2 0xBF8 JUMP JUMPDEST PUSH2 0x14D1 PUSH1 0x20 DUP4 ADD DUP5 PUSH2 0xBA5 JUMP JUMPDEST SWAP4 SWAP3 POP POP POP JUMP JUMPDEST PUSH32 0x4F6E6C79206275796572206F722073656C6C65722063616E2075706461746520 PUSH0 DUP3 ADD MSTORE PUSH32 0x7468652073746174757300000000000000000000000000000000000000000000 PUSH1 0x20 DUP3 ADD MSTORE POP JUMP JUMPDEST PUSH0 PUSH2 0x1532 PUSH1 0x2A DUP4 PUSH2 0xC11 JUMP JUMPDEST SWAP2 POP PUSH2 0x153D DUP3 PUSH2 0x14D8 JUMP JUMPDEST PUSH1 0x40 DUP3 ADD SWAP1 POP SWAP2 SWAP1 POP JUMP JUMPDEST PUSH0 PUSH1 0x20 DUP3 ADD SWAP1 POP DUP2 DUP2 SUB PUSH0 DUP4 ADD MSTORE PUSH2 0x155F DUP2 PUSH2 0x1526 JUMP JUMPDEST SWAP1 POP SWAP2 SWAP1 POP JUMP JUMPDEST PUSH0 PUSH1 0x20 DUP3 ADD SWAP1 POP DUP2 DUP2 SUB PUSH0 DUP4 ADD MSTORE PUSH2 0x157E DUP2 DUP5 PUSH2 0xC3F JUMP JUMPDEST SWAP1 POP SWAP3 SWAP2 POP POP JUMP INVALID LOG2 PUSH5 0x6970667358 0x22 SLT KECCAK256 DUP3 SWAP2 0xB3 0xBF BYTE GT 0xC5 0xD7 SWAP13 0xDA 0x4B 0x2E SWAP3 0x4C 0xE8 0xC8 TIMESTAMP SWAP14 SGT SWAP12 SWAP13 INVALID 0xB4 SWAP13 SWAP9 0xD2 DUP15 0xD3 SWAP6 JUMP DUP8 LOG1 PUSH5 0x736F6C6343 STOP ADDMOD BYTE STOP CALLER "
				},
				"gasEstimates": {
					"creation": {
						"codeDepositCost": "1112800",
						"executionCost": "1152",
						"totalCost": "1113952"
					},
					"external": {
						"createTransaction(address,uint256)": "infinite",
						"getTransaction(uint256)": "infinite",
						"releaseFunds(uint256)": "infinite",
						"transactionCount()": "2513",
						"transactions(uint256)": "infinite",
						"updateTransactionStatus(uint256,string)": "infinite"
					}
				},
				"methodIdentifiers": {
					"createTransaction(address,uint256)": "1e7f8f0f",
					"getTransaction(uint256)": "33ea3dc8",
					"releaseFunds(uint256)": "4d68282f",
					"transactionCount()": "b77bf600",
					"transactions(uint256)": "9ace38c2",
					"updateTransactionStatus(uint256,string)": "b39f3e0b"
				}
			},
			"storageLayout": {
				"storage": [
					{
						"astId": 18,
						"contract": "contracts/TransactionManagement.sol:TransactionManagement",
						"label": "transactions",
						"offset": 0,
						"slot": "0",
						"type": "t_mapping(t_uint256,t_struct(Transaction)13_storage)"
					},
					{
						"astId": 20,
						"contract": "contracts/TransactionManagement.sol:TransactionManagement",
						"label": "transactionCount",
						"offset": 0,
						"slot": "1",
						"type": "t_uint256"
					}
				],
				"types": {
					"t_address": {
						"encoding": "inplace",
						"label": "address",
						"numberOfBytes": "20"
					},
					"t_mapping(t_uint256,t_struct(Transaction)13_storage)": {
						"encoding": "mapping",
						"key": "t_uint256",
						"label": "mapping(uint256 => struct TransactionManagement.Transaction)",
						"numberOfBytes": "32",
						"value": "t_struct(Transaction)13_storage"
					},
					"t_string_storage": {
						"encoding": "bytes",
						"label": "string",
						"numberOfBytes": "32"
					},
					"t_struct(Transaction)13_storage": {
						"encoding": "inplace",
						"label": "struct TransactionManagement.Transaction",
						"members": [
							{
								"astId": 4,
								"contract": "contracts/TransactionManagement.sol:TransactionManagement",
								"label": "buyer",
								"offset": 0,
								"slot": "0",
								"type": "t_address"
							},
							{
								"astId": 6,
								"contract": "contracts/TransactionManagement.sol:TransactionManagement",
								"label": "seller",
								"offset": 0,
								"slot": "1",
								"type": "t_address"
							},
							{
								"astId": 8,
								"contract": "contracts/TransactionManagement.sol:TransactionManagement",
								"label": "amount",
								"offset": 0,
								"slot": "2",
								"type": "t_uint256"
							},
							{
								"astId": 10,
								"contract": "contracts/TransactionManagement.sol:TransactionManagement",
								"label": "status",
								"offset": 0,
								"slot": "3",
								"type": "t_string_storage"
							},
							{
								"astId": 12,
								"contract": "contracts/TransactionManagement.sol:TransactionManagement",
								"label": "productId",
								"offset": 0,
								"slot": "4",
								"type": "t_uint256"
							}
						],
						"numberOfBytes": "160"
					},
					"t_uint256": {
						"encoding": "inplace",
						"label": "uint256",
						"numberOfBytes": "32"
					}
				}
			},
			"userdoc": {
				"kind": "user",
				"methods": {
					"createTransaction(address,uint256)": {
						"notice": "Create a new transaction"
					},
					"getTransaction(uint256)": {
						"notice": "Get transaction details"
					},
					"releaseFunds(uint256)": {
						"notice": "Release funds to the seller"
					},
					"updateTransactionStatus(uint256,string)": {
						"notice": "Update the status of a transaction"
					}
				},
				"notice": "This contract manages transactions between farmers and consumers",
				"version": 1
			}
		}
	}
}